:100000000C9458000C9480000C9480000C94F8031D
:100010000C94CB030C949E030C9480000C948000F1
:100020000C9480000C9480000C9480000C94800050
:100030000C9480000C9480000C9480000C94800040
:100040000C94FC020C9480000C946C030C944603FA
:100050000C9480000C9480000C9480000C94800020
:100060000C9480000C948000000000002500280003
:100070002B0000000000240027002A0001020408D1
:100080001020408001020408102001020408102002
:10009000040404040404040402020202020203032E
:1000A00003030303000000002300260029002504A9
:1000B00011241FBECFEFD8E0DEBFCDBF11E0A0E01E
:1000C000B1E0E2E0FDE002C005900D92A836B10774
:1000D000D9F722E0A8E6B1E001C01D92A533B2072E
:1000E000E1F710E0C8E5D0E004C02197FE010E94CE
:1000F0004705C735D107C9F70E9488040C947F06CD
:100100000C940000CF93DF9390E0FC01E458FF4F84
:100110002491FC01E057FF4F84918823C1F090E0C7
:10012000880F991FFC01EE58FF4FC591D491FC0137
:10013000E859FF4FA591B4919FB7F8943881822F69
:10014000809583238883EC91E22BEC939FBFDF9112
:10015000CF910895CF92DF92EF92FF920F931F936A
:10016000CF93DF936C017A018B01C0E0D0E0CE1514
:10017000DF0589F0D8016D918D01D601ED91FC91DB
:100180000190F081E02DC6010995892B11F47E01C3
:1001900002C02196ECCFC701DF91CF911F910F9143
:1001A000FF90EF90DF90CF90089581E090E09093E2
:1001B0006C0180936B01089582E090E090936C0154
:1001C00080936B01089583E090E090936C0180939D
:1001D0006B01089584E090E090936C0180936B0133
:1001E0000895089580E090E00895FC01538D448DBA
:1001F000252F30E0842F90E0821B930B541710F0D2
:10020000CF96089501970895FC01918D828D9817DE
:1002100061F0828DDF01A80FB11D5D968C91928DEA
:100220009F5F9F73928F90E008958FEF9FEF0895E7
:10023000FC01918D828D981731F0828DE80FF11DB0
:10024000858D90E008958FEF9FEF0895FC01918DCB
:10025000228D892F90E0805C9F4F821B91098F73C4
:100260009927089586E791E00E94260121E0892BD5
:1002700009F420E0822F0895FC01848DDF01A80F8E
:10028000B11DA35ABF4F2C91848D90E001968F73BE
:100290009927848FA689B7892C93A089B1898C91DD
:1002A00080648C93938D848D981306C00288F389A3
:1002B000E02D80818F7D80830895EF92FF920F93D0
:1002C0001F93CF93DF93EC0181E0888F9B8D8C8D02
:1002D000981305C0E889F989808185FD24C0F62E30
:1002E0000B8D10E00F5F1F4F0F731127E02E8C8DC9
:1002F000E8120CC00FB607FCFACFE889F9898081B3
:1003000085FFF5CFCE010E943C01F1CF8B8DFE0120
:10031000E80FF11DE35AFF4FF0820B8FEA89FB894A
:100320008081806207C0EE89FF896083E889F9894E
:1003300080818064808381E090E0DF91CF911F9184
:100340000F91FF90EF900895CF93DF93EC01888D8C
:100350008823C9F0EA89FB89808185FD05C0A889C9
:10036000B9898C9186FD0FC00FB607FCF5CF80814F
:1003700085FFF2CFA889B9898C9185FFEDCFCE0199
:100380000E943C01E7CFDF91CF91089580E090E09B
:10039000892B29F00E94320181110C9400000895EC
:1003A000FF920F931F93CF93DF93EC0180916A012B
:1003B000FF802D8190916A014E8130916A013095C4
:1003C00034232923932F922B8F25F92EF822809105
:1003D0006A018F830885198501151105E1F0D8019F
:1003E00013968C919F2D982381F090916A01892317
:1003F00091E009F490E090936901F8018481809381
:1004000068010190F081E02D0995D80115960D91B4
:100410001C911697E1CF9BB38C81982349F09BB335
:10042000892B8BBBE881F981808180936A01BECFE3
:10043000DF91CF911F910F91FF900895CF93DF939C
:10044000DC01FB012283518340831296CD91DC9124
:10045000139798818381892B888382818D7F813056
:1004600041F415969C9115978381892B15968C9351
:10047000159782818150823040F416969C91169790
:100480008381892B16968C93169790916800149609
:100490008C91892B80936800DF91CF910895CF9341
:1004A000DF93009779F0FC0101900020E9F7319784
:1004B000AF01481B590BBC0186E791E00E94AA00DE
:1004C000EC0102C0C0E0D0E042E050E06EE171E03B
:1004D00086E791E00E94AA008C0F9D1FDF91CF91CB
:1004E0000895AF92BF92DF92EF92FF920F931F9306
:1004F000CF93DF9300D0CDB7DEB7082F10E0F8011F
:10050000E057FF4F2491211102C08FEF67C06115A2
:100510007105D9F330E0225031092330310540F420
:10052000220F331FD901AA5FBE4FED90FC9002C08D
:10053000E12CF12CAB01D82ED701ED91FC91119754
:10054000808117968C93179718968D919C91199787
:10055000009779F05C01FC0184818D1107C022E0D5
:10056000B501C7010E941E0280E038C085819681D6
:10057000EFCF87E090E049835A830E944D05DC016C
:1005800011961C921E9212961C92129749815A81C2
:10059000892B09F4BACF1496DC92149782E0129654
:1005A0008C93129716961C921E921597F801E45898
:1005B000FF4FE4911396EC931397F7018085918593
:1005C000892B19F4B187A08703C0F501B683A583F1
:1005D00022E0BD01C7010E941E0281E00F900F9032
:1005E000DF91CF911F910F91FF90EF90DF90BF901F
:1005F000AF9008950E947A061F920F920FB60F9245
:1006000011242F933F938F939F93AF93BF93809128
:10061000720190917301A0917401B09175013091B4
:10062000710123E0230F2D3720F40196A11DB11D88
:1006300005C026E8230F0296A11DB11D209371016C
:100640008093720190937301A0937401B09375012C
:1006500080916D0190916E01A0916F01B091700138
:100660000196A11DB11D80936D0190936E01A09321
:100670006F01B0937001BF91AF919F918F913F91A6
:100680002F910F900FBE0F901F9018951F920F92F1
:100690000FB60F9211242F933F934F935F936F9355
:1006A0007F938F939F93AF93BF93EF93FF9386E7CF
:1006B00091E00E943C01FF91EF91BF91AF919F911A
:1006C0008F917F916F915F914F913F912F910F90FB
:1006D0000FBE0F901F9018951F920F920FB60F929A
:1006E00011242F938F939F93EF93FF93E0918601B3
:1006F000F09187018081E0918C01F0918D0182FD64
:1007000012C0908180918F018F5F8F732091900133
:10071000821751F0E0918F01F0E0EA58FE4F958F7B
:1007200080938F0101C08081FF91EF919F918F9104
:100730002F910F900FBE0F901F9018951F920F9240
:100740000FB60F9211242F933F934F935F936F93A4
:100750007F938F939F93AF93BF93EF93FF93E0911A
:100760001302F0911402808180936A0183E192E088
:100770000E94D001FF91EF91BF91AF919F918F9116
:100780007F916F915F914F913F912F910F900FBE8D
:100790000F901F9018951F920F920FB60F92112471
:1007A0002F933F934F935F936F937F938F939F9379
:1007B000AF93BF93EF93FF93E0911D02F0911E0260
:1007C000808180936A018DE192E00E94D001FF91C7
:1007D000EF91BF91AF919F918F917F916F915F91B9
:1007E0004F913F912F910F900FBE0F901F90189532
:1007F0001F920F920FB60F9211242F933F934F9396
:100800005F936F937F938F939F93AF93BF93EF9378
:10081000FF93E0912702F0912802808180936A0182
:1008200087E292E00E94D001FF91EF91BF91AF91DA
:100830009F918F917F916F915F914F913F912F91F8
:100840000F900FBE0F901F901895E6E7F1E013820E
:10085000128288EE93E0A0E0B0E084839583A683C3
:10086000B78380E191E09183808385EC90E0958768
:10087000848784EC90E09787868780EC90E0918B6A
:10088000808B81EC90E0938B828B82EC90E0958B57
:10089000848B86EC90E0978B868B118E128E138E54
:1008A000148EE8EAF0E085919491E7E2F2E091831A
:1008B00080838BE690E09383828381E0848315823A
:1008C000168211861086EAEAF0E085919491EDE1B6
:1008D000F2E0918380838CE690E09383828382E0D0
:1008E00084831582168211861086ECEAF0E08591E9
:1008F0009491E3E1F2E0918380838DE690E093832D
:10090000828384E08483158216821186108608957E
:10091000789484B5826084BD84B5816084BD85B5DA
:10092000826085BD85B5816085BD80916E008160E6
:1009300080936E001092810080918100826080938C
:10094000810080918100816080938100809180008E
:100950008160809380008091B10084608093B100B9
:100960008091B00081608093B00080917A008460B3
:1009700080937A0080917A00826080937A008091DF
:100980007A00816080937A0080917A0080688093F9
:100990007A001092C10084E00E94820065ED70E050
:1009A00084E00E94710285E00E9482006CED70E09C
:1009B00085E00E94710286E00E94820063EE70E092
:1009C00086E00E94710287E00E9482006AEE70E079
:1009D00087E00E947102E0918601F091870182E038
:1009E0008083E0918201F09183011082E091840183
:1009F000F09185018FEC808310928E01E0918A0145
:100A0000F0918B0186E08083E0918801F09189016B
:100A1000808180618083E0918801F09189018081EB
:100A200088608083E0918801F091890180818068ED
:100A30008083E0918801F091890180818F7D80839E
:100A400081E291E00E944F0280916B0190916C01D4
:100A50008230910571F02CF40197B1F487E291E0B6
:100A60000DC08330910541F0049771F487E591E062
:100A700005C087E391E002C087E491E00E944F0245
:100A800010926C0110926B010E94C601DDCFEE0F37
:100A9000FF1F0590F491E02D0994CF93DF938230EE
:100AA000910510F482E090E0E0913302F09134027D
:100AB00020E030E0C0E0D0E0309711F1408151817A
:100AC00048175907C0F04817590761F4828193818C
:100AD000209719F09B838A832BC0909334028093D4
:100AE000330226C02115310519F04217530718F4B7
:100AF0009A01BE01DF01EF010280F381E02DDCCF1E
:100B00002115310509F1281B390B2430310590F4EA
:100B100012968D919C9113976115710521F0FB013F
:100B20009383828304C09093340280933302FD0147
:100B3000329644C0FD01E20FF31F8193919322503E
:100B400031092D933C933AC0209131023091320209
:100B5000232B41F4209102013091030130933202A2
:100B600020933102209100013091010121153105BE
:100B700041F42DB73EB74091040150910501241B6B
:100B8000350BE0913102F0913202E217F307A0F445
:100B90002E1B3F0B2817390778F0AC014E5F5F4FD3
:100BA0002417350748F04E0F5F1F509332024093D1
:100BB00031028193919302C0E0E0F0E0CF01DF9138
:100BC000CF9108950F931F93CF93DF93009709F46C
:100BD0008CC0FC0132971382128200913302109173
:100BE00034020115110581F420813181820F931F98
:100BF00020913102309132022817390779F5F093AC
:100C00003202E093310271C0D80140E050E0AE17EB
:100C1000BF0750F412962D913C911397AD01211509
:100C2000310509F1D901F3CF9D01DA013383228324
:100C300060817181860F971F8217930769F4EC0119
:100C400028813981260F371F2E5F3F4F3183208344
:100C50008A819B8193838283452B29F4F09334020C
:100C6000E093330242C01396FC93EE931297ED018A
:100C7000499159919E01240F351FE217F30771F432
:100C800080819181840F951F029611969C938E937B
:100C90008281938113969C938E931297E0E0F0E00B
:100CA000D80112968D919C911397009719F0F80135
:100CB0008C01F6CF8D919C9198012E5F3F4F820F52
:100CC000931F20913102309132022817390769F4BD
:100CD000309729F4109234021092330202C013822A
:100CE00012821093320200933102DF91CF911F9153
:100CF0000F91089581E090E0F8940C947F06F894A9
:020D0000FFCF23
:100D020000003502800027021D02130200000000CD
:100D12005D01AA00F500A4012601040118010D0AD3
:100D220000526561647900494E5420312054726941
:100D320067676572656400494E54203220547269B7
:100D420067676572656400494E54203320547269A6
:100D520067676572656400494E5420342054726995
:080D620067676572656400001B
:00000001FF
