:100000000C9462000C948A000C948A000C948A0070
:100010000C948A000C948A000C948A000C9471024F
:100020000C948A000C948A000C948A000C94B00101
:100030000C948A000C948A000C948A000C948A0018
:100040000C946D050C948A000C947E010C9458015C
:100050000C948A000C948A000C948A000C948A00F8
:100060000C948A000C948A000000000023002600F3
:10007000290000000000240027002A0000000000E2
:10008000250028002B0004040404040404040202D4
:100090000202020203030303030301020408102007
:1000A0004080010204081020010204081020000012
:1000B0000008000201000003040700000000000027
:1000C0000000960E11241FBECFEFD8E0DEBFCDBFDB
:1000D00011E0A0E0B1E0EAEDF3E202C005900D927C
:1000E000A234B107D9F722E0A2E4B1E001C01D9229
:1000F000A83FB207E1F710E0C2E6D0E004C02197C4
:10010000FE010E94E011C136D107C9F70E94B70570
:100110000C94EB110C940000FC01918D828D9817CA
:1001200061F0828DDF01A80FB11D5D968C91928DDB
:100130009F5F9F73928F90E008958FEF9FEF0895D8
:10014000FC01918D828D981731F0828DE80FF11DA1
:10015000858D90E008958FEF9FEF0895FC01918DBC
:10016000228D892F90E0805C9F4F821B91098F73B5
:100170009927089587E591E00E94AE0021E0892B40
:1001800009F420E0822F0895FC01848DDF01A80F7F
:10019000B11DA35ABF4F2C91848D90E001968F73AF
:1001A0009927848FA689B7892C93A089B1898C91CE
:1001B00080648C93938D848D981306C00288F38994
:1001C000E02D80818F7D80830895EF92FF920F93C1
:1001D0001F93CF93DF93EC0181E0888F9B8D8C8DF3
:1001E000981305C0E889F989808185FD24C0F62E21
:1001F0000B8D10E00F5F1F4F0F731127E02E8C8DBA
:10020000E8120CC00FB607FCFACFE889F9898081A3
:1002100085FFF5CFCE010E94C400F1CF8B8DFE018A
:10022000E80FF11DE35AFF4FF0820B8FEA89FB893B
:100230008081806207C0EE89FF896083E889F9893F
:1002400080818064808381E090E0DF91CF911F9175
:100250000F91FF90EF900895CF93DF93EC01888D7D
:100260008823C9F0EA89FB89808185FD05C0A889BA
:10027000B9898C9186FD0FC00FB607FCF5CF808140
:1002800085FFF2CFA889B9898C9185FFEDCFCE018A
:100290000E94C400E7CFDF91CF91089580E090E005
:1002A000892B29F00E94BA0081110C940000089556
:1002B0001F920F920FB60F9211242F933F934F93DB
:1002C0005F936F937F938F939F93AF93BF93EF93BE
:1002D000FF9387E591E00E94C400FF91EF91BF91E9
:1002E000AF919F918F917F916F915F914F913F91CE
:1002F0002F910F900FBE0F901F9018951F920F9285
:100300000FB60F9211242F938F939F93EF93FF9328
:10031000E0916701F09168018081E0916D01F091B9
:100320006E0182FD12C09081809170018F5F8F738A
:1003300020917101821751F0E0917001F0E0E95ACB
:10034000FE4F958F8093700101C08081FF91EF91E6
:100350009F918F912F910F900FBE0F901F90189526
:100360001F920F920FB60F9211242F933F934F932A
:100370005F936F937F938F939F93AF93BF93EF930D
:10038000FF938091460187FF05C01092850010926F
:1003900084001BC020914601022E000C330B80917B
:1003A000180290E02817390784F480914601082E3E
:1003B000000C990BFC01EE0FFF1F8E0F9F1FFC011D
:1003C000EC50FE4F808186FD15C0809146018F5F05
:1003D0008093460120914601022E000C330B809140
:1003E000180290E028173907C4F4809146018C3038
:1003F00064F113C080914601082E000C990BFC019A
:10040000EE0FFF1F8E0F9F1FFC01EC50FE4F8081EF
:1004100060E08F730E948904D8CF8091840090910E
:100420008500049680349C4918F480E49CE905C05A
:100430008091840090918500049690938900809328
:1004400088008FEF809346013BC02091840030915B
:10045000850080914601082E000C990BFC01EE0FDF
:10046000FF1F8E0F9F1FFC01EC50FE4F8181928178
:10047000820F931F9093890080938800809146019A
:10048000082E000C990BFC01EE0FFF1F8E0F9F1F13
:10049000FC01EC50FE4F808186FF12C08091460126
:1004A000082E000C990BFC01EE0FFF1F8E0F9F1FF3
:1004B000FC01EC50FE4F808161E08F730E94890443
:1004C000FF91EF91BF91AF919F918F917F916F912C
:1004D0005F914F913F912F910F900FBE0F901F9002
:1004E00018951F920F920FB60F9211242F933F93DE
:1004F0004F935F936F937F938F939F93AF93BF932C
:10050000CF93DF93EF93FF9320911A0230E0F9012C
:10051000E255FF4F8491F901E656FF4FD491F9015E
:10052000EA57FF4FC491CC2379F081110E946004F7
:10053000EC2FF0E0EE0FFF1FE859FF4FA591B491AB
:10054000EC91ED2381E009F480E020911E023091CE
:100550001F022F5F3F4F30931F0220931E02909186
:100560001D02953618F096E09093190290911902A9
:100570009430C9F128F4923069F09330D1F05EC024
:10058000953009F451C0963009F058C091E090932D
:10059000EA0251C0811152C020911E0230911F0207
:1005A0002436310508F442C01092EA0210921D026E
:1005B0001CC0813009F042C0E0911D0291E09E0F05
:1005C00090931D02F0E020911E0230911F02EE0F69
:1005D000FF1FE75EFD4F3087278310921F021092A6
:1005E0001E0294E029C0811117C0E0911D0291E024
:1005F0009E0F90931D02F0E020911E0230911F0289
:10060000EE0FFF1FE75EFD4F3087278310921F021A
:1006100010921E0293E010C020911E0230911F0222
:100620002536310558F007C0811108C010921F020D
:1006300010921E0203C095E09093190290911C0243
:100640009923B9F081110AC080911B02882321F0FF
:1006500080911B0261E009C02D9A0BC080911B02A2
:10066000882331F080911B0260E00E94890401C060
:100670002D98FF91EF91DF91CF91BF91AF919F9115
:100680008F917F916F915F914F913F912F910F903B
:100690000FBE0F901F901895CF92DF92EF92FF92AE
:1006A000CF93DF93EC01072E000C880B990B0E946F
:1006B00070106B017C0120E030E040E45FE30E94B9
:1006C000201120E030E048E452E40E94C60F0E946E
:1006D0003810C617D707D4F020E030E040EA5FE3D7
:1006E000C701B6010E94201120E030E048E452E446
:1006F0000E94C60F20E030E040E85FE30E94550F03
:100700000E94381021E06C177D070CF420E0822F46
:1007100090E0DF91CF91FF90EF90DF90CF90089520
:1007200060E085E00E94890460E086E00E94890420
:100730008BE391E00C945204CF92DF92EF92FF9200
:100740000F931F93CF93DF936C017A018B01C0E06D
:10075000D0E0CE15DF0581F0D8016D918D01D60175
:10076000ED91FC910190F081E02DC6010995892B56
:1007700011F02196EECF7E01C701DF91CF911F913D
:100780000F91FF90EF90DF90CF9008950E94E611B7
:10079000009769F0FC0101900020E9F73197AF0163
:1007A000481B590BBC0187E591E00C949C0380E049
:1007B00090E008958F929F92AF92BF92CF92DF9276
:1007C000EF92FF920F931F93CF93DF93FC01208151
:1007D0003181E0915301F09154012E173F070CF045
:1007E0004FC0F901EE0FFF1FA0915101B0915201CE
:1007F000EA0FFB1FA080B180217033276901F1E06F
:10080000CF26232B19F42CE93FEF02C024E630E079
:100810007A018B01EC014901840E951EB401C501DA
:100820000E944C03892B99F48E0C9F1CB401C501C6
:100830000E944C03892B71F4B701680D791DC50125
:100840000E944C03892BF9F023E030E005C021E041
:1008500030E002C022E030E0F80180819181019611
:10086000821793071CF49183808308C0F8011182DA
:10087000108288819981019699838883C60105C079
:1008800081E090E002C08FEF9FEFDF91CF911F9149
:100890000F91FF90EF90DF90CF90BF90AF909F901F
:1008A0008F900895CF93DF930E94C803EC0180E1FD
:1008B00091E00E94C8038C0F9D1FDF91CF91089596
:1008C000833081F028F4813099F08230A1F00895CE
:1008D0008730A9F08830B9F08430D1F4809180005D
:1008E0008F7D03C0809180008F7780938000089572
:1008F00084B58F7702C084B58F7D84BD08958091C3
:10090000B0008F7703C08091B0008F7D8093B000DE
:1009100008951F93CF93DF93282F30E0F901E2551C
:10092000FF4F8491F901E656FF4FD491F901EA5740
:10093000FF4FC491CC23C1F0162F81110E94600497
:10094000EC2FF0E0EE0FFF1FE458FF4FA591B4919C
:100950009FB7F894111104C08C91D095D82302C090
:10096000EC91DE2BDC939FBFDF91CF911F91089517
:10097000CF93DF9390E0FC01E656FF4F2491FC01FA
:10098000EA57FF4F8491882361F190E0880F991F07
:10099000FC01EE58FF4FC591D491FC01E458FF4F84
:1009A000A591B491611109C09FB7F89488812095F1
:1009B00082238883EC912E230BC0623061F49FB7B1
:1009C000F8948881322F309583238883EC912E2BE5
:1009D0002C939FBF06C08FB7F894E8812E2B2883F5
:1009E0008FBFDF91CF910895CF93C82F61E00E9410
:1009F000B804EC2FF0E0E255FF4FE491E33019F139
:100A000050F4E130D1F0E230E1F584B5806284BD8C
:100A100084E688BD3BC0E73011F1E83049F1E430AD
:100A200081F58091800080628093800084E690E070
:100A300090938B0080938A0029C084B5806884BD20
:100A400084E687BD23C08091800080688093800009
:100A500084E690E0909389008093880017C080918D
:100A6000B00080688093B00084E68093B3000EC02D
:100A70008091B00080628093B00084E68093B400DF
:100A800005C060E08C2FCF910C948904CF9108951C
:100A90003FB7F8948091F4029091F502A091F6028C
:100AA000B091F70226B5A89B05C02F3F19F001961B
:100AB000A11DB11D3FBFBA2FA92F982F8827820FE4
:100AC000911DA11DB11DBC01CD0142E0660F771F34
:100AD000881F991F4A95D1F708951F920F920FB65C
:100AE0000F9211242F933F938F939F93AF93BF93B4
:100AF0008091F0029091F102A091F202B091F30284
:100B00003091EF0223E0230F2D3720F40196A11D31
:100B1000B11D05C026E8230F0296A11DB11D20932B
:100B2000EF028093F0029093F102A093F202B0934F
:100B3000F3028091F4029091F502A091F602B09137
:100B4000F7020196A11DB11D8093F4029093F50266
:100B5000A093F602B093F702BF91AF919F918F914E
:100B60003F912F910F900FBE0F901F901895CF932C
:100B7000DF93CDB7DEB7AB970FB6F894DEBF0FBEED
:100B8000CDBF789484B5826084BD84B5816084BD16
:100B900085B5826085BD85B5816085BD80916E001B
:100BA000816080936E00109281008091810082604C
:100BB0008093810080918100816080938100809189
:100BC00080008160809380008091B1008460809378
:100BD000B1008091B00081608093B00080917A0074
:100BE000846080937A0080917A00826080937A009A
:100BF00080917A00816080937A0080917A00806889
:100C000080937A001092C10061E08DE00E94B804E8
:100C1000E0916701F091680182E08083E0916301D7
:100C2000F09164011082E0916501F09166019FEC02
:100C3000908310926F01E0916B01F0916C0196E04E
:100C40009083E0916901F0916A01908190619083B5
:100C5000E0916901F0916A01908198609083E09140
:100C60006901F0916A01908190689083E091690137
:100C7000F0916A0190819F7D9083F8948093B000F9
:100C80008093B10094E69093B3001092B2008093E9
:100C9000700078948093190210921D0280911A02BC
:100CA00060E00E94B8048091EB028C3008F051C0E3
:100CB00061E083E00E94B8048091EB02E82FF0E04D
:100CC0009F01220F331FE20FF31FEC50FE4F908164
:100CD000907C936090831092EC021092ED026CE095
:100CE0000E949D112CE0829FB001112440E050E051
:100CF0009B01240F351FF901EE0FFF1F2E0F3F1F21
:100D0000F901EC50FE4F908196FD16C04F5F5F4F8A
:100D10004C30510569F781110FC01092800082E0BC
:100D2000809381001092850010928400B19A809186
:100D30006F00826080936F00E091EB02F0E0CF01E2
:100D4000880F991FE80FF91FEC50FE4F80818064D7
:100D500080838091ED0228E532E07901E81AF108FC
:100D600087FDF394EE0CFF1CEE0CFF1C8091EC024F
:100D700008E810E0081B110987FD1395000F111FEB
:100D8000000F111F4801012E000CAA08BB08C70163
:100D90000F2C000CAA0BBB0B9C01AD0128193909C3
:100DA0004A095B09AEE6B0E00E94180F24EB30E080
:100DB00040E050E00E94F90E820E931EA41EB51E64
:100DC0008091EB028C30D0F4801691062CF08701D4
:100DD0008E149F040CF4840102501109000F111F9E
:100DE0002FB7F89490E0FC01EE0FFF1F8E0F9F1FAE
:100DF000FC01EC50FE4F128301832FBF10E2212E25
:100E0000312C44244A94542C320180E292E0909395
:100E100052018093510180911D0290E09093540102
:100E2000809353018091EA0290E090935601809361
:100E3000550180911902853009F0CFC680912202B8
:100E400090912302885891098D35910588F48091FD
:100E50001D02843041F480912402909125028097F4
:100E6000479708F4E4C080911D02843408F0C6C09E
:100E700080911D028A3108F418C18091200290915E
:100E80002102843F914068F41092500110924F016A
:100E900040924B0150924C0160924D0170924E0174
:100EA00044C0809122029091230285974B9708F0CD
:100EB000FCC0E6E2F2E082E090E0C12CD12C7601A9
:100EC000AC014F5F5F4F20911D0230E04217530786
:100ED0005CF4DF0112972D913C91275031092730A6
:100EE000310508F47DC1CA010197959587959093C6
:100EF000500180934F010C972CF4109250011092E6
:100F00004F01D3C0C0924B01D0924C01E0924D01F1
:100F1000F0924E0184E090E015C0C0924B01D09257
:100F20004C01E0924D01F0924E018BE090E00AC03E
:100F3000C0924B01D0924C01E0924D01F0924E01D3
:100F40008CE090E0909348018093470120914B0101
:100F500030914C0140914D0150914E01209342013E
:100F600030934301409344015093450119A28E01EF
:100F70000F5D1F4FCA01B9012AE030E040E050E0A8
:100F80000E94230F605DD8016E938D0121153105FC
:100F90004105510579F7CD010E94C80380E191E038
:100FA0000E94C80382E08093190210921D020E94E1
:100FB00048056B017C0106E9802E912CA12CB12CF7
:100FC0000E944805DC01CB018C199D09AE09BF09BF
:100FD000883E9340A105B10598F3B1E08B1A9108C2
:100FE000A108B108E8EECE0EE3E0DE1EE11CF11C24
:100FF00081149104A104B10419F7EFC58091240272
:1010000090912502825491098E9708F031CF80E0AB
:1010100090E040E050E0BA01FC01EA5DFD4F208124
:1010200031812950310929303105E0F021CF8091FB
:101030002602909127020997099708F014CF109281
:10104000500110924F0140924B0150924C0160921E
:101050004D0170924E01A3E0B0E0B0934801A0931F
:10106000470174CFFC01E85DFD4F2081318127519C
:1010700031092231310508F0A6C0440F551F661F03
:10108000771F416004968038910531F63092500107
:1010900020924F0140934B0150934C0160934D01BE
:1010A00070934E01E3E0F0E089C080911D028A3127
:1010B00080F080912002909121028032934008F4C8
:1010C000E3CE8091220290912302C697869708F47E
:1010D000A4C080911D02823230F180912202909151
:1010E000230206970797F8F4E6E2F2E082E090E048
:1010F000C12CD12C76019C012F5F3F4F40911D02E6
:1011000050E0241735070CF4D3C0019795958795C7
:101110009093500180934F0140970CF009CF1092AB
:10112000500110924F011BA21AA221E030E03A8335
:10113000298380911D028D3008F4FCC049E753E0FB
:10114000BE016E5D7F4FCE0101960E94DA03892BAE
:1011500009F0F0C049E753E0BE016E5D7F4FCE015C
:1011600001960E94DA03019709F0E4C049E753E0D1
:10117000BE016E5D7F4FCE0101960E94DA03892B7E
:1011800009F0D8C0812C912C540100E010E080912E
:101190001D0290E029813A81281739070CF4B1C06B
:1011A0001093500100934F0180924B0190924C019B
:1011B000A0924D01B0924E01E1E0F0E0F0934801C1
:1011C000E0934701C3CE2081318126503109273079
:1011D000310508F04DCE440F551F661F771F52CFC3
:1011E00020813181235131092F30310548F4CC0C55
:1011F000DD1CEE1CFF1C6894C0F80296349660CE8D
:10120000208131812A5031092930310508F04DCF34
:10121000CC0CDD1CEE1CFF1CF0CF809124029091C1
:101220002502C697869708F054CFE8E2F2E023E063
:1012300030E0C12CD12C7601C901019640911D02EC
:1012400050E08417950754F4DF0112974D915C919B
:101250004C5051094B30510588F001C0C90101972C
:10126000959587959093500180934F010C970CF0C2
:1012700054CE1092500110924F012BCF808191815A
:1012800085974B9750F4CC0CDD1CEE1CFF1C68942A
:10129000C0F82E5F3F4F3496CFCF808191810C975D
:1012A0000A9708F016CFCC0CDD1CEE1CFF1CF1CF0A
:1012B000DF0112974D915C9111974E5151094731C1
:1012C000510580F4CC0CDD1CEE1CFF1C6894C0F8AA
:1012D000408151813496435051094530510578F091
:1012E000C90113CF4D915C914C5051094B305105C0
:1012F00008F019CFCC0CDD1CEE1CFF1CE9CF0296C8
:10130000FACE49E753E0BE016E5D7F4FCE010196F4
:101310000E94DA037C0149E753E0BE016E5D7F4F16
:10132000CE0101960E94DA03A1E0EA16F10481F0F1
:10133000EF28B9F01BA21AA281E090E09A8389837A
:101340008091530190915401181619069CF06AC0BF
:10135000892B81F7880C991CAA1CBB1C689480F807
:1013600006C0019739F7880C991CAA1CBB1C0F5F9B
:101370001F4F0DCFE0915101F091520182E090E0BA
:101380009A8389838281938189974E9708F04AC016
:1013900083E090E09A838983848195810B970A97F3
:1013A00008F040C04CEB51E0BE016E5D7F4FCE01B6
:1013B00001960E94DA03892BA9F54CEB51E0BE019E
:1013C0006E5D7F4FCE0101960E94DA03019751F5C1
:1013D000812C912C540100E010E0209153013091B8
:1013E000540189819A81821793070CF026C14CEB36
:1013F00051E0BE016E5D7F4FCE0101960E94DA037F
:101400007C010330110509F0E2C04CEB51E0BE0154
:101410006E5D7F4FCE0101960E94DA03E816F90651
:1014200009F4D5C0E0915101F0915201828193817C
:10143000C6978697E0F4848195814B974597B8F4D9
:10144000DF0116967F0196ECE90EF11C20E030E0FA
:1014500040E050E060E070E080E090E00D911C9191
:101460001197095011090830110508F4F5C0809151
:101470001D02893370F182819381895791098335E7
:10148000910508F425C125C0D90112966D917C9172
:101490001397665171096131710508F045C1D70193
:1014A000C601880F991FAA1FBB1F6C017D0168949C
:1014B000C0F84E5F5F4F2C5F3F4F4B33510509F42F
:1014C00016C1D9016D917C916A507109693071051D
:1014D000D8F280911D02823231F4828193810A9781
:1014E000099708F431C18281938189579109833525
:1014F0009105D0F480911D028132B0F084819581F4
:10150000CA97899788F49F012A5F3F4FC12CD12C3D
:10151000760143E050E0D9016D917C916A507109E8
:101520006930710508F42CC1828193818C54910932
:10153000C59778F480911D02843031F484819581BF
:101540008097479708F47CC180911D02843408F08D
:101550005EC180911D02863460F1828193810C9777
:101560000B9708F4B6C125C0D90112966D917C91F4
:1015700013976E5171096731710508F0E0C1D70109
:10158000C601880F991FAA1FBB1F6C017D016894BB
:10159000C0F84E5F5F4F2C5F3F4F4534510509F453
:1015A000B3C1D9016D917C916C5071096B3071059B
:1015B000D8F280911D02883508F429C28281938176
:1015C000855891098B35910508F4C9C120C24CEBAF
:1015D00051E0BE016E5D7F4FCE0101960E94DA039D
:1015E0006C010330110569F44CEB51E0BE016E5DF6
:1015F0007F4FCE0101960E94DA03C816D90609F082
:1016000011CFE114F10459F4CA94CD2809F00ACF9E
:10161000880C991CAA1CBB1C689480F80BC0EA9427
:10162000EF2809F0FFCECD2809F0FCCE880C991CDC
:10163000AA1CBB1C0F5F1F4FD0CE1093500100930C
:101640004F0180924B0190924C01A0924D01B092BB
:101650004E0182E090E076CC12960D911C9113978A
:10166000015111090D30110528F501E00E94A91161
:1016700021601496AE15BF0509F0F0CE20934B0102
:1016800030934C0140934D0150934E0100E20E9473
:10169000C4112093490130934A0185E090E0909372
:1016A000480180934701A0E3B0E0B0935001A093BC
:1016B0004F014CCC12960D911C91139704501109B7
:1016C0000530110508F0D3CE01E00E94A911D1CF59
:1016D00084819581CA97899708F0FBCE9F012A5F84
:1016E0003F4FC12CD12C760143E050E0EACE9F0160
:1016F0002A583F4FD9012D913C912A503109293068
:10170000310508F0E6CE2CE130E030935001209313
:101710004F01C0924B01D0924C01E0924D01F092EA
:101720004E018AE090E00ECCD90112966D917C9129
:101730001397665071096730710508F0CACECC0C5A
:10174000DD1CEE1CFF1CB5CE20911D02CF01820FC7
:10175000911D820F911DDC0112978D919C910A972A
:10176000099708F0C0CE1092500110924F0140929C
:101770004B0150924C0160924D0170924E01D0C2CB
:10178000D90112966D917C9113976651710961315F
:10179000710568F5D701C601880F991FAA1FBB1FE5
:1017A0006C017D016894C0F84E5F5F4F2C5F3F4F26
:1017B0004332510509F0AFCE9F012A5B3F4FD9015B
:1017C0002D913C912A5031092930310508F0ACCED9
:1017D000E0E1F0E0F0935001E0934F01C0924B0143
:1017E000D0924C01E0924D01F0924E0199C2D90184
:1017F00012966D917C91139766507109673071054F
:1018000008F092CECC0CDD1CEE1CFF1CCDCF8481E9
:10181000958189549109C39708F09BCE9F012A5F57
:101820003F4FBF016A577F4FC12CD12C7601D901A0
:101830004D915C914950510949305105A0F089CE34
:10184000868197810997099708F07ECE1092500102
:1018500010924F0140924B0150924C0160924D0109
:1018600070924E0160C2D90112964D915C9113970E
:101870004651510941315105E0F4D701C601880FA5
:10188000991FAA1FBB1F6C017D016894C0F82C5FD3
:101890003F4F2617370759F63092500120924F01DB
:1018A000C0924B01D0924C01E0924D01F0924E015A
:1018B0003AC2D90112964D915C9113974650510945
:1018C0004730510508F045CECC0CDD1CEE1CFF1C4A
:1018D000DECF848195810997099708F06ACE8681C9
:1018E00097818C974F9708F064CE80859185899772
:1018F0004D9708F05ECE9F01265F3F4FC12CD12C43
:10190000760145E050E04DCE9F0126573F4FD9016B
:101910002D913C912C5031092B30310508F049CEE6
:101920003092500120924F01C0924B01D0924C0155
:10193000E0924D01F0924E0188E090E003CBD90196
:1019400012966D917C9113976950710969307105F8
:1019500008F02FCECC0CDD1CEE1CFF1C1ACE8481AF
:101960009581825491098E9708F051C08F01045CD3
:101970001F4F8DE190E020E030E040911D0250E0EB
:101980004450510984179507ACF4A80142505109FD
:10199000DA014D915C91495051094830510510F1DF
:1019A00036C0D8014D915C914851510942315105E1
:1019B00058F1CB01019795958795909350018093AD
:1019C0004F018A9724F1C901330FAA0BBB0B8093F7
:1019D0004B0190934C01A0934D01B0934E0189E0CF
:1019E00090E0B0CABC016F5F7F4FD8014D915C9110
:1019F0004750510947305105A0F6220F331F21608F
:101A000002960C5F1F4FB9CF220F331FF9CF809181
:101A10001D028032E1F48281938106970697B8F423
:101A2000848195810997099790F49F012A5F3F4F20
:101A3000BF01625C7F4FC12CD12C7601D9014D9141
:101A40005C91465051094630510508F486C02091FA
:101A50005301309154013FA32EA3263031050CF4DD
:101A6000B7C08F010E5F1F4F95ECC92E9DE9D92E8F
:101A70009CE1E92E91E8F92E83E090E09DA38CA3F0
:101A8000D80114966D917C911597AD90BC9080E033
:101A900090E00E946E1068A779A78AA79BA7B5015E
:101AA00080E090E00E946E104B015C012DEC3CEC5C
:101AB0004CE45FE30E9420119B01AC0168A579A56D
:101AC0008AA59BA50E94C10F87FD19C02DEC3CEC97
:101AD0004CE45FE368A579A58AA59BA50E94201127
:101AE0009B01AC01C501B4010E94C10FE82F880F12
:101AF000FF0BEE27FF0FEE1FFF27319602C0E0E03D
:101B0000F0E0A701960163E971E080E091E00E94B6
:101B10008D116F01FF0FEE08FF08C626D726E826B5
:101B2000F926ECA1FDA13196FDA3ECA30E5F1F4F9A
:101B30002EA13FA12E173F0709F0A2CFC0924B0163
:101B4000D0924C01E0924D01F0924E013092500142
:101B500020924F018FEF9FEFF5C9D90112964D9159
:101B60005C911397495151094331510508F5D7014B
:101B7000C601880F991FAA1FBB1F6C017D016894C5
:101B8000C0F82C5F3F4F2617370709F057CF2EE0DC
:101B900030E03093500120934F01C0924B01D0921E
:101BA0004C01E0924D01F0924E018FE090E0CAC9E5
:101BB000D90112964D915C911397495051094930C2
:101BC000510508F044CFCC0CDD1CEE1CFF1CD9CF16
:101BD00082E08093190210921D028091420190913F
:101BE0004301A0914401B09145018D399246AF4F18
:101BF000B105D1F485E00E94F40486E00E94F4046B
:101C000061E087E00E94890460E088E00E94890426
:101C100060E089E00E94890461E08BE00E94890411
:101C200083E191E00E94520480914201909143012E
:101C3000A0914401B09145018735984AAF4FB10555
:101C4000E1F464E685E00E94890464E686E00E948F
:101C5000890460E087E00E94890461E088E00E94D6
:101C6000890461E089E00E94890460E08BE00E94C1
:101C700089048FE191E00E94520480914201909189
:101C80004301A0914401B09145018D33924CAF4F77
:101C9000B105D1F485E00E94F40486E00E94F404CA
:101CA00061E087E00E94890460E088E00E94890486
:101CB00061E089E00E94890460E08BE00E94890471
:101CC00088E291E00E945204809142019091430188
:101CD000A0914401B09145018D3D9242AF4FB105B5
:101CE000D1F485E00E94F40486E00E94F40460E0F0
:101CF00087E00E94890461E088E00E94890460E036
:101D000089E00E94890461E08BE00E94890482E3FB
:101D100091E00E9452040E9490030E944E0175C8F7
:101D200086E090E00FC987E090E00CC910925A015C
:101D30001092590188EE93E0A0E0B0E080935B013F
:101D400090935C01A0935D01B0935E0184E091E00B
:101D5000909358018093570185EC90E09093640133
:101D60008093630184EC90E0909366018093650119
:101D700080EC90E0909368018093670181EC90E0A3
:101D800090936A018093690182EC90E090936C01DA
:101D900080936B0186EC90E090936E0180936D01CF
:101DA00010927001109271011092720110927301E1
:101DB0008CE080931A0210921C02809118028C30E1
:101DC000A0F491E0980F909318028093EB0290E0BA
:101DD000FC01EE0FFF1F8E0F9F1FFC01EC50FE4F0A
:101DE00088EB9BE09283818308958FEF8093EB02D1
:101DF0000895052E97FB1EF400940E94100F57FDC6
:101E000007D00E94230F07FC03D04EF40C94100F50
:101E100050954095309521953F4F4F4F5F4F089516
:101E200090958095709561957F4F8F4F9F4F089546
:101E30000E94450FA59F900DB49F900DA49F800D0B
:101E4000911D11240895A1E21A2EAA1BBB1BFD01AE
:101E50000DC0AA1FBB1FEE1FFF1FA217B307E40789
:101E6000F50720F0A21BB30BE40BF50B661F771FE1
:101E7000881F991F1A9469F76095709580959095C1
:101E80009B01AC01BD01CF010895A29FB001B39F9A
:101E9000C001A39F700D811D1124911DB29F700D73
:101EA000811D1124911D08955058BB27AA270E9417
:101EB0006C0F0C94E6100E94D81038F00E94DF10CE
:101EC00020F039F49F3F19F426F40C94D5100EF449
:101ED000E095E7FB0C94CF10E92F0E94F71058F320
:101EE000BA17620773078407950720F079F4A6F5FF
:101EF0000C9419110EF4E0950B2EBA2FA02D0B01A6
:101F0000B90190010C01CA01A0011124FF27591B3E
:101F100099F0593F50F4503E68F11A16F040A22F44
:101F2000232F342F4427585FF3CF469537952795B5
:101F3000A795F0405395C9F77EF41F16BA0B620BB4
:101F4000730B840BBAF09150A1F0FF0FBB1F661FFB
:101F5000771F881FC2F70EC0BA0F621F731F841F3E
:101F600048F4879577956795B795F7959E3F08F064
:101F7000B0CF9395880F08F09927EE0F9795879526
:101F800008950E94AB1008F481E008950E94DA0FD2
:101F90000C94E6100E94DF1058F00E94D81040F018
:101FA00029F45F3F29F00C94CF1051110C941A11B1
:101FB0000C94D5100E94F71068F39923B1F35523C0
:101FC00091F3951B550BBB27AA276217730784074C
:101FD00038F09F5F5F4F220F331F441FAA1FA9F3E2
:101FE00035D00E2E3AF0E0E832D091505040E695D0
:101FF000001CCAF72BD0FE2F29D0660F771F881F31
:10200000BB1F261737074807AB07B0E809F0BB0B23
:10201000802DBF01FF2793585F4F3AF09E3F510537
:1020200078F00C94CF100C941A115F3FE4F3983EB3
:10203000D4F3869577956795B795F7959F5FC9F720
:10204000880F911D9695879597F90895E1E0660FA1
:10205000771F881FBB1F621773078407BA0720F01A
:10206000621B730B840BBA0BEE1F88F7E095089583
:102070000E943F106894B1110C941A1108950E94A7
:10208000FF1088F09F5798F0B92F9927B751B0F0FB
:10209000E1F0660F771F881F991F1AF0BA95C9F7EC
:1020A00014C0B13091F00E941911B1E008950C9460
:1020B0001911672F782F8827B85F39F0B93FCCF313
:1020C000869577956795B395D9F73EF49095809569
:1020D000709561957F4F8F4F9F4F0895E89409C089
:1020E00097FB3EF490958095709561957F4F8F4F4B
:1020F0009F4F9923A9F0F92F96E9BB279395F69561
:10210000879577956795B795F111F8CFFAF4BB0FDE
:1021100011F460FF1BC06F5F7F4F8F4F9F4F16C042
:10212000882311F096E911C0772321F09EE8872FCC
:10213000762F05C0662371F096E8862F70E060E088
:102140002AF09A95660F771F881FDAF7880F969501
:10215000879597F90895990F0008550FAA0BE0E8A5
:10216000FEEF16161706E807F907C0F01216130659
:10217000E407F50798F0621B730B840B950B39F499
:102180000A2661F0232B242B252B21F408950A26FF
:1021900009F4A140A6958FEF811D811D089597F93F
:1021A0009F6780E870E060E008959FEF80EC0895FD
:1021B00000240A9416161706180609060895002426
:1021C0000A9412161306140605060895092E0394A0
:1021D000000C11F4882352F0BB0F40F4BF2B11F414
:1021E00060FF04C06F5F7F4F8F4F9F4F089557FD73
:1021F0009058440F551F59F05F3F71F04795880F75
:1022000097FB991F61F09F3F79F08795089512160B
:1022100013061406551FF2CF4695F1DF08C01616B7
:1022200017061806991FF1CF869571056105089468
:102230000895E894BB2766277727CB0197F908957F
:102240000E9433110C94E6100E94D81038F00E94BE
:10225000DF1020F0952311F00C94CF100C94D510C2
:1022600011240C941A110E94F71070F3959FC1F37A
:10227000950F50E0551F629FF001729FBB27F00D34
:10228000B11D639FAA27F00DB11DAA1F649F662789
:10229000B00DA11D661F829F2227B00DA11D621FD8
:1022A000739FB00DA11D621F839FA00D611D221F92
:1022B000749F3327A00D611D231F849F600D211D76
:1022C000822F762F6A2F11249F5750409AF0F1F0F9
:1022D00088234AF0EE0FFF1FBB1F661F771F881F62
:1022E00091505040A9F79E3F510580F00C94CF10BB
:1022F0000C941A115F3FE4F3983ED4F386957795DA
:102300006795B795F795E7959F5FC1F7FE2B880F07
:10231000911D9695879597F90895DB018F939F936B
:102320000E94180FBF91AF91A29F800D911DA39F96
:10233000900DB29F900D11240895991B79E004C06F
:10234000991F961708F0961B881F7A95C9F78095F4
:1023500008950F93083090F0982F872F762F652FD0
:10236000542F432F322F22270850F4CF220F331F30
:10237000441F551F661F771F881F991F0A95B2F7C4
:102380000F91089597FB10F8169400080F930830EA
:1023900098F00850232F342F452F562F672F782F72
:1023A000892F902DF4CF059497958795779567950C
:1023B00057954795379527950A95AAF70F91089550
:1023C000EE0FFF1F0590F491E02D099481E090E05D
:0A23D000F8940C94EB11F894FFCF81
:1023DA0000000000E5009C03AE008C00A0002C0168
:1023EA000D0A00676F20666F727761726421006759
:1023FA006F206261636B2100676F2072696768747E
:10240A002100676F206C656674210053544F502178
:02241A000000C0
:00000001FF
