:100000000C942C010C945D010C945D010C945D0129
:100010000C945D010C945D010C945D010C945D01E8
:100020000C945D010C945D010C945D010C945D01D8
:100030000C945D010C945D010C945D010C945D01C8
:100040000C945D010C9477030C945D010C945D019C
:100050000C945D010C945D010C945D010C94A30261
:100060000C945D010C945D010C945D010C945D0198
:100070000C945D010C945D010C945D010C945D0188
:100080000C9449030C945D010C945D010C945D018A
:100090000C945D010C945D010C945D010C945D0168
:1000A0000C945D010C945D010C941B030C945D0198
:1000B0000C945D010C945D010C945D010C94ED02B7
:1000C0000C945D010C945D010C945D010C945D0138
:1000D0000C945D010C945D010C945D010C945D0128
:1000E0000C945D018E019101800184018801C80199
:1000F000950199019F01A301A701AD01B101B501CE
:10010000C801BB01BF01C3010C948E010C94800196
:100110000C9495010C9409050C94BB010C94B50149
:100120000C9491010C949F010C94A3010C94A701D1
:100130000C94BF010C94C3010C94AD010C94990173
:100140000C9484010C94C8010C94B1010C948801A6
:1001500000002100240027002A002D003000330079
:1001600001010000040107010A010000220025002E
:1001700028002B002E003100340002010000050190
:1001800008010B0105050505070508080808020216
:1001900002020A0A08080404040401010101010121
:1001A00001010303030303030303040707070C0C04
:1001B0000C0C0C0C0C0C02020202060606060606CB
:1001C00006060B0B0B0B0B0B0B0B01021020200870
:1001D00008102040102040800201020108040201A2
:1001E0000102040810204080804020100804020111
:1001F000800402018040201008040201080402016A
:1002000001020408102040800102040810204080F0
:1002100000000A0B02090C0D0E0807030401000080
:1002200000000000000000000000000000000000CE
:10023000000000000000000000000000121110008B
:1002400000000000000000000000000000000000AE
:10025000000000000000090511241FBECFEFD1E20D
:10026000DEBFCDBF00E00CBF12E0A0E0B2E0ECE2E8
:10027000FBE000E00BBF02C007900D92A030B10779
:10028000D9F722E0A0E0B2E001C01D92A13AB20786
:10029000E1F711E0CCE2D1E000E006C021970109CE
:1002A000802FFE010E948C05CB32D10780E0080729
:1002B000A9F70E94A5030C9494050C940000362F16
:1002C00090E0FC01E05FFD4F4491FC01E653FE4FDE
:1002D0002491FC01EC57FE4F9491992309F46BC0D3
:1002E000442309F455C050E0FA013197E231F10599
:1002F00008F04EC08827EE58FF4F8F4F0C948C05A6
:10030000809180008F7707C0809180008F7D03C02F
:1003100080918000877F809380003AC084B58F777A
:1003200002C084B58F7D84BD33C08091B0008F77CB
:1003300003C08091B0008F7D8093B00029C0809170
:1003400090008F7707C0809190008F7D03C08091CF
:100350009000877F809390001BC08091A0008F77D2
:1003600007C08091A0008F7D03C08091A000877F8F
:100370008093A0000DC0809120018F7707C08091ED
:1003800020018F7D03C080912001877F8093200111
:10039000E92FF0E0EE0FFF1FE659FE4FA591B49153
:1003A0008FB7F894EC91311103C020952E2301C032
:1003B0002E2B2C938FBF0895CF92DF92EF92FF9256
:1003C0000F931F93CF93DF936C018B017A01EC01A4
:1003D000CF5FDD4F888187FF04C0FB01118210824F
:1003E00024C08CE08C9D90018D9D300D112488815E
:1003F000A901480F511D87FD5A958091000290E098
:100400004817590794F48881A901480F511D87FDA9
:100410005A95CA01FA01EE0FFF1F8E0F9F1FFC01B4
:10042000EB5FFD4F808186FD19C088818F5F8883D7
:100430008CE08C9D90018D9D300D11248881A90147
:10044000480F511D87FD5A958091000290E0481792
:100450005907BCF488818C3044F113C08881280F7F
:10046000311D87FD3A95F901EE0FFF1F2E0F3F1F3B
:10047000F901EB5FFD4F808160E08F730E945F01A7
:10048000D4CFF80180819181049680349C4918F47E
:1004900080E49CE904C0F801808191810496F70111
:1004A000918380838FEF888345C0F801408151811B
:1004B0008881B901680F711D87FD7A95CB01FB0119
:1004C000EE0FFF1F8E0F9F1FFC01EB5FFD4F818121
:1004D0009281840F951FF701918380838881A90100
:1004E000480F511D87FD5A95CA01FA01EE0FFF1FF3
:1004F0008E0F9F1FFC01EB5FFD4F808186FF1AC0AE
:100500008881280F311D87FD3A95F901EE0FFF1FF5
:100510002E0F3F1FF901EB5FFD4F808161E08F736C
:10052000DF91CF911F910F91FF90EF90DF90CF90CF
:100530000C945F01DF91CF911F910F91FF90EF908D
:10054000DF90CF9008951F920F920FB60F92112453
:100550002F933F938F939F93AF93BF9380919D026F
:1005600090919E02A0919F02B091A00230919C02B6
:1005700023E0230F2D3720F40196A11DB11D05C0E6
:1005800026E8230F0296A11DB11D20939C028093A3
:100590009D0290939E02A0939F02B093A00280912F
:1005A000980290919902A0919A02B0919B020196B3
:1005B000A11DB11D8093980290939902A0939A0275
:1005C000B0939B02BF91AF919F918F913F912F91DB
:1005D0000F900FBE0F901F9018951F920F920FB69D
:1005E0000F9211240BB60F922F933F934F935F936B
:1005F0006F937F938F939F93AF93BF93EF93FF93EB
:1006000048E251E064E271E080E090E00E94DC01A9
:10061000FF91EF91BF91AF919F918F917F916F91DA
:100620005F914F913F912F910F900BBE0F900FBE96
:100630000F901F9018951F920F920FB60F921124D2
:100640000BB60F922F933F934F935F936F937F93CC
:100650008F939F93AF93BF93EF93FF9348EA50E03C
:1006600064EA70E083E090E00E94DC01FF91EF918A
:10067000BF91AF919F918F917F916F915F914F91BA
:100680003F912F910F900BBE0F900FBE0F901F90B8
:1006900018951F920F920FB60F9211240BB60F925E
:1006A0002F933F934F935F936F937F938F939F937A
:1006B000AF93BF93EF93FF9348E950E064E970E094
:1006C00082E090E00E94DC01FF91EF91BF91AF9139
:1006D0009F918F917F916F915F914F913F912F915A
:1006E0000F900BBE0F900FBE0F901F9018951F928A
:1006F0000F920FB60F9211240BB60F922F933F93C8
:100700004F935F936F937F938F939F93AF93BF9319
:10071000EF93FF9348E850E064E870E081E090E0F8
:100720000E94DC01FF91EF91BF91AF919F918F915A
:100730007F916F915F914F913F912F910F900BBEE1
:100740000F900FBE0F901F901895789484B582601B
:1007500084BD84B5816084BD85B5826085BD85B565
:10076000816085BD80916E00816080936E001092E3
:10077000810080918100826080938100809181005E
:1007800081608093810080918000816080938000EF
:100790008091B10084608093B1008091B00081604D
:1007A0008093B0008091910082608093910080914D
:1007B000910081608093910080919000816080938E
:1007C00090008091A10082608093A1008091A1009F
:1007D00081608093A1008091A00081608093A0003F
:1007E00080912101826080932101809121018160AB
:1007F000809321018091200181608093200180916C
:100800007A00846080937A0080917A00826080937D
:100810007A0080917A00816080937A0080917A00DA
:10082000806880937A001092C10080919502803395
:1008300008F069C0EFECF1E02491E9E8F1E084917F
:10084000882399F090E0880F991FFC01E05BFE4F30
:10085000A591B491FC01E659FE4F859194918FB713
:10086000F894EC91E22BEC938FBF80919502E82FE6
:10087000F0E09F01220F331FE20FF31FEB5FFD4FEC
:100880009081907C956090831092960210929702CE
:100890006CE00E9480059CE0899FB001112440E03B
:1008A00050E09A01260F371FF901EE0FFF1F2E0FA0
:1008B0003F1FF901EB5FFD4F908196FD17C04F5F21
:1008C0005F4F4C30510569F7813009F076C01092C6
:1008D000800082E080938100109285001092840055
:1008E000B19A80916F00826080936F00E0919502D1
:1008F000F0E0CF01880F991FE80FF91FEB5FFD4F64
:100900008081806480838091970208E512E0081B53
:10091000110987FD1395000F111F000F111F809102
:100920009602C8E8D0E0C81BD10987FDD395CC0F4B
:10093000DD1FCC0FDD1F6E010D2E000CEE08FF0831
:10094000C801012E000CAA0BBB0B9C01AD012C1998
:100950003D094E095F09AAE5B0E00E94440524EB79
:1009600030E040E050E00E942505C20ED31EE41E98
:10097000F51E809195028033C8F4CC16DD062CF06C
:10098000E6010C151D050CF4E8012297CC0FDD1FC4
:100990002FB7F89490E0FC01EE0FFF1F8E0F9F1F02
:1009A000FC01EB5FFD4FD283C1832FBFC0E0D0E0DD
:1009B0002097F1F30E940000FBCF823061F4109287
:1009C000900080939100109295001092940088BB43
:1009D000809371008BCF833069F41092A00082E085
:1009E0008093A1001092A5001092A40089BB80936F
:1009F00072007CCF81117ACF1092200182E0809327
:100A0000210110922501109224018ABB809373006A
:100A10006DCF809100028033A0F491E0980F909305
:100A200000028093950290E0FC01EE0FFF1F8E0FF5
:100A30009F1FFC01EB5FFD4F88EB9BE0928381835E
:100A400008958FEF809395020895052E97FB1EF46D
:100A500000940E943C0557FD07D00E944F0507FCFB
:100A600003D04EF40C943C0550954095309521955B
:100A70003F4F4F4F5F4F08959095809570956195CA
:100A80007F4F8F4F9F4F08950E947105A59F900D36
:100A9000B49F900DA49F800D911D11240895A1E293
:100AA0001A2EAA1BBB1BFD010DC0AA1FBB1FEE1FE8
:100AB000FF1FA217B307E407F50720F0A21BB30B33
:100AC000E40BF50B661F771F881F991F1A9469F7AF
:100AD00060957095809590959B01AC01BD01CF010B
:100AE0000895A29FB001B39FC001A39F700D811D07
:100AF0001124911DB29F700D811D1124911D089527
:100B0000991B79E004C0991F961708F0961B881F5F
:100B10007A95C9F780950895EE0FFF1F881F8BBF48
:0C0B20000790F691E02D1994F894FFCF97
:00000001FF
