:100000000C946C010C949D010C949D010C949D0129
:100010000C949D010C949D010C949D010C949D01E8
:100020000C949D010C949D010C949D010C949D01D8
:100030000C949D010C949D010C949D010C949D01C8
:100040000C949D010C941A060C949D010C949D0136
:100050000C949D010C949D010C949D010C94E6045C
:100060000C949D010C945A050C9430050C949D0140
:100070000C949D010C949D010C949D010C949D0188
:100080000C94EC050C949D010C949D010C949D0125
:100090000C949D010C949D010C949D010C949D0168
:1000A0000C949D010C949D010C94BE050C949D0133
:1000B0000C949D010C949D010C949D010C94900551
:1000C0000C949D010C949D010C949D010C949D0138
:1000D0000C949D010C949D010C949D010C949D0128
:1000E0000C949D0133023602250229022D026D0275
:1000F0003A023E02440248024C02520256025A029E
:100100006D026002640268021F082408290833088F
:100110003D08B60847084F08570861086B0875087E
:1001200084088E08B6089808A208AC080C94290820
:100130000C9433080C94A2080C9460020C942502D1
:100140000C9457080C94A6020C948E080C9444024C
:100150000C9464020C942A030C943D080C9424081B
:100160000C943A020C94AC080C94E5020C9429020D
:100170000C9475080C946B080C9433020C9498083A
:100180000C942D020C9456020C9461080C944C02B1
:100190000C944F080C94B6080C9471030C946802EC
:1001A0000C945A020C943E020C941F080C946D029D
:1001B0000C94D1020C9448060C9484080C944708C3
:1001C0000C94F3020C9448020C9452020C943602E4
:1001D00000000A0B02090C0D0E08070304010000C1
:1001E000000000000000000000000000000000000F
:1001F00000000000000000000000000012111000CC
:1002000000000000000000000000000000000000EE
:1002100000000000000000002200250028002B0044
:100220002E003100340002010000050108010B011D
:1002300000002100240027002A002D003000330098
:1002400001010000040107010A0105050505070574
:1002500008080808020202020A0A08080404040442
:10026000010101010101010103030303030303036E
:10027000040707070C0C0C0C0C0C0C0C02020202FD
:1002800006060606060606060B0B0B0B0B0B0B0BE6
:100290000102102020080810204010204080020198
:1002A000020108040201010204081020408080407D
:1002B000201008040201800402018040201008047C
:1002C000020108040201010204081020408001021A
:1002D000040810204080480611241FBECFEFD1E251
:1002E000DEBFCDBF00E00CBF12E0A0E0B2E0ECE664
:1002F000F3E100E00BBF02C007900D92A431B107FB
:10030000D9F723E0A4E1B2E001C01D92A435B20701
:10031000E1F711E0CCE6D1E000E006C02197010949
:10032000802FFE010E94A709CB36D10780E0080785
:10033000A9F70E94A6060C94B4090C94000090E062
:10034000FC01E057FD4F2491FC01E65BFD4F8491D9
:10035000882399F090E0880F991FFC01E05DFD4F24
:10036000A591B491FC01EA5EFD4F859194918FB700
:10037000F894EC91E22BEC938FBF08952FB7F8948B
:1003800080911F0290912002A0912102B09122023F
:100390002FBF80932B0290932C02A0932D02B09339
:1003A0002E02E0912302F09124020084F185E02DD9
:1003B00083E292E0199597FF26C02FB7F8948091B9
:1003C0001F0290912002A0912102B09122022FBF22
:1003D00040912B0250912C0260912D0270912E02BF
:1003E000841B950BA60BB70B409127025091280256
:1003F0006091290270912A0284179507A607B70712
:1004000080F28FEF9FEF0895362F90E0FC01E053CC
:10041000FE4F4491FC01E057FD4F2491FC01E65B47
:10042000FD4F9491992309F46BC0442309F455C0FE
:1004300050E0FA013197E231F10508F04EC088270B
:10044000EE58FF4F8F4F0C94A709809180008F7753
:1004500007C0809180008F7D03C080918000877FDE
:10046000809380003AC084B58F7702C084B58F7DB9
:1004700084BD33C08091B0008F7703C08091B000FD
:100480008F7D8093B00029C0809190008F7707C046
:10049000809190008F7D03C080919000877F809332
:1004A00090001BC08091A0008F7707C08091A000B2
:1004B0008F7D03C08091A000877F8093A0000DC036
:1004C000809120018F7707C0809120018F7D03C02C
:1004D00080912001877F80932001E92FF0E0EE0FCB
:1004E000FF1FEA5EFD4FA591B4918FB7F894EC9190
:1004F000311103C020952E2301C02E2B2C938FBFCA
:1005000008953FB7F89480911B0290911C02A0912E
:100510001D02B0911E0226B5A89B05C02F3F19F001
:100520000196A11DB11D3FBFBA2FA92F982F882773
:10053000820F911DA11DB11DBC01CD0142E0660FCE
:10054000771F881F991F4A95D1F70895CF92DF92A0
:10055000EF92FF920F931F93CF93DF936C017A0179
:100560008B01C0E0D0E0CE15DF0589F0D8016D9198
:100570008D01D601ED91FC910190F081E02DC60135
:100580001995892B11F47E0102C02196ECCFC70189
:10059000DF91CF911F910F91FF90EF90DF90CF905F
:1005A0000895FC01918D828D981761F0828DDF0195
:1005B000A80FB11D5D968C91928D9F5F9F73928F56
:1005C00090E008958FEF9FEF0895FC01918D828D4B
:1005D000981731F0828DE80FF11D858D90E0089518
:1005E0008FEF9FEF0895FC01918D228D892F90E070
:1005F000805C9F4F821B91098F739927089583E236
:1006000092E00E94F30221E0892B09F420E0822F7E
:100610000895FC01848DDF01A80FB11DA35ABF4FBF
:100620002C91848D90E001968F739927848FA689F1
:10063000B7892C93A089B1898C9180648C93938D18
:10064000848D981306C00288F389E02D80818F7D08
:1006500080830895EF92FF920F931F93CF93DF93C0
:10066000EC0181E0888F9B8D8C8D981305C0E88903
:10067000F989808185FD24C0F62E0B8D10E00F5F77
:100680001F4F0F731127E02E8C8DE8120CC00FB690
:1006900007FCFACFE889F989808185FFF5CFCE0183
:1006A0000E940903F1CF8B8DFE01E80FF11DE35A83
:1006B000FF4FF0820B8FEA89FB898081806207C03F
:1006C000EE89FF896083E889F9898081806480836D
:1006D00081E090E0DF91CF911F910F91FF90EF901B
:1006E0000895CF93DF93EC01888D8823C9F0EA89C0
:1006F000FB89808185FD05C0A889B9898C9186FD1B
:100700000FC00FB607FCF5CF808185FFF2CFA88917
:10071000B9898C9185FFEDCFCE010E940903E7CF07
:10072000DF91CF91089580E090E0892B21F00E9425
:10073000FF02811125C080E090E0892B41F080E02C
:1007400090E0892B21F00E94000081111CC080E004
:1007500090E0892B41F080E090E0892B21F00E940D
:100760000000811113C080E090E0892BA1F080E0AF
:1007700090E0892B81F00E94000081110AC0089549
:100780000E940000D8CF0E940000E1CF0E9400002C
:10079000EACF0C9400000895CF92DF92EF92FF927F
:1007A0000F931F93CF93DF936C018B017A01EC01C0
:1007B000CC5EDD4F888187FF04C0FB01118210826F
:1007C00024C08CE08C9D90018D9D300D112488817A
:1007D000A901480F511D87FD5A958091500390E063
:1007E0004817590794F48881A901480F511D87FDC6
:1007F0005A95CA01FA01EE0FFF1F8E0F9F1FFC01D1
:10080000E054FD4F808186FD19C088818F5F888309
:100810008CE08C9D90018D9D300D11248881A90163
:10082000480F511D87FD5A958091500390E048175D
:100830005907BCF488818C3044F113C08881280F9B
:10084000311D87FD3A95F901EE0FFF1F2E0F3F1F57
:10085000F901E054FD4F808160E08F730E94040233
:10086000D4CFF80180819181049680349C4918F49A
:1008700080E49CE904C0F801808191810496F7012D
:10088000918380838FEF888345C0F8014081518137
:100890008881B901680F711D87FD7A95CB01FB0135
:1008A000EE0FFF1F8E0F9F1FFC01E054FD4F818153
:1008B0009281840F951FF701918380838881A9011C
:1008C000480F511D87FD5A95CA01FA01EE0FFF1F0F
:1008D0008E0F9F1FFC01E054FD4F808186FF1AC0E0
:1008E0008881280F311D87FD3A95F901EE0FFF1F12
:1008F0002E0F3F1FF901E054FD4F808161E08F739F
:10090000DF91CF911F910F91FF90EF90DF90CF90EB
:100910000C940402DF91CF911F910F91FF90EF9003
:10092000DF90CF9008958F929F92AF92BF920F93D6
:100930001F93CF93DF93CDB7DEB7A1970FB6F8948F
:10094000DEBF0FBECDBF19A2423008F44AE08E01CF
:100950000F5D1F4F842E912CA12CB12CA501940169
:100960000E946A09E62FB901CA0101501109EA3053
:1009700014F4E05D01C0E95CD801EC93232B242B37
:10098000252B61F70115110571F0F8010190002088
:10099000E9F73197AF01401B510BB80183E292E0B8
:1009A0000E94A60202C080E090E0A1960FB6F894E3
:1009B000DEBF0FBECDBFDF91CF911F910F91BF90D2
:1009C000AF909F908F9008950E94AF091F920F9251
:1009D0000FB60F9211242F933F938F939F93AF9352
:1009E000BF9380911F0290912002A0912102B091AB
:1009F000220230911A0223E0230F2D3720F40196B2
:100A0000A11DB11D05C026E8230F0296A11DB11D31
:100A100020931A0280931F0290932002A093210238
:100A2000B093220280911B0290911C02A0911D02A2
:100A3000B0911E020196A11DB11D80931B029093DF
:100A40001C02A0931D02B0931E02BF91AF919F9113
:100A50008F913F912F910F900FBE0F901F9018957F
:100A60001F920F920FB60F9211240BB60F922F9375
:100A70003F934F935F936F937F938F939F93AF9326
:100A8000BF93EF93FF9383E292E00E940903FF91EB
:100A9000EF91BF91AF919F918F917F916F915F91F6
:100AA0004F913F912F910F900BBE0F900FBE0F9063
:100AB0001F9018951F920F920FB60F9211240BB62C
:100AC0000F922F938F939F93EF93FF93E0913302B5
:100AD000F09134028081E0913902F0913A0282FD76
:100AE00012C0908180913C028F5F8F7320913D02F4
:100AF000821751F0E0913C02F0E0ED5DFD4F958FE3
:100B000080933C0201C08081FF91EF919F918F9172
:100B10002F910F900BBE0F900FBE0F901F90189546
:100B20001F920F920FB60F9211240BB60F922F93B4
:100B30003F934F935F936F937F938F939F93AF9365
:100B4000BF93EF93FF9348E251E064E271E080E0ED
:100B500090E00E94CC03FF91EF91BF91AF919F91E4
:100B60008F917F916F915F914F913F912F910F9056
:100B70000BBE0F900FBE0F901F9018951F920F92F3
:100B80000FB60F9211240BB60F922F933F934F93F2
:100B90005F936F937F938F939F93AF93BF93EF93E5
:100BA000FF9348EA50E064EA70E083E090E00E943E
:100BB000CC03FF91EF91BF91AF919F918F917F9166
:100BC0006F915F914F913F912F910F900BBE0F90BE
:100BD0000FBE0F901F9018951F920F920FB60F9295
:100BE00011240BB60F922F933F934F935F936F9304
:100BF0007F938F939F93AF93BF93EF93FF9348E9B6
:100C000050E064E970E082E090E00E94CC03FF9144
:100C1000EF91BF91AF919F918F917F916F915F9174
:100C20004F913F912F910F900BBE0F900FBE0F90E1
:100C30001F9018951F920F920FB60F9211240BB6AA
:100C40000F922F933F934F935F936F937F938F9365
:100C50009F93AF93BF93EF93FF9348E850E064E80E
:100C600070E081E090E00E94CC03FF91EF91BF9192
:100C7000AF919F918F917F916F915F914F913F9134
:100C80002F910F900BBE0F900FBE0F901F901895D5
:100C9000109226021092250288EE93E0A0E0B0E0C8
:100CA0008093270290932802A0932902B0932A02EE
:100CB00084E092E0909324028093230285EC90E0FC
:100CC0009093300280932F0284EC90E09093320254
:100CD0008093310280EC90E0909334028093330251
:100CE00081EC90E0909336028093350282EC90E0A4
:100CF000909338028093370286EC90E090933A020A
:100D00008093390210923C0210923D0210923E02F2
:100D100010923F02809150038033A0F491E0980F2D
:100D2000909350038093510390E0FC01EE0FFF1F5E
:100D30008E0F9F1FFC01E054FD4F88EB9BE09283D8
:100D4000818308958FEF809351030895CF93DF93AC
:100D500000D01F92CDB7DEB7789484B5826084BD91
:100D600084B5816084BD85B5826085BD85B58160AF
:100D700085BD80916E00816080936E00109281002D
:100D800080918100826080938100809181008160E8
:100D900080938100809180008160809380008091A9
:100DA000B10084608093B1008091B0008160809335
:100DB000B0008091910082608093910080919100B9
:100DC0008160809391008091900081608093900079
:100DD0008091A10082608093A1008091A100816038
:100DE0008093A1008091A00081608093A0008091F9
:100DF0002101826080932101809121018160809393
:100E000021018091200181608093200180917A00EE
:100E1000846080937A0080917A00826080937A0067
:100E200080917A00816080937A0080917A00806856
:100E300080937A001092C10080915103803308F0B2
:100E400051C089E00E949F0180915103E82FF0E09A
:100E50009F01220F331FE20FF31FE054FD4F9081DB
:100E6000907C9960908310925203109253036CE02F
:100E70000E949B092CE0829FB001112440E050E0C9
:100E80009A01260F371FF901EE0FFF1F2E0F3F1F8C
:100E9000F901E054FD4F908196FD17C04F5F5F4F01
:100EA0004C30510569F7813009F0BAC110928000C9
:100EB00082E0809381001092850010928400B19AA4
:100EC00080916F00826080936F00E0915103F0E0A9
:100ED000CF01880F991FE80FF91FE054FD4F808163
:100EE00080648083E0913302F091340282E0808359
:100EF000E0912F02F09130021082E0913102F091E6
:100F000032028FEC808310923B02E0913702F09125
:100F1000380286E08083E0913502F09136028081CC
:100F200080618083E0913502F09136028081886093
:100F30008083E0913502F091360280818068808361
:100F4000E0913502F091360280818F7D808309ED3A
:100F500011E083E292E00E94F302892B09F44BC076
:100F60000E94BE01FC0197FD11C08D32910591F0E8
:100F7000C0970A9778F0E0912302F091240206804E
:100F8000F781E02D83E292E01995EACF80E090E0CE
:100F9000DC012DC020E030E0A901B12CE130F105E9
:100FA00009F06AC1E0912302F09124020680F781E2
:100FB000E02D83E292E029833A834B835C83199589
:100FC0000E94BE01FC01C09729813A814B815C815E
:100FD0000A9720F3E130F10509F3BB2009F46CC155
:100FE00088279927DC01821B930BA40BB50B9093E8
:100FF000190280931802E0901802F090190289E01B
:101000000E949F01E114F10411F460E005C08FEF2C
:10101000E816F10429F461E089E00E940402ACC002
:10102000F801849190E0FC013197E231F10508F07C
:101030009DC08827EC57FF4F8F4F0C94A70984B5AC
:10104000806884BDE7BC98C084B5806284BDE8BC7C
:1010500093C080918000806880938000F092890026
:10106000E092880089C08091800080628093800037
:10107000F0928B00E0928A007FC0809180008860AF
:1010800080938000F0928D00E0928C0075C080917A
:10109000B00080688093B000E092B3006DC0809192
:1010A000B00080628093B000E092B40065C080918F
:1010B0009000806880939000F0929900E0929800F0
:1010C0005BC080919000806280939000F0929B00C2
:1010D000E0929A0051C080919000886080939000C7
:1010E000F0929D00E0929C0047C08091A000806833
:1010F0008093A0008091A0008F7B8093A000F0924D
:10110000A900E092A80038C08091A000806280937E
:10111000A000F092AB00E092AA002EC08091A00047
:1011200088608093A000F092AD00E092AC0024C0F3
:1011300080912001806880932001F0922901E09243
:1011400028011AC080912001806280932001F092D2
:101150002B01E0922A0110C08091200188608093C9
:101160002001F0922D01E0922C0106C0F0E8EF166C
:10117000F1040CF050CF49CFC0901802D090190262
:101180000D2C000CEE08FF08F7FE14C0E0912302BE
:10119000F09124020190F081E02D6DE283E292E073
:1011A000199566277727CB016C197D098E099F0950
:1011B0004AE003C04AE0C701B6010E94930442E03E
:1011C00050E060E172E083E292E00E94A6020E9499
:1011D00081024B015C018EE1C82ED12CE12CF12C57
:1011E0000E948102DC01CB0188199909AA09BB0977
:1011F000883E9340A105B10558F021E0C21AD108FC
:10120000E108F10888EE880E83E0981EA11CB11C4D
:10121000C114D104E104F10419F70E94930399CE9B
:10122000823061F4109290008093910010929500AA
:101230001092940088BB8093710047CE833069F48C
:101240001092A00082E08093A1001092A50010925D
:10125000A40089BB8093720038CE811136CE1092E3
:10126000200182E080932101109225011092240137
:101270008ABB8093730029CEED32F105D1F0CF0106
:10128000C0970A9708F08ECEAAE0B0E00E945F09EE
:101290006F01FF0FEE08FF08DC01CB018C0D9D1DD7
:1012A000AE1DBF1D9C01AD012053310941095109FB
:1012B00079CEBB24B39476CEDA01C90198CE0E94D0
:1012C0008C09A59F900DB49F900DA49F800D911D3A
:1012D00011240895A1E21A2EAA1BBB1BFD010DC00B
:1012E000AA1FBB1FEE1FFF1FA217B307E407F507D6
:1012F00020F0A21BB30BE40BF50B661F771F881FB2
:10130000991F1A9469F760957095809590959B0147
:10131000AC01BD01CF010895A29FB001B39FC001F0
:10132000A39F700D811D1124911DB29F700D811D11
:101330001124911D0895991B79E004C0991F9617F7
:1013400008F0961B881F7A95C9F780950895EE0FCF
:10135000FF1F881F8BBF0790F691E02D199481E045
:0C13600090E0F8940C94B409F894FFCFCE
:10136C00000000002A03A602F302D102E502710379
:04137C000D0A000056
:00000001FF
