:100000000C943B010C946C010C946C010C946C01ED
:100010000C946C010C946C010C946C010C946C01AC
:100020000C946C010C946C010C946C010C946C019C
:100030000C946C010C946C010C946C010C946C018C
:100040000C941D070C946C010C9491070C94670799
:100050000C946C010C946C010C946C010C946C016C
:100060000C946C010C946C010C946C010C946C015C
:100070000C946C010C946C010C946C010C946C014C
:100080000C946C010C946C010C946C010C946C013C
:100090000C946C010C946C010C946C010C94EB05A9
:1000A0000C946C010C946C010C946C010C946C011C
:1000B0000C946C010C946C010C946C010C946C010C
:1000C0000C946C010C946C010C946C010C946C01FC
:1000D0000C946C010C946C010C946C010C946C01EC
:1000E0000C946C01D902DC02CB02CF02D3021303C1
:1000F000E002E402EA02EE02F202F802FC0200036D
:10010000130306030A030E030C9464040C94FD010C
:100110000C941D040C94CF020C940A030C94D90285
:100120000C94FE010C94D3020C94EE020C94CB02BE
:100130000C9429020C940E030C9421020C94B2032B
:100140000C94FC020C94E6030C94F2020C94E4026E
:100150000C94B5030C9400030C94D8030C94F8028F
:100160000C9459020C9486030C940D020C94DC023E
:100170000C9413030C94C4030C94EA020C94E00254
:100180000C94C7070C9406030000220025002800E9
:100190002B002E003100340002010000050108018F
:1001A0000B010505050507050808080802020202FB
:1001B0000A0A080804040404010101010101010103
:1001C0000303030303030303040707070C0C0C0CCE
:1001D0000C0C0C0C020202020606060606060606B7
:1001E0000B0B0B0B0B0B0B0B010210202008081044
:1001F0002040102040800201020108040201010297
:10020000040810204080804020100804020180046F
:1002100002018040201008040201080402010102CA
:1002200004081020408001020408102040800000D3
:100230000A0B02090C0D0E08070304010000000060
:1002400000000000000000000000000000000000AE
:10025000000000000000000000001211100000006B
:10026000000000000000000000000000000000008E
:1002700000000000C70711241FBECFEFD1E2DEBF90
:10028000CDBF00E00CBF12E0A0E0B2E0EEE8F3E189
:1002900000E00BBF02C007900D92AA3CB107D9F74E
:1002A00024E0AAECB2E001C01D92A533B207E1F749
:1002B00011E0CBE3D1E000E006C021970109802FD7
:1002C000FE010E94B809CA33D10780E00807A9F7E8
:1002D0000E940B080C94C5090C940000382F209143
:1002E000860390918503213208F049C08091620312
:1002F0008111FCCF42E040936203309361033FEFF2
:100300003093600310925F0320935E03A5E6B3E091
:100310004EE353E0FA013E2F341B321718F43D919F
:100320003193F9CF10923D0320913D03990F922B09
:1003300090933D0390913C03913061F410923C0303
:1003400090913D039093BB009091BC0093FDF8CF3A
:1003500095EC01C095EE9093BC00909162039230B1
:10036000E1F3909160039F3F79F0809160038032C8
:1003700041F080916003803331F084E005C081E07A
:1003800003C082E001C083E01092640310928603F0
:1003900010926303089585ED8093BC008091BC00AA
:1003A00084FDFCCF1092620308954091F502262F40
:1003B00030E0240F311D21323105DCF4209162033D
:1003C0002430C9F4FC0180E090E0861758F43091A5
:1003D000F5022191DC01AD52BD4FA30FB11D2C934D
:1003E0000196F3CF8091F502680F6093F50280E0EB
:1003F000089581E0089582E008950895E0911B0337
:1004000080911A03E81730F4F0E0E45EFC4F80813D
:1004100090E008958FEF9FEF089590911B038091D6
:100420001A03981750F4E92FF0E0E45EFC4F2081A6
:1004300030E09F5F90931B0302C02FEF3FEFC90195
:10044000089580911A0390E020911B03821B91096B
:100450000895CF92DF92EF92FF920F931F93CF9365
:10046000DF937C01262F972F8A01809163038823D5
:1004700091F0C62FD72F6E01C40ED51ECC15DD0509
:1004800071F06991D701ED91FC910190F081E02D1F
:10049000C7011995F3CF642F822F0E94D501C8019F
:1004A000DF91CF911F910F91FF90EF90DF90CF9050
:1004B0000895CF93DF931F92CDB7DEB76983209164
:1004C00063032223D1F020918603203240F021E003
:1004D00030E0FC013383228380E090E015C08091FE
:1004E0006403E82FF0E0EB59FC4F998190838F5F14
:1004F000809364038093860305C061E0CE0101967A
:100500000E94D50181E090E00F90DF91CF91089596
:10051000CF93DF931F92CDB7DEB791E09093630343
:1005200099E2909385031092640310928603682FDA
:10053000606887E893E049830E9459024981642FEB
:1005400087E893E00E94590281E00F90DF91CF91FC
:100550000C946E01362F90E0FC01E25DFD4F44915A
:10056000FC01E851FE4F2491FC01EE55FE4F9491A1
:10057000992309F46BC0442309F455C050E0FA01F3
:100580003197E231F10508F04EC08827EE58FF4F51
:100590008F4F0C94B809809180008F7707C08091AD
:1005A00080008F7D03C080918000877F80938000D2
:1005B0003AC084B58F7702C084B58F7D84BD33C0C7
:1005C0008091B0008F7703C08091B0008F7D8093C1
:1005D000B00029C0809190008F7707C08091900073
:1005E0008F7D03C080919000877F809390001BC017
:1005F0008091A0008F7707C08091A0008F7D03C0FD
:100600008091A000877F8093A0000DC08091200181
:100610008F7707C0809120018F7D03C080912001DA
:10062000877F80932001E92FF0E0EE0FFF1FE8574E
:10063000FE4FA591B4918FB7F894EC91311103C09E
:1006400020952E2301C02E2B2C938FBF08953FB7EA
:10065000F8948091CF029091D002A091D102B091F4
:10066000D20226B5A89B05C02F3F19F00196A11D07
:10067000B11D3FBFBA2FA92F982F8827820F911D38
:10068000A11DB11DBC01CD0142E0660F771F881F7F
:10069000991F4A95D1F708958F929F92AF92BF927A
:1006A000CF92DF92EF92FF926B017C010E942703B1
:1006B0004B015C01C114D104E104F104F1F00E948A
:1006C0002703DC01CB0188199909AA09BB09883ED7
:1006D0009340A105B10570F321E0C21AD108E108E9
:1006E000F10888EE880E83E0981EA11CB11CC1148D
:1006F000D104E104F10419F7DDCFFF90EF90DF9012
:10070000CF90BF90AF909F908F900895CF92DF923F
:10071000EF92FF920F931F93CF93DF936C017A01B7
:100720008B01C0E0D0E0CE15DF0589F0D8016D91D6
:100730008D01D601ED91FC910190F081E02DC60173
:100740001995892B11F47E0102C02196ECCFC701C7
:10075000DF91CF911F910F91FF90EF90DF90CF909D
:100760000895089580E090E00895FC01538D448D34
:10077000252F30E0842F90E0821B930B541710F04C
:10078000CF96089501970895FC01918D828D981759
:1007900061F0828DDF01A80FB11D5D968C91928D65
:1007A0009F5F9F73928F90E008958FEF9FEF089562
:1007B000FC01918D828D981731F0828DE80FF11D2B
:1007C000858D90E008958FEF9FEF0895FC01918D46
:1007D000228D892F90E0805C9F4F821B91098F733F
:1007E0009927089583E993E00E94E60321E0892B8D
:1007F00009F420E0822F0895FC01848DDF01A80F09
:10080000B11DA35ABF4F2C91848D90E001968F7338
:100810009927848FA689B7892C93A089B1898C9157
:1008200080648C93938D848D981306C00288F3891D
:10083000E02D80818F7D80830895EF92FF920F934A
:100840001F93CF93DF93EC0181E0888F9B8D8C8D7C
:10085000981305C0E889F989808185FD24C0F62EAA
:100860000B8D10E00F5F1F4F0F731127E02E8C8D43
:10087000E8120CC00FB607FCFACFE889F98980812D
:1008800085FFF5CFCE010E94FC03F1CF8B8DFE01D9
:10089000E80FF11DE35AFF4FF0820B8FEA89FB89C5
:1008A0008081806207C0EE89FF896083E889F989C9
:1008B00080818064808381E090E0DF91CF911F91FF
:1008C0000F91FF90EF900895CF93DF93EC01888D07
:1008D0008823C9F0EA89FB89808185FD05C0A88944
:1008E000B9898C9186FD0FC00FB607FCF5CF8081CA
:1008F00085FFF2CFA889B9898C9185FFEDCFCE0114
:100900000E94FC03E7CFDF91CF91089580E090E053
:10091000892B29F00E94F20381110C9400000895A4
:10092000009769F0FC0101900020E9F73197AF01D1
:10093000481B590BBC0183E993E00C94860380E0CB
:1009400090E00895CF93DF930E949004EC0184E23D
:1009500092E00E9490048C0F9D1FDF91CF9108952B
:100960008F929F92AF92BF920F931F93CF93DF937B
:10097000CDB7DEB7A1970FB6F894DEBF0FBECDBFDF
:1009800019A2423008F44AE08E010F5D1F4F842EF9
:10099000912CA12CB12CA50194010E949609E62F5F
:1009A000B901CA0101501109EA3014F4E05D01C037
:1009B000E95CD801EC93232B242B252B61F7C8018C
:1009C0000E949004A1960FB6F894DEBF0FBECDBF73
:1009D000DF91CF911F910F91BF90AF909F908F901B
:1009E0000895909162039111FCCF813208F080E26A
:1009F00091E090936203909361032FEF2093600343
:100A000010925F03280F20935E0390933D03909113
:100A10003D03926590933D0390913C03913061F4C6
:100A200010923C0390913D039093BB009091BC00C9
:100A300093FDF8CF95EC01C095EE9093BC0090919A
:100A400062039130E1F390915F03981710F4809165
:100A50005F03AEE3B3E02CE133E0F9019E2F921B7C
:100A6000981718F49D919193F9CF10921B038093DE
:100A70001A030895CF93DF9391E09093630399E273
:100A8000909385031092640310928603682F606828
:100A900087E893E00E94590281E00E946E0182E0A3
:100AA00090E00E94F10487E893E00E940D02EC01BF
:100AB00087E893E00E940D0220E030E0382FC90162
:100AC0008C2B9D2BDF91CF910895CF93DF931092C4
:100AD0001B0310921A031092640310928603109263
:100AE0006203C1E0C093610310923C0361E084E1C2
:100AF0000E94AA0261E085E10E94AA028091B900E9
:100B00008E7F8093B9008091B9008D7F8093B9006A
:100B100088E48093B80085E48093BC00C0936303AD
:100B200089E280938503109264031092860362E940
:100B300087E893E00E94590281E00E946E0181E003
:100B400090E00E94F10487E893E00E940D02843453
:100B500011F08031D1F581E080933004C0913304ED
:100B6000D0913404AE0160E070E00E948802D0931E
:100B70003404C0933304C0913104D0913204809185
:100B80003004811102C00E946505AE0160E070E092
:100B90008FE00E948802D0933204C093310441E078
:100BA00050E060E070E080E00E94880263E070E066
:100BB00080E090E00E944C0343E050E060E070E091
:100BC00080E00E94880281E001C080E0DF91CF9147
:100BD00008950E94C0091F920F920FB60F92112420
:100BE0000BB60F922F933F934F935F936F937F9327
:100BF0008F939F93AF93BF93EF93FF938091B9002F
:100C0000887F803609F49CC068F5883209F45BC09F
:100C100090F4803109F454C038F4882309F4F6C004
:100C2000883009F44DC0F6C0883109F44CC08032D8
:100C300009F45DC0EFC0803409F468C048F4803323
:100C400009F455C0883309F0E5C080936003D8C02B
:100C5000803509F44FC0883509F45DC0883409F047
:100C6000D9C0D6C0883909F4C7C0A8F4883709F4B8
:100C700067C038F4883609F463C0803709F460C06F
:100C8000C9C0883809F4B8C0803909F45FC0803819
:100C900009F0C0C05BC0803B09F486C038F4803ADC
:100CA00009F466C0883A09F47FC0B4C0803C09F4F6
:100CB000A7C0883C09F4A4C0883B09F48AC0AAC034
:100CC00080913D0310C090915F0380915E0398175F
:100CD00070F5E0915F0381E08E0F80935F03F0E099
:100CE000E25CFC4F80818093BB0085EC86C08093E2
:100CF00060038EC0E0915F0381E08E0F80935F03FD
:100D00008091BB00F0E0E25CFC4F808390915F0338
:100D100080915E036EC0E0915F0381E08E0F80934F
:100D20005F038091BB00F0E0E25CFC4F8083809128
:100D3000610381116DC081E080933C0384EA61C04E
:100D400083E08093620310921903CFCF809119033F
:100D5000803208F051C0E091190381E08E0F80933A
:100D600019038091BB00F0E0E750FD4F8083BDCFB9
:100D700085EC8093BC00109262038091190380324D
:100D800030F4E0911903F0E0E750FD4F10826091DC
:100D9000190370E0E091F702F091F80289EF92E018
:100DA00019951092190336C084E080936203109263
:100DB000F6021092F502E091F302F091F402199517
:100DC0008091F502811105C081E08093F5021092B7
:100DD000D302E091F60281E08E0F8093F602F0E0FC
:100DE000ED52FD4F80818093BB009091F60280917F
:100DF000F502981708F479CF85E88093BC000AC003
:100E000085EC8093BC001092620304C010926003D2
:100E10000E94CB01FF91EF91BF91AF919F918F9174
:100E20007F916F915F914F913F912F910F900BBEEA
:100E30000F900FBE0F901F9018951F920F920FB634
:100E40000F9211242F933F938F939F93AF93BF9350
:100E50008091CB029091CC02A091CD02B091CE02B4
:100E60003091CA0223E0230F2D3720F40196A11DF3
:100E7000B11D05C026E8230F0296A11DB11D2093C8
:100E8000CA028093CB029093CC02A093CD02B09380
:100E9000CE028091CF029091D002A091D102B09168
:100EA000D2020196A11DB11D8093CF029093D00272
:100EB000A093D102B093D202BF91AF919F918F9135
:100EC0003F912F910F900FBE0F901F9018951F927A
:100ED0000F920FB60F9211240BB60F922F933F93E0
:100EE0004F935F936F937F938F939F93AF93BF9332
:100EF000EF93FF9383E993E00E94FC03FF91EF914E
:100F0000BF91AF919F918F917F916F915F914F9121
:100F10003F912F910F900BBE0F900FBE0F901F901F
:100F200018951F920F920FB60F9211240BB60F92C5
:100F30002F938F939F93EF93FF93E091A303F091EF
:100F4000A4038081E091A903F091AA0382FD12C05D
:100F500090818091AC038F5F8F732091AD038217D6
:100F600051F0E091AC03F0E0ED56FC4F958F80938B
:100F7000AC0301C08081FF91EF919F918F912F91E0
:100F80000F900BBE0F900FBE0F901F901895E7E8C3
:100F9000F3E01382128288EE93E0A0E0B0E0848355
:100FA0009583A683B78324E032E031832083E3E98D
:100FB000F3E01382128284839583A683B78386E14C
:100FC00092E09183808385EC90E09587848784EC20
:100FD00090E09787868780EC90E0918B808B81EC06
:100FE00090E0938B828B82EC90E0958B848B86ECE7
:100FF00090E0978B868B118E128E138E148EE0E309
:10100000F4E010828BEE90E09483838381E090E0A3
:10101000928381830895789484B5826084BD84B579
:10102000816084BD85B5826085BD85B5816085BDE3
:1010300080916E00816080936E001092810080919B
:101040008100826080938100809181008160809323
:101050008100809180008160809380008091B10048
:1010600084608093B1008091B00081608093B00073
:1010700080917A00846080937A0080917A00826007
:1010800080937A0080917A00816080937A008091C9
:101090007A00806880937A001092C100E091A303E7
:1010A000F091A40382E08083E0919F03F091A0037C
:1010B0001082E091A103F091A2038FEC8083109243
:1010C000AB03E091A703F091A80386E08083E09151
:1010D000A503F091A603808180618083E091A50340
:1010E000F091A603808188608083E091A503F09150
:1010F000A603808180688083E091A503F091A60318
:1011000080818F7D80830E946505882391F087E22E
:1011100092E00E94A20468EE73E080E090E00E94FA
:101120004C0360E084E00E94AA029AE0492E512C10
:1011300090C084E392E00E94A204FFCF809130042B
:10114000811102C00E94650584E10E943A0586E192
:101150000E943A054C0188E10E943A055C018AE14F
:101160000E943A056C018091330490913404853DCE
:10117000910509F495C00CF47AC0863F910509F4F5
:101180008AC08F3F910509F07DC063E070E080E088
:1011900090E00E944C03E80CF91C0A0D1B1DCC0DBD
:1011A000DD1D21E0621A710849F660E084E00E94CA
:1011B000AA02C701B2010E9482097B01C801B201E3
:1011C0000E9482098B01CE01B2010E948209EB01CB
:1011D00081E692E00E949004B70180E090E04AE04E
:1011E0000E94B00487E692E00E949004B80180E07B
:1011F00090E04AE00E94B00483E792E00E949004ED
:10120000BE0180E090E04AE00E94B00484E292E0F7
:101210000E949004C7010197873C910508F059C0CE
:10122000C8018D5291408B3B924008F043C0CE01E3
:10123000895C91098B329140E8F58EE792E00E943B
:10124000A2046CE271E080E090E00E944C030E94F6
:10125000860461E084E00E94AA02C0E0D0E000E0E1
:1012600010E0E12CF12C8AE0682E712C67CF0097FA
:10127000E1F0803C910509F08ECF6AE970E080E0F2
:1012800090E087CF8B3E910509F085CF62E370E057
:1012900080E090E07ECF68E170E080E090E079CF80
:1012A00065E670E080E090E074CF6CEB72E080E087
:1012B00090E06FCFC80185569109873C910548F4AD
:1012C000CE018D529140833F914018F480E992E025
:1012D000B6CF81E9E81A81E0F80A27E5E21622E0B4
:1012E000F20668F405561109073C110540F4C5568D
:1012F000D109C73CD10518F481EA92E0A0CF81EB77
:1013000092E09DCFAA1BBB1B51E107C0AA1FBB1FC8
:10131000A617B70710F0A61BB70B881F991F5A9581
:10132000A9F780959095BC01CD010895A1E21A2EF0
:10133000AA1BBB1BFD010DC0AA1FBB1FEE1FFF1F79
:10134000A217B307E407F50720F0A21BB30BE40BC9
:10135000F50B661F771F881F991F1A9469F7609510
:101360007095809590959B01AC01BD01CF010895CA
:10137000EE0FFF1F881F8BBF0790F691E02D199489
:0E13800081E090E0F8940C94C509F894FFCF3A
:10138E000000000059022902B203FD0121020D02E4
:10139E00FE01000000001D048603B5036404E6038D
:1013AE00C403D8030D0A00466F756E642073656E14
:1013BE00736F72004E6F20544353333437323520DF
:1013CE00666F756E64202E2E2E20636865636B200B
:1013DE00796F757220636F6E6E656374696F6E736D
:1013EE00005265643A200020202020477265656E09
:1013FE003A200020202020426C75653A2000536868
:10140E00697420697320677265656E20796F2E008E
:10141E005368697420697320626C756520796F2E2C
:10142E0000536869742069732072656420796F2E89
:10143E000069646B2077686174207468617420732E
:0A144E0068697420697320796F004B
:00000001FF
