:100000000C947F010C94B0010C94B0010C94B001DD
:100010000C94B0010C94B0010C94B0010C94B0019C
:100020000C94B0010C94B0010C94B0010C94B0018C
:100030000C94B0010C94B0010C94B0010C94B0017C
:100040000C94B0010C94B0010C94B0010C94B0016C
:100050000C94B0010C94B0010C94B0010C941506F2
:100060000C94B0010C94C9060C949F060C94B0013A
:100070000C94B0010C94B0010C94B0010C94B0013C
:100080000C94B0010C94B0010C94B0010C94B0012C
:100090000C94B0010C94B0010C94B0010C94FF06C8
:1000A0000C94B0010C94B0010C94B0010C94B0010C
:1000B0000C94B0010C94B0010C94B0010C94B001FC
:1000C0000C94B0010C94B0010C94B0010C94B001EC
:1000D0000C94B0010C94B0010C94B0010C94B001DC
:1000E0000C94B00192099509840988098C09CC09FE
:1000F00099099D09A309A709AB09B109B509B9096E
:10010000CC09BF09C309C709080A0D0A120A1C0A4B
:10011000260A9F0A300A380A400A4A0A540A5E0A26
:100120006D0A770A9F0A810A8B0A950A0C94CC09FA
:100130000C9429030C94EC010C94300A0C94400AA2
:100140000C9495090C94150E0C94950A0C941903B3
:100150000C948B0A0C94DD010C9475030C949D098E
:100160000C94BF090C949F0A0C9445030C94380A14
:100170000C948C090C94A5030C9488090C94AB097D
:100180000C94C3090C94260A0C946D0A0C94770AFB
:100190000C943D030C94210E0C94080A0C949909BC
:1001A0000C94A7090C94B2010C94810A0C94B50923
:1001B0000C9445020C94A3090C94B1090C940D0AFB
:1001C0000C941A030C9400020C94B9090C94540A70
:1001D0000C948C020C944A0A0C94C7090C945E0A85
:1001E0000C940E020C941C0A0C9484090C94920931
:1001F0000C94120A00000A0B02090C0D0E080703EA
:1002000004010000000000000000000000000000E9
:1002100000000000000000000000000000000000DE
:10022000121110000000000000000000000000009B
:100230000000000000000000000000002200250077
:1002400028002B002E0031003400020100000501BF
:1002500008010B0100002100240027002A002D00C6
:100260003000330001010000040107010A01050507
:100270000505070508080808020202020A0A08081C
:10028000040404040101010101010101030303034A
:1002900003030303040707070C0C0C0C0C0C0C0CD9
:1002A0000202020206060606060606060B0B0B0BEA
:1002B0000B0B0B0B0102102020080810204010200F
:1002C000408002010201080402010102040810201A
:1002D0004080804020100804020180040201804018
:1002E0002010080402010804020101020408102081
:1002F00040800102040810204080210E150E1124B8
:100300001FBECFEFD1E2DEBFCDBF00E00CBF25E0C6
:10031000A6E8B3E001C01D92A631B207E1F713E0F1
:10032000A0E0B2E0E8ECF1E200E00BBF02C0079011
:100330000D92A638B107D9F711E0CEE7D1E000E081
:1003400006C021970109802FFE010E94960ECD372D
:10035000D10780E00807A9F70E94850B0C94D21002
:100360000C940000CF92DF92EF92FF920F931F93B5
:10037000CF93DF936C017A018B01C0E0D0E0CE1502
:10038000DF0589F0D8016D918D01D601ED91FC91C9
:100390000190F081E02DC6011995892B11F47E01A1
:1003A00002C02196ECCFC701DF91CF911F910F9131
:1003B000FF90EF90DF90CF900895FC01538D448D16
:1003C000252F30E0842F90E0821B930B541710F000
:1003D000CF96089501970895FC01918D828D98170D
:1003E00061F0828DDF01A80FB11D5D968C91928D19
:1003F0009F5F9F73928F90E008958FEF9FEF089516
:10040000FC01918D828D981731F0828DE80FF11DDE
:10041000858D90E008958FEF9FEF0895FC01918DF9
:10042000228D892F90E0805C9F4F821B91098F73F2
:100430009927089587E594E00E940E0221E0892B18
:1004400009F420E0822F0895FC01848DDF01A80FBC
:10045000B11DA35ABF4F2C91848D90E001968F73EC
:100460009927848FA689B7892C93A089B1898C910B
:1004700080648C93938D848D981306C00288F389D1
:10048000E02D80818F7D80830895EF92FF920F93FE
:100490001F93CF93DF93EC0181E0888F9B8D8C8D30
:1004A000981305C0E889F989808185FD24C0F62E5E
:1004B0000B8D10E00F5F1F4F0F731127E02E8C8DF7
:1004C000E8120CC00FB607FCFACFE889F9898081E1
:1004D00085FFF5CFCE010E942402F1CF8B8DFE0166
:1004E000E80FF11DE35AFF4FF0820B8FEA89FB8979
:1004F0008081806207C0EE89FF896083E889F9897D
:1005000080818064808381E090E0DF91CF911F91B2
:100510000F91FF90EF900895CF93DF93EC01888DBA
:100520008823C9F0EA89FB89808185FD05C0A889F7
:10053000B9898C9186FD0FC00FB607FCF5CF80817D
:1005400085FFF2CFA889B9898C9185FFEDCFCE01C7
:100550000E942402E7CFDF91CF91089580E090E0E0
:10056000892B21F00E941A02811125C080E090E0C1
:10057000892B41F080E090E0892B21F00E9400005F
:1005800081111CC080E090E0892B41F080E090E078
:10059000892B21F00E940000811113C080E090E0BF
:1005A000892BA1F080E090E0892B81F00E9400006F
:1005B00081110AC008950E940000D8CF0E94000057
:1005C000E1CF0E940000EACF0C940000089585ED71
:1005D0008093BC008091BC0084FDFCCF109233045A
:1005E00008954091B603262F30E0240F311D2132AB
:1005F0003105DCF4209133042430C9F4FC0180E09F
:1006000090E0861758F43091B6032191DC01AC5686
:10061000BC4FA30FB11D2C930196F3CF8091B6036D
:10062000680F6093B60380E0089581E0089582E04A
:1006300008950895E091EC038091EB03E81730F4FE
:10064000F0E0E351FC4F808190E008958FEF9FEF41
:1006500008959091EC038091EB03981750F4E92FE3
:10066000F0E0E351FC4F208130E09F5F9093EC037A
:1006700002C02FEF3FEFC90108958091EB0390E096
:100680002091EC03821B91090895CF92DF92EF92A3
:10069000FF920F931F93CF93DF937C01262F972F09
:1006A0008A0180913404882391F0C62FD72F6E01E0
:1006B000C40ED51ECC15DD0571F06991D701ED9101
:1006C000FC910190F081E02DC7011995F3CF642FC3
:1006D000822F0E94F102C801DF91CF911F910F91EB
:1006E000FF90EF90DF90CF900895CF93DF931F920C
:1006F000CDB7DEB76983209134042223D1F0209155
:100700005604203240F021E030E0FC0133832283A4
:1007100080E090E015C080913504E82FF0E0EA5CBD
:10072000FB4F998190838F5F8093350480935604AB
:1007300005C061E0CE0101960E94F10281E090E0E7
:100740000F90DF91CF910895089580E090E0089593
:10075000CF93DF93EC01BC0186E00E94E009BE016B
:1007600084E00E94E00960E070E085E00E94E0091A
:1007700060E070E083E0DF91CF910C94E009CF93CB
:10078000DF93EC01BC0185E00E94E009BE0183E03B
:100790000E94E00960E070E086E00E94E00960E00D
:1007A00070E084E0DF91CF910C94E009CF93DF9368
:1007B000EC0160E070E085E00E94E00960E070E03C
:1007C00084E00E94E009BE0186E00E94E009BE01CB
:1007D00083E0DF91CF910C94E00960E070E085E068
:1007E0000E94E00960E070E084E00E94E00960E0BF
:1007F00070E086E00E94E00960E070E083E00C9425
:10080000E009CF93DF93EC01BC0185E00E94E00991
:10081000BE0184E00E94E00960E070E086E00E9492
:10082000E00960E070E083E0DF91CF910C94E00993
:100830000E94B410EF92FF920F931F93CF93DF9318
:1008400086E30E94A80A909387038093860389E336
:100850000E94A80A909389038093880388E30E94EA
:10086000A80A90938B0380938A038BE30E94A80AC3
:1008700090938D0380938C038AE30E94A80A90933F
:100880008F0380938E0387E30E94A80A90939103BD
:100890008093900306E813E0CBEDD3E080E3F82EDD
:1008A00091E3E92EF801819191918F018A3F9105A1
:1008B00014F0E88201C0F882699187E594E00E9413
:1008C0004502F3E0C13EDF0769F788E992E0DF9176
:1008D000CF911F910F91FF90EF900C942A090E94E5
:1008E0001A046AE272E08BED93E00E94C210892B39
:1008F00021F481E490E00E94010461E372E08BED59
:1009000093E00E94C210892B21F481E490E00E94C0
:10091000010468E372E08BED93E00E94C210892B22
:1009200021F481E490E00E9401046FE372E08BED1A
:1009300093E00E94C210892B41F066E472E08BEDD7
:1009400093E00E94C210892B79F588EC90E00E9418
:10095000A8036AE272E08BED93E00E94C210892B3B
:10096000D9F061E372E08BED93E00E94C210892B15
:1009700099F068E372E08BED93E00E94C210892B3E
:1009800059F00E941A0488EC90E00E94A8038DE4BC
:1009900092E00E942A09DDCF0E94ED036CE271E033
:1009A00080E090E00E94C70A6DE572E08BED93E075
:1009B0000E94C210892B19F164E672E08BED93E07E
:1009C0000E94C210892BD9F02AC061E372E08BED3E
:1009D00093E00E94C210892BD1F068E372E08BEDA6
:1009E00093E00E94C210892B91F00E941A0488ECB7
:1009F00090E00E94BF038BE692E00E942A096AE21F
:100A000072E08BED93E00E94C210892BF1F60E94F8
:100A1000ED036CE271E080E090E00E94C70A6CE7B1
:100A200072E08BED93E00E94C210892B41F063E8E5
:100A300072E08BED93E00E94C210892BB9F40E9402
:100A4000ED036CE772E08BED93E00E94C210892BFE
:100A500039F40E941A048AE892E00E941809F9CF3A
:100A60000E94ED038CE992E00C942A0908950E94FB
:100A70001A0465EC72E08BED93E00E94C210892BA2
:100A800049F46EEB72E08BED93E00E94C210892B6B
:100A9000E9F545C06EEB72E08BED93E00E94C21069
:100AA000892B79F36CEC72E08BED93E00E94C2101D
:100AB000892B39F30E941A040E946F0481EA92E0A4
:100AC0000E942A096CE772E08BED93E00E94C2104D
:100AD000892B91F468EE73E080E090E00E94C70AF1
:100AE00080E590E00E94D60364EF71E080E090E042
:100AF0000E94C70A0E94ED0367EB72E08BED93E062
:100B00000E94C210892B09F0B4CFBBCF6CEC72E00D
:100B10008BED93E00E94C210892B09F060C080E544
:100B200090E00E94010468EC70E080E090E00E9498
:100B3000C70A0E94ED036CE271E080E090E00E9441
:100B4000C70A8DE790E00E94D60362E370E080E080
:100B500090E00E94C70A0E94ED036CE271E080E021
:100B600090E00E94C70A60EE72E08BED93E00E9475
:100B7000C210892BD9F067EE72E08BED93E00E94F2
:100B8000C210892B99F06CEC72E08BED93E00E941F
:100B9000C210892B59F00E941A048AEF90E00E943B
:100BA000A80383ED92E00E942A09DDCF0E94ED03A5
:100BB0006CE271E080E090E00E94C70A6AE272E0B5
:100BC0008BED93E00E94C210892B39F00E941A0429
:100BD0008BEE90E00E94A803F1CF0C94ED030895F2
:100BE0003FB7F8948091E7039091E803A091E9035F
:100BF000B091EA0326B5A89B05C02F3F19F00196D6
:100C0000A11DB11D3FBFBA2FA92F982F8827820F92
:100C1000911DA11DB11DBC01CD0142E0660F771FE2
:100C2000881F991F4A95D1F708951F920F920FB60A
:100C30000F9211242F933F938F939F93AF93BF9362
:100C40008091E3039091E403A091E503B091E60362
:100C50003091E20323E0230F2D3720F40196A11DEC
:100C6000B11D05C026E8230F0296A11DB11D2093DA
:100C7000E2038093E3039093E403A093E503B0932E
:100C8000E6038091E7039091E803A091E903B09116
:100C9000EA030196A11DB11D8093E7039093E80339
:100CA000A093E903B093EA03BF91AF919F918F9115
:100CB0003F912F910F900FBE0F901F901895EF92BC
:100CC000FF920F931F93CF93DF93EC017B018A0177
:100CD00088819981009729F02A813B812417350763
:100CE000F8F4B8016F5F7F4F0E94CB0F009759F067
:100CF000998388831B830A832C813D81232B81F474
:100D0000FC0110820DC088819981009711F00E942A
:100D1000330F198218821D821C821B821A8207C01F
:100D20001D830C83B701888199810E94CB10CE016D
:100D3000DF91CF911F910F91FF90EF9008951F9237
:100D40000F920FB60F9211240BB60F922F933F9371
:100D50004F935F936F937F938F939F93AF93BF93C3
:100D6000EF93FF9387E594E00E942402FF91EF91B7
:100D7000BF91AF919F918F917F916F915F914F91B3
:100D80003F912F910F900BBE0F900FBE0F901F90B1
:100D900018951F920F920FB60F9211240BB60F9257
:100DA0002F938F939F93EF93FF93E0916704F091BC
:100DB00068048081E0916D04F0916E0482FD12C0A0
:100DC0009081809170048F5F8F73209171048217DE
:100DD00051F0E0917004F0E0E95AFB4F958F809359
:100DE000700401C08081FF91EF919F918F912F91AD
:100DF0000F900BBE0F900FBE0F901F9018951F9273
:100E00000F920FB60F9211240BB60F922F933F93B0
:100E10004F935F936F937F938F939F93AF93BF9302
:100E2000EF93FF938091B900887F803609F49CC0CE
:100E300068F5883209F45BC090F4803109F454C03D
:100E400038F4882309F4F6C0883009F44DC0F6C0A0
:100E5000883109F44CC0803209F45DC0EFC08034A1
:100E600009F468C048F4803309F455C0883309F0A8
:100E7000E5C080933104D8C0803509F44FC088356F
:100E800009F45DC0883409F0D9C0D6C0883909F4A6
:100E9000C7C0A8F4883709F467C038F4883609F465
:100EA00063C0803709F460C0C9C0883809F4B8C08D
:100EB000803909F45FC0803809F0C0C05BC0803B56
:100EC00009F486C038F4803A09F466C0883A09F417
:100ED0007FC0B4C0803C09F4A7C0883C09F4A4C01A
:100EE000883B09F48AC0AAC080910E0410C090917A
:100EF000300480912F04981770F5E091300481E060
:100F00008E0F80933004F0E0E15FFB4F808180938F
:100F1000BB0085EC86C0809331048EC0E091300424
:100F200081E08E0F809330048091BB00F0E0E15FA0
:100F3000FB4F80839091300480912F046EC0E0912C
:100F4000300481E08E0F809330048091BB00F0E08C
:100F5000E15FFB4F80838091320481116DC081E09D
:100F600080930D0484EA61C083E08093330410927F
:100F7000DA03CFCF8091DA03803208F051C0E091DC
:100F8000DA0381E08E0F8093DA038091BB00F0E0FA
:100F9000E654FC4F8083BDCF85EC8093BC0010925B
:100FA00033048091DA03803230F4E091DA03F0E028
:100FB000E654FC4F10826091DA0370E0E091B803D0
:100FC000F091B9038AEB93E019951092DA0336C0D9
:100FD00084E0809333041092B7031092B603E0913B
:100FE000B403F091B50319958091B603811105C042
:100FF00081E08093B60310929403E091B70381E0FF
:101000008E0F8093B703F0E0EC56FC4F8081809305
:10101000BB009091B7038091B603981708F479CF7D
:1010200085E88093BC000AC085EC8093BC001092D8
:10103000330404C0109231040E94E702FF91EF9143
:10104000BF91AF919F918F917F916F915F914F91E0
:101050003F912F910F900BBE0F900FBE0F901F90DE
:101060001895382F2091560490910505213208F0EB
:1010700049C0809133048111FCCF42E04093330496
:10108000309332043FEF30933104109230042093B8
:101090002F04A6E3B4E04FE054E0FA013E2F341BE6
:1010A000321718F43D913193F9CF10920E0420912C
:1010B0000E04990F922B90930E0490910D04913091
:1010C00061F410920D0490910E049093BB009091E6
:1010D000BC0093FDF8CF95EC01C095EE9093BC0059
:1010E000909133049230E1F3909131049F3F79F075
:1010F00080913104803241F080913104803331F0AD
:1011000084E005C081E003C082E001C083E010926A
:10111000350410925604109234040895CF93DF934F
:101120001F92CDB7DEB791E09093340499E290938B
:1011300005051092350410925604682F606886E009
:1011400095E049830E9475034981642F86E095E00C
:101150000E94750381E00F90DF91CF910C943108CC
:10116000909133049111FCCF813208F080E291E03C
:1011700090933304909332042FEF20933104109214
:101180003004280F20932F0490930E0490910E04A6
:10119000926590930E0490910D04913061F4109239
:1011A0000D0490910E049093BB009091BC0093FDB0
:1011B000F8CF95EC01C095EE9093BC00909133046C
:1011C0009130E1F390913004981710F4809130043D
:1011D000AFE0B4E02DEE33E0F9019E2F921B98179B
:1011E00018F49D919193F9CF1092EC038093EB0347
:1011F000089590E0FC01EC54FD4F2491FC01E2596C
:10120000FD4F8491882399F090E0880F991FFC018D
:10121000EC5AFD4FA591B491FC01E65CFD4F859120
:1012200094918FB7F894EC91E22BEC938FBF0895D3
:10123000009769F0FC0101900020E9F73197AF01B8
:10124000481B590BBC0187E594E00C94B20180E087
:1012500090E00895CF93DF930E941809EC0182E893
:1012600093E00E9418098C0F9D1FDF91CF91089584
:10127000CF93DF9391E09093340499E29093050526
:101280001092350410925604682F606886E095E04D
:101290000E94750381E00E94310882E090E00E9484
:1012A000B00886E095E00E942903EC0186E095E015
:1012B0000E94290320E030E0382FC9018C2B9D2BA0
:1012C000DF91CF910895362F90E0FC01EC50FE4F56
:1012D0004491FC01EC54FD4F2491FC01E259FD4F77
:1012E0009491992309F46BC0442309F455C050E04C
:1012F000FA013197E231F10508F04EC08827EE5827
:10130000FF4F8F4F0C94960E809180008F7707C00F
:10131000809180008F7D03C080918000877F8093C3
:1013200080003AC084B58F7702C084B58F7D84BDBC
:1013300033C08091B0008F7703C08091B0008F7D63
:101340008093B00029C0809190008F7707C0809172
:1013500090008F7D03C080919000877F80939000E4
:101360001BC08091A0008F7707C08091A0008F7D67
:1013700003C08091A000877F8093A0000DC0809162
:1013800020018F7707C0809120018F7D03C080915D
:101390002001877F80932001E92FF0E0EE0FFF1FEF
:1013A000E65CFD4FA591B4918FB7F894EC913111A3
:1013B00003C020952E2301C02E2B2C938FBF0895A0
:1013C0001F93CF93DF93182FEB010E94F90820970A
:1013D00011F460E004C0CF3FD10539F461E0812F02
:1013E000DF91CF911F910C946309E12FF0E0EC5055
:1013F000FE4FE4914E2F50E0FA013197E231F105B2
:1014000008F09DC08827EC57FF4F8F4F0C94960E25
:1014100084B5806884BDC7BD97C084B5806284BD33
:10142000C8BD92C080918000806880938000D09376
:101430008900C093880088C080918000806280937A
:101440008000D0938B00C0938A007EC08091800082
:10145000886080938000D0938D00C0938C0074C00E
:101460008091B00080688093B000C093B3006CC0DE
:101470008091B00080628093B000C093B40064C0DB
:1014800080919000806880939000D0939900C093E1
:1014900098005AC080919000806280939000D09311
:1014A0009B00C0939A0050C0809190008860809308
:1014B0009000D0939D00C0939C0046C08091A000F6
:1014C00080688093A0008091A0008F7B8093A00013
:1014D000D093A900C093A80037C08091A00080627B
:1014E0008093A000D093AB00C093AA002DC0809140
:1014F000A00088608093A000D093AD00C093AC00A2
:1015000023C080912001806880932001D09329011D
:10151000C093280119C0809120018062809320012E
:10152000D0932B01C0932A010FC0809120018860C5
:1015300080932001D0932D01C0932C0105C0C038A9
:10154000D1050CF04BCF45CFDF91CF911F9108957E
:10155000863308F0865390917B00282F2870977F60
:10156000922B90937B008770806480937C008091A5
:101570007A00806480937A0080917A0086FDFCCFA7
:10158000809178002091790090E0922B08958F92BD
:101590009F92AF92BF92CF92DF92EF92FF926B0138
:1015A0007C010E94F0054B015C01C114D104E104EF
:1015B000F104F1F00E94F005DC01CB0188199909D2
:1015C000AA09BB09883E9340A105B10570F321E04B
:1015D000C21AD108E108F10888EE880E83E0981E4F
:1015E000A11CB11CC114D104E104F10419F7DDCF31
:1015F000FF90EF90DF90CF90BF90AF909F908F9033
:101600000895CF93DF931092EC031092EB031092A6
:1016100035041092560410923304C1E0C093320492
:1016200010920D0461E084E10E94630961E085E1AC
:101630000E9463098091B9008E7F8093B9008091E8
:10164000B9008D7F8093B90088E48093B80085E469
:101650008093BC00C093340489E280930505109206
:1016600035041092560462E986E095E00E94750305
:1016700081E00E94310881E090E00E94B00886E09D
:1016800095E00E942903843411F08031D1F581E086
:1016900080930005C0910305D0910405AE0160E080
:1016A00070E00E948E08D0930405C0930305C0919A
:1016B0000105D091020580910005811102C00E94B0
:1016C000010BAE0160E070E08FE00E948E08D093C5
:1016D0000205C093010541E050E060E070E080E069
:1016E0000E948E0863E070E080E090E00E94C70AEC
:1016F00043E050E060E070E080E00E948E0881E00E
:1017000001C080E0DF91CF910895789484B5826024
:1017100084BD84B5816084BD85B5826085BD85B595
:10172000816085BD80916E00816080936E00109213
:10173000810080918100826080938100809181008E
:10174000816080938100809180008160809380001F
:101750008091B10084608093B1008091B00081607D
:101760008093B0008091910082608093910080917D
:1017700091008160809391008091900081608093BE
:1017800090008091A10082608093A1008091A100CF
:1017900081608093A1008091A00081608093A0006F
:1017A00080912101826080932101809121018160DB
:1017B000809321018091200181608093200180919C
:1017C0007A00846080937A0080917A0082608093AE
:1017D0007A0080917A00816080937A0080917A000B
:1017E000806880937A001092C100E0916704F091C4
:1017F000680482E08083E0916304F09164041082C5
:10180000E0916504F091660480E1808310926F049A
:10181000E0916B04F0916C0486E08083E0916904B0
:10182000F0916A04808180618083E0916904F09185
:101830006A04808188608083E0916904F0916A0481
:10184000808180688083E0916904F0916A048081DE
:101850008F7D808385E00E94F90886E00E94F90868
:1018600084E00E94F90883E00E94F90860E070E0DB
:1018700085E00E94E00960E070E084E00E94E009F9
:1018800060E070E086E00E94E00960E070E083E0E4
:101890000E94E00963E872E08BED93E00E94C210C1
:1018A000892B19F00E941A04F5CF82E890E00E947B
:1018B00001046CE271E080E090E00E94C70A0E949F
:1018C000ED0368EE73E080E090E00E94C70A68EEE6
:1018D00073E080E090E00E94C70A0E94ED039AE066
:1018E000492E512C0E941A040E941A046CE073E0E5
:1018F0008BED93E00E94C210892B49F465E073E000
:101900008BED93E00E94C210892BE1F544C065E0A5
:1019100073E08BED93E00E94C210892B79F363E1B1
:1019200073E08BED93E00E94C210892B39F30E9483
:101930001A040E946F048EEE92E00E942A0967EB5F
:1019400072E08BED93E00E94C210892BB9F26CE734
:1019500072E08BED93E00E94C210892B39F668EE9D
:1019600073E080E090E00E94C70A80E590E00E946A
:10197000D60364EF71E080E090E00E94C70A0E9405
:10198000ED03B4CF63E173E08BED93E00E94C210EE
:10199000892B09F060C080E590E00E94010468ECAA
:1019A00070E080E090E00E94C70A0E94ED036CE2C4
:1019B00071E080E090E00E94C70A8DE790E00E940D
:1019C000D60362E370E080E090E00E94C70A0E94C4
:1019D000ED036CE271E080E090E00E94C70A68E2EB
:1019E00073E08BED93E00E94C210892BD9F06FE277
:1019F00073E08BED93E00E94C210892B99F063E1B4
:101A000073E08BED93E00E94C210892B59F00E9485
:101A10001A048AEF90E00E94BF038AE193E00E94DB
:101A20002A09DDCF0E94ED036CE271E080E090E0D6
:101A30000E94C70A6AE272E08BED93E00E94C21036
:101A4000892B39F00E941A048BEE90E00E94BF03AC
:101A5000F1CF0E94ED030E9437050E9437050E94D6
:101A6000370563E872E08BED93E00E94C210892B8A
:101A700009F471C00E946F04F4CF809100058111B8
:101A800002C00E94010B84E10E94380986E10E9495
:101A900038094C0188E10E9438095C018AE10E9402
:101AA00038096C018091030590910405853D9105ED
:101AB00009F489C00CF46EC0863F910509F47EC01C
:101AC0008F3F910509F071C063E070E080E090E025
:101AD0000E94C70AE80CF91C0A0D1B1DCC0DDD1D68
:101AE00081E0681A710849F664EF71E080E090E0E7
:101AF0000E94C70A60E084E00E946309C701B20146
:101B00000E94820EFB01C801B2010E94820E9B015D
:101B1000CE01B2010E94820EAF0141505109473CF3
:101B2000510508F069C0A9014D5251404B3B52404C
:101B300008F053C0AB01495C51094B32514008F0E9
:101B40004CC086E393E00E942A096CE271E080E0D9
:101B500090E00E94C70A63E872E080E090E00E9493
:101B6000C210892B09F45EC00E94ED0361E084E09D
:101B70000E94630964EF71E080E090E00E94C70A70
:101B8000C0E0D0E000E010E0E12CF12C8AE0682E0B
:101B9000712C73CF0097E1F0803C910509F09ACF4A
:101BA0006AE970E080E090E093CF8B3E910509F008
:101BB00091CF62E370E080E090E08ACF68E170E06E
:101BC00080E090E085CF65E670E080E090E080CF37
:101BD0006CEB72E080E090E07BCFA90145565109A3
:101BE000473C510548F4AB014D525140433F5140F1
:101BF00018F488E493E0A7CFE159F140E735F240CB
:101C000070F425563109273C310548F4CB0185563F
:101C10009109873C910518F489E593E094CF89E612
:101C200093E091CF0E94AE025DCE8091F40490913A
:101C3000F5040E94330F8091FA049091FB040C94F8
:101C4000330FE7E5F4E01382128288EE93E0A0E020
:101C5000B0E084839583A683B7832AE032E03183A2
:101C6000208325EC30E03587248724EC30E037876B
:101C7000268720EC30E0318B208B21EC30E0338B59
:101C8000228B22EC30E0358B248B26EC30E0378B36
:101C9000268B118E128E138E148EE6E0F5E01382E1
:101CA000128284839583A683B7838CE192E091832B
:101CB0008083E0E0F5E010828BEE90E094838383F4
:101CC00081E090E092838183EAEFF4E01182108258
:101CD000138212821582148240E050E064E873E0BF
:101CE000CF010E945F06E4EFF4E0118210821382BC
:101CF00012821582148240E050E064E873E0CF0164
:101D00000C945F06AA1BBB1B51E107C0AA1FBB1F97
:101D1000A617B70710F0A61BB70B881F991F5A9577
:101D2000A9F780959095BC01CD010895EE0FFF1F96
:101D3000881F8BBF0790F691E02D1994CF93DF9306
:101D40008230910510F482E090E0E0911405F0916A
:101D5000150520E030E0C0E0D0E0309711F140817F
:101D6000518148175907C0F04817590761F482811B
:101D70009381209719F09B838A832BC0909315053C
:101D80008093140526C02115310519F04217530719
:101D900018F49A01BE01DF01EF010280F381E02D0A
:101DA000DCCF2115310509F1281B390B2430310511
:101DB00090F412968D919C9113976115710521F005
:101DC000FB019383828304C09093150580931405CF
:101DD000FD01329644C0FD01E20FF31F8193919300
:101DE000225031092D933C933AC020911205309135
:101DF0001305232B41F4209102023091030230930A
:101E00001305209312052091000230910102211543
:101E1000310541F42DB73EB74091040250910502BF
:101E2000241B350BE0911205F0911305E217F3071F
:101E3000A0F42E1B3F0B2817390778F0AC014E5F3A
:101E40005F4F2417350748F04E0F5F1F509313055F
:101E5000409312058193919302C0E0E0F0E0CF013E
:101E6000DF91CF9108950F931F93CF93DF93009746
:101E700009F48CC0FC013297138212820091140580
:101E8000109115050115110581F420813181820F12
:101E9000931F20911205309113052817390779F502
:101EA000F0931305E093120571C0D80140E050E0B3
:101EB000AE17BF0750F412962D913C911397AD01C8
:101EC0002115310509F1D901F3CF9D01DA013383E1
:101ED000228360817181860F971F8217930769F4AF
:101EE000EC0128813981260F371F2E5F3F4F318348
:101EF00020838A819B8193838283452B29F4F093ED
:101F00001505E093140542C01396FC93EE931297C7
:101F1000ED01499159919E01240F351FE217F307F6
:101F200071F480819181840F951F029611969C9384
:101F30008E938281938113969C938E931297E0E007
:101F4000F0E0D80112968D919C911397009719F0AB
:101F5000F8018C01F6CF8D919C9198012E5F3F4F37
:101F6000820F931F2091120530911305281739070E
:101F700069F4309729F4109215051092140502C0E7
:101F8000138212821093130500931205DF91CF91F3
:101F90001F910F9108956F927F928F929F92AF92AF
:101FA000BF92CF92DF92EF92FF920F931F93CF9346
:101FB000DF93EC01009789F4CB01DF91CF911F9162
:101FC0000F91FF90EF90DF90CF90BF90AF909F90D8
:101FD0008F907F906F900C949E0EFC01E60FF71F80
:101FE0009C0122503109E217F30708F4ACC0D90173
:101FF0000D911C91119706171707B0F005301105C8
:1020000008F49FC0C80104978617970708F499C081
:1020100002501109061B170B019311936D937C93CA
:10202000CF010E94330F8DC05B01A01AB10A4C0191
:10203000800E911EA0911405B091150540E050E06E
:10204000E12CF12C109709F44AC0A815B905D1F577
:102050006D907C901197630182E0C80ED11CCA1468
:10206000DB0480F1A3014A195B096A0182E0C80E12
:10207000D11C1296BC9012971396AC91B5E0CB167A
:10208000D10440F0B282A38351834083D9016D9380
:102090007C930AC00E5F1F4FC301800F911FF9018F
:1020A00091838083EB2DFA2FE114F10431F0D701F5
:1020B0001396FC93EE93129744C0F0931505E093AA
:1020C00014053FC08D919C9111974817590708F44A
:1020D000AC017D0112960D90BC91A02DB3CF8091E3
:1020E00012059091130588159905E1F446175707D5
:1020F000C8F48091000290910102009741F48DB7DD
:102100009EB74091040250910502841B950BE8177D
:10211000F907C8F4F0931305E0931205F9017183F0
:1021200060830FC0CB010E949E0E7C01009759F086
:10213000A801BE010E94B910CE010E94330FC70151
:1021400004C0CE0102C080E090E0DF91CF911F91EA
:102150000F91FF90EF90DF90CF90BF90AF909F9046
:102160008F907F906F90089581E090E0F8940C94A8
:10217000D210FB01DC0102C001900D924150504091
:10218000D8F70895FB01DC018D91019080190110B1
:10219000D9F3990B0895FB01DC0101900D92002009
:1021A000E1F7089511E0CEE7D1E000E006C0802F0E
:1021B000FE010E94960E2196011DCF37D10780E0C7
:0821C0000807A9F7F894FFCF0E
:1021C800000016058000000000004502B201DD0194
:1021D8008C020E02EC0100020000000075034503AA
:1021E800A50319033D0329031A0330303131303078
:1021F8000030303031303000303031303030003065
:1022080031313030300030313131303000436F728D
:1022180072656374696E67204C656674003030308F
:102228003131300030303131313000436F727265F6
:102238006374696E672052696768740030303030A3
:10224800303000313131313131004920736565203A
:102258006E6F7468696E67202020200053746F7059
:102268000048454144494E4720464F52204C454678
:1022780054205455524E0030313131313000313113
:10228800313130300031313131313000313131309C
:102298003030005455524E494E47204C4546540064
:1022A8003130303030300031313030303000484556
:1022B8004144494E4720464F5220524947485420EE
:1022C8005455524E003030313131310030313131D6
:1022D800313100303030313131005455524E494E91
:1022E80047205249474854003030303030310030B0
:1022F8003030303131005368697420697320677257
:1023080065656E20796F2E005368697420697320A3
:10231800626C756520796F2E005368697420697343
:102328002072656420796F2E0069646B207768617C
:1023380074207468617420736869742069732079E3
:062348006F000D0A000009
:00000001FF
