:100000000C945E000C9486000C9486000C94860080
:100010000C9486000C9486000C9486000C94860048
:100020000C9486000C9486000C9486000C94860038
:100030000C9486000C9486000C9486000C94860028
:100040000C9448050C9486000C94B8050C94920509
:100050000C9486000C9486000C9486000C94860008
:100060000C94EA050C948600000000002400270090
:100070002A0000000000250028002B0004040404CE
:100080000404040402020202020203030303030342
:10009000010204081020408001020408102001021F
:1000A00004081020000000080002010000030407FB
:1000B00000000000000000001807390911241FBECD
:1000C000CFEFD8E0DEBFCDBF22E0ACE6B1E001C0AB
:1000D0001D92A73CB207E1F711E0A0E0B1E0E2EC2D
:1000E000F8E102C005900D92AC36B107D9F710E0E7
:1000F000CDE5D0E004C02197FE010E94420ACC3534
:10010000D107C9F70E945C070C94540C0C940000B2
:1001100080E480937C0080917A00806480937A00F0
:1001200080917A0086FDFCCF809178002091790043
:1001300090E0922B089590E0FC01EC55FF4F349134
:10014000FC01E057FF4F2491FC01E458FF4FE4917C
:10015000EE2309F43BC0332339F1333091F038F406
:100160003130A9F0323001F584B58F7D12C03730BF
:1001700091F03830A1F03430B9F4809180008F7D57
:1001800003C0809180008F77809380000DC084B57C
:100190008F7784BD09C08091B0008F7703C08091B4
:1001A000B0008F7D8093B000F0E0EE0FFF1FEE589F
:1001B000FF4FA591B4918FB7F894EC91611103C0F2
:1001C00020952E2301C02E2B2C938FBF08953FB76F
:1001D000F89480910A0290910B02A0910C02B091C8
:1001E0000D0226B5A89B05C02F3F19F00196A11D51
:1001F000B11D3FBFBA2FA92F982F8827820F911DBD
:10020000A11DB11DBC01CD0142E0660F771F881F03
:10021000991F4A95D1F708958F929F92AF92BF92FE
:10022000CF92DF92EF92FF926B017C010E94E70078
:100230004B015C01C114D104E104F104F1F00E940E
:10024000E700DC01CB0188199909AA09BB09883E9E
:100250009340A105B10570F321E0C21AD108E1086D
:10026000F10888EE880E83E0981EA11CB11CC11411
:10027000D104E104F10419F7DDCFFF90EF90DF9096
:10028000CF90BF90AF909F908F9008950895CF9298
:10029000DF92EF92FF920F931F93CF93DF936C0146
:1002A0007A018B01C0E0D0E0CE15DF0589F0D801DE
:1002B0006D918D01D601ED91FC910190F081E02DC1
:1002C000C6010995892B11F47E0102C02196ECCF5D
:1002D000C701DF91CF911F910F91FF90EF90DF90B9
:1002E000CF900895E0910002F0910102309729F03B
:1002F0001092F7011092F60109940895CF93DF93BD
:10030000AC01E091FE01F091FF013097F1F0909186
:10031000F9018091F8019817C0F090E0292F30E0A2
:100320002617370754F4D901A459BE4FEA01C20F6A
:10033000D31F88818C939F5FF1CF1092F901609356
:10034000F801CB01DF91CF910994DF91CF9108950E
:10035000FC01538D448D252F30E0842F90E0821BCB
:10036000930B541710F0CF96089501970895FC0150
:10037000918D828D981761F0828DDF01A80FB11DDC
:100380005D968C91928D9F5F9F73928F90E0089500
:100390008FEF9FEF0895FC01918D828D981731F0BA
:1003A000828DE80FF11D858D90E008958FEF9FEF0E
:1003B0000895FC01918D228D892F90E0805C9F4FE4
:1003C000821B91098F73992708958EE092E00E9415
:1003D000D90121E0892B09F420E0822F0895FC0146
:1003E000848DDF01A80FB11DA35ABF4F2C91848DBE
:1003F00090E001968F739927848FA689B7892C93F3
:10040000A089B1898C9180648C93938D848D98138D
:1004100006C00288F389E02D80818F7D8083089556
:10042000EF92FF920F931F93CF93DF93EC0181E044
:10043000888F9B8D8C8D981305C0E889F989808100
:1004400085FD24C0F62E0B8D10E00F5F1F4F0F733C
:100450001127E02E8C8DE8120CC00FB607FCFACFE6
:10046000E889F989808185FFF5CFCE010E94EF01EF
:10047000F1CF8B8DFE01E80FF11DE35AFF4FF082A3
:100480000B8FEA89FB898081806207C0EE89FF8932
:100490006083E889F98980818064808381E090E0CD
:1004A000DF91CF911F910F91FF90EF900895CF931F
:1004B000DF93EC01888D8823C9F0EA89FB8980816C
:1004C00085FD05C0A889B9898C9186FD0FC00FB63E
:1004D00007FCF5CF808185FFF2CFA889B9898C917F
:1004E00085FFEDCFCE010E94EF01E7CFDF91CF91E5
:1004F000089580E090E0892B29F00E94E5018111A8
:100500000C940000089585ED8093BC008091BC00A0
:1005100084FDFCCF1092F50108954091AC01262F87
:1005200030E0240F311D21323105DCF42091F5013A
:100530002430C9F4FC0180E090E0861758F4309133
:10054000AC012191DC01A457BE4FA30FB11D2C9328
:100550000196F3CF8091AC01680F6093AC0180E00D
:10056000089581E0089582E008950895E091F901E9
:100570008091F801E81730F4F0E0E459FE4F8081F3
:1005800090E008958FEF9FEF08959091F901809189
:10059000F801981750F4E92FF0E0E459FE4F20815C
:1005A00030E09F5F9093F90102C02FEF3FEFC90148
:1005B00008958091F80190E02091F901821B910942
:1005C0000895CF93DF9300D0CDB7DEB7CB01642F72
:1005D00049835A830E948D024981842F5A81952F25
:1005E0000F900F90DF91CF910895CF93DF931F92DB
:1005F000CDB7DEB7698361E0CE0101960E948D021E
:1006000081E090E00F90DF91CF910895089580E010
:1006100090E008958091BD029091BE02009711F084
:100620000C94450960E070E0CB01089561157105F7
:1006300079F0FB0101900020E9F73197AF01461BEB
:10064000570BDC01ED91FC910280F381E02D0994C0
:1006500080E090E00895CF93DF93BC018EE092E0BC
:100660000E941603EC016CE271E08EE092E00E94C1
:1006700016038C0F9D1FDF91CF9108958F929F924B
:10068000AF92BF920F931F93CF93DF93CDB7DEB797
:10069000A1970FB6F894DEBF0FBECDBF19A24230AE
:1006A00008F44AE08E010F5D1F4F842E912CA12C7F
:1006B000B12CA50194010E940C0AE62FB901CA01D0
:1006C00001501109EA3014F4E05D01C0E95CD80181
:1006D000EC93232B242B252B61F7B8018EE092E0BD
:1006E0000E941603A1960FB6F894DEBF0FBECDBFD1
:1006F000DF91CF911F910F91BF90AF909F908F90FE
:100700000895CF92DF92EF92FF92CF93DF936B0128
:100710007C01E0910E02F0910F020190F081E02D3A
:100720006DE28EE092E00995EC0166277727CB0118
:100730006C197D098E099F094AE00E943E038C0FC7
:100740009D1FDF91CF91FF90EF90DF90CF900895A4
:10075000CF93DF9397FF03C00E94810303C04AE059
:100760000E943E03EC016CE271E08EE092E00E9498
:1007700016038C0F9D1FDF91CF9108950F931F9348
:10078000CF93DF938C01EB01FC0180819181009775
:10079000B1F0688179816115710579F042815381E9
:1007A0002C813D814217530740F00E944D0C8C81F3
:1007B0009D81F8019583848313C00E94DD0A88819E
:1007C0009981F801918380838A819B8193838283BD
:1007D0008C819D8195838483198218821B821A8261
:1007E0001D821C82DF91CF911F910F9108950F936D
:1007F0001F93CF93DF93EC0188819981009729F0B3
:100800002A813B812617370788F48B016F5F7F4F62
:100810000E94750B009761F0998388831B830A837C
:100820002C813D81232B11F4FC01108281E001C059
:1008300080E0DF91CF911F910F910895EF92FF9289
:100840000F931F93CF93DF93EC017B018A01BA01D1
:100850000E94F7032881398181110DC021153105CE
:1008600019F0C9010E94DD0A198218821D821C82BA
:100870001B821A8206C01D830C83B701C9010E9426
:100880004D0CCE01DF91CF911F910F91FF90EF9012
:100890000895CF93DF93EC016115710559F0FB01C9
:1008A00001900020E9F73197AF01461B570B0E94DA
:1008B0001E040CC088819981009711F00E94DD0A06
:1008C000198218821D821C821B821A82CE01DF913E
:1008D000CF910895FC011182108213821282158239
:1008E00014826115710551F0FB0101900020E9F7B8
:1008F0003197AF01461B570B0C941E040895EF92DD
:10090000FF920F931F93CF93DF9300D0CDB7DEB745
:10091000EE24E3949091F8018091F901981769F120
:100920008BEA92E00E94C502F82E89831A82009118
:10093000C1021091C2020F5F1F4FB8018DEB92E010
:100940000E94F703882399F02091BD023091BE02E6
:100950008091C1029091C202BE016F5F7F4F820FF2
:10096000931F0E944D0C1093C2020093C1028AE0B3
:10097000F812D0CFE0920402CDCF8BEA92E00F9034
:100980000F90DF91CF911F910F91FF90EF900C94FA
:10099000C5020F931F93CF93DF93CDB7DEB7629756
:1009A0000FB6F894DEBF0FBECDBF8C01CB01F801AE
:1009B00011821082138212821582148250E0BE01CD
:1009C0006F5F7F4F0E946C09BE016F5F7F4FC80150
:1009D0000E94490462960FB6F894DEBF0FBECDBFE9
:1009E000DF91CF911F910F910895CF93DF93CDB7F2
:1009F000DEB72C970FB6F894DEBF0FBECDBF6EE208
:100A000071E0CE0101960E946A048091C10290912A
:100A1000C202892BB1F0E091BD02F091BE02309785
:100A200081F08081823639F0873659F46091000177
:100A30007091010104C060910202709103024AE0CA
:100A400003C04AE061E070E0CE0107960E94C9044D
:100A5000BE01695F7F4FCE0101960E94BE038F8168
:100A600098850E94DD0A69817A818BEA92E00E9472
:100A7000160389819A810E94DD0A2C960FB6F8949C
:100A8000DEBF0FBECDBFDF91CF9108950E943F0C16
:100A90001F920F920FB60F9211242F933F938F93B3
:100AA0009F93AF93BF938091060290910702A0910C
:100AB0000802B09109023091050223E0230F2D377F
:100AC00020F40196A11DB11D05C026E8230F029652
:100AD000A11DB11D20930502809306029093070289
:100AE000A0930802B093090280910A0290910B0230
:100AF000A0910C02B0910D020196A11DB11D809331
:100B00000A0290930B02A0930C02B0930D02BF91C6
:100B1000AF919F918F913F912F910F900FBE0F90AA
:100B20001F9018951F920F920FB60F9211242F93BA
:100B30003F934F935F936F937F938F939F93AF9365
:100B4000BF93EF93FF938EE092E00E94EF01FF913D
:100B5000EF91BF91AF919F918F917F916F915F9135
:100B60004F913F912F910F900FBE0F901F901895AE
:100B70001F920F920FB60F9211242F938F939F9372
:100B8000EF93FF93E0911E02F0911F028081E091AC
:100B90002402F091250282FD12C0908180912702EB
:100BA0008F5F8F7320912802821751F0E091270206
:100BB000F0E0E25FFD4F958F8093270201C08081B6
:100BC000FF91EF919F918F912F910F900FBE0F90FA
:100BD0001F9018951F920F920FB60F9211242F930A
:100BE0003F934F935F936F937F938F939F93AF93B5
:100BF000BF93EF93FF938091B900887F803609F40B
:100C00009CC068F5883209F45BC090F4803109F427
:100C100054C038F4882309F4F6C0883009F44DC074
:100C2000F6C0883109F44CC0803209F45DC0EFC0D1
:100C3000803409F468C048F4803309F455C088331F
:100C400009F0E5C08093CF01D8C0803509F44FC0CA
:100C5000883509F45DC0883409F0D9C0D6C0883918
:100C600009F4C7C0A8F4883709F467C038F4883697
:100C700009F463C0803709F460C0C9C0883809F43A
:100C8000B8C0803909F45FC0803809F0C0C05BC0CB
:100C9000803B09F486C038F4803A09F466C0883A8B
:100CA00009F47FC0B4C0803C09F4A7C0883C09F4B3
:100CB000A4C0883B09F48AC0AAC08091F20110C088
:100CC0009091F1018091F001981770F5E091F10198
:100CD00081E08E0F8093F101F0E0E053FE4F8081C0
:100CE0008093BB0085EC86C08093CF018EC0E091DD
:100CF000F10181E08E0F8093F1018091BB00F0E063
:100D0000E053FE4F80839091F1018091F0016EC01D
:100D1000E091F10181E08E0F8093F1018091BB00A1
:100D2000F0E0E053FE4F80838091F40181116DC0AB
:100D300081E08093F30184EA61C083E08093F50150
:100D40001092CE01CFCF8091CE01803208F051C0F9
:100D5000E091CE0181E08E0F8093CE018091BB00A7
:100D6000F0E0E255FE4F8083BDCF85EC8093BC0060
:100D70001092F5018091CE01803230F4E091CE01E5
:100D8000F0E0E255FE4F10826091CE0170E0E091FC
:100D9000FA01F091FB018EEA91E009951092CE01E3
:100DA00036C084E08093F5011092AD011092AC0141
:100DB000E091FC01F091FD0109958091AC01811158
:100DC00005C081E08093AC0110928C01E091AD01EF
:100DD00081E08E0F8093AD01F0E0E457FE4F8081FB
:100DE0008093BB009091AD018091AC01981708F4FD
:100DF00079CF85E88093BC000AC085EC8093BC0065
:100E00001092F50104C01092CF010E948302FF915D
:100E1000EF91BF91AF919F918F917F916F915F9172
:100E20004F913F912F910F900FBE0F901F901895EB
:100E3000EEE0F2E01382128288EE93E0A0E0B0E0F0
:100E400084839583A683B7832CE031E031832083AC
:100E500025EC30E03587248724EC30E0378726877F
:100E600020EC30E0318B208B21EC30E0338B228B77
:100E700022EC30E0358B248B26EC30E0378B268B50
:100E8000118E128E138E148EEBEAF2E01382128210
:100E900084839583A683B7838EE191E091838083D9
:100EA0006EE271E08DEB92E00E946A046EE271E006
:100EB00087EB92E00C946A04789484B5826084BDD8
:100EC00084B5816084BD85B5826085BD85B581604E
:100ED00085BD80916E00816080936E0010928100CC
:100EE0008091810082608093810080918100816087
:100EF0008093810080918000816080938000809148
:100F0000B10084608093B1008091B00081608093D3
:100F1000B00080917A00846080937A0080917A009A
:100F2000826080937A0080917A00816080937A0059
:100F300080917A00806880937A001092C100E091DD
:100F40001E02F0911F0282E08083E0911A02F0916C
:100F50001B021082E0911C02F0911D028FEC808335
:100F600010922602E0912202F091230286E0808313
:100F7000E0912002F0912102808180618083E091E4
:100F80002002F0912102808188608083E09120021C
:100F9000F0912102808180688083E0912002F091AD
:100FA000210280818F7D808382E18093BA0082E775
:100FB00091E09093FD018093FC018EE791E0909386
:100FC000FB018093FA011092F9011092F80110923E
:100FD000F7011092F6011092F50181E08093F4017F
:100FE0001092F30161E082E10E949B0061E083E1E5
:100FF0000E949B008091B9008E7F8093B900809100
:10100000B9008D7F8093B90088E48093B80085E4AF
:101010008093BC008FE794E09093FF018093FE01E2
:1010200085EF94E09093010280930002E2E9F0E002
:101030002491EEE7F0E08491882399F090E0880F06
:10104000991FFC01E859FF4FA591B491FC01EE589E
:10105000FF4F859194918FB7F894EC91E22BEC932C
:101060008FBF61E082E00E949B00E7E9F0E02491FD
:10107000E3E8F0E084918823C1F090E0880F991FA5
:10108000FC01E859FF4FC591D491FC01EE58FF4F88
:10109000A591B4919FB7F8948881E22FE0958E23B3
:1010A00088838C91E823EC939FBF68EC70E08DEB14
:1010B00092E00E94F70324E6C22ED12C04E610E051
:1010C000C0E0D0E00E948800C80FD91F6AE070E03D
:1010D00080E090E00E940C010150110999F7CE01C7
:1010E000B6010E94F809EB0194E6E92EF12C00E02C
:1010F00010E00E948800080F191F6AE070E080E08D
:1011000090E00E940C0181E0E81AF10891F7C80113
:10111000B6010E94F809CE01861B970B05970CF5C6
:101120006C0F7D1F77FF02C06F5F7F4F75956795CE
:1011300070930302609302028FE291E00E942B03FE
:101140006091020270910302072E000C880B990B2C
:1011500097FF03C00E9481031BC04AE00E943E0328
:1011600017C087E391E00E942B03A8CF10920402DE
:101170008091C1029091C202892B79F46EE271E0F4
:101180008DEB92E00E944904109204020E947902C1
:10119000809104028823D1F3E9CFE091BD02F09160
:1011A000BE02309759F38081843609F446C02CF48E
:1011B000813601F18236D1F1E1CF8736B9F184373A
:1011C000E9F662E370E080E090E00E940C0160E0EC
:1011D00082E00E949B006AE070E080E090E00E9464
:1011E0000C0161E082E00E949B0082E591E00E9498
:1011F0002B03C4CF85E491E00E942B036EE271E0E3
:101200008DEB92E00E94490480910402811103C099
:101210000E947F04F9CF0E940A030E94A8030E9443
:101220000A037093010160930001A8CF62E370E0AC
:1012300080E090E00E940C01A1CF8EE591E00E9439
:101240002B036EE271E08DEB92E00E9449048091E5
:101250000402811103C00E947F04F9CF0E940A0397
:101260000E94A8030E940A03709303026093020283
:1012700085CF8091B7029091B8020E94DD0A8091DB
:10128000BD029091BE020C94DD0A1F93FC019927C8
:101290008827BC01E89411911032E9F3193010F05D
:1012A0001E30C8F31B3251F01D3249F4689406C059
:1012B0000E948209610F711D811D911D11911053B2
:1012C0001A30B0F33EF490958095709561957F4FFC
:1012D0008F4F9F4F1F9108954532510520F44230A2
:1012E00010F00C947709FB011082CB010895BB2705
:1012F0004A3031F4992322F4BDE2909581959F4FB5
:101300000C949809592F482F372F262F660F771FD7
:10131000881F991F660F771F881F991F620F731F01
:10132000841F951F660F771F881F991F0895BB277D
:10133000FB015527AA27880F991FAA1FA41710F091
:10134000A41B83955051B9F7A05DAA3308F0A95D9D
:10135000A193009779F7B111B1931192CB010C943D
:10136000B109DC01FC01672F71917723E1F7329716
:1013700004C07C916D9370836291AE17BF07C8F370
:1013800008952F923F924F925F926F927F928F9229
:101390009F92AF92BF92CF92DF92EF92FF920F9304
:1013A0001F93CF93DF93CDB7DEB7CA1BDB0B0FB60E
:1013B000F894DEBF0FBECDBF09942A8839884888CB
:1013C0005F846E847D848C849B84AA84B984C88461
:1013D000DF80EE80FD800C811B81AA81B981CE0F58
:1013E000D11D0FB6F894DEBF0FBECDBFED0108953D
:1013F00097FB072E16F4009407D077FD09D00E94C2
:101400002E0A07FC05D03EF4909581959F4F0895D4
:10141000709561957F4F0895A1E21A2EAA1BBB1B00
:10142000FD010DC0AA1FBB1FEE1FFF1FA217B307B0
:10143000E407F50720F0A21BB30BE40BF50B661FC6
:10144000771F881F991F1A9469F76095709580958A
:1014500090959B01AC01BD01CF010895AA1BBB1B58
:1014600051E107C0AA1FBB1FA617B70710F0A61BA4
:10147000B70B881F991F5A95A9F780959095BC01C5
:10148000CD010895EE0FFF1F0590F491E02D099412
:10149000CF93DF938230910510F482E090E0E091E9
:1014A000C502F091C60220E030E0C0E0D0E0309705
:1014B00011F14081518148175907C0F04817590769
:1014C00061F482819381209719F09B838A832BC0DA
:1014D0009093C6028093C50226C02115310519F0EC
:1014E0004217530718F49A01BE01DF01EF01028091
:1014F000F381E02DDCCF2115310509F1281B390BD3
:101500002430310590F412968D919C9113976115BA
:10151000710521F0FB019383828304C09093C6027E
:101520008093C502FD01329644C0FD01E20FF31F16
:1015300081939193225031092D933C933AC020918D
:10154000C3023091C402232B41F420910401309155
:1015500005013093C4022093C3022091020130910F
:1015600003012115310541F42DB73EB74091060125
:1015700050910701241B350BE091C302F091C40286
:10158000E217F307A0F42E1B3F0B2817390778F05A
:10159000AC014E5F5F4F2417350748F04E0F5F1FB9
:1015A0005093C4024093C3028193919302C0E0E040
:1015B000F0E0CF01DF91CF9108950F931F93CF9368
:1015C000DF93009709F48CC0FC01329713821282DA
:1015D0000091C5021091C6020115110581F4208108
:1015E0003181820F931F2091C3023091C4022817CA
:1015F000390779F5F093C402E093C30271C0D801B2
:1016000040E050E0AE17BF0750F412962D913C9188
:101610001397AD012115310509F1D901F3CF9D01D2
:10162000DA013383228360817181860F971F8217CD
:10163000930769F4EC0128813981260F371F2E5F4B
:101640003F4F318320838A819B8193838283452B03
:1016500029F4F093C602E093C50242C01396FC93AE
:10166000EE931297ED01499159919E01240F351F78
:10167000E217F30771F480819181840F951F029620
:1016800011969C938E938281938113969C938E9353
:101690001297E0E0F0E0D80112968D919C9113979B
:1016A000009719F0F8018C01F6CF8D919C9198016B
:1016B0002E5F3F4F820F931F2091C3023091C402CF
:1016C0002817390769F4309729F41092C60210924E
:1016D000C50202C0138212821093C4020093C30297
:1016E000DF91CF911F910F910895A0E0B0E0EBE75B
:1016F000FBE00C94C509EC01009721F4CB010E949A
:10170000480AB8C0FC01E60FF71F9C0122503109BE
:10171000E217F30708F4ACC0D9010D911C911197A1
:1017200006171707B0F00530110508F49FC0C8016F
:1017300004978617970708F499C002501109061BF1
:10174000170B019311936D937C93CF010E94DD0AD7
:101750008DC05B01A01AB10A4C01800E911EA091B0
:10176000C502B091C60240E050E0E12CF12C109788
:1017700009F44AC0A815B905D1F56D907C90119770
:10178000630182E0C80ED11CCA14DB0480F1A301FE
:101790004A195B096A0182E0C80ED11C1296BC90FE
:1017A00012971396AC91B5E0CB16D10440F0B282FB
:1017B000A38351834083D9016D937C930AC00E5F4C
:1017C0001F4FC301800F911FF90191838083EB2D7F
:1017D000FA2FE114F10431F0D7011396FC93EE9344
:1017E000129744C0F093C602E093C5023FC08D91AA
:1017F0009C9111974817590708F4AC017D01129686
:101800000D90BC91A02DB3CF8091C3029091C402E2
:1018100088159905E1F446175707C8F4809102012D
:1018200090910301009741F48DB79EB74091060156
:1018300050910701841B950BE817F907C8F4F09342
:10184000C402E093C302F901718360830FC0CB012E
:101850000E94480A7C01009759F0A801BE010E942D
:10186000440CCE010E94DD0AC70104C0CE0102C0B3
:1018700080E090E0CDB7DEB7EEE00C94E10981E0C6
:1018800090E0F8940C94540CFB01DC0102C0019030
:101890000D9241505040D8F70895FB01DC010190B2
:1018A0000D920020E1F7089510E0CDE5D0E004C0EE
:1018B000FE010E94420A2196CE35D107C9F7F8945D
:0218C000FFCF58
:1018C2000A000000C7028000000000001002470169
:1018D200A8015702D901B701CB0100000000F502AF
:1018E200E1020703B502D902C502B6020D0A00538E
:1018F2006574746C656400536574746C652046612C
:10190200696C656400456E746572207468726573F3
:1019120068005369676E616C2053656E7400456E92
:0C192200746572206261636B56616C009A
:00000001FF
