:100000000C946C000C9494000C9494000C94940048
:100010000C9494000C9494000C9494000C94940010
:100020000C9494000C9494000C9494000C94940000
:100030000C9494000C9494000C9494000C949400F0
:100040000C941B060C9494000C94A5020C947F0253
:100050000C9494000C9494000C9494000C949400D0
:100060000C94D7020C949400EF08EF08BB08D50855
:10007000EF08EF08F60810092A0900000000240024
:1000800027002A00000000002300260029000000AD
:100090000000250028002B000404040404040404C8
:1000A0000202020202020303030303030102040823
:1000B00010204080010204081020010204081020D2
:1000C0000000000800020100000304070000000017
:1000D000000000006809600911241FBECFEFD8E0BE
:1000E000DEBFCDBF22E0A2E6B1E001C01D92A53C7B
:1000F000B207E1F711E0A0E0B1E0E0E4F9E102C00D
:1001000005900D92A236B107D9F710E0CBE6D0E00A
:1001100004C02197FE010E94810ACA36D107C9F79F
:100120000E9442070C94930C0C940000E091F6019D
:10013000F091F701309729F01092ED011092EC0147
:1001400009940895CF93DF93AC01E091F401F0910D
:10015000F5013097F1F09091EF018091EE01981741
:10016000C0F090E0292F30E02617370754F4D9016A
:10017000AE59BE4FEA01C20FD31F88818C939F5F97
:10018000F1CF1092EF016093EE01CB01DF91CF919F
:100190000994DF91CF910895FC01538D448D252F53
:1001A00030E0842F90E0821B930B541710F0CF9611
:1001B000089501970895FC01918D828D981761F043
:1001C000828DDF01A80FB11D5D968C91928D9F5F8E
:1001D0009F73928F90E008958FEF9FEF0895FC0139
:1001E000918D828D981731F0828DE80FF11D858DEC
:1001F00090E008958FEF9FEF0895FC01918D228D7F
:10020000892F90E0805C9F4F821B91098F73992703
:10021000089583E092E00E94FD0021E0892B09F41B
:1002200020E0822F0895FC01848DDF01A80FB11D0D
:10023000A35ABF4F2C91848D90E001968F7399271C
:10024000848FA689B7892C93A089B1898C91806409
:100250008C93938D848D981306C00288F389E02DCA
:1002600080818F7D80830895EF92FF920F931F937B
:10027000CF93DF93EC0181E0888F9B8D8C8D981359
:1002800005C0E889F989808185FD24C0F62E0B8D93
:1002900010E00F5F1F4F0F731127E02E8C8DE812B7
:1002A0000CC00FB607FCFACFE889F989808185FF79
:1002B000F5CFCE010E941301F1CF8B8DFE01E80F27
:1002C000F11DE35AFF4FF0820B8FEA89FB89808191
:1002D000806207C0EE89FF896083E889F98980819F
:1002E0008064808381E090E0DF91CF911F910F9136
:1002F000FF90EF900895CF93DF93EC01888D8823D2
:10030000C9F0EA89FB89808185FD05C0A889B98982
:100310008C9186FD0FC00FB607FCF5CF808185FF5D
:10032000F2CFA889B9898C9185FFEDCFCE010E94CB
:100330001301E7CFDF91CF91089580E090E0892B02
:1003400029F00E94090181110C940000089585EDA7
:100350008093BC008091BC0084FDFCCF1092EB0127
:1003600008954091A201262F30E0240F311D213243
:100370003105DCF42091EB012430C9F4FC0180E06C
:1003800090E0861758F43091A2012191DC01AE571C
:10039000BE4FA30FB11D2C930196F3CF8091A20104
:1003A000680F6093A20180E0089581E0089582E0E3
:1003B00008950895E091EF018091EE01E81730F47F
:1003C000F0E0EE59FE4F808190E008958FEF9FEFAF
:1003D00008959091EF018091EE01981750F4E92F64
:1003E000F0E0EE59FE4F208130E09F5F9093EF01E7
:1003F00002C02FEF3FEFC90108958091EE0190E018
:100400002091EF01821B91090895CF93DF9300D0D3
:10041000CDB7DEB7CB01642F49835A830E94B10167
:100420004981842F5A81952F0F900F90DF91CF91A2
:100430000895CF93DF931F92CDB7DEB7698361E054
:10044000CE0101960E94B10181E090E00F90DF9112
:10045000CF910895089580E090E008950E947E0C69
:10046000EF92FF920F931F93CF93DF9300D0CDB7FE
:10047000DEB740E050E061E671E082EB92E00E947E
:10048000C506EE24E3949091EE018091EF01981758
:1004900069F180EA92E00E94E901F82E89831A82CC
:1004A0000091B6021091B7020F5F1F4FB80182EBA7
:1004B00092E00E949E06882399F02091B20230912A
:1004C000B3028091B6029091B702BE016F5F7F4F79
:1004D000820F931F0E948C0C1093B7020093B602F8
:1004E0008AE0F812D0CFE0920202CDCF0F900F90A9
:1004F000DF91CF911F910F91FF90EF9008951F9280
:100500000F920FB60F9211242F933F934F935F9347
:100510006F937F938F939F93AF93BF93EF93FF93CB
:1005200083E092E00E941301FF91EF91BF91AF91A0
:100530009F918F917F916F915F914F913F912F91FB
:100540000F900FBE0F901F9018951F920F920FB62D
:100550000F9211242F938F939F93EF93FF93E0912A
:100560001302F09114028081E0911902F0911A02B5
:1005700082FD12C0908180911C028F5F8F73209149
:100580001D02821751F0E0911C02F0E0ED5FFD4F7B
:10059000958F80931C0201C08081FF91EF919F9104
:1005A0008F912F910F900FBE0F901F9018951F9253
:1005B0000F920FB60F9211242F933F934F935F9397
:1005C0006F937F938F939F93AF93BF93EF93FF931B
:1005D0008091B900887F803609F49CC068F5883224
:1005E00009F45BC090F4803109F454C038F48823D6
:1005F00009F4F6C0883009F44DC0F6C0883109F41A
:100600004CC0803209F45DC0EFC0803409F468C08A
:1006100048F4803309F455C0883309F0E5C080936D
:10062000C501D8C0803509F44FC0883509F45DC0D4
:10063000883409F0D9C0D6C0883909F4C7C0A8F4F5
:10064000883709F467C038F4883609F463C0803706
:1006500009F460C0C9C0883809F4B8C0803909F409
:100660005FC0803809F0C0C05BC0803B09F486C021
:1006700038F4803A09F466C0883A09F47FC0B4C0FF
:10068000803C09F4A7C0883C09F4A4C0883B09F465
:100690008AC0AAC08091E80110C09091E7018091C2
:1006A000E601981770F5E091E70181E08E0F8093E5
:1006B000E701F0E0EA53FE4F80818093BB0085ECB8
:1006C00086C08093C5018EC0E091E70181E08E0F66
:1006D0008093E7018091BB00F0E0EA53FE4F8083F6
:1006E0009091E7018091E6016EC0E091E70181E021
:1006F0008E0F8093E7018091BB00F0E0EA53FE4F3C
:1007000080838091EA0181116DC081E08093E901CD
:1007100084EA61C083E08093EB011092C401CFCFE3
:100720008091C401803208F051C0E091C40181E0A1
:100730008E0F8093C4018091BB00F0E0EC55FE4F1A
:100740008083BDCF85EC8093BC001092EB0180913B
:10075000C401803230F4E091C401F0E0EC55FE4F6A
:1007600010826091C40170E0E091F001F091F1011C
:1007700084EA91E009951092C40136C084E0809328
:10078000EB011092A3011092A201E091F201F0910D
:10079000F30109958091A201811105C081E0809348
:1007A000A20110928201E091A30181E08E0F80935B
:1007B000A301F0E0EE57FE4F80818093BB00909143
:1007C000A3018091A201981708F479CF85E880935E
:1007D000BC000AC085EC8093BC001092EB0104C001
:1007E0001092C5010E94A701FF91EF91BF91AF91B7
:1007F0009F918F917F916F915F914F913F912F9139
:100800000F900FBE0F901F9018956115710579F02C
:10081000FB0101900020E9F73197AF01461B570B10
:10082000DC01ED91FC910280F381E02D099480E0E0
:1008300090E00895CF93DF93CDB7DEB72C970FB636
:10084000F894DEBF0FBECDBF61E671E0CE01019628
:100850000E942D078091B6029091B702892B21F159
:10086000E091B202F091B3023097F1F080818236CC
:1008700089F03CF48136C1F460910201709103016A
:1008800017C0853661F0863679F46091FE0170916B
:10089000FF010EC0609100017091010109C06091DB
:1008A00000027091010204C06091F8017091F90199
:1008B0004AE0CE0107960E94F506BE01695F7F4FB0
:1008C000CE0101960E946506CE0107960E94F006B1
:1008D00069817A8180EA92E00E940504CE01019646
:1008E0000E94F0062C960FB6F894DEBF0FBECDBF67
:1008F000DF91CF9108953FB7F8948091BD02909118
:10090000BE02A091BF02B091C00226B5A89B05C04F
:100910002F3F19F00196A11DB11D3FBFBA2FA92F7E
:10092000982F8827820F911DA11DB11DBC01CD01FB
:1009300042E0660F771F881F991F4A95D1F70895E7
:100940000895CF92DF92EF92FF920F931F93CF9370
:10095000DF936C017A018B01C0E0D0E0CE15DF059A
:1009600089F0D8016D918D01D601ED91FC91019036
:10097000F081E02DC6010995892B11F47E0102C09A
:100980002196ECCFC701DF91CF911F910F91FF907E
:10099000EF90DF90CF900895CF93DF93BC0183E079
:1009A00092E00E940504EC016FE571E083E092E0C3
:1009B0000E9405048C0F9D1FDF91CF9108958091B7
:1009C000B2029091B302009711F00C94AC0960E070
:1009D00070E0CB0108958F929F92AF92BF92CF9219
:1009E000DF92EF92FF920F931F93CF93DF93CDB7D8
:1009F000DEB7A1970FB6F894DEBF0FBECDBF6B0177
:100A00007C0197FF33C0E0910302F0910402019052
:100A1000F081E02D6DE283E092E009958C012227C0
:100A20003327A9012C193D094E095F0919A2CE01EE
:100A300081967C019AE0892E912CA12CB12CCA01BF
:100A4000B901A50194010E945F0A605DF7016293FC
:100A50007F01211531054105510589F7BF0183E06B
:100A600092E00E940504080F191F20C09B01AC01F1
:100A700019A28E010F5D1F4F8AE0C82ED12CE12CE8
:100A8000F12CCA01B901A70196010E945F0A605DBD
:100A9000F80162938F01211531054105510589F750
:100AA000BF0183E092E00E9405048C016FE571E0D4
:100AB00083E092E00E940504800F911FA1960FB67B
:100AC000F894DEBF0FBECDBFDF91CF911F910F9184
:100AD000FF90EF90DF90CF90BF90AF909F908F905E
:100AE0000895833081F028F4813099F08230A1F0AC
:100AF00008958730A9F08830B9F08430D1F480911E
:100B000080008F7D03C0809180008F77809380006C
:100B1000089584B58F7702C084B58F7D84BD089514
:100B20008091B0008F7703C08091B0008F7D80935B
:100B3000B00008951F93CF93DF93282F30E0F90181
:100B4000E054FF4F8491F901E455FF4FD491F9012E
:100B5000E856FF4FC491CC23C9F0162F81110E9493
:100B60007105EC2FF0E0EE0FFF1FE257FF4FA5914C
:100B7000B4918FB7F894111105C09C91ED2FE095B9
:100B8000E92302C0EC91ED2BEC938FBFDF91CF9165
:100B90001F9108958E3008F08E5087708064809386
:100BA0007C0080917A00806480937A0080917A0042
:100BB00086FDFCCF809178002091790090E0922B07
:100BC00008958F929F92AF92BF92CF92DF92EF9251
:100BD000FF926B017C010E947B044B015C01C114FC
:100BE000D104E104F104F1F00E947B04DC01CB01AB
:100BF00088199909AA09BB09883E9340A105B10546
:100C000070F321E0C21AD108E108F10888EE880EDD
:100C100083E0981EA11CB11CC114D104E104F104AD
:100C200019F7DDCFFF90EF90DF90CF90BF90AF909E
:100C30009F908F9008951F920F920FB60F921124DC
:100C40002F933F938F939F93AF93BF938091B9025C
:100C50009091BA02A091BB02B091BC023091B8024F
:100C600023E0230F2D3720F40196A11DB11D05C0EF
:100C700026E8230F0296A11DB11D2093B802809390
:100C8000B9029093BA02A093BB02B093BC028091C8
:100C9000BD029091BE02A091BF02B091C002019628
:100CA000A11DB11D8093BD029093BE02A093BF020F
:100CB000B093C002BF91AF919F918F913F912F91BF
:100CC0000F900FBE0F901F9018950F931F93CF9307
:100CD000DF938C01EB01FC01808191810097B1F0E1
:100CE000688179816115710579F0428153812C8188
:100CF0003D814217530740F00E948C0C8C819D81EE
:100D0000F8019583848313C00E941C0B888199810C
:100D1000F801918380838A819B81938382838C8174
:100D20009D8195838483198218821B821A821D8279
:100D30001C82DF91CF911F910F9108950F931F9304
:100D4000CF93DF93EC0188819981009729F02A8164
:100D50003B812617370788F48B016F5F7F4F0E9416
:100D6000B40B009761F0998388831B830A832C81DD
:100D70003D81232B11F4FC01108281E001C080E051
:100D8000DF91CF911F910F910895EF92FF920F93F2
:100D90001F93CF93DF93EC017B018A01BA010E947C
:100DA0009E062881398181110DC02115310519F068
:100DB000C9010E941C0B198218821D821C821B8291
:100DC0001A8206C01D830C83B701C9010E948C0CD6
:100DD000CE01DF91CF911F910F91FF90EF90089579
:100DE000FC01808191810C941C0BEF92FF920F9378
:100DF0001F93CF93DF93CDB7DEB762970FB6F8940A
:100E0000DEBF0FBECDBF8C01CB01F8011182108275
:100E1000138212821582148250E09E012F5F3F4F91
:100E20007901B9010E94D309F70101900020E9F787
:100E30003197AF014E195F09B701C8010E94C5067D
:100E400062960FB6F894DEBF0FBECDBFDF91CF9193
:100E50001F910F91FF90EF900895FC011182108275
:100E600013821282158214826115710551F0FB0103
:100E700001900020E9F73197AF01461B570B0C9406
:100E8000C5060895789484B5826084BD84B5816078
:100E900084BD85B5826085BD85B5816085BD809145
:100EA0006E00816080936E001092810080918100BD
:100EB00082608093810080918100816080938100B5
:100EC000809180008160809380008091B100846077
:100ED0008093B1008091B00081608093B0008091D8
:100EE0007A00846080937A0080917A008260809397
:100EF0007A0080917A00816080937A0080917A00F4
:100F0000806880937A001092C100E0911302F09102
:100F1000140282E08083E0910F02F09110021082AF
:100F2000E0911102F09112028FEC808310921B026B
:100F3000E0911702F091180286E08083E09115029B
:100F4000F0911602808180618083E0911502F0911A
:100F50001602808188608083E0911502F09116026C
:100F6000808180688083E0911502F0911602808173
:100F70008F7D808382E18093BA0086E990E0909330
:100F8000F3018093F20182EA90E09093F101809363
:100F9000F0011092EF011092EE011092ED0110920B
:100FA000EC011092EB0181E08093EA011092E901DB
:100FB00061E082E10E949A0561E083E10E949A0566
:100FC0008091B9008E7F8093B9008091B9008D7FA8
:100FD0008093B90088E48093B80085E48093BC00D6
:100FE00080E392E09093F5018093F4018AE194E02C
:100FF0009093F7018093F601EEEAF0E02491EAE99C
:10100000F0E08491882399F090E0880F991FFC010B
:10101000E658FF4FA591B491FC01E257FF4F85912F
:1010200094918FB7F894EC91E22BEC938FBF61E031
:1010300082E00E949A05C3EBD0E0FE0124910FE903
:1010400010E0F80184918823C9F090E0880F991F7F
:10105000FC01E658FF4FA591B49182579F4FFC01C8
:10106000459154913FB7F8949C91822F8095982395
:101070009C93FA019081892380833FBF64E170E0F3
:1010800082EB92E00E949E0697ECE92E90E0F92E0A
:1010900022E0C22ED12CAA24A394B12CF701849172
:1010A000FE018490F8019490992009F43EC08111CA
:1010B0000E947105E92DF0E0EE0FFF1FEC57FF4F86
:1010C000A591B4918C91882281F185E591E00E94EF
:1010D000CC048EE00E94CA054C019093FD018093E0
:1010E000FC018FE00E94CA059093FB018093FA01F6
:1010F00040910002509101022091020130910301C0
:10110000240F351F281539050CF0C1C0B092F90124
:10111000A092F8018091F8019091F901892B09F0D2
:10112000CDC061E087E00E949A0580910202882389
:1011300009F4AAC0109202028091B6029091B702FF
:10114000892B09F49FC0E091B202F091B30230976D
:1011500009F498C0E0818E2FEE0F990BAA0BBB0B00
:10116000FC01E156F109E930F10508F08BC0EC5CB7
:10117000FF4F0C94810A8EE291E00E94CC04809192
:101180000202811107C06AE070E080E090E00E94F6
:10119000E105F5CF0E94DF040E94EB040E94DF040A
:1011A00070930301609302016DC08EE291E00E9492
:1011B000CC0480910202811107C06AE070E080E0F7
:1011C00090E00E94E105F5CF0E94DF040E94EB044D
:1011D0000E94DF04709301016093000153C062E339
:1011E00070E080E090E00E94E1054CC08BE391E06C
:1011F0000E94CC0480910202811107C06AE070E075
:1012000080E090E00E94E105F5CF0E94DF040E949B
:10121000EB040E94DF04709301026093000232C06D
:101220008BE391E00E94CC0480910202811107C0FF
:101230006AE070E080E090E00E94E105F5CF0E9456
:10124000DF040E94EB040E94DF047093FF016093AF
:10125000FE0118C062E370E080E090E00E94E105CA
:1012600060E082E00E949A056AE070E080E090E031
:101270000E94E10561E082E00E949A0589E491E024
:101280000E94CC04109202020E949D0107CF40915F
:10129000FE015091FF012091000130910101240FC6
:1012A000351F281739072CF4D092F901C092F801A4
:1012B00031CF1092F9011092F8012CCF60E032CFBB
:1012C0008CEA92E00E94F00682EB92E00C94F00629
:1012D000E3E0F2E01382128288EE93E0A0E0B0E057
:1012E00084839583A683B7832EE031E03183208306
:1012F00025EC30E03587248724EC30E037872687DB
:1013000020EC30E0318B208B21EC30E0338B228BD2
:1013100022EC30E0358B248B26EC30E0378B268BAB
:10132000118E128E138E148EE0EAF2E01382128276
:1013300084839583A683B78380E291E09183808341
:1013400061E671E082EB92E00E942D0761E671E0B8
:101350008CEA92E00C942D071F93FC0199278827B3
:10136000BC01E89411911032E9F3193010F01E30ED
:10137000C8F31B3251F01D3249F4689406C00E9434
:10138000E909610F711D811D911D119110531A30D2
:10139000B0F33EF490958095709561957F4F8F4F97
:1013A0009F4F1F9108954532510520F4423010F0AF
:1013B0000C94DE09FB011082CB010895BB274A3053
:1013C00031F4992322F4BDE2909581959F4F0C94BE
:1013D000FF09592F482F372F262F660F771F881F99
:1013E000991F660F771F881F991F620F731F841F35
:1013F000951F660F771F881F991F0895BB27FB0154
:101400005527AA27880F991FAA1FA41710F0A41BFD
:1014100083955051B9F7A05DAA3308F0A95DA19357
:10142000009779F7B111B1931192CB010C94180A7E
:10143000DC01FC01672F71917723E1F7329704C03B
:101440007C916D9370836291AE17BF07C8F30895C6
:101450002F923F924F925F926F927F928F929F92C4
:10146000AF92BF92CF92DF92EF92FF920F931F93B2
:10147000CF93DF93CDB7DEB7CA1BDB0B0FB6F89463
:10148000DEBF0FBECDBF09942A88398848885F84A3
:101490006E847D848C849B84AA84B984C884DF8014
:1014A000EE80FD800C811B81AA81B981CE0FD11DF8
:1014B0000FB6F894DEBF0FBECDBFED010895A1E2D7
:1014C0001A2EAA1BBB1BFD010DC0AA1FBB1FEE1FBE
:1014D000FF1FA217B307E407F50720F0A21BB30B09
:1014E000E40BF50B661F771F881F991F1A9469F785
:1014F00060957095809590959B01AC01BD01CF01E1
:101500000895EE0FFF1F0590F491E02D0994CF93FD
:10151000DF938230910510F482E090E0E091C30205
:10152000F091C40220E030E0C0E0D0E0309711F14B
:101530004081518148175907C0F04817590761F495
:1015400082819381209719F09B838A832BC090938B
:10155000C4028093C30226C02115310519F0421739
:10156000530718F49A01BE01DF01EF010280F381F5
:10157000E02DDCCF2115310509F1281B390B243072
:10158000310590F412968D919C9113976115710518
:1015900021F0FB019383828304C09093C402809363
:1015A000C302FD01329644C0FD01E20FF31F819397
:1015B0009193225031092D933C933AC02091C1025E
:1015C0003091C202232B41F4209106013091070192
:1015D0003093C2022093C102209104013091050191
:1015E0002115310541F42DB73EB7409108015091C6
:1015F0000901241B350BE091C102F091C202E217F0
:10160000F307A0F42E1B3F0B2817390778F0AC0125
:101610004E5F5F4F2417350748F04E0F5F1F509302
:10162000C2024093C1028193919302C0E0E0F0E0D6
:10163000CF01DF91CF9108950F931F93CF93DF9345
:10164000009709F48CC0FC0132971382128200913A
:10165000C3021091C4020115110581F4208131816A
:10166000820F931F2091C1023091C20228173907BF
:1016700079F5F093C202E093C10271C0D80140E055
:1016800050E0AE17BF0750F412962D913C9113977E
:10169000AD012115310509F1D901F3CF9D01DA0121
:1016A0003383228360817181860F971F821793078E
:1016B00069F4EC0128813981260F371F2E5F3F4FD7
:1016C000318320838A819B8193838283452B29F4F4
:1016D000F093C402E093C30242C01396FC93EE93CE
:1016E0001297ED01499159919E01240F351FE21780
:1016F000F30771F480819181840F951F02961196F2
:101700009C938E938281938113969C938E931297D0
:10171000E0E0F0E0D80112968D919C91139700972C
:1017200019F0F8018C01F6CF8D919C9198012E5FF4
:101730003F4F820F931F2091C1023091C2022817A0
:10174000390769F4309729F41092C4021092C30249
:1017500002C0138212821093C2020093C102DF9171
:10176000CF911F910F910895A0E0B0E0EAEBFBE06C
:101770000C942C0AEC01009721F4CB010E94870AFB
:10178000B8C0FC01E60FF71F9C0122503109E21797
:10179000F30708F4ACC0D9010D911C9111970617FD
:1017A0001707B0F00530110508F49FC0C801049771
:1017B0008617970708F499C002501109061B170BEA
:1017C000019311936D937C93CF010E941C0B8DC0EC
:1017D0005B01A01AB10A4C01800E911EA091C302B8
:1017E000B091C40240E050E0E12CF12C109709F4D4
:1017F0004AC0A815B905D1F56D907C901197630189
:1018000082E0C80ED11CCA14DB0480F1A3014A197E
:101810005B096A0182E0C80ED11C1296BC90129737
:101820001396AC91B5E0CB16D10440F0B282A383FD
:1018300051834083D9016D937C930AC00E5F1F4F83
:10184000C301800F911FF90191838083EB2DFA2F43
:10185000E114F10431F0D7011396FC93EE93129743
:1018600044C0F093C402E093C3023FC08D919C91A9
:1018700011974817590708F4AC017D0112960D9095
:10188000BC91A02DB3CF8091C1029091C202881566
:101890009905E1F446175707C8F480910401909127
:1018A0000501009741F48DB79EB740910801509112
:1018B0000901841B950BE817F907C8F4F093C202DD
:1018C000E093C102F901718360830FC0CB010E94D4
:1018D000870A7C01009759F0A801BE010E94830C81
:1018E000CE010E941C0BC70104C0CE0102C080E0E3
:1018F00090E0CDB7DEB7EEE00C94480A81E090E0CE
:10190000F8940C94930CFB01DC0102C001900D9241
:1019100041505040D8F70895FB01DC0101900D9231
:101920000020E1F7089510E0CBE6D0E004C0FE010E
:101930000E94810A2196CC36D107C9F7F894FFCFCF
:101940000A000A000000C502800000000000340107
:10195000A104CC007B01FD00DB00EF0000000000D3
:10196000190205022B02D901FD01E901DA01456ED8
:101970007465722074687265736800456E74657270
:10198000206261636B56616C005369676E616C2005
:1019900053656E7400646574656374696E67000DE9
:0219A0000A003B
:00000001FF
