:100000000C9458000C9480000C9480000C94800098
:100010000C9480000C9480000C9480000C94800060
:100020000C9480000C9480000C9480000C94800050
:100030000C9480000C9480000C9480000C94800040
:100040000C94FA020C9480000C946A030C94440300
:100050000C9480000C9480000C9480000C94800020
:100060000C949C030C9480000000000025002800E4
:100070002B00040404040404040402020202020229
:10008000030303030303010204081020408001025C
:1000900004081020010204081020000000080002DB
:1000A0000100000304070000000000000000C60477
:1000B00011241FBECFEFD8E0DEBFCDBF11E0A0E01E
:1000C000B1E0EAE3FDE002C005900D92AA39B10764
:1000D000D9F722E0AAE9B1E001C01D92AC3DB20718
:1000E000E1F710E0C8E5D0E004C02197FE010E94CE
:1000F0009006C735D107C9F70E94FF040C949B06F0
:100100000C94000090E0FC01E656FF4F2491FC01A6
:10011000EA57FF4F3491FC01EE58FF4FE491EE2374
:10012000B1F1222339F1233091F038F42130A9F0D4
:10013000223001F584B58F7D12C0273091F0283030
:10014000A1F02430B9F4809180008F7D03C08091AC
:1001500080008F77809380000DC084B58F7784BD39
:1001600009C08091B0008F7703C08091B0008F7D6F
:100170008093B000F0E0EE0FFF1FE859FF4FA5910C
:10018000B4918FB7F894EC91E32BEC938FBF089563
:100190003FB7F89480912F0290913002A0913102E4
:1001A000B091320226B5A89B05C02F3F19F00196E9
:1001B000A11DB11D3FBFBA2FA92F982F8827820FED
:1001C000911DA11DB11DBC01CD0142E0660F771F3D
:1001D000881F991F4A95D1F70895CF92DF92EF9229
:1001E000FF920F931F93CF93DF936C017A018B01E2
:1001F000C0E0D0E0CE15DF0581F0D8016D918D0112
:10020000D601ED91FC910190F081E02DC601099598
:10021000892B11F02196EECF7E01C701DF91CF919E
:100220001F910F91FF90EF90DF90CF900895FC0108
:10023000918D828D981761F0828DDF01A80FB11D1D
:100240005D968C91928D9F5F9F73928F90E0089541
:100250008FEF9FEF0895FC01918D828D981731F0FB
:10026000828DE80FF11D858D90E008958FEF9FEF4F
:100270000895FC01918D228D892F90E0805C9F4F25
:10028000821B91098F739927089583E392E00E945E
:10029000390121E0892B09F420E0822F0895FC0127
:1002A000848DDF01A80FB11DA35ABF4F2C91848DFF
:1002B00090E001968F739927848FA689B7892C9334
:1002C000A089B1898C9180648C93938D848D9813CF
:1002D00006C00288F389E02D80818F7D8083089598
:1002E000EF92FF920F931F93CF93DF93EC0181E086
:1002F000888F9B8D8C8D981305C0E889F989808142
:1003000085FD24C0F62E0B8D10E00F5F1F4F0F737D
:100310001127E02E8C8DE8120CC00FB607FCFACF27
:10032000E889F989808185FFF5CFCE010E944F01D0
:10033000F1CF8B8DFE01E80FF11DE35AFF4FF082E4
:100340000B8FEA89FB898081806207C0EE89FF8973
:100350006083E889F98980818064808381E090E00E
:10036000DF91CF911F910F91FF90EF900895CF9360
:10037000DF93EC01888D8823C9F0EA89FB898081AD
:1003800085FD05C0A889B9898C9186FD0FC00FB67F
:1003900007FCF5CF808185FFF2CFA889B9898C91C0
:1003A00085FFEDCFCE010E944F01E7CFDF91CF91C6
:1003B000089580E090E0892B29F00E944501811189
:1003C0000C940000089585ED8093BC008091BC00E2
:1003D00084FDFCCF1092050208954091BA01262FAA
:1003E00030E0240F311D21323105DCF4209105026B
:1003F0002430C9F4FC0180E090E0861758F4309175
:10040000BA012191DC01A656BE4FA30FB11D2C935A
:100410000196F3CF8091BA01680F6093BA0180E032
:10042000089581E0089582E00895089581E090E0C4
:100430003091DE012091DD01321710F480E090E070
:1004400091958195910908958091DE019091DD014A
:10045000891730F48F5F8093DE0180E090E008958B
:100460008FEF9FEF08958091DD0190E02091DE01F4
:10047000821B91090895CF92DF92EF92FF920F9322
:100480001F93CF93DF937C01CB018A012091060259
:10049000222389F0EB016B01C40ED51ECC15DD05BE
:1004A00069F06991D701ED91FC910190F081E02D07
:1004B000C7010995F3CF642F0E94ED01C801DF91B8
:1004C000CF911F910F91FF90EF90DF90CF90089503
:1004D000CF93DF931F92CDB7DEB7698320910602D9
:1004E0002223D1F020912902203240F021E030E097
:1004F000FC013383228380E090E015C080910702E5
:10050000E82FF0E0E85FFD4F998190838F5F809343
:1005100007028093290205C061E0CE0101960E9486
:10052000ED0181E090E00F90DF91CF910895009769
:1005300069F0FC0101900020E9F73197AF01481BF9
:10054000590BBC0183E392E00C94ED0080E090E055
:100550000895CF93DF930E949702EC0180E291E02F
:100560000E9497028C0F9D1FDF91CF9108958F926B
:100570009F92AF92BF920F931F93CF93DF93CDB70C
:10058000DEB7A1970FB6F894DEBF0FBECDBF19A29C
:10059000423008F44AE08E010F5D1F4F842E912CEB
:1005A000A12CB12CA50194010E946E06E62FB90181
:1005B000CA0101501109EA3014F4E05D01C0E95CA0
:1005C000D801EC93232B242B252B61F7C8010E9423
:1005D0009702A1960FB6F894DEBF0FBECDBFDF9194
:1005E000CF911F910F91BF90AF909F908F900895E2
:1005F0000E9496061F920F920FB60F9211242F930E
:100600003F938F939F93AF93BF9380912B029091D1
:100610002C02A0912D02B0912E0230912A0223E0EB
:10062000230F2D3720F40196A11DB11D05C026E82A
:10063000230F0296A11DB11D20932A0280932B0245
:1006400090932C02A0932D02B0932E0280912F0242
:1006500090913002A0913102B09132020196A11D19
:10066000B11D80932F0290933002A0933102B0937A
:100670003202BF91AF919F918F913F912F910F9037
:100680000FBE0F901F9018951F920F920FB60F92EA
:1006900011242F933F934F935F936F937F938F9387
:1006A0009F93AF93BF93EF93FF9383E392E00E94F6
:1006B0004F01FF91EF91BF91AF919F918F917F91EA
:1006C0006F915F914F913F912F910F900FBE0F90BF
:1006D0001F9018951F920F920FB60F9211242F930F
:1006E0008F939F93EF93FF93E0914302F091440225
:1006F0008081E0914902F0914A0282FD12C090810E
:1007000080914C028F5F8F7320914D02821751F0C0
:10071000E0914C02F0E0ED5CFD4F958F80934C0230
:1007200001C08081FF91EF919F918F912F910F9048
:100730000FBE0F901F9018951F920F920FB60F9239
:1007400011242F933F934F935F936F937F938F93D6
:100750009F93AF93BF93EF93FF938091B900887FEE
:10076000803609F49CC068F5883209F45BC090F4C7
:10077000803109F454C038F4882309F4F2C0883079
:1007800009F44DC0F2C0883109F44CC0803209F43C
:100790005DC0EBC0803409F468C048F4803309F4CC
:1007A00055C0883309F0E1C080930302D4C080357E
:1007B00009F44FC0883509F45DC0883409F0D5C00C
:1007C000D2C0883909F4C3C0A8F4883709F467C0D7
:1007D00038F4883609F463C0803709F460C0C5C0B6
:1007E000883809F4B4C0803909F45FC0803809F052
:1007F000BCC05BC0803B09F484C038F4803A09F483
:1008000066C0883A09F47DC0B0C0803C09F4A3C03A
:10081000883C09F4A0C0883B09F486C0A6C080913A
:10082000E00110C09091020280910102981770F5CA
:10083000E091020281E08E0F80930202F0E0EF511E
:10084000FE4F80818093BB0085EC82C080930302C1
:100850008AC0E091020281E08E0F809302028091B3
:10086000BB00F0E0EF51FE4F808390910202809137
:1008700001026AC0E091020281E08E0F80930202C1
:100880008091BB00F0E0EF51FE4F80838091040225
:10089000811169C081E08093DF0184EA5DC083E05B
:1008A000809305021092DC01CFCF8091DC01803271
:1008B00008F04DC0E091DC0181E08E0F8093DC01F7
:1008C0008091BB00F0E0E454FE4F8083BDCF85EC07
:1008D0008093BC00109205028091DC01803230F4DC
:1008E000E091DC01F0E0E454FE4F10826091DC0105
:1008F00070E08CEB91E0E0E0F0E009951092DC0113
:1009000034C084E0809305021092BB011092BA01BA
:10091000E0E0F0E009958091BA01811105C081E025
:100920008093BA0110929A01E091BB0181E08E0F91
:100930008093BB01F0E0E656FE4F80818093BB00C0
:100940009091BB018091BA01981708F47DCF85E89A
:100950008093BC000AC085EC8093BC001092050215
:1009600004C0109203020E94E301FF91EF91BF9136
:10097000AF919F918F917F916F915F914F913F9137
:100980002F910F900FBE0F901F901895E3E3F2E0A8
:100990001382128288EE93E0A0E0B0E08483958316
:1009A000A683B78324E031E03183208325EC30E057
:1009B0003587248724EC30E03787268720EC30E029
:1009C000318B208B21EC30E0338B228B22EC30E01A
:1009D000358B248B26EC30E0378B268B118E128ED4
:1009E000138E148EE0EDF2E01382128284839583DD
:1009F000A683B78384E191E09183808308957894FE
:100A000084B5826084BD84B5816084BD85B5826013
:100A100085BD85B5816085BD80916E0081608093C4
:100A20006E0010928100809181008260809381002D
:100A3000809181008160809381008091800081603D
:100A4000809380008091B10084608093B100809198
:100A5000B00081608093B00080917A0084608093C0
:100A60007A0080917A00826080937A0080917A0087
:100A7000816080937A0080917A00806880937A0008
:100A80001092C1001092DE011092DD011092070257
:100A9000109229021092050281E0809304021092C4
:100AA000DF0182E10E94820083E10E948200809146
:100AB000B9008E7F8093B9008091B9008D7F8093BB
:100AC000B90088E48093B80085E48093BC00E0918D
:100AD0004302F091440282E08083E0913F02F09172
:100AE00040021082E0914102F09142028FEC80833B
:100AF00010924B02E0914702F091480286E0808319
:100B0000E0914502F0914602808180618083E0910E
:100B10004502F0914602808188608083E091450221
:100B2000F0914602808180688083E0914502F091D7
:100B3000460280818F7D808383E291E00E94A9023A
:100B400005EE65ECB62E11E072E0A72E99249A947A
:100B500080E391E00E94A902C12CD12C7601C394BC
:100B6000C0E0D0E07C2C10930602C09228021092C4
:100B7000070210922902809105028111FCCFA092F8
:100B80000502109304029092030210920202109246
:100B900001021092E0019091E0019601220F331FB3
:100BA000292B2093E0019091DF01913069F410929C
:100BB000DF019091E0019093BB009091BC0093FD08
:100BC000F8CFB092BC0002C00093BC009091050227
:100BD0009230E1F3909103029F3F69F0809103020C
:100BE000803231F080910302803321F084E003C031
:100BF00082E001C083E01092070210922902109255
:100C00000602811116C08CE391E00E9497022FE04A
:100C1000271520F08BE591E00E94970240E1C70183
:100C2000B6010E94B7028DE591E00E94A9022196CB
:100C300016C08430A1F481E691E00E9497028FE013
:100C4000871520F08BE591E00E94970240E1C701F3
:100C5000B6010E94B70280E291E00E9497022FEF56
:100C6000C21AD20AE20AF20A8FE7C816D104E104D6
:100C7000F10409F077CFCD2B19F48DE791E002C094
:100C800083E991E00E94A9020E94C8002B013C0167
:100C900088E8C82E83E1D82EE12CF12C0E94C800F0
:100CA000DC01CB0184199509A609B709883E934058
:100CB000A105B10598F321E0C21AD108E108F108B5
:100CC00088EE480E83E0581E611C711CC114D104CB
:100CD000E104F10419F70E94D9013ACFA1E21A2EDA
:100CE000AA1BBB1BFD010DC0AA1FBB1FEE1FFF1FD0
:100CF000A217B307E407F50720F0A21BB30BE40B20
:100D0000F50B661F771F881F991F1A9469F7609566
:100D10007095809590959B01AC01BD01CF01089520
:100D2000EE0FFF1F0590F491E02D099481E090E013
:0A0D3000F8940C949B06F894FFCF92
:100D3A00000000007001ED00390117012B01B70115
:100D4A000000000068023B02330224021602150268
:100D5A000D0A000A493243205363616E6E657200C0
:100D6A005363616E6E696E672E2E2E0049324320E0
:100D7A0064657669636520666F756E6420617420A8
:100D8A00616464726573732030780030002020211A
:100D9A0000556E6B6E6F776E206572726F7220618E
:100DAA00742061646472657373203078004E6F201A
:100DBA00493243206465766963657320666F756E90
:0A0DCA00640A00646F6E650A000001
:00000001FF
