:100000000C9462000C948A000C948A000C948A0070
:100010000C948A000C948A000C948A000C948A0038
:100020000C948A000C948A000C948A000C948A0028
:100030000C948A000C948A000C948A000C948A0018
:100040000C9435050C948A000C94A5050C947F053E
:100050000C948A000C948A000C948A000C948A00F8
:100060000C940B040C948A0000000000240027006C
:100070002A000000000023002600290000000000E4
:10008000250028002B0004040404040404040202D4
:100090000202020203030303030301020408102007
:1000A0004080010204081020010204081020000012
:1000B0000008000201000003040700000000000027
:1000C00000001C0611241FBECFEFD8E0DEBFCDBF5D
:1000D00011E0A0E0B1E0E6E4F7E102C005900D9286
:1000E000A036B107D9F722E0A0E6B1E001C01D9229
:1000F000A63BB207E1F710E0C2E6D0E004C02197CA
:10010000FE010E94960BC136D107C9F70E94660610
:100110000C94A10B0C94000085ED8093BC008091A1
:10012000BC0084FDFCCF1092DB0108954091B70123
:10013000262F30E0240F311D21323105DCF42091CF
:10014000DB012430C9F4FC0180E090E0861758F40C
:100150003091B7012191DC01A956BE4FA30FB11D0B
:100160002C930196F3CF8091B701680F6093B7018C
:1001700080E0089581E0089582E00895089581E087
:1001800090E03091960120919501321710F480E0B3
:1001900090E09195819591090895809196019091B3
:1001A0009501891730F48F5F8093960180E090E08D
:1001B00008958FEF9FEF08958091950190E0209131
:1001C0009601821B91090895CF92DF92EF92FF92E0
:1001D0000F931F93CF93DF937C01CB018A01209172
:1001E0009401222389F0EB016B01C40ED51ECC15BE
:1001F000DD0569F06991D701ED91FC910190F081E5
:10020000E02DC7010995F3CF642F0E949600C80125
:10021000DF91CF911F910F91FF90EF90DF90CF90E2
:100220000895CF93DF931F92CDB7DEB769832091F6
:1002300094012223D1F020919301203240F021E05B
:1002400030E0FC013383228380E090E015C0809190
:100250009201E82FF0E0EE58FE4F998190838F5F76
:10026000809392018093930105C061E0CE010196D5
:100270000E94960081E090E00F90DF91CF91089569
:1002800090E0FC01E255FF4F2491FC01E656FF4F40
:100290003491FC01EA57FF4FE491EE2309F43CC08E
:1002A000222339F1233091F038F42130A9F02230A3
:1002B00001F584B58F7D12C0273091F02830A1F070
:1002C0002430B9F4809180008F7D03C0809180003C
:1002D0008F77809380000DC084B58F7784BD09C06F
:1002E0008091B0008F7703C08091B0008F7D8093A4
:1002F000B000F0E0EE0FFF1FE458FF4FA591B4915E
:100300009FB7F894611104C08C913095382302C0D6
:10031000EC913E2B3C939FBF08953FB7F89480919A
:100320006E0190916F01A0917001B091710126B59D
:10033000A89B05C02F3F19F00196A11DB11D3FBF1D
:10034000BA2FA92F982F8827820F911DA11DB11DAB
:10035000BC01CD0142E0660F771F881F991F4A95A7
:10036000D1F708958F929F92AF92BF92CF92DF9272
:10037000EF92FF926B017C010E948D014B015C01A9
:10038000C114D104E104F104F1F00E948D01DC01FB
:10039000CB0188199909AA09BB09883E9340A10598
:1003A000B10570F321E0C21AD108E108F10888EE26
:1003B000880E83E0981EA11CB11CC114D104E10475
:1003C000F10419F7DDCFFF90EF90DF90CF90BF9051
:1003D000AF909F908F900895CF92DF92EF92FF920F
:1003E0000F931F93CF93DF936C017A018B01C0E0D1
:1003F000D0E0CE15DF0581F0D8016D918D01D601D9
:10040000ED91FC910190F081E02DC6010995892BB9
:1004100011F02196EECF7E01C701DF91CF911F91A0
:100420000F91FF90EF90DF90CF900895FC01918D98
:10043000828D981761F0828DDF01A80FB11D5D9646
:100440008C91928D9F5F9F73928F90E008958FEFB4
:100450009FEF0895FC01918D828D981731F0828D68
:10046000E80FF11D858D90E008958FEF9FEF0895BF
:10047000FC01918D228D892F90E0805C9F4F821B23
:1004800091098F73992708958DE092E00E943802B8
:1004900021E0892B09F420E0822F0895FC01848D4E
:1004A000DF01A80FB11DA35ABF4F2C91848D90E09E
:1004B00001968F739927848FA689B7892C93A08979
:1004C000B1898C9180648C93938D848D981306C030
:1004D0000288F389E02D80818F7D80830895EF92DB
:1004E000FF920F931F93CF93DF93EC0181E0888FEE
:1004F0009B8D8C8D981305C0E889F989808185FDD5
:1005000024C0F62E0B8D10E00F5F1F4F0F731127C5
:10051000E02E8C8DE8120CC00FB607FCFACFE889EC
:10052000F989808185FFF5CFCE010E944E02F1CF7F
:100530008B8DFE01E80FF11DE35AFF4FF0820B8F08
:10054000EA89FB898081806207C0EE89FF89608328
:10055000E889F98980818064808381E090E0DF917F
:10056000CF911F910F91FF90EF900895CF93DF935C
:10057000EC01888D8823C9F0EA89FB89808185FD9B
:1005800005C0A889B9898C9186FD0FC00FB607FCFC
:10059000F5CF808185FFF2CFA889B9898C9185FF3D
:1005A000EDCFCE010E944E02E7CFDF91CF910895AB
:1005B00080E090E0892B29F00E94440281110C9484
:1005C00000000895CF93FC01C48121E020939401A1
:1005D000C093600110929201109293018385682B61
:1005E00081E092E00E94110190919301913208F014
:1005F00045C08091DB018111FCCF82E08093DB015B
:1006000081E08093DD018FEF8093DA011092FF018A
:100610009093FE01A2E7B1E0EEEDF1E080E09817E3
:1006200021F02D9121938F5FFACF109200028091DB
:100630000002CC0FC82BC09300028091DC018130F6
:1006400061F41092DC01809100028093BB008091E4
:10065000BC0083FDF8CF85EC01C085EE8093BC0023
:100660008091DB018230E1F38091DA018F3F31F03C
:100670008091DA01803211F08091DA0110929201BA
:100680001092930110929401CF9108950F931F93AC
:10069000CF938C01C62F0E94E2026C2F6460C801C8
:1006A0000E94E2026C2F6B7FC8010E94E20283EC81
:1006B00090E00197F1F7CF911F910F9108950F935B
:1006C0001F93CF93DF938C01C62FD42F607F642BB1
:1006D0000E94460380E1C89FB00111246D2BC80120
:1006E000DF91CF911F910F910C944603CF93DF932D
:1006F000CDB7DEB728970FB6F894DEBF0FBECDBFDB
:1007000098E0E4E0F1E0DE01119601900D929A95F7
:10071000E1F79091B302961710F46FEF690FFE01A5
:100720003196E60FF11DE60FF11D6081680F6068DC
:1007300040E08AEA92E028960FB6F894DEBF0FBE3A
:10074000CDBFDF91CF910C945F0341E00E945F0326
:1007500081E090E008950E949C0B6115710579F08D
:10076000FB0101900020E9F73197AF01461B570BC1
:10077000DC01ED91FC910280F381E02D099480E091
:1007800090E008958F929F92AF92BF92EF92FF9266
:100790000F931F93CF93DF93CDB7DEB7A1970FB61B
:1007A000F894DEBF0FBECDBF7C01FA01CB0119A2C8
:1007B000223008F42AE08E010F5D1F4F822E912C0B
:1007C000A12CB12CBF01A50194010E949409F9014B
:1007D000CA01015011096A3014F4605D01C0695CFE
:1007E000D8016C93232B242B252B61F7B801C7016B
:1007F0000E94AD03A1960FB6F894DEBF0FBECDBF29
:10080000DF91CF911F910F91FF90EF90BF90AF902C
:100810009F908F9008951F920F920FB60F92112400
:100820002F933F934F935F936F937F938F939F93F8
:10083000AF93BF93EF93FF938091B900887F803689
:1008400009F49CC068F5883209F45BC090F48031EB
:1008500009F454C038F4882309F4F2C0883009F44C
:100860004DC0F2C0883109F44CC0803209F45DC03B
:10087000EBC0803409F468C048F4803309F455C0F3
:10088000883309F0E1C08093DA01D4C0803509F4DF
:100890004FC0883509F45DC0883409F0D5C0D2C096
:1008A000883909F4C3C0A8F4883709F467C038F45C
:1008B000883609F463C0803709F460C0C5C0883841
:1008C00009F4B4C0803909F45FC0803809F0BCC0B5
:1008D0005BC0803B09F484C038F4803A09F466C0F8
:1008E000883A09F47DC0B0C0803C09F4A3C0883CBC
:1008F00009F4A0C0883B09F486C0A6C0809100021C
:1009000010C09091FF018091FE01981770F5E09161
:10091000FF0181E08E0F8093FF01F0E0E252FE4F75
:1009200080818093BB0085EC82C08093DA018AC00D
:10093000E091FF0181E08E0F8093FF018091BB0069
:10094000F0E0E252FE4F80839091FF018091FE0122
:100950006AC0E091FF0181E08E0F8093FF018091DA
:10096000BB00F0E0E252FE4F80838091DD018111F7
:1009700069C081E08093DC0184EA5DC083E08093FC
:10098000DB011092D901CFCF8091D901803208F0DC
:100990004DC0E091D90181E08E0F8093D901809103
:1009A000BB00F0E0E754FE4F8083BDCF85EC809321
:1009B000BC001092DB018091D901803230F4E091CB
:1009C000D901F0E0E754FE4F10826091D90170E048
:1009D00089EB91E0E0E0F0E009951092D90134C094
:1009E00084E08093DB011092B8011092B701E0E03F
:1009F000F0E009958091B701811105C081E08093F5
:100A0000B70110929701E091B80181E08E0F8093B9
:100A1000B801F0E0E956FE4F80818093BB009091D1
:100A2000B8018091B701981708F47DCF85E88093CD
:100A3000BC000AC085EC8093BC001092DB0104C0AE
:100A40001092DA010E948C00FF91EF91BF91AF915B
:100A50009F918F917F916F915F914F913F912F91D6
:100A60000F900FBE0F901F9018951F920F920FB608
:100A70000F9211242F933F938F939F93AF93BF9324
:100A800080916A0190916B01A0916C01B0916D0110
:100A90003091690123E0230F2D3720F40196A11D29
:100AA000B11D05C026E8230F0296A11DB11D20939C
:100AB000690180936A0190936B01A0936C01B093DC
:100AC0006D0180916E0190916F01A0917001B091C4
:100AD00071010196A11DB11D80936E0190936F016C
:100AE000A0937001B0937101BF91AF919F918F91CD
:100AF0003F912F910F900FBE0F901F9018951F924E
:100B00000F920FB60F9211242F933F934F935F9341
:100B10006F937F938F939F93AF93BF93EF93FF93C5
:100B20008DE092E00E944E02FF91EF91BF91AF9154
:100B30009F918F917F916F915F914F913F912F91F5
:100B40000F900FBE0F901F9018951F920F920FB627
:100B50000F9211242F938F939F93EF93FF93E09124
:100B60001D02F0911E028081E0912302F091240287
:100B700082FD12C09081809126028F5F8F73209139
:100B80002702821751F0E0912602F0E0E35FFD4F6B
:100B9000958F8093260201C08081FF91EF919F91F4
:100BA0008F912F910F900FBE0F901F901895CF929D
:100BB000DF92EF92FF920F931F93E82FF92F05C05A
:100BC000015011092109310961F19081962394178F
:100BD000B9F305C0015011092109310911F19081C2
:100BE00096239413F7CFC12CD12CE12CF12C0AC001
:100BF0008FEFC81AD80AE80AF80A0C151D052E0549
:100C00003F0579F080818623841791F36C2D7D2D2B
:100C10008E2D9F2D1F910F91FF90EF90DF90CF9021
:100C2000089560E070E080E090E01F910F91FF90E8
:100C3000EF90DF90CF900895E1E0F2E0138212820E
:100C400088EE93E0A0E0B0E084839583A683B78329
:100C500020E131E031832083EDE0F2E01382128263
:100C600084839583A683B78380E291E09183808318
:100C700085EC90E09587848784EC90E09787868761
:100C800080EC90E0918B808B81EC90E0938B828B59
:100C900082EC90E0958B848B86EC90E0978B868B32
:100CA000118E128E138E148EEAEAF2E013821282F3
:100CB00080E391E09183808387E2848380E1808771
:100CC00082E08187128688E083870895789484B5CE
:100CD000826084BD84B5816084BD85B5826085BD38
:100CE00085B5816085BD80916E00816080936E00C6
:100CF00010928100809181008260809381008091B8
:100D00008100816080938100809180008160809368
:100D100080008091B10084608093B1008091B00028
:100D200081608093B00080917A00846080937A0023
:100D300080917A00826080937A0080917A0081604D
:100D400080937A0080917A00806880937A00109274
:100D5000C100E5EAF0E02491E1E9F0E08491882324
:100D6000C1F090E0880F991FFC01E859FF4FC59131
:100D7000D491FC01E458FF4FA591B4919FB7F8942A
:100D80008881E22FE0958E2388838C91E823EC9371
:100D90009FBFE6EAF0E02491E2E9F0E08491882345
:100DA00099F090E0880F991FFC01E859FF4FA59139
:100DB000B491FC01E458FF4F859194918FB7F8945A
:100DC000EC91E22BEC938FBFE0911D02F0911E029B
:100DD00082E08083E0911902F0911A021082E09182
:100DE0001B02F0911C028FEC808310922502E0918F
:100DF0002102F091220286E08083E0911F02F091AF
:100E00002002808180618083E0911F02F0912002A6
:100E1000808188608083E0911F02F09120028081B0
:100E200080688083E0911F02F091200280818F7D95
:100E30008083109296011092950110929201109267
:100E400093011092DB0181E08093DD011092DC01BF
:100E500061E082E10E94400161E083E10E94400183
:100E60008091B9008E7F8093B9008091B9008D7F09
:100E70008093B90088E48093B80085E48093BC0037
:100E80001092AF028091B302823018F098E09093F4
:100E9000AF029091B402992339F0813029F4809106
:100EA000AF0284608093AF0262E370E080E090E084
:100EB0000E94B2016091B5028AEA92E00E94E202C9
:100EC00068EE73E080E090E00E94B20160E38AEA9D
:100ED00092E00E944603CBE4D6E4CE010197F1F7FD
:100EE00060E38AEA92E00E9446032197F1F760E30B
:100EF0008AEA92E00E94460383E592E00197F1F7C7
:100F000060E28AEA92E00E9446036091AF0260626A
:100F100040E08AEA92E00E945F0384E08093B0029E
:100F200040E06CE08AEA92E00E945F0340E061E00A
:100F30008AEA92E00E945F03CBE3DFE1CE010197F2
:100F4000F1F782E08093B10240E066E08AEA92E045
:100F50000E945F0340E062E08AEA92E00E945F0341
:100F6000CE010197F1F788E08093B50260E08AEA4C
:100F700092E00E94E20264E371E08AEA92E00E9459
:100F8000AD0361E080E00E94760361E471E08AEAEB
:100F900092E00E94AD0360ED77E080E090E00E9477
:100FA000B20140E061E08AEA92E00E945F0321978B
:100FB000F1F74BE8242E332433945DE1452E512C78
:100FC000612C712C62E9862E99249A94A92CB92C53
:100FD00060E08CE00E944001C1010197F1F761E0FF
:100FE0008CE00E944001C1010197F1F760E08CE0C4
:100FF0000E944001E5EAF0E06491E1E9F0E08491CB
:10100000E82FF0E0EE0FFF1FEE58FF4F859194910F
:1010100000E117E220E030E0462F0E94D70561157D
:1010200071058105910549F0DC01CB010196A11DF7
:10103000B11DBC01CD019F7003C060E070E0CB0129
:10104000A30192010E946A09C90137FD0196959595
:101050008795909368018093670164E670E080E073
:1010600090E00E94B20160E080E00E9476036FE4AD
:1010700071E08AEA92E00E94AD0361E080E00E94A4
:10108000760341E065E48AEA92E00E945F0361E052
:101090008FE00E94760341E066E48AEA92E00E94D3
:1010A0005F032091670130916801C901330FAA0BDA
:1010B000BB0B9C01AD012258310941095109ACE03B
:1010C000B0E00E948909A50194010E946A09CA0141
:1010D000B9010E94740A6B017C0120E030E040E419
:1010E00051E40E94240B18164CF0C0926301D09278
:1010F0006401E0926501F09266010CC080E090E02E
:10110000A0E4B1E48093630190936401A09365012E
:10111000B0936601C0906301D0906401E0906501D6
:10112000F09066012091000130910101409102018F
:1011300050910301C701B6010E94C509882309F433
:10114000C0C0C701B6010E943C0A6B017C018B0143
:10115000C0E0D0E0C017D10764F461E08C2F8E5F4F
:101160000E9476036FEF8AEA92E00E94A50321961F
:10117000F1CF64E670E080E090E00E94B2010CE004
:1011800010E00C191D098EE0F82EC0E0D0E0C01769
:10119000D1076CF461E08F2D0E94760367E571E062
:1011A0008AEA92E00E94AD032196FA94F0CF20E003
:1011B00030E040E451E460916301709164018091FA
:1011C0006501909166010E94CA0920E030E048EC78
:1011D00054E40E94290B0E943C0A709362016093C0
:1011E00061016B01770FEE08FF08F7FE0EC06DE29C
:1011F0008DE092E00E946F0244275527BA014C19F6
:101200005D096E097F092AE003C02AE0B701A60143
:101210008DE092E00E94C20369E571E08DE092E00A
:101220000E94AD0360E088E00E9476038091610136
:1012300090916201883E934054F467E571E08AEA38
:1012400092E00E94AD0360E089E00E947603C090C6
:101250006101D09062010D2C000CEE08FF08F7FE32
:101260000FC041E06DE28AEA92E00E945F034427EA
:101270005527BA014C195D096E097F092AE003C0A0
:101280002AE0B701A6018AEA92E00E94C20360E068
:101290008DE00E9476036CE571E08AEA92E00E949C
:1012A000AD038091630190916401A0916501B091BB
:1012B00066018093000190930101A0930201B09315
:1012C000030160E177E280E090E00E94B2010E94B9
:1012D000D8027ECE052E97FB1EF400940E94810951
:1012E00057FD07D00E94940907FC03D04EF40C94DC
:1012F000810950954095309521953F4F4F4F5F4F55
:10130000089590958095709561957F4F8F4F9F4F71
:1013100008950E94B609A59F900DB49F900DA49FBB
:10132000800D911D11240895A1E21A2EAA1BBB1B4A
:10133000FD010DC0AA1FBB1FEE1FFF1FA217B307A1
:10134000E407F50720F0A21BB30BE40BF50B661FB7
:10135000771F881F991F1A9469F76095709580957B
:1013600090959B01AC01BD01CF010895A29FB001F2
:10137000B39FC001A39F700D811D1124911DB29FC9
:10138000700D811D1124911D08950E94AF0A08F46B
:1013900081E008950E94DE090C94EA0A0E94E30AA3
:1013A00058F00E94DC0A40F029F45F3F29F00C94C9
:1013B000D30A51110C941E0B0C94D90A0E94FB0AFB
:1013C00068F39923B1F3552391F3951B550BBB2774
:1013D000AA2762177307840738F09F5F5F4F220FB9
:1013E000331F441FAA1FA9F335D00E2E3AF0E0E8B0
:1013F00032D091505040E695001CCAF72BD0FE2FFA
:1014000029D0660F771F881FBB1F2617370748078D
:10141000AB07B0E809F0BB0B802DBF01FF27935845
:101420005F4F3AF09E3F510578F00C94D30A0C942C
:101430001E0B5F3FE4F3983ED4F38695779567954E
:10144000B795F7959F5FC9F7880F911D969587957A
:1014500097F90895E1E0660F771F881FBB1F621799
:1014600073078407BA0720F0621B730B840BBA0B57
:10147000EE1F88F7E09508950E94430A6894B11121
:101480000C941E0B08950E94030B88F09F5798F050
:10149000B92F9927B751B0F0E1F0660F771F881F79
:1014A000991F1AF0BA95C9F714C0B13091F00E9493
:1014B0001D0BB1E008950C941D0B672F782F882722
:1014C000B85F39F0B93FCCF3869577956795B395BA
:1014D000D9F73EF490958095709561957F4F8F4F29
:1014E0009F4F0895E89409C097FB3EF4909580952E
:1014F000709561957F4F8F4F9F4F9923A9F0F92FDA
:1015000096E9BB279395F695879577956795B79557
:10151000F111F8CFFAF4BB0F11F460FF1BC06F5F3D
:101520007F4F8F4F9F4F16C0882311F096E911C04F
:10153000772321F09EE8872F762F05C0662371F070
:1015400096E8862F70E060E02AF09A95660F771F84
:10155000881FDAF7880F9695879597F90895990F60
:101560000008550FAA0BE0E8FEEF16161706E8076D
:10157000F907C0F012161306E407F50798F0621B8E
:10158000730B840B950B39F40A2661F0232B242B63
:10159000252B21F408950A2609F4A140A6958FEF82
:1015A000811D811D089597F99F6780E870E060E0D4
:1015B00008959FEF80EC089500240A9416161706EC
:1015C00018060906089500240A9412161306140634
:1015D00005060895092E0394000C11F4882352F097
:1015E000BB0F40F4BF2B11F460FF04C06F5F7F4F4F
:1015F0008F4F9F4F089557FD9058440F551F59F036
:101600005F3F71F04795880F97FB991F61F09F3FEF
:1016100079F087950895121613061406551FF2CF18
:101620004695F1DF08C0161617061806991FF1CF68
:1016300086957105610508940895E894BB2766278F
:101640007727CB0197F908950E94AF0A08F48FEF2E
:1016500008950E943C0B0C94EA0A0E94DC0A38F0C0
:101660000E94E30A20F0952311F00C94D30A0C9405
:10167000D90A11240C941E0B0E94FB0A70F3959F4B
:10168000C1F3950F50E0551F629FF001729FBB2779
:10169000F00DB11D639FAA27F00DB11DAA1F649F15
:1016A0006627B00DA11D661F829F2227B00DA11DC8
:1016B000621F739FB00DA11D621F839FA00D611D4E
:1016C000221F749F3327A00D611D231F849F600D6F
:1016D000211D822F762F6A2F11249F5750409AF098
:1016E000F1F088234AF0EE0FFF1FBB1F661F771F24
:1016F000881F91505040A9F79E3F510580F00C94EF
:10170000D30A0C941E0B5F3FE4F3983ED4F3869506
:1017100077956795B795F795E7959F5FC1F7FE2B8E
:10172000880F911D9695879597F90895EE0FFF1FE5
:101730000590F491E02D099481E090E0F8940C94E8
:06174000A10BF894FFCF9D
:101746000000803F0000400014005400000000002C
:101756001101E400DC00CD00BF00BE000000000067
:101766006F02EC01380216022A02B60200000000DF
:10177600A503EC0153797374656D2053746172741B
:10178600005761746572204D6F6E69746F720056F2
:101796006F6C756D653A0020000D0A0067616C007C
:00000001FF
