:100000000C946C000C9494000C9494000C94940048
:100010000C9494000C9494000C9494000C94940010
:100020000C9494000C9494000C9494000C94940000
:100030000C9494000C9494000C9494000C949400F0
:100040000C9422060C9494000C94A5020C947F024C
:100050000C9494000C9494000C9494000C949400D0
:100060000C94D7020C949400D709D709A309BD09B1
:10007000D709D709DE09F809120A00000000240098
:1000800027002A00000000002300260029000000AD
:100090000000250028002B000404040404040404C8
:1000A0000202020202020303030303030102040823
:1000B00010204080010204081020010204081020D2
:1000C0000000000800020100000304070000000017
:1000D00000000000480A490711241FBECFEFD8E0F6
:1000E000DEBFCDBF23E0A0EAB1E001C01D92A33086
:1000F000B207E1F711E0A0E0B1E0E0E5FBE102C00A
:1001000005900D92A03AB107D9F710E0CBE6D0E008
:1001100004C02197FE010E94750BCA36D107C9F7AA
:100120000E9451070C949B0D0C940000E091340246
:10013000F0913502309729F010922B0210922A028A
:1001400009940895CF93DF93AC01E0913202F091CE
:1001500033023097F1F090912D0280912C02981784
:10016000C0F090E0292F30E02617370754F4D9016A
:10017000A056BE4FEA01C20FD31F88818C939F5FA8
:10018000F1CF10922D0260932C02CB01DF91CF9121
:100190000994DF91CF910895FC01538D448D252F53
:1001A00030E0842F90E0821B930B541710F0CF9611
:1001B000089501970895FC01918D828D981761F043
:1001C000828DDF01A80FB11D5D968C91928D9F5F8E
:1001D0009F73928F90E008958FEF9FEF0895FC0139
:1001E000918D828D981731F0828DE80FF11D858DEC
:1001F00090E008958FEF9FEF0895FC01918D228D7F
:10020000892F90E0805C9F4F821B91098F73992703
:10021000089581E492E00E94FD0021E0892B09F419
:1002200020E0822F0895FC01848DDF01A80FB11D0D
:10023000A35ABF4F2C91848D90E001968F7399271C
:10024000848FA689B7892C93A089B1898C91806409
:100250008C93938D848D981306C00288F389E02DCA
:1002600080818F7D80830895EF92FF920F931F937B
:10027000CF93DF93EC0181E0888F9B8D8C8D981359
:1002800005C0E889F989808185FD24C0F62E0B8D93
:1002900010E00F5F1F4F0F731127E02E8C8DE812B7
:1002A0000CC00FB607FCFACFE889F989808185FF79
:1002B000F5CFCE010E941301F1CF8B8DFE01E80F27
:1002C000F11DE35AFF4FF0820B8FEA89FB89808191
:1002D000806207C0EE89FF896083E889F98980819F
:1002E0008064808381E090E0DF91CF911F910F9136
:1002F000FF90EF900895CF93DF93EC01888D8823D2
:10030000C9F0EA89FB89808185FD05C0A889B98982
:100310008C9186FD0FC00FB607FCF5CF808185FF5D
:10032000F2CFA889B9898C9185FFEDCFCE010E94CB
:100330001301E7CFDF91CF91089580E090E0892B02
:1003400029F00E94090181110C940000089585EDA7
:100350008093BC008091BC0084FDFCCF10922902E8
:1003600008954091E001262F30E0240F311D213205
:100370003105DCF4209129022430C9F4FC0180E02D
:1003800090E0861758F43091E0012191DC01A054EF
:10039000BE4FA30FB11D2C930196F3CF8091E001C6
:1003A000680F6093E00180E0089581E0089582E0A5
:1003B00008950895E0912D0280912C02E81730F401
:1003C000F0E0E056FE4F808190E008958FEF9FEFC0
:1003D000089590912D0280912C02981750F4E92FE6
:1003E000F0E0E056FE4F208130E09F5F90932D02B9
:1003F00002C02FEF3FEFC901089580912C0290E0D9
:1004000020912D02821B91090895CF93DF9300D094
:10041000CDB7DEB7CB01642F49835A830E94B10167
:100420004981842F5A81952F0F900F90DF91CF91A2
:100430000895CF93DF931F92CDB7DEB7698361E054
:10044000CE0101960E94B10181E090E00F90DF9112
:10045000CF910895089580E090E008950E94860D60
:10046000EF92FF920F931F93CF93DF9300D0CDB7FE
:10047000DEB740E050E060E371E080EF92E00E9480
:10048000CC06EE24E39490912C0280912D029817D3
:1004900069F18EED92E00E94E901F82E89831A82BB
:1004A0000091F4021091F5020F5F1F4FB80180EF29
:1004B00092E00E94A506882399F02091F0023091E5
:1004C000F1028091F4029091F502BE016F5F7F4FBF
:1004D000820F931F0E94940D1093F5020093F40273
:1004E0008AE0F812D0CFE0924002CDCF0F900F906B
:1004F000DF91CF911F910F91FF90EF9008951F9280
:100500000F920FB60F9211242F933F934F935F9347
:100510006F937F938F939F93AF93BF93EF93FF93CB
:1005200081E492E00E941301FF91EF91BF91AF919E
:100530009F918F917F916F915F914F913F912F91FB
:100540000F900FBE0F901F9018951F920F920FB62D
:100550000F9211242F938F939F93EF93FF93E0912A
:100560005102F09152028081E0915702F0915802BD
:1005700082FD12C0908180915A028F5F8F7320910B
:100580005B02821751F0E0915A02F0E0EF5BFD4F01
:10059000958F80935A0201C08081FF91EF919F91C6
:1005A0008F912F910F900FBE0F901F9018951F9253
:1005B0000F920FB60F9211242F933F934F935F9397
:1005C0006F937F938F939F93AF93BF93EF93FF931B
:1005D0008091B900887F803609F49CC068F5883224
:1005E00009F45BC090F4803109F454C038F48823D6
:1005F00009F4F6C0883009F44DC0F6C0883109F41A
:100600004CC0803209F45DC0EFC0803409F468C08A
:1006100048F4803309F455C0883309F0E5C080936D
:100620000302D8C0803509F44FC0883509F45DC095
:10063000883409F0D9C0D6C0883909F4C7C0A8F4F5
:10064000883709F467C038F4883609F463C0803706
:1006500009F460C0C9C0883809F4B8C0803909F409
:100660005FC0803809F0C0C05BC0803B09F486C021
:1006700038F4803A09F466C0883A09F47FC0B4C0FF
:10068000803C09F4A7C0883C09F4A4C0883B09F465
:100690008AC0AAC08091260210C090912502809144
:1006A0002402981770F5E091250281E08E0F809367
:1006B0002502F0E0EC5FFD4F80818093BB0085EC6C
:1006C00086C0809303028EC0E091250281E08E0FE8
:1006D000809325028091BB00F0E0EC5FFD4F8083AA
:1006E00090912502809124026EC0E091250281E064
:1006F0008E0F809325028091BB00F0E0EC5FFD4FF0
:1007000080838091280281116DC081E0809327024F
:1007100084EA61C083E08093290210920202CFCF65
:1007200080910202803208F051C0E091020281E023
:100730008E0F809302028091BB00F0E0EE51FE4FDD
:100740008083BDCF85EC8093BC00109229028091FC
:100750000202803230F4E0910202F0E0EE51FE4FEE
:1007600010826091020270E0E0912E02F0912F025F
:1007700082EE91E009951092020236C084E08093E7
:1007800029021092E1011092E001E0913002F09113
:10079000310209958091E001811105C081E08093CB
:1007A000E0011092C001E091E10181E08E0F8093A1
:1007B000E101F0E0E054FE4F80818093BB00909116
:1007C000E1018091E001981708F479CF85E88093E2
:1007D000BC000AC085EC8093BC001092290204C0C2
:1007E000109203020E94A701FF91EF91BF91AF9178
:1007F0009F918F917F916F915F914F913F912F9139
:100800000F900FBE0F901F9018956115710579F02C
:10081000FB0101900020E9F73197AF01461B570B10
:10082000DC01ED91FC910280F381E02D099480E0E0
:1008300090E00895CF93DF93CDB7DEB72C970FB636
:10084000F894DEBF0FBECDBF60E371E0CE0101962C
:100850000E9434078091F4029091F502892B21F1D6
:10086000E091F002F091F1023097F1F08081823650
:1008700089F03CF48136C1F460910201709103016A
:1008800017C0853661F0863679F460913C0270912C
:100890003D020EC0609100017091010109C060919C
:1008A0003E0270913F0204C060913602709137029F
:1008B0004AE0CE0107960E94FC06BE01695F7F4FA9
:1008C000CE0101960E946C06CE0107960E94F706A3
:1008D00069817A818EED92E00E940504CE01019635
:1008E0000E94F7062C960FB6F894DEBF0FBECDBF60
:1008F000DF91CF9108953FB7F8948091FB029091DA
:10090000FC02A091FD02B091FE0226B5A89B05C095
:100910002F3F19F00196A11DB11D3FBFBA2FA92F7E
:10092000982F8827820F911DA11DB11DBC01CD01FB
:1009300042E0660F771F881F991F4A95D1F70895E7
:100940000895CF92DF92EF92FF920F931F93CF9370
:10095000DF936C017A018B01C0E0D0E0CE15DF059A
:1009600089F0D8016D918D01D601ED91FC91019036
:10097000F081E02DC6010995892B11F47E0102C09A
:100980002196ECCFC701DF91CF911F910F91FF907E
:10099000EF90DF90CF900895CF93DF93BC0181E477
:1009A00092E00E940504EC016EE271E081E492E0C5
:1009B0000E9405048C0F9D1FDF91CF9108958091B7
:1009C000F0029091F102009711F00C948C0A60E013
:1009D00070E0CB0108958F929F92AF92BF92CF9219
:1009E000DF92EF92FF920F931F93CF93DF93CDB7D8
:1009F000DEB7A1970FB6F894DEBF0FBECDBF6B0177
:100A00007C0197FF33C0E0914102F09142020190D6
:100A1000F081E02D6DE281E492E009958C012227BE
:100A20003327A9012C193D094E095F0919A2CE01EE
:100A300081967C019AE0892E912CA12CB12CCA01BF
:100A4000B901A50194010E94530B605DF701629307
:100A50007F01211531054105510589F7BF0181E469
:100A600092E00E940504800F911F1FC09B01AC0102
:100A700019A28E010F5D1F4F8AE0C82ED12CE12CE8
:100A8000F12CCA01B901A70196010E94530B605DC8
:100A9000F80162938F01211531054105510589F750
:100AA000BF0181E492E00E940504A1960FB6F8947C
:100AB000DEBF0FBECDBFDF91CF911F910F91FF9091
:100AC000EF90DF90CF90BF90AF909F908F90089560
:100AD000CF93DF930E94EB04EC016EE271E081E4BE
:100AE00092E00E9405048C0F9D1FDF91CF91089525
:100AF000833081F028F4813099F08230A1F008959C
:100B00008730A9F08830B9F08430D1F4809180002A
:100B10008F7D03C0809180008F778093800008953F
:100B200084B58F7702C084B58F7D84BD0895809190
:100B3000B0008F7703C08091B0008F7D8093B000AC
:100B400008951F93CF93DF93282F30E0F901E054ED
:100B5000FF4F8491F901E455FF4FD491F901E85614
:100B6000FF4FC491CC23C9F0162F81110E94780544
:100B7000EC2FF0E0EE0FFF1FE257FF4FA591B4916D
:100B80008FB7F894111105C09C91ED2FE095E923E2
:100B900002C0EC91ED2BEC938FBFDF91CF911F91B1
:100BA00008958E3008F08E508770806480937C00AA
:100BB00080917A00806480937A0080917A0086FD2B
:100BC000FCCF809178002091790090E0922B0895DD
:100BD0008F929F92AF92BF92CF92DF92EF92FF924D
:100BE0006B017C010E947B044B015C01C114D104A8
:100BF000E104F104F1F00E947B04DC01CB018819CF
:100C00009909AA09BB09883E9340A105B10570F373
:100C100021E0C21AD108E108F10888EE880E83E0CD
:100C2000981EA11CB11CC114D104E104F10419F7F0
:100C3000DDCFFF90EF90DF90CF90BF90AF909F906F
:100C40008F9008951F920F920FB60F9211242F9339
:100C50003F938F939F93AF93BF938091F7029091AF
:100C6000F802A091F902B091FA023091F60223E065
:100C7000230F2D3720F40196A11DB11D05C026E8D4
:100C8000230F0296A11DB11D2093F6028093F70257
:100C90009093F802A093F902B093FA028091FB02BC
:100CA0009091FC02A091FD02B091FE020196A11D5F
:100CB000B11D8093FB029093FC02A093FD02B093C0
:100CC000FE02BF91AF919F918F913F912F910F9015
:100CD0000FBE0F901F9018950F931F93CF93DF9324
:100CE0008C01EB01FC01808191810097B1F068815A
:100CF00079816115710579F0428153812C813D81A3
:100D00004217530740F00E94940D8C819D81F80199
:100D10009583848313C00E94240C88819981F801F3
:100D2000918380838A819B81938382838C819D813F
:100D300095838483198218821B821A821D821C82E9
:100D4000DF91CF911F910F9108950F931F93CF9330
:100D5000DF93EC0188819981009729F02A813B81FA
:100D60002617370788F48B016F5F7F4F0E94BC0CFA
:100D7000009761F0998388831B830A832C813D81CE
:100D8000232B11F4FC01108281E001C080E0DF918F
:100D9000CF911F910F910895EF92FF920F931F93A0
:100DA000CF93DF93EC017B018A01BA010E94A50673
:100DB0002881398181110DC02115310519F0C90132
:100DC0000E94240C198218821D821C821B821A82A6
:100DD00006C01D830C83B701C9010E94940DCE018A
:100DE000DF91CF911F910F91FF90EF900895FC013B
:100DF000808191810C94240CEF92FF920F931F93AA
:100E0000CF93DF93CDB7DEB762970FB6F894DEBF0E
:100E10000FBECDBF8C01CB01F8011182108213826D
:100E200012821582148250E09E012F5F3F4F79019C
:100E3000B9010E94B30AF70101900020E9F7319748
:100E4000AF014E195F09B701C8010E94CC06629636
:100E50000FB6F894DEBF0FBECDBFDF91CF911F91CB
:100E60000F91FF90EF900895FC0111821082138280
:100E70001282158214826115710551F0FB010190F7
:100E80000020E9F73197AF01461B570B0C94CC06B5
:100E900008958AEE92E00E94F70680EF92E00C94AB
:100EA000F706789484B5826084BD84B5816084BD82
:100EB00085B5826085BD85B5816085BD80916E00F8
:100EC000816080936E001092810080918100826029
:100ED0008093810080918100816080938100809166
:100EE00080008160809380008091B1008460809355
:100EF000B1008091B00081608093B00080917A0051
:100F0000846080937A0080917A00826080937A0076
:100F100080917A00816080937A0080917A00806865
:100F200080937A001092C100E0915102F091520238
:100F300092E09083E0914D02F0914E021082E09198
:100F40004F02F09150028FEC808310925902E09191
:100F50005502F091560286E08083E0915302F091B1
:100F60005402808180618083E0915302F0915402A9
:100F7000808188608083E0915302F09154028081E7
:100F800080688083E0915302F091540280818F7DCC
:100F900080839093BA0086E990E090933102809329
:100FA000300282EA90E090932F0280932E021092FA
:100FB0002D0210922C0210922B0210922A021092F3
:100FC000290281E0809328021092270261E082E1E9
:100FD0000E94A10561E083E10E94A1058091B90012
:100FE0008E7F8093B9008091B9008D7F8093B90086
:100FF00088E48093B80085E48093BC0080E392E0AD
:1010000090933302809332028AE194E09093350208
:1010100080933402E0EBF0E02491ECE9F0E084917D
:10102000882399F090E0880F991FFC01E658FF4F44
:10103000A591B491FC01E257FF4F859194918FB730
:10104000F894EC91E22BEC938FBF61E084E00E9476
:10105000A105C1EBD0E0FE0124910DE910E0F801FB
:1010600084918823C9F090E0880F991FFC01E6580D
:10107000FF4FA591B49182579F4FFC014591549128
:101080003FB7F8949C91822F809598239C93FA0106
:101090009081892380833FBF64E170E080EF92E01C
:1010A0000E94A506B4E6AB2EB12C74E6C72ED12C57
:1010B000E12CF12C8EE00E94D105E80EF91E6AE0C9
:1010C00070E080E090E00E94E805F1E0CF1AD108DE
:1010D00089F7C701B5010E943F0B7B01A4E68A2E68
:1010E000912CC12CD12C8EE00E94D105C80ED91EA6
:1010F0006AE070E080E090E00E94E80581E0881AF4
:10110000910889F7C601B5010E943F0B4B016701A9
:10111000C61AD70AB6010D2C000C880B990B0E9439
:10112000EB046EE271E081E492E00E940504E4E0E9
:10113000CE0ED11CF9E0CF16D104F8F4B4016E0D37
:101140007F1D77FF02C06F5F7F4F75956795709326
:101150003F0260933E0281E391E00E94CC046091E3
:101160003E0270913F02072E000C880B990B0E94E3
:10117000EB04F4E6AF2EB12C4DC08BE391E00E945E
:10118000CC0493CF8FE00E94D105E80EF91E6AE0EF
:1011900070E080E090E00E94E80581E0C81AD10884
:1011A00089F7C701B5010E943F0B7B0164E6862EDB
:1011B000912CC12CD12C8FE00E94D105C80ED91ED4
:1011C0006AE070E080E090E00E94E805E1E08E1ABD
:1011D000910889F7C601B5010E943F0B4B016701D9
:1011E000C61AD70AB6010D2C000C880B990B0E9469
:1011F000EB046EE271E081E492E00E940504F4E009
:10120000CF0ED11C89E0C816D10450F085E591E0DD
:101210000E94CC0494E6C92ED12CE12CF12CB2CF43
:10122000B4016E0D7F1D77FF02C06F5F7F4F759514
:10123000679570933D0260933C028BE491E00E94BD
:10124000CC0460913C0270913D02072E000C880B8B
:10125000990B0E94EB0435ECE32E30E0F32E42E0D4
:10126000C42ED12CAA24A394B12C3FC081110E947A
:101270007805E92DF0E0EE0FFF1FEC57FF4FA59129
:10128000B4918C91882209F438C08EE00E94D10577
:101290004C0190933B0280933A028FE00E94D1056B
:1012A000909339028093380240913E0250913F0260
:1012B0002091020130910301240F351F28153905B3
:1012C0000CF0CDC0B0923702A092360285E691E0D4
:1012D0000E94CC048091360290913702892B09F04C
:1012E000D5C061E084E00E94A105F7018491FE0170
:1012F0008490F80194909110B9CF80914002882396
:1013000009F4AAC0109240028091F4029091F50273
:10131000892B09F49FC0E091F002F091F10230971F
:1013200009F498C0E0818E2FEE0F990BAA0BBB0B2E
:10133000FC01E156F109E930F10508F08BC0EC5CE5
:10134000FF4F0C94750B88E791E00E94CC048091CC
:101350004002811107C06AE070E080E090E00E94E6
:10136000E805F5CF0E94DF040E9468050E94DF04B3
:1013700070930301609302016DC088E791E00E94C1
:10138000CC0480914002811107C06AE070E080E0E7
:1013900090E00E94E805F5CF0E94DF040E946805F6
:1013A0000E94DF04709301016093000153C062E367
:1013B00070E080E090E00E94E8054CC085E891E094
:1013C0000E94CC0480914002811107C06AE070E065
:1013D00080E090E00E94E805F5CF0E94DF040E94C3
:1013E00068050E94DF0470933F0260933E0232C0A2
:1013F00085E891E00E94CC0480914002811107C0F1
:101400006AE070E080E090E00E94E805F5CF0E947D
:10141000DF040E9468050E94DF0470933D02609320
:101420003C0218C062E370E080E090E00E94E805B2
:1014300060E084E00E94A1056AE070E080E090E056
:101440000E94E80561E084E00E94A10583E991E043
:101450000E94CC04109240020E949D0146CF409110
:101460003C0250913D022091000130910101240F76
:10147000351F281739072CF4D0923702C092360254
:1014800029CF109237021092360224CF60E02ACF83
:10149000E1E4F2E01382128288EE93E0A0E0B0E093
:1014A00084839583A683B7832EE031E03183208344
:1014B00025EC30E03587248724EC30E03787268719
:1014C00020EC30E0318B208B21EC30E0338B228B11
:1014D00022EC30E0358B248B26EC30E0378B268BEA
:1014E000118E128E138E148EEEEDF2E013821282A4
:1014F00084839583A683B78380E291E09183808380
:1015000060E371E080EF92E00E94340760E371E0F5
:101510008AEE92E00C9434071F93FC0199278827E8
:10152000BC01E89411911032E9F3193010F01E302B
:10153000C8F31B3251F01D3249F4689406C00E9472
:10154000C90A610F711D811D911D119110531A302F
:10155000B0F33EF490958095709561957F4F8F4FD5
:101560009F4F1F9108954532510520F4423010F0ED
:101570000C94BE0AFB011082CB010895BB274A30B0
:1015800031F4992322F4BDE2909581959F4F0C94FC
:10159000DF0A592F482F372F262F660F771F881FF6
:1015A000991F660F771F881F991F620F731F841F73
:1015B000951F660F771F881F991F0895BB27FB0192
:1015C0005527AA27880F991FAA1FA41710F0A41B3C
:1015D00083955051B9F7A05DAA3308F0A95DA19396
:1015E000009779F7B111B1931192CB010C94F80ADD
:1015F000DC01FC01672F71917723E1F7329704C07A
:101600007C916D9370836291AE17BF07C8F3089504
:101610002F923F924F925F926F927F928F929F9202
:10162000AF92BF92CF92DF92EF92FF920F931F93F0
:10163000CF93DF93CDB7DEB7CA1BDB0B0FB6F894A1
:10164000DEBF0FBECDBF09942A88398848885F84E1
:101650006E847D848C849B84AA84B984C884DF8052
:10166000EE80FD800C811B81AA81B981CE0FD11D36
:101670000FB6F894DEBF0FBECDBFED01089597FB06
:10168000072E16F4009407D077FD09D00E947B0B3B
:1016900007FC05D03EF4909581959F4F0895709575
:1016A00061957F4F0895A1E21A2EAA1BBB1BFD0175
:1016B0000DC0AA1FBB1FEE1FFF1FA217B307E40731
:1016C000F50720F0A21BB30BE40BF50B661F771F89
:1016D000881F991F1A9469F7609570958095909569
:1016E0009B01AC01BD01CF010895EE0FFF1F0590D6
:1016F000F491E02D0994AA1BBB1B51E107C0AA1F5E
:10170000BB1FA617B70710F0A61BB70B881F991FA2
:101710005A95A9F780959095BC01CD010895CF9376
:10172000DF938230910510F482E090E0E0910103B4
:10173000F091020320E030E0C0E0D0E0309711F1FA
:101740004081518148175907C0F04817590761F483
:1017500082819381209719F09B838A832BC0909379
:1017600002038093010326C02115310519F04217A9
:10177000530718F49A01BE01DF01EF010280F381E3
:10178000E02DDCCF2115310509F1281B390B243060
:10179000310590F412968D919C9113976115710506
:1017A00021F0FB019383828304C090930203809312
:1017B0000103FD01329644C0FD01E20FF31F819346
:1017C0009193225031092D933C933AC02091FF020E
:1017D00030910003232B41F4209106013091070141
:1017E000309300032093FF02209104013091050102
:1017F0002115310541F42DB73EB7409108015091B4
:101800000901241B350BE091FF02F0910003E21760
:10181000F307A0F42E1B3F0B2817390778F0AC0113
:101820004E5F5F4F2417350748F04E0F5F1F5093F0
:1018300000034093FF028193919302C0E0E0F0E047
:10184000CF01DF91CF9108950F931F93CF93DF9333
:10185000009709F48CC0FC01329713821282009128
:101860000103109102030115110581F420813181DA
:10187000820F931F2091FF02309100032817390730
:1018800079F5F0930003E093FF0271C0D80140E0C6
:1018900050E0AE17BF0750F412962D913C9113976C
:1018A000AD012115310509F1D901F3CF9D01DA010F
:1018B0003383228360817181860F971F821793077C
:1018C00069F4EC0128813981260F371F2E5F3F4FC5
:1018D000318320838A819B8193838283452B29F4E2
:1018E000F0930203E093010342C01396FC93EE933E
:1018F0001297ED01499159919E01240F351FE2176E
:10190000F30771F480819181840F951F02961196DF
:101910009C938E938281938113969C938E931297BE
:10192000E0E0F0E0D80112968D919C91139700971A
:1019300019F0F8018C01F6CF8D919C9198012E5FE2
:101940003F4F820F931F2091FF0230910003281711
:10195000390769F4309729F41092020310920103B9
:1019600002C013821282109300030093FF02DF91E2
:10197000CF911F910F910895A0E0B0E0E2ECFCE060
:101980000C940C0BEC01009721F4CB010E948F0BFF
:10199000B8C0FC01E60FF71F9C0122503109E21785
:1019A000F30708F4ACC0D9010D911C9111970617EB
:1019B0001707B0F00530110508F49FC0C80104975F
:1019C0008617970708F499C002501109061B170BD8
:1019D000019311936D937C93CF010E94240C8DC0D1
:1019E0005B01A01AB10A4C01800E911EA091010367
:1019F000B091020340E050E0E12CF12C109709F483
:101A00004AC0A815B905D1F56D907C901197630176
:101A100082E0C80ED11CCA14DB0480F1A3014A196C
:101A20005B096A0182E0C80ED11C1296BC90129725
:101A30001396AC91B5E0CB16D10440F0B282A383EB
:101A400051834083D9016D937C930AC00E5F1F4F71
:101A5000C301800F911FF90191838083EB2DFA2F31
:101A6000E114F10431F0D7011396FC93EE93129731
:101A700044C0F0930203E09301033FC08D919C9119
:101A800011974817590708F4AC017D0112960D9083
:101A9000BC91A02DB3CF8091FF02909100038815D7
:101AA0009905E1F446175707C8F480910401909115
:101AB0000501009741F48DB79EB740910801509100
:101AC0000901841B950BE817F907C8F4F09300038C
:101AD000E093FF02F901718360830FC0CB010E9484
:101AE0008F0B7C01009759F0A801BE010E948B0D5D
:101AF000CE010E94240CC70104C0CE0102C080E0C8
:101B000090E0CDB7DEB7EEE00C94280B81E090E0DA
:101B1000F8940C949B0DFB01DC0102C001900D9226
:101B200041505040D8F70895FB01DC0101900D921F
:101B30000020E1F7089510E0CBE6D0E004C0FE01FC
:101B40000E94750B2196CC36D107C9F7F894FFCFC8
:101B50000A000A00000003038000000000003401B6
:101B6000A104CC007B01FD00DB00EF0000000000C1
:101B7000190205022B02D901FD01E901DA010D0A62
:101B800000536574746C6564203100536574746C23
:101B9000652031204661696C656400536574746C1E
:101BA0006564203200536574746C65203220466190
:101BB000696C65640053656E736F722031205472D6
:101BC0006967676572656400456E74657220746844
:101BD0007265736800456E746572206261636B564E
:101BE000616C005369676E616C2053656E74000010
:00000001FF
