:100000000C947A010C94AB010C94AB010C94AB01F1
:100010000C94AB010C94AB010C94AB010C94AB01B0
:100020000C94AB010C94AB010C94AB010C94AB01A0
:100030000C94AB010C94AB010C94AB010C94AB0190
:100040000C94AB010C94B0080C94AB010C94AB0174
:100050000C94AB010C94AB010C94AB010C9406080E
:100060000C94AB010C947A080C9450080C94AB01DE
:100070000C94AB010C94AB010C94AB010C94AB0150
:100080000C94AB010C94AB010C94AB010C94AB0140
:100090000C94AB010C94AB010C94AB010C94AB0130
:1000A0000C94AB010C94AB010C94AB010C94AB0120
:1000B0000C94AB010C94AB010C94AB010C94AB0110
:1000C0000C94AB010C94AB010C94AB010C94AB0100
:1000D0000C94AB010C94AB010C94AB010C94AB01F0
:1000E0000C94AB01E701EA01D901DD01E301210232
:1000F000EE01F201F801FC01000206020A020E0202
:100100002102140218021C020C94B2070C940B0A70
:100110000C94EE010C94EA010C9438060C94BE0683
:100120000C9418020C94D9010C9450060C940602FD
:100130000C940E020C9478030C94F2010C94450676
:100140000C9421020C9414020C9417070C9447038E
:100150000C94F8010C94E1060C944E060C940A02DF
:100160000C941C020C94AF030C94F6030C944806F8
:100170000C943F060C94E7010C94FC010C94AE0522
:100180000C94E3010C9400020C9451040C9456035B
:100190000C944B060C942A060C9435060C94890694
:1001A0000C94DD010C9432060C9481060C942C0600
:1001B0000C9453040C946A030C9418030C94420698
:1001C0000C942F060000010008004000000100040C
:1001D000050D000020002300260029002C002F0020
:1001E00032000001000003010601090100002100A6
:1001F000240027002A002D003000330001010000F8
:10020000040107010A0100002200250028002B003C
:100210002E003100340002010000050108010B012D
:1002200005050505070508080808020202020A0A72
:100230000808040404040101010101010101030390
:10024000030303030303040707070C0C0C0C0C0C3B
:100250000C0C0202020206060606060606060B0B38
:100260000B0B0B0B0B0B0102102020080810204079
:10027000102040800201020108040201010204086A
:1002800010204080804020100804020180040201F8
:100290008040201008040201080402010102040841
:1002A00010204080010204081020408000000A0B4A
:1002B00002090C0D0E0807030401000000000000F5
:1002C000000000000000000000000000000000002E
:1002D00000000000000000001211100000000000EB
:1002E000000000000000000000000000000000000E
:1002F00000000B0A11241FBECFEFD1E2DEBFCDBF3D
:1003000000E00CBF12E0A0E0B2E0E8E3F9E100E0B9
:100310000BBF02C007900D92AE36B107D9F724E0AB
:10032000AEE6B2E001C01D92A232B207E1F711E0E1
:10033000CAE7D1E000E006C021970109802FFE0145
:100340000E94750CC937D10780E00807A9F70E9401
:100350007E0A0C949A0C0C940000862740E1849F3E
:10036000900111242827622F70E0562F4427292F4F
:1003700030E0242B352BCB0144E0959587954A95A9
:10038000E1F728273927CB0153E0880F991F5A95A9
:10039000E1F782279327089590E0FC013197E2313D
:1003A000F10508F04EC08827EE58FF4F8F4F0C9490
:1003B000750C809180008F7703C0809180008F7DC5
:1003C00080938000089580918000877FF9CF84B565
:1003D0008F7702C084B58F7D84BD08958091B00071
:1003E0008F7703C08091B0008F7D8093B000089517
:1003F000809190008F7707C0809190008F7D03C01F
:1004000080919000877F8093900008958091A00054
:100410008F7707C08091A0008F7D03C08091A000DE
:10042000877F8093A0000895809120018F7707C077
:10043000809120018F7D03C080912001877F809370
:10044000200108951F93CF93DF93282F30E0F90107
:10045000E455FD4F8491F901EA59FD4FD491F9011A
:10046000E05EFD4FC491CC23C9F0162F81110E948C
:10047000CC01EC2FF0E0EE0FFF1FEA5FFD4FA591DE
:10048000B4918FB7F894111105C09C91ED2FE095B0
:10049000E92302C0EC91ED2BEC938FBFDF91CF915C
:1004A0001F910895CF93DF9390E0FC01EA59FD4F2F
:1004B0002491FC01E05EFD4F8491882361F190E07E
:1004C000880F991FFC01E451FE4FC591D491FC01A6
:1004D000EA5FFD4FA591B491611109C09FB7F894EF
:1004E0008881209582238883EC912E230BC0623073
:1004F00061F49FB7F8943881822F80958323888395
:10050000EC912E2B2C939FBF06C08FB7F894E881F7
:100510002E2B28838FBFDF91CF910895863308F06B
:10052000865390917B00282F2870977F922B909371
:100530007B008770806480937C0080917A00806467
:1005400080937A0080917A0086FDFCCF80917800BC
:100550002091790090E0922B08953FB7F894809114
:10056000810290918202A0918302B091840226B50B
:10057000A89B05C02F3F19F00196A11DB11D3FBFDB
:10058000BA2FA92F982F8827820F911DA11DB11D69
:10059000BC01CD0142E0660F771F881F991F4A9565
:1005A000D1F708958F929F92AF92BF92CF92DF9230
:1005B000EF92FF926B017C010E94AD024B015C0146
:1005C000C114D104E104F104F1F00E94AD02DC0198
:1005D000CB0188199909AA09BB09883E9340A10556
:1005E000B10570F321E0C21AD108E108F10888EEE4
:1005F000880E83E0981EA11CB11CC114D104E10433
:10060000F10419F7DDCFFF90EF90DF90CF90BF900E
:10061000AF909F908F9008952FB7F89460917D02CE
:1006200070917E0280917F02909180022FBF089589
:10063000CF92DF92EF92FF920F931F93CF93DF93AE
:100640006C017A018B01C0E0D0E0CE15DF0589F0A6
:10065000D8016D918D01D601ED91FC910190F08151
:10066000E02DC6011995892B11F47E0102C0219657
:10067000ECCFC701DF91CF911F910F91FF90EF90C9
:10068000DF90CF900895089580E090E00895FC01F8
:10069000538D448D252F30E0842F90E0821B930BE7
:1006A000541710F0CF96089501970895FC01918D8D
:1006B000828D981761F0828DDF01A80FB11D5D96C4
:1006C0008C91928D9F5F9F73928F90E008958FEF32
:1006D0009FEF0895FC01918D828D981731F0828DE6
:1006E000E80FF11D858D90E008958FEF9FEF08953D
:1006F000FC01918D228D892F90E0805C9F4F821BA1
:1007000091098F739927089585E892E00E947803F4
:1007100021E0892B09F420E0822F0895FC01848DCB
:10072000DF01A80FB11DA35ABF4F2C91848D90E01B
:1007300001968F739927848FA689B7892C93A089F6
:10074000B1898C9180648C93938D848D981306C0AD
:100750000288F389E02D80818F7D80830895EF9258
:10076000FF920F931F93CF93DF93EC0181E0888F6B
:100770009B8D8C8D981305C0E889F989808185FD52
:1007800024C0F62E0B8D10E00F5F1F4F0F73112743
:10079000E02E8C8DE8120CC00FB607FCFACFE8896A
:1007A000F989808185FFF5CFCE010E948E03F1CFBC
:1007B0008B8DFE01E80FF11DE35AFF4FF0820B8F86
:1007C000EA89FB898081806207C0EE89FF896083A6
:1007D000E889F98980818064808381E090E0DF91FD
:1007E000CF911F910F91FF90EF900895CF93DF93DA
:1007F000EC01888D8823C9F0EA89FB89808185FD19
:1008000005C0A889B9898C9186FD0FC00FB607FC79
:10081000F5CF808185FFF2CFA889B9898C9185FFBA
:10082000EDCFCE010E948E03E7CFDF91CF910895E7
:1008300080E090E0892B21F00E948403811125C083
:1008400080E090E0892B41F080E090E0892B21F05E
:100850000E94000081111CC080E090E0892B41F0D3
:1008600080E090E0892B21F00E940000811113C0EC
:1008700080E090E0892BA1F080E090E0892B81F06E
:100880000E94000081110AC008950E940000D8CF84
:100890000E940000E1CF0E940000EACF0C9400000B
:1008A00008958CE308954F925F926F927F928F929A
:1008B0009F92AF92BF92CF92DF92EF92FF920F93EF
:1008C0001F93CF93DF931F92CDB7DEB74D3310F058
:1008D00000E031C1142FA72EB62E2C01DC01ED91C2
:1008E000FC910484F585E02D1995D201ED91FC91E0
:1008F0000288F389E02DC2011995082F882341F35E
:100900007201B9E7EB0EF11C27E0210F622F8FEF88
:100910009FEF29830E94AD012981E22FF0E034E0AE
:10092000F595E7953A95E1F7E45FFD4F3081F701E2
:1009300030832F70E22FF0E0E45FFD4F2081F20161
:10094000E658FF4F2083D2011A96DC906D2D0E944D
:10095000AD01ED2DF0E044E0F595E7954A95E1F71E
:10096000E45FFD4F2081F201E558FF4F2083ED2D1C
:10097000EF70F0E0E45FFD4F2081F201E458FF4F9B
:100980002083F201D3846D2D0E94AD01ED2DF0E0A6
:1009900054E0F595E7955A95E1F7E45FFD4F208126
:1009A000F201E358FF4F2083ED2DEF70F0E0E45F9C
:1009B000FD4F2081F201E258FF4F2083D2011C96A7
:1009C000DC906D2D0E94AD01ED2DF0E064E0F59519
:1009D000E7956A95E1F7E45FFD4F2081F201E15868
:1009E000FF4F2083ED2DEF70F0E0E45FFD4F20819D
:1009F000F201E058FF4F2083F201D5846D2D0E9453
:100A0000AD01ED2DF0E074E0F595E7957A95E1F70D
:100A1000E45FFD4F2081F201EF57FF4F2083ED2D62
:100A2000EF70F0E0E45FFD4F2081F201EE57FF4FE1
:100A300020837B2C4201F4E88F0E911CCB2CDA2C06
:100A40002C2D2719211708F55601D6016D906D013F
:100A5000662D0E94AD01D4011197E62DF0E024E04F
:100A6000F595E7952A95E1F7E45FFD4F20812C93FA
:100A7000D501EC91EF70F0E0E45FFD4F2081F401CF
:100A80002083F2E08F0E911CDBCF412F50E04B5FB3
:100A90005F4F440F551F9C0120953095D701A40F3F
:100AA000B51FF90154E0F695E7955A95E1F7EF7017
:100AB000FF27E45FFD4F80818C93F901EF70FF27E2
:100AC000E45FFD4F808111968C931197F901EF2F10
:100AD000FF27E295EF70E45FFD4F808112968C93C3
:100AE0001297E32FFF27EF70FF27E45FFD4F808110
:100AF00013968C93F201E150FF4F445F4083D20183
:100B000012968D919C9113970397A9F0E159F109E1
:100B100010823196108231961082F201678D81E049
:100B20006827858D0E94220283E090E0D20113960F
:100B30009C938E931297802F0F90DF91CF911F91EE
:100B40000F91FF90EF90DF90CF90BF90AF909F906C
:100B50008F907F906F905F904F900895EF92FF92EB
:100B60001F93CF93DF93FC01228133812330310522
:100B700009F446C0EC0182819381049761F0678D8E
:100B8000858D0E94220260E08C8D0E94220284E00A
:100B900090E09B838A8388A1882381F110E08FEF06
:100BA0009FEF7E01FDE6EF0EF11CF7012081121789
:100BB00040F4FE01E10FF11D61A50E94AD011F5F30
:100BC000F4CF883B904F39F0888999890196998BA9
:100BD000888B19A212C08AA58E838BA58F838CA5C2
:100BE00088878DA589878D8181110CC09E818C811C
:100BF000981741F08E818F3F29F018A289A10AC071
:100C000080E008C08A899B8901969B8B8A8B81E052
:100C100089A3F3CFDF91CF911F91FF90EF900895BB
:100C2000CF93DF93FC01228133812230310569F0BB
:100C3000EC01678D858D0E94220260E08C8D0E9400
:100C4000220282E090E09B838A83DF91CF91089516
:100C500081E0089580E00895FC0181850895FC01FC
:100C600080850895FC0187810895FC01868108959F
:100C7000FC01409595854923642B65870895FC0107
:100C800064870895FC0163870895FC0162870895D5
:100C9000FC0164830895FC016583089580E0089554
:100CA0008F929F92AF92BF92CF92DF92EF92FF927C
:100CB000CF93DF93EC016B010E940C034B015C01AD
:100CC000E12CF12C0E940C03DC01CB01881999095D
:100CD000AA09BB098C159D05AE05BF0530F48A81B4
:100CE0009B81039779F381E001C080E0DF91CF9190
:100CF000FF90EF90DF90CF90BF90AF909F908F903C
:100D00000895FC012281338123303105D1F381E044
:100D100008958F929F92AF92BF92CF92DF92EF92FF
:100D2000FF92CF93DF93EC016B010E940C034B0108
:100D30005C01E12CF12C0E940C03DC01CB01881931
:100D40009909AA09BB098C159D05AE05BF0550F48C
:100D5000E881F9810280F381E02DCE011995882385
:100D600051F301C080E0DF91CF91FF90EF90DF90D1
:100D7000CF90BF90AF909F908F900895CF93DF93C7
:100D8000EC01E881F9810280F381E02DCE01199513
:100D90008823B9F3DF91CF910895009769F0FC01A2
:100DA00001900020E9F73197AF01481B590BBC01B6
:100DB00085E892E00C94180380E090E008950E948A
:100DC0008C0CDF92EF92FF920F931F93CF93DF93E0
:100DD000EC017B018A01E881F9810280F381E02D39
:100DE0001995D82E8823D1F0E114F104B1F0011542
:100DF000110599F0FE01E359FF4F90819750F801DA
:100E00008081981708F49083F801408150E0BE017A
:100E1000625D7F4FC7010E94910C19A28D2DDF9159
:100E2000CF911F910F91FF90EF90DF9008954F9217
:100E30005F926F927F92AF92BF92CF92DF92EF92CA
:100E4000FF921F93CF93DF931F921F92CDB7DEB710
:100E50007C0190936F0280936E0261E0FC01848DAF
:100E60000E94520260E0F701838D0E94520261E00D
:100E7000F701858D0E945202C7010E941006F701FA
:100E8000C18CD28CC114D10409F45BC0E12CF12CCB
:100E900083E0CC0CDD1CEE1CFF1C8A95D1F796EC90
:100EA000A92E91E0B92E11E0412C24E2522E24EF1C
:100EB000622E712C42E050E0B501CE0101960E94F5
:100EC000090C29813A8140E050E0C301B2010E943F
:100ED000440CCA01B901A70196010E94440CDA0131
:100EE000C9010297A109B1098D3F9F4FA105B10525
:100EF00060F01F5F62E0A60EB11C1730D9F62230F9
:100F0000310541055105B8F41CC01630D1F01092DE
:100F1000800088E08093810080918100182B1093DD
:100F20008100309389002093880080916F00826057
:100F300080936F0006C02115310581E048075105F7
:100F400030F381E00F900F90DF91CF911F91FF90D0
:100F5000EF90DF90CF90BF90AF907F906F905F90B9
:100F60004F9008958F929F92AF92BF92CF92DF924F
:100F7000EF92FF92CF93DF93FC012789308D232BD3
:100F800011F481E038C0EC010E940C036B017C017C
:100F900089E0882E912CA12CB12CE881F98104885C
:100FA000F589E02DCE011995882359F30E940C0391
:100FB000AB01BC014C195D096E097F098F89988DC1
:100FC000A0E0B0E084179507A607B70798F00E9445
:100FD000FC0BA50194010E94120C9B01AC012F5F38
:100FE0003F4F4F4F5F4FA4E6B0E00E94310C0E948C
:100FF000D202D3CF80E0DF91CF91FF90EF90DF90CE
:10100000CF90BF90AF909F908F9008951F920F92B6
:101010000FB60F9211242F933F938F939F93AF930B
:10102000BF9380917D0290917E02A0917F02B0914A
:10103000800230917C0223E0230F2D3720F40196AB
:10104000A11DB11D05C026E8230F0296A11DB11DEB
:1010500020937C0280937D0290937E02A0937F0276
:10106000B09380028091810290918202A0918302CC
:10107000B09184020196A11DB11D809381029093CD
:101080008202A0938302B0938402BF91AF919F919B
:101090008F913F912F910F900FBE0F901F90189539
:1010A0001F920F920FB60F9211240BB60F922F932F
:1010B0003F934F935F936F937F938F939F93AF93E0
:1010C000BF93EF93FF9385E892E00E948E03FF9118
:1010D000EF91BF91AF919F918F917F916F915F91B0
:1010E0004F913F912F910F900BBE0F900FBE0F901D
:1010F0001F9018951F920F920FB60F9211240BB6E6
:101100000F922F938F939F93EF93FF93E09195020C
:10111000F09196028081E0919B02F0919C0282FD09
:1011200012C0908180919E028F5F8F7320919F02E9
:10113000821751F0E0919E02F0E0EB57FD4F958F42
:1011400080939E0201C08081FF91EF919F918F91CA
:101150002F910F900BBE0F900FBE0F901F90189500
:101160001F920F920FB60F9211240BB60F92CF92CF
:10117000DF92EF92FF920F931F932F933F934F9322
:101180005F936F937F938F939F93AF93BF93CF930F
:10119000DF93EF93FF93C0916E02D0916F028A812B
:1011A0009B81049709F0CAC02B8D30E0F901E4550A
:1011B000FD4F8491F901EA59FD4F0491F901E05E78
:1011C000FD4F1491112379F081110E94CC01E12F80
:1011D000F0E0EE0FFF1FEE52FE4FA591B491EC919F
:1011E000E02381E009F480E081709E8D892719F069
:1011F0009BA19F5F9BA39AA1891771F09CA1903539
:1012000018F02DE130E002C02BE030E09CA1290F66
:10121000311D2CA38AA303C08CA18C5E8CA38CA14E
:10122000803A08F4DDC08EA19FA1969587959FA373
:101230008EA38BA1853028F08EA19FA198609FA3DB
:101240008EA38CA1805A8CA31BA28DA1882309F4A4
:1012500068C088A58F5F88A78C3008F4C1C08EA1B4
:101260009FA1982F9F73892F86958695887028E077
:10127000280F821749F0E82FF0E0E45FFD4F30813E
:10128000931719F08F5FF5CF80E020E1829FC001B6
:1012900011242EA13FA196E0369527959A95E1F766
:1012A000422F3695279536952795287038E0320FCE
:1012B000231749F0E22FF0E0E45FFD4F508145171E
:1012C00019F02F5FF5CF20E0822BAE0143595F4F1D
:1012D000FA019081DE01A459BF4F9923B1F0FA01C0
:1012E000908121E0290F20839E01290F311DF901F2
:1012F00081A7FA0190818C91981788F01DA281E056
:1013000088A3CE010E9410060AC08C939C9197304E
:1013100008F460C09C91943408F05CC0E0CF18A63B
:101320005FC08EA19FA188339B4009F059C081E026
:101330008DA318A6C359DF4F188252C08A819B81A2
:10134000039709F04DC08E0100591F4FF8018081AD
:1013500091E0980F9083811137C07E01FEE6EF0E79
:10136000F11CF7018081EF56FF4F9081891748F0FB
:10137000CE010E9410068C899D8901969D8B8C8BD5
:1013800023C0FE01E80FF11DEF58FF4F608170E0B0
:101390006E01FFE6CF0ED11CF601808191E0980F1F
:1013A000908302C0759567958A95E2F761707727FB
:1013B0008C8D0E942202F6018081863028F01082F6
:1013C000F70180818F5F8083F8018081883040F051
:1013D000108206C01DA2888999890196998B888BF5
:1013E000FF91EF91DF91CF91BF91AF919F918F913D
:1013F0007F916F915F914F913F912F911F910F912D
:10140000FF90EF90DF90CF900F900BBE0F900FBE2C
:101410000F901F901895CF93DF93CDB7DEB7289725
:101420000FB6F894DEBF0FBECDBFE5E8F2E0138241
:10143000128288EE93E0A0E0B0E084839583A683D7
:10144000B78380E292E09183808385EC90E095877A
:10145000848784EC90E09787868780EC90E0918B7E
:10146000808B81EC90E0938B828B82EC90E0958B6B
:10147000848B86EC90E0978B868B118E128E138E68
:10148000148EE2E2F3E0138212828FEF848382876C
:10149000838714861586118A108A138A128A158A00
:1014A000148A108E178A82E392E09183808380ED04
:1014B00097E0928F818F8BE0838F8CE0848F8AE01E
:1014C000858F168E178E88E0E4E0F2E0DE0111963B
:1014D00001900D928A95E1F788E0FE013196A3E92B
:1014E000B3E001900D928A95E1F728960FB6F89433
:1014F000DEBF0FBECDBFDF91CF910895CF93DF93B5
:10150000CDB7DEB7A1970FB6F894DEBF0FBECDBF43
:10151000789484B5826084BD84B5816084BD85B5CE
:10152000826085BD85B5816085BD80916E008160DA
:1015300080936E0010928100809181008260809380
:101540008100809181008160809381008091800082
:101550008160809380008091B10084608093B100AD
:101560008091B00081608093B00080919100826092
:10157000809391008091910081608093910080918F
:1015800090008160809390008091A10082608093A0
:10159000A1008091A10081608093A1008091A000B2
:1015A00081608093A000809121018260809321015D
:1015B00080912101816080932101809120018160CF
:1015C0008093200180917A00846080937A008091DA
:1015D0007A00826080937A0080917A0081608093A3
:1015E0007A0080917A00806880937A001092C1001E
:1015F000E0919502F091960282E08083E091910261
:10160000F09192021082E0919302F09194028FEC9B
:10161000808310929D02E0919902F0919A0286E0F7
:101620008083E0919702F0919802808180618083AD
:10163000E0919702F0919802808188608083E09128
:101640009702F0919802808180688083E0919702F0
:10165000F091980280818F7D808382E293E00E94E6
:101660001707811108C08EE592E00E94CD068AE638
:1016700092E00E94CD06CC24CA9483E0D82EE12CBF
:10168000F12C9AE0892E912CA12CB12C88E30E9498
:101690008E028C018DE30E948E029C01A5EBBFEFB0
:1016A0000E947D0CA70196010E94120C29013A01AB
:1016B00082E8480E511C611C711C409274025092C9
:1016C000750260927602709277029801A1EFBFEFE7
:1016D0000E947D0CA70196010E94120C2A5B3F4FCD
:1016E0004F4F5F4FA8EEB3E00E94310C6093780239
:1016F0007093790280937A0290937B029B01AC01F4
:10170000240D351D461D571D209370023093710224
:10171000409372025093730219A28E010F5D1F4F06
:10172000CA01B901A50194010E94440C605DF80151
:1017300062938F01211531054105510589F7CF01CC
:101740000E94CD068AE692E00E94CD0664E670E033
:1017500080E090E00E94D2020E94180497CF8F92FE
:101760009F92AF92BF92CF92DF92EF92FF92CF9370
:10177000DF93EC01688179818A819B816115710514
:101780008105910521F464E279ED8BE597E02DE187
:1017900033EF41E050E00E94120C49015A019B01D5
:1017A000AC01A7EAB1E40E94310C6B017C01ACEE04
:1017B000B4EFA50194010E943F0CDC01CB018C0D1C
:1017C0009D1DAE1DBF1DB7FF03C00197A109B04805
:1017D00088839983AA83BB83BC01CD019F77DF9166
:1017E000CF91FF90EF90DF90CF90BF90AF909F9000
:1017F0008F9008950C94AF0B80E092E00C94AF0BA7
:10180000609300027093010280930202909303029E
:101810000895FB01DC0102C005900D92415050403B
:10182000D8F70895052E97FB1EF400940E94290C0A
:1018300057FD07D00E94440C07FC03D04EF40C94D3
:10184000290C50954095309521953F4F4F4F5F4F54
:10185000089590958095709561957F4F8F4F9F4F1C
:1018600008950E94660CA59F900DB49F900DA49FB3
:10187000800D911D11240895B7FF0C94310C0E9426
:10188000310C821B930B0895A1E21A2EAA1BBB1BDD
:10189000FD010DC0AA1FBB1FEE1FFF1FA217B3073C
:1018A000E407F50720F0A21BB30BE40BF50B661F52
:1018B000771F881F991F1A9469F760957095809516
:1018C00090959B01AC01BD01CF010895A29FB0018D
:1018D000B39FC001A39F700D811D1124911DB29F64
:1018E000700D811D1124911D0895EE0FFF1F881F9B
:1018F0008BBF0790F691E02D19940E94660C33235C
:1019000012F48A1B9B0B0C94870C0E94660CB7FF89
:101910000895821B930B089581E090E0F8940C9455
:101920009A0CFB01DC0102C001900D924150504025
:08193000D8F70895F894FFCFE9
:10193800010000002A2A2A2A2A2A382C0D0E1315FB
:1019480016191A1C232526292A2C323400000000D7
:10195800AF0318034703F603780356036A0300002E
:1019680000001707AE05E10653045104BE068106C0
:1019780050068906B2074E064806450642063F0647
:1019880038064B06350632062F062C062A06696EDF
:0E1998006974206661696C6564000D0A0000C8
:00000001FF
