:100000000C943D010C946E010C946E010C946E01E5
:100010000C946E010C946E010C946E010C946E01A4
:100020000C946E010C946E010C946E010C946E0194
:100030000C946E010C946E010C946E010C946E0184
:100040000C946E010C946E010C946E010C946E0174
:100050000C946E010C946E010C946E010C948C093E
:100060000C946E010C94400B0C94160B0C946E01C6
:100070000C946E010C946E010C946E010C946E0144
:100080000C946E010C946E010C946E010C946E0134
:100090000C94EC0A0C94C20A0C946E010C946E0140
:1000A0000C946E010C946E010C946E010C946E0114
:1000B0000C946E010C946E010C946E010C946E0104
:1000C0000C946E010C946E010C946E010C94980AC1
:1000D0000C946E0A0C946E010C946E010C946E01DB
:1000E0000C946E014B054E053D0541054505850502
:1000F000520556055C05600564056A056E057205C6
:10010000850578057C0580050C94D0070C946A0B56
:100110000C945C050C94DF070C946E050C94780528
:100120000C9456050C9460050C944C080C946E0BC2
:100130000C944E050C94F3070C9472050C949308E0
:100140000C9480050C944B050C946A050C943D05A9
:100150000C947C050C9445050C9441050C9488077F
:100160000C9464050C9401080C9452050C948505BC
:1001700000002200250028002B002E003100340052
:1001800002010000050108010B0105050505070531
:1001900008080808020202020A0A08080404040403
:1001A000010101010101010103030303030303032F
:1001B000040707070C0C0C0C0C0C0C0C02020202BE
:1001C00006060606060606060B0B0B0B0B0B0B0BA7
:1001D0000102102020080810204010204080020159
:1001E000020108040201010204081020408080403E
:1001F000201008040201800402018040201008043D
:1002000002010804020101020408102040800102DA
:1002100004081020408000000A0B02090C0D0E0893
:1002200007030401000000000000000000000000BF
:1002300000000000000000000000000000000000BE
:10024000000012111000000000000000000000007B
:10025000000000000000000000000000000021007D
:10026000240027002A002D00300033000101000087
:10027000040107010A016E0B6A0B11241FBECFEFA8
:10028000D1E2DEBFCDBF00E00CBF26E0A6EAB4E0BD
:1002900001C01D92AC3BB207E1F714E0A0E0B2E070
:1002A000E4EBF1E200E00BBF02C007900D92A63A2A
:1002B000B107D9F711E0CCE3D1E000E006C0219707
:1002C0000109802FFE010E94810ECB33D10780E00F
:1002D0000807A9F70E94EE0B0C94C8100C940000BC
:1002E000DC01ED91FC910190F081E02D1994EF92E9
:1002F000FF920F931F93CF93DF9386E30E944407EF
:100300009093A7048093A60487E30E9444079093E8
:10031000A9048093A80488E30E9444079093AB0447
:100320008093AA0489E30E9444079093AD048093CC
:10033000AC048BE30E9444079093AF048093AE0417
:100340008AE30E9444079093B1048093B0048CE345
:100350000E9444079093B3048093B2048DE30E94FB
:1003600044079093B5048093B40406EA14E0C1EC0A
:10037000D4E080E3F82E91E3E92EF8018191919188
:100380008F018A3F910514F0E88201C0F8826991DB
:10039000062E000C770B84E096E00E94700167E067
:1003A00070E080E090E00E945209F4E0C93CDF0771
:1003B00021F787EB93E0DF91CF911F910F91FF9091
:1003C000EF900C940F051F93CF93DF930E9477015A
:1003D00068E172E081EC94E00E94B810892B81F012
:1003E00061E272E081EC94E00E94B810892B41F048
:1003F0006AE272E081EC94E00E94B810892B89F4E3
:1004000081E08093A5068091A1060E941D0561E20E
:1004100070E087E695E00E94700183E392E00E941D
:100420000F056CE372E081EC94E00E94B810892B18
:10043000C9F065E472E081EC94E00E94B810892B69
:1004400089F06EE472E081EC94E00E94B810892B90
:1004500049F067E572E081EC94E00E94B810892BC6
:1004600009F07AC00E94950564EF71E080E090E0A9
:100470000E9452098FB7F8944091B8045091B90482
:100480006091BA047091BB048FBFC4E068E172E070
:1004900081EC94E00E94B810892B09F455C061E208
:1004A00072E081EC94E00E94B810892B09F44CC0F2
:1004B0006AE272E081EC94E00E94B810892B09F4A2
:1004C00043C060E772E081EC94E00E94B810892B91
:1004D000D9F169E772E081EC94E00E94B810892BB1
:1004E00099F162E872E081EC94E00E94B810892BE7
:1004F00059F16BE872E081EC94E00E94B810892B0E
:1005000019F164E972E081EC94E00E94B810892B43
:10051000D9F06DE972E081EC94E00E94B810892B6B
:1005200099F00E947701C093A5068091A1060E94D0
:100530001D0563E670E087E695E00E94700180E6A5
:1005400092E00E940F05A2CF0E9495056EEE72E028
:1005500080E090E00E94520966EA72E081EC94E04B
:100560000E94B810892BC9F06FEA72E081EC94E028
:100570000E94B810892B89F068EB72E081EC94E05E
:100580000E94B810892B49F061EC72E081EC94E094
:100590000E94B810892B09F070C00E94950564EF85
:1005A00071E080E090E00E94520913E068E172E09F
:1005B00081EC94E00E94B810892B09F456C061E2E6
:1005C00072E081EC94E00E94B810892B09F44DC0D0
:1005D0006AE272E081EC94E00E94B810892B09F481
:1005E00044C06BE872E081EC94E00E94B810892B63
:1005F000E1F164E972E081EC94E00E94B810892B8B
:10060000A1F16DE972E081EC94E00E94B810892BB1
:1006100061F160E772E081EC94E00E94B810892BF0
:1006200021F169E772E081EC94E00E94B810EC01DE
:1006300062E872E081EC94E00E94B8108C239D2364
:10064000892B99F00E9477011093A5068091A1064D
:100650000E941D0560E770E087E695E00E9470014A
:100660008AEC92E00E940F05A1CF0E9495056EEEE4
:1006700072E080E090E00E9452096BED72E081EC44
:1006800094E00E94B810892B01F50E949505C2E004
:100690006BED72E081EC94E00E94B810892B79F444
:1006A0000E947701C093A5068091A1060E941D05B6
:1006B00061E370E087E695E00E947001E9CF0E9457
:1006C000950584EE92E00E940F0569EE72E081ECE0
:1006D00094E00E94B810892B39F40E94770182EFD0
:1006E00092E00E94FD04F9CFDF91CF911F91089510
:1006F000FF920F931F93CF93DF938C010E9477019A
:10070000C0E0D0E0FF24F394C017D1070CF046C03E
:100710000E9477016BE173E081EC94E00E94B810D5
:10072000892B09F162E872E081EC94E00E94B81034
:10073000892BC9F069E772E081EC94E00E94B8105F
:10074000892B89F064E273E081EC94E00E94B81098
:10075000892B49F00E9477010E94E30184E093E035
:100760000E940F05D7CF2196C017D10769F2F092EA
:10077000A5068091A1060E941D0560E470E087E651
:1007800095E00E94700168EC70E080E090E00E94CB
:1007900052098DE293E00E940F05B6CF0E949505A5
:1007A00082E08093A5068091A1060E941D0562E368
:1007B00070E087E695E00E94700162E370E080E0FF
:1007C00090E00E9452090E9495056EEE72E080E072
:1007D00090E00E94520962E872E081EC94E00E948D
:1007E000B810892B49F069E772E081EC94E00E942F
:1007F000B810892B09F092C00E94950564EF71E052
:1008000080E090E00E94520981E08093A5068091EB
:10081000A1060E941D0568E470E087E695E00E944D
:10082000700160E971E080E090E00E9452090E944E
:10083000950564EF71E080E090E00E94520962E368
:1008400070E080E090E00E9452090E94950564EFFC
:1008500071E080E090E00E945209C3E069E473E037
:1008600081EC94E00E94B810892B19F162E573E0E5
:1008700081EC94E00E94B810892BD9F060E772E017
:1008800081EC94E00E94B810892B99F00E947701C6
:10089000C093A5068091A1060E941D0561E770E046
:1008A00087E695E00E9470018BE393E00E940F05BC
:1008B000D5CFC3E068E172E081EC94E00E94B8100B
:1008C000892BF9F061E272E081EC94E00E94B810AB
:1008D000892BB9F06AE272E081EC94E00E94B810D2
:1008E000892B79F00E947701C093A5068091A1061B
:1008F0000E941D0561E770E087E695E00E947001A7
:10090000D9CF0E94950564EF71E080E090E0DF911F
:10091000CF911F910F91FF900C945209DF91CF91CD
:100920001F910F91FF9008950E949F10CF92DF9228
:10093000EF92FF920F931F93CF93DF93EC016A0125
:100940007B01E889F98982E080834115514E610578
:100950007105B1F060E079E08DE390E0A7019601C8
:100960000E945F0E89019A01015011092109310984
:100970003695279517950795980101151041A8F010
:10098000E889F989108260E874E88EE190E0A701B7
:1009900096010E945F0EDA01C9010197A109B10910
:1009A000B695A795979587959C01EC85FD85308335
:1009B000EE85FF852083188EEC89FD8986E0808393
:1009C000EA89FB89808180618083EA89FB89808153
:1009D00088608083EA89FB89808180688083EA89D6
:1009E000FB8980818F7D8083DF91CF911F910F9153
:1009F000FF90EF90DF90CF900895009769F0FC0191
:100A000001900020E9F73197AF01481B590BBC0159
:100A100084E096E00C94880780E090E00895CF93FE
:100A2000DF930E94FD04EC0187E894E00E94FD043E
:100A30008C0F9D1FDF91CF91089590E0FC01EA5E3D
:100A4000FD4F4491FC01E053FE4F2491FC01E65719
:100A5000FE4F9491992309F467C0442309F455C0CB
:100A600050E0FA013197E231F10508F04EC08827D5
:100A7000EE58FF4F8F4F0C94810E809180008F773E
:100A800007C0809180008F7D03C080918000877FA8
:100A9000809380003AC084B58F7702C084B58F7D83
:100AA00084BD33C08091B0008F7703C08091B000C7
:100AB0008F7D8093B00029C0809190008F7707C010
:100AC000809190008F7D03C080919000877F8093FC
:100AD00090001BC08091A0008F7707C08091A0007C
:100AE0008F7D03C08091A000877F8093A0000DC000
:100AF000809120018F7707C0809120018F7D03C0F6
:100B000080912001877F80932001E92FF0E0EE0F94
:100B1000FF1FE059FE4FA591B4918FB7F894EC9167
:100B200020952E232C938FBF08958091A1060E94BB
:100B30001D0560E370E087E695E00C947001CF93AB
:100B40000E9477010E9477016BE573E081EC94E0ED
:100B50000E94B810892B09F16DE972E081EC94E0F4
:100B60000E94B810892BC9F064E972E081EC94E02E
:100B70000E94B810892B89F064E673E081EC94E060
:100B80000E94B810892B49F00E9477010E94E3016E
:100B90008DE693E00E940F05D7CF0E94950582E075
:100BA0008093A5068091A1060E941D0562E370E076
:100BB00087E695E00E94700162E370E080E090E0DB
:100BC0000E9452090E9495056EEE72E080E090E06E
:100BD0000E9452096DE972E081EC94E00E94B81025
:100BE000892B49F064E972E081EC94E00E94B8102E
:100BF000892B09F08EC00E94950564EF71E080E0BA
:100C000090E00E94520981E08093A5068091A106A0
:100C10000E941D0568E470E087E695E00E9470017F
:100C200060E971E080E090E00E9452090E94950521
:100C300064EF71E080E090E00E94520962E370E0AE
:100C400080E090E00E9452090E94950564EF71E0F7
:100C500080E090E00E945209C4E060E973E081EC1A
:100C600094E00E94B810892B19F169E973E081ECD6
:100C700094E00E94B810892BD9F06BE872E081EC07
:100C800094E00E94B810892B99F00E947701C093DC
:100C9000A5068091A1060E941D0564E670E087E626
:100CA00095E00E94700183E893E00E940F05D5CF84
:100CB000C4E068E172E081EC94E00E94B810892BF6
:100CC000F9F061E272E081EC94E00E94B810892BA7
:100CD000B9F06AE272E081EC94E00E94B810892BCE
:100CE00079F00E947701C093A5068091A1060E9429
:100CF0001D0564E670E087E695E00E947001D9CF9B
:100D00000E94950564EF71E080E090E0CF910C9433
:100D10005209CF9108958F929F92AF92BF92EF9216
:100D2000FF920F931F93CF93DF931F921F92CDB724
:100D3000DEB77C018B014A0169E874E00E94590A20
:100D4000F80144815581608171818AEC94E00E94B0
:100D500088072FB7F8948091B8049091B904A091B6
:100D6000BA04B091BB042FBF092C000CAA08BB0821
:100D7000880E991EAA1EBB1E2FB7F8948091B80446
:100D80009091B904A091BA04B091BB042FBF88150B
:100D90009905AA05BB05A8F48AEC94E00E94010815
:100DA000892B51F38AEC94E00E94DF0789831A8231
:100DB00041E050E0BE016F5F7F4FC7010E94E7092D
:100DC000EBCFF70184819581892B69F0A080B180F8
:100DD0006AE270E0C5010E94AD10009721F08C011D
:100DE0000A191B0902C00FEF1FEF1093B006009302
:100DF000AF06B8016F5F7F4FC7010E94D60980938D
:100E0000BC04B8016E5F7F4FC7010E94D609809372
:100E1000BD04B8016D5F7F4FC7010E94D609809362
:100E2000BE04B8016C5F7F4FC7010E94D609809352
:100E3000BF0482EA93E00E94FD04E0910406F09171
:100E400005060190F081E02D6091BC0484E096E0FD
:100E5000199587E894E00E94FD04F70144815581CB
:100E60006081718184E096E00E948807C7010F903D
:100E70000F90DF91CF911F910F91FF90EF90BF9056
:100E8000AF909F908F900895863308F0865390918D
:100E90007B00282F2870977F922B90937B00877080
:100EA000806480937C0080917A00806480937A00D3
:100EB00080917A0086FDFCCF8091780020917900A6
:100EC00090E0922B08953FB7F8948091B4069091EA
:100ED000B506A091B606B091B70626B5A89B05C089
:100EE0002F3F19F00196A11DB11D3FBFBA2FA92FA9
:100EF000982F8827820F911DA11DB11DBC01CD0126
:100F000042E0660F771F881F991F4A95D1F7089511
:100F1000CF92DF92EF92FF920F931F93CF93DF93C5
:100F20006C017A018B01C0E0D0E0CE15DF0589F0BD
:100F3000D8016D918D01D601ED91FC910190F08168
:100F4000E02DC6011995892B11F47E0102C021966E
:100F5000ECCFC701DF91CF911F910F91FF90EF90E0
:100F6000DF90CF900895FC01A089B1898C91A6896A
:100F7000B78982FD0FC09C91818D8F5F8F73228D09
:100F8000821749F0218DDF01A20FB11D5D969C9360
:100F9000818F08958C910895089580E090E00895E0
:100FA000FC01538D448D252F30E0842F90E0821B6F
:100FB000930B541710F0CF96089501970895FC01F4
:100FC000918D828D981761F0828DDF01A80FB11D80
:100FD0005D968C91928D9F5F9F73928F90E00895A4
:100FE0008FEF9FEF0895FC01918D828D981731F05E
:100FF000828DE80FF11D858D90E008958FEF9FEFB2
:101000000895FC01918D228D892F90E0805C9F4F87
:10101000821B91098F73992708958AEC94E00E94AE
:10102000010821E0892B09F420E0822F089587E64A
:1010300095E00E94010821E0892B09F420E0822F2D
:10104000089584E096E00E94010821E0892B09F4CC
:1010500020E0822F0895FC01848DDF01A80FB11DCF
:10106000A35ABF4F2C91848D90E001968F739927DE
:10107000848FA689B7892C93A089B1898C918064CB
:101080008C93938D848D981306C00288F389E02D8C
:1010900080818F7D80830895EF92FF920F931F933D
:1010A000CF93DF93EC0181E0888F9B8D8C8D98131B
:1010B00005C0E889F989808185FD24C0F62E0B8D55
:1010C00010E00F5F1F4F0F731127E02E8C8DE81279
:1010D0000CC00FB607FCFACFE889F989808185FF3B
:1010E000F5CFCE010E942B08F1CF8B8DFE01E80FCA
:1010F000F11DE35AFF4FF0820B8FEA89FB89808153
:10110000806207C0EE89FF896083E889F989808160
:101110008064808381E090E0DF91CF911F910F91F7
:10112000FF90EF900895CF93DF93EC01888D882393
:10113000C9F0EA89FB89808185FD05C0A889B98944
:101140008C9186FD0FC00FB607FCF5CF808185FF1F
:10115000F2CFA889B9898C9185FFEDCFCE010E948D
:101160002B08E7CFDF91CF91089580E090E0892BA5
:1011700021F00E94210881111DC080E090E0892BA0
:1011800021F00E941708811118C080E090E0892B9F
:1011900021F00E940D08811113C080E090E0892B9E
:1011A000A1F080E090E0892B81F00E940000811185
:1011B0000AC008950E940000E0CF0E940000E5CF21
:1011C0000E940000EACF0C94000008950F931F9333
:1011D000CF93DF93EC0188819981009729F02A81D0
:1011E0003B812617370788F48B016F5F7F4F0E9482
:1011F000B60F009761F0998388831B830A832C8143
:101200003D81232B11F4FC01108281E001C080E0BC
:10121000DF91CF911F910F910895EF92FF920F935D
:101220001F93CF93DF93EC017B018A01BA010E94E7
:10123000E6082881398181110DC02115310519F089
:10124000C9010E941E0F198218821D821C821B82F6
:101250001A8206C01D830C83B701C9010E94C11008
:10126000CE01DF91CF911F910F91FF90EF900895E4
:10127000FB01DC0111961C921E9213961C921E9289
:10128000129715961C921E9214978617970749F08D
:10129000608171816115710521F0448155810C9443
:1012A0000D0908958F929F92AF92BF92CF92DF92D5
:1012B000EF92FF926B017C010E9463074B015C017E
:1012C000C114D104E104F104F1F00E946307DC01D0
:1012D000CB0188199909AA09BB09883E9340A10549
:1012E000B10570F321E0C21AD108E108F10888EED7
:1012F000880E83E0981EA11CB11CC114D104E10426
:10130000F10419F7DDCFFF90EF90DF90CF90BF9001
:10131000AF909F908F9008951F920F920FB60F92EB
:1013200011242F933F938F939F93AF93BF938091FB
:10133000B8049091B904A091BA04B091BB04309163
:10134000B30623E0230F2D3720F40196A11DB11D14
:1013500005C026E8230F0296A11DB11D2093B306F8
:101360008093B8049093B904A093BA04B093BB04DB
:101370008091B4069091B506A091B606B091B706DB
:101380000196A11DB11D8093B4069093B506A0935C
:10139000B606B093B706BF91AF919F918F913F91E1
:1013A0002F910F900FBE0F901F901895FC01248174
:1013B00035816217730748F480819181009729F085
:1013C000FC01E60FF71F8081089580E00895EF92F9
:1013D000FF920F931F93CF93DF93FC0124813581FC
:1013E0006115710511F480E019C041155105A9F08E
:1013F0007B01EC018A01020F131FB8010E94E6086D
:10140000882389F3288139818C819D81B701820FDE
:10141000931F0E94C1101D830C8381E0DF91CF9147
:101420001F910F91FF90EF900895EF92FF920F930D
:101430001F93CF93DF93CDB7DEB727970FB6F894FE
:10144000DEBF0FBECDBF7C01CB014AE08E010F5F36
:101450001F4FB8010E94350EF80101900020E9F7F6
:101460003197AF01401B510BB801C7010E94E7093A
:1014700027960FB6F894DEBF0FBECDBFDF91CF9198
:101480001F910F91FF90EF9008956115710551F034
:10149000FB0101900020E9F73197AF01461B570B84
:1014A0000C94E70980E00895FC01808191810C94FF
:1014B0001E0FFC0111821082138212821582148287
:1014C0006115710551F0FB0101900020E9F731979A
:1014D000AF01461B570B0C940D0908951F920F92F4
:1014E0000FB60F9211240BB60F922F933F934F9389
:1014F0005F936F937F938F939F93AF93BF93EF937C
:10150000FF938AEC94E00E942B08FF91EF91BF912A
:10151000AF919F918F917F916F915F914F913F918B
:101520002F910F900BBE0F900FBE0F901F9018952C
:101530001F920F920FB60F9211240BB60F922F939A
:101540003F934F935F936F937F938F939F93AF934B
:10155000BF93EF93FF938AEC94E00E94B307FF914F
:10156000EF91BF91AF919F918F917F916F915F911B
:101570004F913F912F910F900BBE0F900FBE0F9088
:101580001F9018951F920F920FB60F9211240BB651
:101590000F922F933F934F935F936F937F938F930C
:1015A0009F93AF93BF93EF93FF9387E695E00E94DD
:1015B0002B08FF91EF91BF91AF919F918F917F91F8
:1015C0006F915F914F913F912F910F900BBE0F90B4
:1015D0000FBE0F901F9018951F920F920FB60F928B
:1015E00011240BB60F922F933F934F935F936F93FA
:1015F0007F938F939F93AF93BF93EF93FF9387E670
:1016000095E00E94B307FF91EF91BF91AF919F9139
:101610008F917F916F915F914F913F912F910F909B
:101620000BBE0F900FBE0F901F9018951F920F9238
:101630000FB60F9211240BB60F922F933F934F9337
:101640005F936F937F938F939F93AF93BF93EF932A
:10165000FF9384E096E00E942B08FF91EF91BF91E9
:10166000AF919F918F917F916F915F914F913F913A
:101670002F910F900BBE0F900FBE0F901F901895DB
:101680001F920F920FB60F9211240BB60F922F9349
:101690003F934F935F936F937F938F939F93AF93FA
:1016A000BF93EF93FF9384E096E00E94B307FF910E
:1016B000EF91BF91AF919F918F917F916F915F91CA
:1016C0004F913F912F910F900BBE0F900FBE0F9037
:1016D0001F90189589EA96E00C94540AEAECF4E01D
:1016E0001382128248EE53E060E070E04483558339
:1016F000668377838AE092E09183808325ED30E0F2
:101700003587248724ED30E03787268720ED30E0C9
:10171000318B208B21ED30E0338B228B22ED30E0BA
:10172000358B248B26ED30E0378B268B118E128E75
:10173000138E148EE7E6F5E01382128244835583FC
:1017400066837783918380832DEC30E0358724870F
:101750002CEC30E03787268728EC30E0318B208B6B
:1017600029EC30E0338B228B2AEC30E0358B248B54
:101770002EEC30E0378B268B118E128E138E148E4A
:10178000E4E0F6E013821282448355836683778314
:101790009183808385EC90E09587848784EC90E04A
:1017A0009787868780EC90E0918B808B81EC90E02E
:1017B000938B828B82EC90E0958B848B86EC90E00F
:1017C000978B868B118E128E138E148E1092A60616
:1017D00069E874E089EA96E00C94590ACF93DF93A4
:1017E000CDB7DEB7A4970FB6F894DEBF0FBECDBF5E
:1017F000789484B5826084BD84B5816084BD85B5EC
:10180000826085BD85B5816085BD80916E008160F7
:1018100080936E001092810080918100826080939D
:10182000810080918100816080938100809180009F
:101830008160809380008091B10084608093B100CA
:101840008091B00081608093B000809191008260AF
:1018500080939100809191008160809391008091AC
:1018600090008160809390008091A10082608093BD
:10187000A1008091A10081608093A1008091A000CF
:1018800081608093A000809121018260809321017A
:1018900080912101816080932101809120018160EC
:1018A0008093200180917A00846080937A008091F7
:1018B0007A00826080937A0080917A0081608093C0
:1018C0007A0080917A00806880937A001092C1003B
:1018D0001092A50684E390E09093A2068093A1065F
:1018E000E4E0F2E02491EEEBF1E08491882399F0BA
:1018F00090E0880F991FFC01E45AFD4FA591B49127
:10190000FC01E059FE4F859194918FB7F894EC91CA
:10191000E22BEC938FBF40E052EC61E070E084E09A
:1019200096E00E94960440E855E260E070E087E6A9
:1019300095E00E9496046BEB73E0CE0107960E943F
:10194000590A48E853E1BE01695F7F4FCE01019615
:101950000E948B06CE0101960E94540ACE01079682
:101960000E94540A01E010E08091B1069091B20605
:10197000892B09F0E5C084EC93E00E940F0540E854
:1019800055E260E070E08AEC94E00E9496048AECF4
:1019900094E00E940108892B39F766EE73E0CE01CE
:1019A0004F960E94590A6BE074E0CE0149960E945E
:1019B000590A60E174E0CE0143960E94590A6D8D88
:1019C0007E8DCE0143960E94150A65E874E0CE0133
:1019D00043960E94450A4D8D5E8D698D7A8DCE01AC
:1019E00043960E94E70965E874E0CE0143960E94A1
:1019F000450A6AE874E0CE010D960E94590A6F8983
:101A0000788DCE010D960E94150A67E874E0CE012C
:101A10000D960E94450ABE01615E7F4FCE01019680
:101A20000E94380944E650E0BE016F5F7F4FCE014F
:101A300007960E948B06CE0107960E94540ACE019B
:101A400001960E94540ABE01635F7F4FCE0101964A
:101A50000E94380944E650E0BE016F5F7F4FCE011F
:101A600007960E948B06CE0107960E94540ACE016B
:101A700001960E94540ABE016D5E7F4FCE01019611
:101A80000E94380948EE53E0BE016F5F7F4FCE01E0
:101A900007960E948B06CE0107960E94540ACE013B
:101AA00001960E94540A8AEC94E00E949308E09107
:101AB000DC04F091DD0480818F7E8083E091DC0482
:101AC000F091DD048081877F8083E091DC04F091D8
:101AD000DD0480818F778083E091DC04F091DD0468
:101AE00080818F7D80838091E4048093E3048091E2
:101AF000BC048053823098F48091BD0480538230BE
:101B000070F48091BE048053823048F48091BF0409
:101B10008053823020F41093B2060093B106CE01B8
:101B20000D960E94540ACE0143960E94540ACE019B
:101B300049960E94540ACE014F960E94540A14CF2F
:101B40006091BC04062E000C770B84E096E00E94A6
:101B5000700167E070E080E090E00E9452096091BF
:101B6000BD04062E000C770B84E096E00E94700105
:101B700067E070E080E090E00E9452096091BE044E
:101B8000062E000C770B84E096E00E94700167E05F
:101B900070E080E090E00E9452096091BF04062E40
:101BA000000C770B84E096E00E94700167E070E023
:101BB00080E090E00E94520986E994E00E940F05BF
:101BC00069EE72E081EC94E00E94B810892B19F064
:101BD0000E947701F5CF81E08093A5068091A10650
:101BE0000E941D0568E470E087E695E00E947001A0
:101BF0006CE271E080E090E00E9452090E9495053D
:101C000068EE73E080E090E00E9452098091BC048D
:101C1000813329F481E090E00E94780302C00E94A1
:101C20009F058091BD04813329F481E090E00E94FA
:101C3000780302C00E949F058091BE04813329F47D
:101C400081E090E00E94780302C00E949F0580918D
:101C5000BF04813329F482E090E00E94780302C03F
:101C60000E949F050E94B508FDCFBB27FB015527A9
:101C7000AA27880F991FAA1FA41710F0A41B8395E9
:101C80005051B9F7A05DAA3308F0A95DA193009760
:101C900079F7B111B1931192CB010C944F0EDC0185
:101CA000FC01672F71917723E1F7329704C07C9193
:101CB0006D9370836291AE17BF07C8F30895A1E2D8
:101CC0001A2EAA1BBB1BFD010DC0AA1FBB1FEE1FB6
:101CD000FF1FA217B307E407F50720F0A21BB30B01
:101CE000E40BF50B661F771F881F991F1A9469F77D
:101CF00060957095809590959B01AC01BD01CF01D9
:101D00000895EE0FFF1F881F8BBF0790F691E02DFF
:101D10001994CF93DF938230910510F482E090E024
:101D2000E091BA06F091BB0620E030E0C0E0D0E0E0
:101D3000309711F14081518148175907C0F0481779
:101D4000590761F482819381209719F09B838A83DC
:101D50002BC09093BB068093BA0626C0211531058F
:101D600019F04217530718F49A01BE01DF01EF0181
:101D70000280F381E02DDCCF2115310509F1281B0C
:101D8000390B2430310590F412968D919C91139764
:101D90006115710521F0FB019383828304C0909348
:101DA000BB068093BA06FD01329644C0FD01E20FE6
:101DB000F31F81939193225031092D933C933AC0A4
:101DC0002091B8063091B906232B41F420910202EC
:101DD000309103023093B9062093B8062091000297
:101DE000309101022115310541F42DB73EB74091E4
:101DF000040250910502241B350BE091B806F091C6
:101E0000B906E217F307A0F42E1B3F0B281739077A
:101E100078F0AC014E5F5F4F2417350748F04E0F46
:101E20005F1F5093B9064093B8068193919302C007
:101E3000E0E0F0E0CF01DF91CF9108950F931F9381
:101E4000CF93DF93009709F48CC0FC013297138283
:101E500012820091BA061091BB060115110581F49A
:101E600020813181820F931F2091B8063091B906ED
:101E70002817390779F5F093B906E093B80671C0D1
:101E8000D80140E050E0AE17BF0750F412962D91F4
:101E90003C911397AD012115310509F1D901F3CF1B
:101EA0009D01DA013383228360817181860F971F40
:101EB0008217930769F4EC0128813981260F371FB7
:101EC0002E5F3F4F318320838A819B81938382835E
:101ED000452B29F4F093BB06E093BA0642C0139653
:101EE000FC93EE931297ED01499159919E01240FB5
:101EF000351FE217F30771F480819181840F951FDC
:101F0000029611969C938E938281938113969C9353
:101F10008E931297E0E0F0E0D80112968D919C919B
:101F20001397009719F0F8018C01F6CF8D919C91D1
:101F300098012E5F3F4F820F931F2091B80630917A
:101F4000B9062817390769F4309729F41092BB06AF
:101F50001092BA0602C0138212821093B90600933F
:101F6000B806DF91CF911F910F9108956F927F92E4
:101F70008F929F92AF92BF92CF92DF92EF92FF9299
:101F80000F931F93CF93DF93EC01009789F4CB015C
:101F9000DF91CF911F910F91FF90EF90DF90CF9045
:101FA000BF90AF909F908F907F906F900C94890E10
:101FB000FC01E60FF71F9C0122503109E217F307DD
:101FC00008F4ACC0D9010D911C91119706171707A1
:101FD000B0F00530110508F49FC0C80104978617BA
:101FE000970708F499C002501109061B170B0193BB
:101FF00011936D937C93CF010E941E0F8DC05B01E6
:10200000A01AB10A4C01800E911EA091BA06B0919F
:10201000BB0640E050E0E12CF12C109709F44AC0D7
:10202000A815B905D1F56D907C901197630182E0F8
:10203000C80ED11CCA14DB0480F1A3014A195B0944
:102040006A0182E0C80ED11C1296BC9012971396BA
:10205000AC91B5E0CB16D10440F0B282A38351839A
:102060004083D9016D937C930AC00E5F1F4FC3015B
:10207000800F911FF90191838083EB2DFA2FE114DA
:10208000F10431F0D7011396FC93EE93129744C0FC
:10209000F093BB06E093BA063FC08D919C911197D7
:1020A0004817590708F4AC017D0112960D90BC91B8
:1020B000A02DB3CF8091B8069091B90688159905E7
:1020C000E1F446175707C8F480910002909101028D
:1020D000009741F48DB79EB74091040250910502DC
:1020E000841B950BE817F907C8F4F093B906E09341
:1020F000B806F901718360830FC0CB010E94890E7D
:102100007C01009759F0A801BE010E94A410CE01E5
:102110000E941E0FC70104C0CE0102C080E090E003
:10212000DF91CF911F910F91FF90EF90DF90CF90B3
:10213000BF90AF909F908F907F906F90089581E0B7
:1021400090E0F8940C94C810FB01DC0102C00190EF
:102150000D9241505040D8F70895FC0181918617A7
:1021600021F08823D9F7992708953197CF01089551
:10217000FB01DC018D91019080190110D9F3990BBD
:102180000895FB01DC0101900D920020E1F7089514
:1021900011E0CCE3D1E000E006C0802FFE010E94F8
:1021A000810E2196011DCD33D10780E00807A9F7E4
:0421B000F894FFCFD1
:1021B4000000BC068000000000004C088807D0071F
:1021C40093080108DF07F307303030313130303005
:1021D4000030303030313030300030303031303059
:1021E4003030005374726169676874003030313183
:1021F4003030303000303031313130303000303137
:102204003130303030300030303130303030300028
:10221400436F7272656374696E67204C65667400FF
:1022240030303030303131310030303030313131D4
:1022340031003030303131313131003131313030F1
:1022440030303000313131313030303000313131E3
:1022540031313030300030303030313130300030D6
:102264003030313131303000303030303031313095
:1022740000303030303031303000436F727265637B
:1022840074696E672052696768740030303030308A
:102294003030300053746F700031313131313131AD
:1022A40031004920736565206E6F7468696E67201C
:1022B4002020200048454144494E4720464F5220A3
:1022C4005249474854205455524E00303031313130
:1022D400313131003030303131313130004E4F54F2
:1022E4002054484154205455524E005455524E499E
:1022F4004E47205249474854003030303030303057
:102304003100303030303030313100313131313121
:1023140031303000303131313130303000484541D6
:1023240044494E4720464F52204C4546542054556C
:10233400524E005455524E494E47204C4546540087
:1023440031303030303030300031313030303030B6
:1023540030005041544820302049533A2020202056
:10236400202020202020202020200041542B5253C4
:10237400540D0A0047657474696E67204469726578
:102384006374696F6E732066726F6D205365727625
:102394006572203A290041542B4349505354415209
:1023A400543D22544350222C223139322E313638B6
:1023B4002E312E32222C38300D0A006573703D0008
:1023C400504F5354202F537761726D536572766565
:1023D400722E70687020485454502F312E310D0ADB
:1023E400486F73743A203139322E3136382E312EFB
:1023F400320D0A436F6E74656E742D547970653AAC
:10240400206170706C69636174696F6E2F782D77C9
:1024140077772D666F726D2D75726C656E636F6460
:1024240065640D0A436F6E74656E742D4C656E673A
:1024340074683A20000D0A0D0A0041542B43495098
:1024440053454E443D0020202020202020202020E1
:0624540020504154480035
:00000001FF
