:100000000C9466000C948E000C948E000C948E0060
:100010000C948E000C948E000C948E000C948E0028
:100020000C948E000C948E000C948E000C948E0018
:100030000C948E000C948E000C948E000C948E0008
:100040000C94E3020C948E000C9453030C942D0337
:100050000C948E000C948E000C948E000C948E00E8
:100060000C948E000C948E001112131415160A0BAA
:100070000C0D0E0F00010203040500000008000231
:100080000100000304070000000000000000000061
:100090000000250028002B0000000000240027009D
:1000A0002A000404040404040404020202020202FA
:1000B000030303030303010204081020408001022C
:1000C00004081020010204081020850311241FBE1B
:1000D000CFEFD8E0DEBFCDBF21E0AAE1B1E001C0A3
:1000E0001D92A93DB207E1F711E0A0E0B1E0E4E024
:1000F000FCE002C005900D92AA31B107D9F710E0DB
:10010000C6E6D0E004C02197FE010E94EC05C5368A
:10011000D107C9F70E94CB030C9400060C94000091
:1001200090E0FC01EA54FF4F2491FC01EE55FF4F93
:100130008491882399F090E0880F991FFC01E8567C
:10014000FF4FA591B491FC01E257FF4F8591949127
:100150008FB7F894EC91E22BEC938FBF089590E069
:10016000FC01E658FF4F2491FC01EA54FF4F349103
:10017000FC01EE55FF4FE491EE2309F43CC022232D
:1001800039F1233091F038F42130A9F0223001F513
:1001900084B58F7D12C0273091F02830A1F0243033
:1001A000B9F4809180008F7D03C0809180008F77AB
:1001B000809380000DC084B58F7784BD09C0809185
:1001C000B0008F7703C08091B0008F7D8093B00026
:1001D000F0E0EE0FFF1FE257FF4FA591B4919FB7DC
:1001E000F894611104C08C913095382302C0EC91D1
:1001F0003E2B3C939FBF08959CB59F7D9CBD9CB5B5
:10020000937F9CBD9CB59C7F9CBD9DB591609DBD21
:10021000682F8091C3010E94AF008091D501909119
:10022000D6018230910538F0880F991F880F991FE9
:1002300005970197F1F708953FB7F8948091200151
:1002400090912101A0912201B091230126B5A89B94
:1002500005C02F3F19F00196A11DB11D3FBFBA2F58
:10026000A92F982F8827820F911DA11DB11DBC01B8
:10027000CD0142E0660F771F881F991F4A95D1F77D
:1002800008958F929F92AF92BF92CF92DF92EF929A
:10029000FF920E941C014B015C0185E0C82ED12C0D
:1002A000E12CF12C0E941C01DC01CB018819990979
:1002B000AA09BB09883E9340A105B10598F321E046
:1002C000C21AD108E108F10888EE880E83E0981E72
:1002D000A11CB11CC114D104E104F10419F7FF9071
:1002E000EF90DF90CF90BF90AF909F908F90089548
:1002F000CF92DF92EF92FF920F931F93CF93DF93F2
:100300006C017A018B01C0E0D0E0CE15DF0581F0F1
:10031000D8016D918D01D601ED91FC910190F08194
:10032000E02DC6010995892B11F02196EECF7E01B3
:10033000C701DF91CF911F910F91FF90EF90DF9058
:10034000CF900895FC01918D828D981761F0828D78
:10035000DF01A80FB11D5D968C91928D9F5F9F73F9
:10036000928F90E008958FEF9FEF0895FC01918D9B
:10037000828D981731F0828DE80FF11D858D90E008
:1003800008958FEF9FEF0895FC01918D228D892FA5
:1003900090E0805C9F4F821B91098F73992708958D
:1003A00084E291E00E94C40121E0892B09F420E05D
:1003B000822F0895FC01848DDF01A80FB11DA35A7F
:1003C000BF4F2C91848D90E001968F739927848F75
:1003D000A689B7892C93A089B1898C9180648C936C
:1003E000938D848D981306C00288F389E02D808157
:1003F0008F7D80830895EF92FF920F931F93CF9389
:10040000DF93EC0181E0888F9B8D8C8D981305C064
:10041000E889F989808185FD24C0F62E0B8D10E0D6
:100420000F5F1F4F0F731127E02E8C8DE8120CC049
:100430000FB607FCFACFE889F989808185FFF5CFEF
:10044000CE010E94DA01F1CF8B8DFE01E80FF11D84
:10045000E35AFF4FF0820B8FEA89FB89808180622B
:1004600007C0EE89FF896083E889F989808180640B
:10047000808381E090E0DF91CF911F910F91FF90F9
:10048000EF900895CF93DF93EC01888D8823C9F016
:10049000EA89FB89808185FD05C0A889B9898C918D
:1004A00086FD0FC00FB607FCF5CF808185FFF2CF28
:1004B000A889B9898C9185FFEDCFCE010E94DA0120
:1004C000E7CFDF91CF91089580E090E0892B29F06C
:1004D0000E94D00181110C94000008958EBD00008F
:1004E0000DB407FEFDCF8EB50895CF93DF93C82FCF
:1004F000D62F80E00E94FC008C2F8F7180620E94BA
:100500006E02C82F8D2F0E946E0281E00E94FC00B7
:100510008C2FDF91CF910895CF9380E00E94FC0053
:1005200081EE0E946E02C82F81E00E94FC008C2F99
:10053000CF910895CF93C82F80E00E94FC008C2FAC
:100540008F710E946E028FEF0E946E02C82F81E0B1
:100550000E94FC008C2FCF91089580E00E949A02A7
:1005600081FD07C0682F626080E00E9475020C94D4
:1005700041010895EF92FF920F931F93CF93DF9362
:10058000182F7B01C42F80E00E94FC00812F8F7107
:1005900080620E946E02D82F8701CC2339F0F801C7
:1005A00081918F010E946E02C150F7CF81E00E94BD
:1005B000FC008D2FDF91CF911F910F91FF90EF9055
:1005C00008950E94F2051F920F920FB60F92112408
:1005D0002F933F938F939F93AF93BF9380911C0171
:1005E00090911D01A0911E01B0911F0130911B013E
:1005F00023E0230F2D3720F40196A11DB11D05C066
:1006000026E8230F0296A11DB11D20931B018093A4
:100610001C0190931D01A0931E01B0931F018091B6
:10062000200190912101A0912201B0912301019616
:10063000A11DB11D8093200190932101A09322015F
:10064000B0932301BF91AF919F918F913F912F91D3
:100650000F900FBE0F901F9018951F920F920FB61C
:100660000F9211242F933F934F935F936F937F9338
:100670008F939F93AF93BF93EF93FF9384E291E0A7
:100680000E94DA01FF91EF91BF91AF919F918F91FD
:100690007F916F915F914F913F912F910F900FBE7E
:1006A0000F901F9018951F920F920FB60F92112462
:1006B0002F938F939F93EF93FF93E0913401F091E9
:1006C00035018081E0913A01F0913B0182FD12C039
:1006D000908180913D018F5F8F7320913E01821741
:1006E00051F0E0913D01F0E0EC5DFE4F958F80937D
:1006F0003D0101C08081FF91EF919F918F912F91DA
:100700000F900FBE0F901F901895E4E2F1E0138256
:10071000128288EE93E0A0E0B0E084839583A68304
:10072000B7838AE091E09183808385EC90E09587A0
:10073000848784EC90E09787868780EC90E0918BAB
:10074000808B81EC90E0938B828B82EC90E0958B98
:10075000848B86EC90E0978B868B118E128E138E95
:10076000148EE1ECF1E087E090E09183808388E0F3
:1007700090E093838283168280E28783108685E0EF
:10078000868785E090E0A0E0B0E0848B958BA68B17
:10079000B78B11860895CF93DF93CDB7DEB7A097BF
:1007A0000FB6F894DEBF0FBECDBF789484B58260DB
:1007B00084BD84B5816084BD85B5826085BD85B505
:1007C000816085BD80916E00816080936E00109283
:1007D00081008091810082608093810080918100FE
:1007E000816080938100809180008160809380008F
:1007F0008091B10084608093B1008091B0008160ED
:100800008093B00080917A00846080937A00809118
:100810007A00826080937A0080917A008160809370
:100820007A0080917A00806880937A001092C100EB
:10083000E0913401F091350182E08083E091300154
:10084000F09131011082E0913201F09133018FEC8F
:10085000808310923C01E0913801F091390186E0EB
:100860008083E0913601F09137018081806180833F
:10087000E0913601F0913701808188608083E091BA
:100880003601F0913701808180688083E0913601E4
:10089000F091370180818F7D80838091C10190919B
:1008A000C2012091C3013091C4018217930711F056
:1008B0000E9490008091C3019091C4012091C101D8
:1008C0003091C2012817390711F00E9490001FB71C
:1008D000F89480911A01811124C0ECEAF0E084912F
:1008E000E0ECF0E09491E82FF0E0EE0FFF1FE85607
:1008F000FF4FA591B491EC91E92321F461E08AE0E6
:100900000E94AF008AE00E9490008CB580618CBD8F
:100910008CB580648CBD8DE00E9490008BE00E94BD
:10092000900080911A018F5F80931A011FBF809100
:10093000C1019091C2012091C3013091C40182177D
:10094000930719F060E00E94AF0081E00E94FC0074
:100950000E9441016CE080E00E9475026FE584E036
:100960000E94750286E00E949A02877D182F10620D
:100970008BE990E0A0E0B0E08093D1019093D201A8
:10098000A093D301B093D401612F86E00E94750239
:1009900086E00E949A02181709F4EAC086E00E94D5
:1009A0009A0286E00E949A0245E550E060E070E01D
:1009B0004093D1015093D2016093D3017093D4013D
:1009C000682F677D86E00E94750286E00E949A0289
:1009D00080E00E94FC0080E50E946E0283E70E9496
:1009E0006E0281E00E94FC0060E08DE10E947502D1
:1009F00060E08CE10E9475021092C90160E787E017
:100A00000E9475026CE485E00E94750280E00E94FD
:100A1000FC0082EE0E946E0281E00E94FC000E94B7
:100A20008C020E94AD0280E00E949A02682F6E7FC5
:100A300080E00E9475024091CF0150E060E071E0DB
:100A40008AEC91E00E94F705EEE6F0E08491409197
:100A5000CF0160E071E00E94BA02E8E6F0E0849124
:100A60006091C8010E94750282E00E949A0204E728
:100A700010E0F801949161E070E001C0660F9A9572
:100A8000EAF7682B82E00E94750286E00E949A02D3
:100A9000887F682F616086E00E9475020E94AD0227
:100AA00080E00E949A02682F616080E00E947502D7
:100AB00060E787E00E9475028091C1019091C201B8
:100AC0002091C3013091C4018217930719F061E0AE
:100AD0000E94AF008091CA01882341F04091CF016C
:100AE0006AEC71E08AE00E94BA0211C082E00E94C2
:100AF0009A02F801049121E030E001C0220F0A952A
:100B0000EAF72095622F682382E00E9475028DE14A
:100B10000E949A0281FD0E948C028EE1982E7E0135
:100B2000F3E0EF0EF11C87E10E949A0280FF24C0DF
:100B30001CC081E00E94FC0060E787E00E94750213
:100B4000F60101900020E9F73197AF014C195D09DA
:100B5000B60184E291E00E94780142E050E066E153
:100B600071E084E291E00E9478010E946402DBCF90
:100B700081E08093C70112CF1A821982F701892D73
:100B800011928A95E9F71091C801103218F100E22C
:100B90008091C901811102C0101B01C010E080E0EA
:100BA0000E94FC0081E60E946E02CE0101965C016B
:100BB0006C01015038F08FEF0E946E02F5018193B5
:100BC0005F01F7CF112309F4B4CF8FEF0E946E02BB
:100BD0001150F8CF012FDCCFEE0FFF1F0590F491DD
:100BE000E02D099481E090E0F8940C940006FB015C
:100BF000DC0102C001900D9241505040D8F7089599
:040C0000F894FFCF96
:100C040030303030360000000000FB017801C401B0
:0A0C1400A201B60142020D0A000021
:00000001FF
