:100000000C944B010C947C010C947C010C947C01AD
:100010000C947C010C947C010C947C010C947C016C
:100020000C947C010C947C010C947C010C947C015C
:100030000C947C010C947C010C947C010C947C014C
:100040000C947C010C946C0F0C947C010C947C013E
:100050000C947C010C947C010C947C010C94351361
:100060000C947C010C94DA0D0C944F0E0C947C01D2
:100070000C947C010C947C010C947C010C947C010C
:100080000C943E0F0C947C010C947C010C947C012C
:100090000C94B00D0C94250E0C947C010C949A0FCA
:1000A0000C947C010C947C010C94100F0C947C013A
:1000B0000C947C010C947C010C947C010C94E20E59
:1000C0000C947C010C947C010C947C010C94610BCD
:1000D0000C94370B0C947C010C947C010C947C01E7
:1000E0000C947C0182128512741278127C12BC125C
:1000F00089128D12931297129B12A112A512A912A6
:10010000BC12AF12B312B7120C946B0C0C94A91260
:100110000C9478120C94B7120C94A5120C94400C09
:100120000C94C00E0C9493120C94AE0B0C9485128C
:100130000C947C120C9482120C944D1D0C9474122D
:100140000C948D120C944F0C0C94AF120C949712CB
:100150000C949B0C0C94790E0C943F0C0C94BC12D8
:100160000C94CB0C0C94A1120C94BC0B0C949A0B19
:100170000C949B120C948B0B0C94B3120C94AA1439
:100180000C94D30A0C94630C0C94891200000A0B93
:1001900002090C0D0E080703040100000000000016
:1001A000000000000000000000000000000000004F
:1001B000000000000000000012111000000000000C
:1001C000000000000000000000000000000000002F
:1001D000000000002200250028002B002E00310026
:1001E000340002010000050108010B01000021009C
:1001F000240027002A002D003000330001010000F8
:10020000040107010A010505050507050808080896
:10021000020202020A0A080804040404010101019E
:100220000101010103030303030303030407070799
:100230000C0C0C0C0C0C0C0C02020202060606063E
:10024000060606060B0B0B0B0B0B0B0B010210200B
:1002500020080810204010204080020102010804FC
:100260000201010204081020408080402010080490
:1002700002018004020180402010080402010804E9
:10028000020101020408102040800102040810202D
:100290004080AA144D1D11241FBECFEFD1E2DEBF56
:1002A000CDBF00E00CBF15E0A0E0B2E0EEEAF0E464
:1002B00000E00BBF02C007900D92AC34B107D9F734
:1002C00029E0ACE4B5E001C01D92AE30B207E1F721
:1002D00011E0CAE4D1E000E006C021970109802FB7
:1002E000FE010E94FE1DC934D10780E00807A9F76E
:1002F0000E94A7150C9445200C9400008AE090E021
:100300000E942A076CE271E080E090E00E94EF1208
:100310000E941D078EE190E00E94931168EC70E04E
:1003200080E090E00E94EF128AE090E00E94A40733
:1003300068EC70E080E090E00E94EF120C941D07E2
:10034000EF92FF920F931F93CF93DF931092A1052B
:100350001092A00510929F0510929E0510929D0587
:1003600010929C05C6E8D5E082E7E82E85E0F82EDD
:100370000EE515E080919D08811102C00E940E0AD1
:1003800084E10E94681190939B0580939A0586E111
:100390000E9468119093A7088093A60888E10E94A4
:1003A00068119093A5088093A4088AE10E946811BF
:1003B0009093A3088093A2088091A0089091A1082F
:1003C000853D910519F154F4009729F1803C910580
:1003D00041F56AE970E080E090E021C0863F910538
:1003E00081F08F3F910541F08B3E9105D1F462E39E
:1003F00070E080E090E013C063E070E080E090E0A7
:100400000EC068E170E080E090E009C065E670E051
:1004100080E090E004C06CEB72E080E090E00E942D
:10042000EF128091A6089091A70889939993409123
:10043000A4085091A508F701419351937F012091A1
:10044000A2083091A308F801219331938F016091A4
:10045000A0057091A105860F971F9093A105809329
:10046000A005E0919E05F0919F05E40FF51FF09324
:100470009F05E0939E0540919C0550919D05240F9A
:10048000351F30939D0520939C0545E0CA39D4075C
:1004900009F070CFCAE0D0E0BE010E94EA1D70935F
:1004A000A7086093A608CF01BE010E94EA1D7093C1
:1004B000A5086093A408C901BE010E94EA1D7093BB
:1004C000A3086093A2088AE292E00E942807609144
:1004D000A6087091A70880E090E04AE00E94920A86
:1004E00080E392E00E9428076091A4087091A5081B
:1004F00080E090E04AE00E94920A8CE392E00E9441
:1005000028076091A2087091A30880E090E04AE07B
:100510000E94920A84E095E00E94FD0664E670E085
:1005200080E090E0DF91CF911F910F91FF90EF90CD
:100530000C94EF12DC01ED91FC910190F081E02D23
:100540001994EF92FF920F931F93CF93DF9386E35B
:100550000E94D01290934D0580934C0587E30E9432
:10056000D01290934F0580934E0588E30E94D012DD
:10057000909351058093500589E30E94D012909387
:100580005305809352058BE30E94D012909355053A
:10059000809354058AE30E94D0129093570580936C
:1005A00056058CE30E94D01290935905809358050C
:1005B0008DE30E94D01290935B0580935A050CE462
:1005C00015E0CFE0D6E080E3F82E91E3E92EF801C4
:1005D000819191918F018A3F910514F0E88201C0C9
:1005E000F8826991062E000C770B82E597E00E9455
:1005F0009A0267E070E080E090E00E94EF12F6E07F
:10060000C731DF0721F78EE594E0DF91CF911F918D
:100610000F91FF90EF900C940F07CF9384E190E03F
:100620000E94A40768EC70E080E090E00E94EF1266
:100630000E94A102C4E063E572E08FE096E00E94B0
:100640003520892B21F16CE572E08FE096E00E9465
:100650003520892BE1F065E672E08FE096E00E949C
:100660003520892BA1F00E94A102C093F30760E01E
:100670008091EF070E94531265E670E085EB96E0EB
:100680000E949A0287E492E00E940F07D4CF0E9452
:100690001D0768EC70E080E090E00E94EF1284E1BA
:1006A00090E00E94A40764E670E080E090E00E9481
:1006B000EF120E941D070E94A102C4E06EE672E0E4
:1006C0008FE096E00E943520892B01F167E772E008
:1006D0008FE096E00E943520892BC1F060E872E03F
:1006E0008FE096E00E943520892B81F00E94A102C4
:1006F000C093F30760E08091EF070E94531265E614
:1007000070E085EB96E00E949A02D8CFCF910C94CE
:100710001D07CF930E94A1026EE672E08FE096E083
:100720000E943520892B81F067E772E08FE096E028
:100730000E943520892B41F060E872E08FE096E05E
:100740000E943520892B41F48AE090E00E942A071C
:1007500089E892E00E940F0762E972E08FE096E07C
:100760000E943520892BC9F06BE972E08FE096E09A
:100770000E943520892B89F064EA72E08FE096E0D0
:100780000E943520892B49F06DEA72E08FE096E0F7
:100790000E943520892B09F083C0C4E06EE672E028
:1007A0008FE096E00E943520892B09F471C067E73D
:1007B00072E08FE096E00E943520892B09F468C032
:1007C00060E872E08FE096E00E943520892B09F402
:1007D0005FC066EC72E08FE096E00E943520892BC6
:1007E00009F456C06FEC72E08FE096E00E9435206D
:1007F000892B09F44DC068ED72E08FE096E00E940D
:100800003520892B09F444C065E672E08FE096E05C
:100810000E943520892BE1F161EE72E08FE096E0D5
:100820000E943520892BA1F16AEE72E08FE096E0FC
:100830000E943520892B61F163EF72E08FE096E032
:100840000E943520892B21F16CEF72E08FE096E059
:100850000E943520892BE1F065E073E08FE096E09F
:100860000E943520892BA1F00E94A102C093F307BA
:1008700060E08091EF070E94531263E670E085EB21
:1008800096E00E949A0286EB92E00E940F0786CFC4
:100890000E941D0768EC70E080E090E00E94EF127B
:1008A0006EE073E08FE096E00E943520892BC9F05E
:1008B00067E173E08FE096E00E943520892B89F094
:1008C00060E273E08FE096E00E943520892B49F0CA
:1008D00069E273E08FE096E00E943520892B09F0F1
:1008E00084C0C3E06EE672E08FE096E00E9435209F
:1008F000892B09F471C067E772E08FE096E00E94EF
:100900003520892B09F468C060E872E08FE096E03A
:100910000E943520892B09F45FC065E672E08FE004
:1009200096E00E943520892B09F456C061EE72E0F2
:100930008FE096E00E943520892B09F44DC06AEEC5
:1009400072E08FE096E00E943520892B09F444C0C4
:1009500066EC72E08FE096E00E943520892BE1F191
:100960006FEC72E08FE096E00E943520892BA1F1B8
:1009700068ED72E08FE096E00E943520892B61F1EE
:1009800063EF72E08FE096E00E943520892B21F121
:100990006CEF72E08FE096E00E943520892BE1F049
:1009A00065E073E08FE096E00E943520892BA1F08E
:1009B0000E94A102C093F30760E08091EF070E94BC
:1009C000531260E770E085EB96E00E949A0282E3A2
:1009D00093E00E940F0786CF0E941D0768EC70E02D
:1009E00080E090E0CF910C94EF12CF910895CF92D8
:1009F000DF92EF92FF920E941D0764EF71E080E0AA
:100A000090E00E94EF120E9429136B017C010E946A
:100A10002913DC01CB018C199D09AE09BF09893B63
:100A20009B40A105B10518F40E948903F0CF0E94F4
:100A30001D0768EC70E080E090E00E94EF120E94D9
:100A40000D03FF90EF90DF90CF900C941D070E9454
:100A5000A10263EF72E08FE096E00E943520892BBF
:100A600099F065E073E08FE096E00E943520892BD5
:100A700059F06CEF72E08FE096E00E943520892BF0
:100A800019F00E948903E5CF0E941D0784E190E0E0
:100A90000E94A40762E370E080E090E00E94EF1201
:100AA0000C941D070F931F93CF93DF938C010E942B
:100AB000A102C0E0D0E0C017D1070CF057C00E94DF
:100AC000A1026AE573E08FE096E00E943520892B51
:100AD000C9F168ED72E08FE096E00E943520892B25
:100AE00089F16FEC72E08FE096E00E943520892B4F
:100AF00049F163E673E08FE096E00E943520892B90
:100B000009F163EF72E08FE096E00E943520892BB7
:100B1000C9F06CEF72E08FE096E00E943520892BDF
:100B200089F065E073E08FE096E00E943520892B24
:100B300049F00E94A1020E94890383E493E00E948D
:100B40000F07BFCF2196C017D10709F4B4CF84E1B6
:100B500090E00E942A0768EC70E080E090E00E943C
:100B6000EF128CE693E00E940F07A5CF0E941D07AD
:100B700084E190E00E94A40762E370E080E090E0EE
:100B80000E94EF120E941D076CE271E080E090E08D
:100B90000E94EF126AE573E08FE096E00E94352034
:100BA000892B49F168ED72E08FE096E00E943520D4
:100BB000892B09F16FEC72E08FE096E00E943520FE
:100BC000892BC9F063EF72E08FE096E00E94352038
:100BD000892B89F46CEF72E08FE096E00E9435205B
:100BE000892B49F465E073E08FE096E00E943520A0
:100BF000892B09F496C00E941D0768EC70E080E024
:100C000090E00E94EF128AE090E00E942A0760E9DB
:100C100071E080E090E00E94EF120E941D0768ECF6
:100C200070E080E090E00E94EF12C3E068E873E0BB
:100C30008FE096E00E943520892B21F161E973E075
:100C40008FE096E00E943520892BE1F066EC72E09F
:100C50008FE096E00E943520892BA1F00E94A1022E
:100C6000C093F30760E08091EF070E94531262E7A0
:100C700070E085EB96E00E949A028AE793E00E947A
:100C80000F07D4CF0E941D0768EC70E080E090E071
:100C90000E94EF1284E190E00E942A0764E670E06F
:100CA00080E090E00E94EF120E941D0768EC70E067
:100CB00080E090E00E94EF12C3E06EE672E08FE009
:100CC00096E00E943520892B01F167E772E08FE002
:100CD00096E00E943520892BC1F060E872E08FE039
:100CE00096E00E943520892B81F00E94A102C093DA
:100CF000F30760E08091EF070E94531262E770E013
:100D000085EB96E00E949A02D8CF0E941D0768ECFE
:100D100070E080E090E0DF91CF911F910F910C94F3
:100D2000EF12DF91CF911F910F910895CF92DF9233
:100D3000EF92FF920F931F93CF93DF93EC016A0121
:100D40007B01E889F98982E080834115514E610574
:100D50007105B1F060E079E08DE390E0A7019601C4
:100D60000E94AD1D89019A01015011092109310923
:100D70003695279517950795980101151041A8F00C
:100D8000E889F989108260E874E88EE190E0A701B3
:100D900096010E94AD1DDA01C9010197A109B109AF
:100DA000B695A795979587959C01EC85FD85308331
:100DB000EE85FF852083188EEC89FD8986E080838F
:100DC000EA89FB89808180618083EA89FB8980814F
:100DD00088608083EA89FB89808180688083EA89D2
:100DE000FB8980818F7D8083DF91CF911F910F914F
:100DF000FF90EF90DF90CF900895009769F0FC018D
:100E000001900020E9F73197AF01481B590BBC0155
:100E100082E597E00C94D30A80E090E00895CF93A8
:100E2000DF930E94FD06EC0184E095E00E94FD0640
:100E30008C0F9D1FDF91CF91089560E08091EF07A7
:100E40000E94531260E370E085EB96E00C949A02E6
:100E50000C94FD06CF93DF93EC0181E08093F307C0
:100E600060E08091EF070E945312C832D10509F467
:100E70004DC0ECF4C431D10509F43FC064F4CA306C
:100E8000D10581F1CF30D105A9F1259709F050C0E6
:100E900067E470E029C0CE31D10591F1C332D105AC
:100EA00091F1699709F044C069E470E01DC0C6344F
:100EB000D105A9F15CF4C233D10559F1CC33D10588
:100EC00059F1AD97A9F56CE470E00EC0CA35D105B3
:100ED00049F1C436D10549F1C035D10549F56AE279
:100EE00070E002C061E270E085EB96E0DF91CF91A7
:100EF0000C949A0268E470E0F7CF60E470E0F4CFFD
:100F000063E270E0F1CF6BE470E0EECF64E270E09A
:100F1000EBCF65E270E0E8CF6EE570E0E5CF66E22A
:100F200070E0E2CF68E270E0DFCF6AE470E0DCCF2F
:100F300060E370E085EB96E00E949A028AE993E014
:100F4000DF91CF910C942807CF93DF93EC0182E0DF
:100F50008093F30760E08091EF070E945312C8323C
:100F6000D10509F44DC0ECF4C431D10509F43FC0FA
:100F700064F4CA30D10581F1CF30D105A9F12597AC
:100F800009F050C061E470E029C0CE31D10591F183
:100F9000C332D10591F1699709F044C063E470E070
:100FA0001DC0C634D105A9F15CF4C233D10559F195
:100FB000CC33D10559F1AD97A9F565E470E00EC0C9
:100FC000CA35D10549F1C436D10549F1C035D1053D
:100FD00049F568E370E002C061E370E085EB96E0FC
:100FE000DF91CF910C949A0262E470E0F7CF62E354
:100FF00070E0F4CF63E370E0F1CF64E470E0EECF33
:1010000064E370E0EBCF65E370E0E8CF66E370E0A7
:10101000E5CF67E370E0E2CF69E370E0DFCF66E43D
:1010200070E0DCCF60E370E085EB96E00E949A020E
:101030008BEB93E0DF91CF910C942807CF930E9424
:10104000A1020E94A1026CED73E08FE096E00E9485
:101050003520892BC9F16AEE72E08FE096E00E949C
:101060003520892B89F161EE72E08FE096E00E94D5
:101070003520892B49F165EE73E08FE096E00E9400
:101080003520892B09F163EF72E08FE096E00E9432
:101090003520892BC9F06CEF72E08FE096E00E945A
:1010A0003520892B89F065E073E08FE096E00E949F
:1010B0003520892B49F00E94A1020E9489038EEEFF
:1010C00093E00E940F07BFCF0E941D0784E190E0CC
:1010D0000E94A40762E370E080E090E00E94EF12BB
:1010E0000E941D076CE271E080E090E00E94EF1228
:1010F0006CED73E08FE096E00E943520892B49F17A
:101100006AEE72E08FE096E00E943520892B09F1AB
:1011100061EE72E08FE096E00E943520892BC9F0E5
:1011200063EF72E08FE096E00E943520892B89F40E
:101130006CEF72E08FE096E00E943520892B49F435
:1011400065E073E08FE096E00E943520892B09F47A
:101150009BC00E941D0768EC70E080E090E00E9458
:10116000EF128AE090E00E942A0760E971E080E0D7
:1011700090E00E94EF120E941D0768EC70E080E092
:1011800090E00E94EF120E941D0768EC70E080E082
:1011900090E00E94EF12C4E063E572E08FE096E019
:1011A0000E943520892B21F16CE572E08FE096E0FA
:1011B0000E943520892BE1F065E672E08FE096E031
:1011C0000E943520892BA1F00E94A102C093F30751
:1011D00060E08091EF070E94531265E670E085EBB6
:1011E00096E00E949A0284E094E00E940F07D4CF18
:1011F0000E941D0768EC70E080E090E00E94EF1212
:1012000084E190E00E942A0764E670E080E090E0CC
:101210000E94EF120E941D0768EC70E080E090E0F1
:101220000E94EF12C4E06EE672E08FE096E00E944A
:101230003520892B01F167E772E08FE096E00E948C
:101240003520892BC1F060E872E08FE096E00E94C3
:101250003520892B81F00E94A102C093F30760E042
:101260008091EF070E94531265E670E085EB96E0EF
:101270000E949A02D8CF0E941D0768EC70E080E0BF
:1012800090E0CF910C94EF12CF910895382F2091D8
:101290000E0690910D06213208F049C08091EA05B2
:1012A0008111FCCF42E04093EA053093E9053FEF1E
:1012B0003093E8051092E7052093E605ADEEB5E022
:1012C00046EC55E0FA013E2F341B321718F43D91DD
:1012D0003193F9CF1092C5052091C505990F922B36
:1012E0009093C5059091C405913061F41092C405A6
:1012F0009091C5059093BB009091BC0093FDF8CFF1
:1013000095EC01C095EE9093BC009091EA05923067
:10131000E1F39091E8059F3F79F08091E8058032F4
:1013200041F08091E805803331F084E005C081E030
:1013300003C082E001C083E01092EC0510920E061B
:101340001092EB050895CF93DF931F92CDB7DEB7D0
:1013500091E09093EB0599E290930D061092EC05C5
:1013600010920E06682F606887EF97E049830E940D
:101370009B0C4981642F87EF97E00E949B0C81E0D2
:101380000F90DF91CF910C9446099091EA0591114D
:10139000FCCF813208F080E291E09093EA059093CF
:1013A000E9052FEF2093E8051092E705280F209319
:1013B000E6059093C5059091C50592659093C50586
:1013C0009091C405913061F41092C4059091C505C7
:1013D0009093BB009091BC0093FDF8CF95EC01C0B9
:1013E00095EE9093BC009091EA059130E1F39091D5
:1013F000E705981710F48091E705A6ECB5E024EA1C
:1014000035E0F9019E2F921B981718F49D91919346
:10141000F9CF1092A3058093A2050895CF93DF938F
:101420001092A3051092A2051092EC0510920E06E0
:101430001092EA05C1E0C093E9051092C40561E08D
:1014400084E10E94531261E085E10E945312809171
:10145000B9008E7F8093B9008091B9008D7F809311
:10146000B90088E48093B80085E48093BC00C09301
:10147000EB0589E280930D061092EC0510920E06A2
:1014800062E987EF97E00E949B0C81E00E94460989
:1014900081E090E00E94C50987EF97E00E944F0C21
:1014A000843411F08031D1F581E080939D08C091A2
:1014B000A008D091A108AE0160E070E00E94A309ED
:1014C000D093A108C093A008C0919E08D0919F0816
:1014D00080919D08811102C00E940E0AAE0160E059
:1014E00070E08FE00E94A309D0939F08C0939E08EC
:1014F00041E050E060E070E080E00E94A30963E01A
:1015000070E080E090E00E94EF1243E050E060E085
:1015100070E080E00E94A30981E001C080E0DF91DB
:10152000CF9108958F929F92AF92BF920F931F9386
:10153000CF93DF93CDB7DEB7A1970FB6F894DEBF98
:101540000FBECDBF19A2423008F44AE08E010F5DF4
:101550001F4F842E912CA12CB12CA50194010E9427
:10156000AD1DE62FB901CA0101501109EA3014F48A
:10157000E05D01C0E95CD801EC93232B242B252BE3
:1015800061F7C8010E94FD06A1960FB6F894DEBF70
:101590000FBECDBFDF91CF911F910F91BF90AF9044
:1015A0009F908F900895CF92DF92EF92FF920F93CA
:1015B0001F93CF93DF936C017A018B01C0E0D0E0E1
:1015C000CE15DF0589F0D8016D918D01D601ED9121
:1015D000FC910190F081E02DC6011995892B11F441
:1015E0007E0102C02196ECCFC701DF91CF911F9100
:1015F0000F91FF90EF90DF90CF900895FB01DC01F9
:1016000011961C921E9213961C921E92129715967A
:101610001C921E9214978617970749F0608171817A
:101620006115710521F0448155810C945914089578
:1016300088E196E00E94BC0B21E0892B09F420E0B0
:10164000822F0895FC01118210821382128215826A
:1016500014826115710551F0FB0101900020E9F73A
:101660003197AF01461B570B0C94591408951F92E4
:101670000F920FB60F9211240BB60F922F933F9338
:101680004F935F936F937F938F939F93AF93BF938A
:10169000EF93FF9388E196E00E94040EFF91EF9193
:1016A000BF91AF919F918F917F916F915F914F917A
:1016B0003F912F910F900BBE0F900FBE0F901F9078
:1016C00018951F920F920FB60F9211240BB60F921E
:1016D0002F933F934F935F936F937F938F939F933A
:1016E000AF93BF93EF93FF9388E196E00E94970D2D
:1016F000FF91EF91BF91AF919F918F917F916F91EA
:101700005F914F913F912F910F900BBE0F900FBEA5
:101710000F901F901895FC01538D448D252F30E0BC
:10172000842F90E0821B930B541710F0CF960895EE
:1017300001970895FC01918D828D981761F0828D3B
:10174000DF01A80FB11D5D968C91928D9F5F9F73F5
:10175000928F90E008958FEF9FEF0895FC01918D97
:10176000828D981731F0828DE80FF11D858D90E004
:1017700008958FEF9FEF0895FC01918D228D892FA1
:1017800090E0805C9F4F821B91098F739927089589
:1017900085EB96E00E94BC0B21E0892B09F420E048
:1017A000822F089582E597E00E94BC0B21E0892BEF
:1017B00009F420E0822F089580E090E0892B21F049
:1017C0000E94D20B81111DC080E090E0892B21F096
:1017D0000E94C80B811118C080E090E0892B21F095
:1017E0000E94180B811113C080E090E0892BA1F0BA
:1017F00080E090E0892B81F00E94000081110AC0F6
:1018000008950E940000E0CF0E940000E5CF0E94F2
:101810000000EACF0C940000089585ED8093BC0091
:101820008091BC0084FDFCCF1092EA0508954091A0
:10183000D308262F30E0240F311D21323105DCF48E
:101840002091EA052430C9F4FC0180E090E086177D
:1018500058F43091D3082191DC01AF54B74FA30F56
:10186000B11D2C930196F3CF8091D308680F60933C
:10187000D30880E0089581E0089582E008950895F6
:10188000E091A3058091A205E81730F4F0E0EC5553
:10189000FA4F808190E008958FEF9FEF0895909127
:1018A000A3058091A205981750F4E92FF0E0EC55BC
:1018B000FA4F208130E09F5F9093A30502C02FEF85
:1018C0003FEFC90108958091A20590E02091A30502
:1018D000821B91090895CF92DF92EF92FF920F93AE
:1018E0001F93CF93DF937C01262F972F8A0180913E
:1018F000EB05882391F0C62FD72F6E01C40ED51E9D
:10190000CC15DD0571F06991D701ED91FC91019045
:10191000F081E02DC7011995F3CF642F822F0E942B
:10192000170CC801DF91CF911F910F91FF90EF909D
:10193000DF90CF900895CF93DF931F92CDB7DEB79E
:1019400069832091EB052223D1F020910E062032ED
:1019500040F021E030E0FC013383228380E090E01E
:1019600015C08091EC05E82FF0E0E351FA4F998122
:1019700090838F5F8093EC0580930E0605C061E035
:10198000CE0101960E94170C81E090E00F90DF914C
:10199000CF910895089580E090E008950E941C2062
:1019A000CF92DF92EF92FF920F931F93CF93DF932B
:1019B0006C018B017A01EC01C850D74F888187FFF9
:1019C00004C0FB011182108224C08CE08C9D900128
:1019D0008D9D300D11248881A901480F511D87FD6F
:1019E0005A958091930890E04817590794F488819C
:1019F000A901480F511D87FD5A95CA01FA01EE0F42
:101A0000FF1F8E0F9F1FFC01ED5FF74F808186FD4A
:101A100019C088818F5F88838CE08C9D90018D9D9B
:101A2000300D11248881A901480F511D87FD5A9559
:101A30008091930890E048175907BCF488818C3056
:101A400044F113C08881280F311D87FD3A95F901B3
:101A5000EE0FFF1F2E0F3F1FF901ED5FF74F808143
:101A600060E08F730E945312D4CFF801808191817E
:101A7000049680349C4918F480E49CE904C0F80181
:101A8000808191810496F701918380838FEF888311
:101A900045C0F801408151818881B901680F711DED
:101AA00087FD7A95CB01FB01EE0FFF1F8E0F9F1F65
:101AB000FC01ED5FF74F81819281840F951FF70143
:101AC000918380838881A901480F511D87FD5A9514
:101AD000CA01FA01EE0FFF1F8E0F9F1FFC01ED5F81
:101AE000F74F808186FF1AC08881280F311D87FD3E
:101AF0003A95F901EE0FFF1F2E0F3F1FF901ED5F21
:101B0000F74F808161E08F73DF91CF911F910F912B
:101B1000FF90EF90DF90CF900C945312DF91CF9114
:101B20001F910F91FF90EF90DF90CF900895FC01EF
:101B3000A089B1898C91A689B78982FD0FC09C913B
:101B4000818D8F5F8F73228D821749F0218DDF0188
:101B5000A20FB11D5D969C93818F08958C9108957D
:101B60001F920F920FB60F9211240BB60F922F9364
:101B70003F934F935F936F937F938F939F93AF9315
:101B8000BF93EF93FF9385EB96E00E94970DFF9133
:101B9000EF91BF91AF919F918F917F916F915F91E5
:101BA0004F913F912F910F900BBE0F900FBE0F9052
:101BB0001F9018951F920F920FB60F9211240BB61B
:101BC0000F922F933F934F935F936F937F938F93D6
:101BD0009F93AF93BF93EF93FF9382E597E00E94AB
:101BE000970DFF91EF91BF91AF919F918F917F9151
:101BF0006F915F914F913F912F910F900BBE0F907E
:101C00000FBE0F901F901895FC01848DDF01A80F67
:101C1000B11DA35ABF4F2C91848D90E001968F7314
:101C20009927848FA689B7892C93A089B1898C9133
:101C300080648C93938D848D981306C00288F389F9
:101C4000E02D80818F7D808308951F920F920FB6C3
:101C50000F9211240BB60F922F933F934F935F93E4
:101C60006F937F938F939F93AF93BF93EF93FF9364
:101C700085EB96E00E94040EFF91EF91BF91AF912A
:101C80009F918F917F916F915F914F913F912F9194
:101C90000F900BBE0F900FBE0F901F9018951F92C4
:101CA0000F920FB60F9211240BB60F922F933F9302
:101CB0004F935F936F937F938F939F93AF93BF9354
:101CC000EF93FF9382E597E00E94040EFF91EF915E
:101CD000BF91AF919F918F917F916F915F914F9144
:101CE0003F912F910F900BBE0F900FBE0F901F9042
:101CF0001895EF92FF920F931F93CF93DF93EC0110
:101D000081E0888F9B8D8C8D981305C0E889F989B7
:101D1000808185FD24C0F62E0B8D10E00F5F1F4FD4
:101D20000F731127E02E8C8DE8120CC00FB607FC44
:101D3000FACFE889F989808185FFF5CFCE010E942D
:101D4000040EF1CF8B8DFE01E80FF11DE35AFF4F1A
:101D5000F0820B8FEA89FB898081806207C0EE895F
:101D6000FF896083E889F98980818064808381E0CC
:101D700090E0DF91CF911F910F91FF90EF90089528
:101D8000CF93DF93EC01888D8823C9F0EA89FB8922
:101D9000808185FD05C0A889B9898C9186FD0FC019
:101DA0000FB607FCF5CF808185FFF2CFA889B989EE
:101DB0008C9185FFEDCFCE010E94040EE7CFDF911D
:101DC000CF9108951F920F920FB60F9211240BB668
:101DD0000F922F933F934F935F936F937F938F93C4
:101DE0009F93AF93BF93EF93FF9348E251E064E278
:101DF00071E080E090E00E94D00CFF91EF91BF91E4
:101E0000AF919F918F917F916F915F914F913F9192
:101E10002F910F900BBE0F900FBE0F901F90189533
:101E20001F920F920FB60F9211240BB60F922F93A1
:101E30003F934F935F936F937F938F939F93AF9352
:101E4000BF93EF93FF9348EA50E064EA70E083E0C9
:101E500090E00E94D00CFF91EF91BF91AF919F91C4
:101E60008F917F916F915F914F913F912F910F9043
:101E70000BBE0F900FBE0F901F9018951F920F92E0
:101E80000FB60F9211240BB60F922F933F934F93DF
:101E90005F936F937F938F939F93AF93BF93EF93D2
:101EA000FF9348E950E064E970E082E090E00E942E
:101EB000D00CFF91EF91BF91AF919F918F917F9146
:101EC0006F915F914F913F912F910F900BBE0F90AB
:101ED0000FBE0F901F9018951F920F920FB60F9282
:101EE00011240BB60F922F933F934F935F936F93F1
:101EF0007F938F939F93AF93BF93EF93FF9348E8A4
:101F000050E064E870E081E090E00E94D00CFF9126
:101F1000EF91BF91AF919F918F917F916F915F9161
:101F20004F913F912F910F900BBE0F900FBE0F90CE
:101F30001F9018951F920F920FB60F9211240BB697
:101F40000F922F933F934F935F936F937F938F9352
:101F50009F93AF93BF93EF93FF938091B900887FD6
:101F6000803609F49CC068F5883209F45BC090F4AF
:101F7000803109F454C038F4882309F4F6C088305D
:101F800009F44DC0F6C0883109F44CC0803209F420
:101F90005DC0EFC0803409F468C048F4803309F4B0
:101FA00055C0883309F0E5C08093E805D8C0803576
:101FB00009F44FC0883509F45DC0883409F0D9C0F0
:101FC000D6C0883909F4C7C0A8F4883709F467C0B7
:101FD00038F4883609F463C0803709F460C0C9C09A
:101FE000883809F4B8C0803909F45FC0803809F036
:101FF000C0C05BC0803B09F486C038F4803A09F465
:1020000066C0883A09F47FC0B4C0803C09F4A7C018
:10201000883C09F4A4C0883B09F48AC0AAC0809116
:10202000C50510C09091E7058091E605981770F5F9
:10203000E091E70581E08E0F8093E705F0E0EA5339
:10204000FA4F80818093BB0085EC86C08093E805C1
:102050008EC0E091E70581E08E0F8093E7058091C7
:10206000BB00F0E0EA53FA4F80839091E70580913E
:10207000E6056EC0E091E70581E08E0F8093E705ED
:102080008091BB00F0E0EA53FA4F80838091E9052C
:1020900081116DC081E08093C40584EA61C083E052
:1020A0008093EA051092F708CFCF8091F70880322D
:1020B00008F051C0E091F70881E08E0F8093F70897
:1020C0008091BB00F0E0E952F74F8083BDCF85ECF3
:1020D0008093BC001092EA058091F708803230F4BA
:1020E000E091F708F0E0E952F74F10826091F708AD
:1020F00070E0E091D508F091D60887ED98E0199549
:102100001092F70836C084E08093EA051092D40854
:102110001092D308E091D108F091D20819958091DE
:10212000D308811105C081E08093D3081092B108D3
:10213000E091D40881E08E0F8093D408F0E0EF5452
:10214000F74F80818093BB009091D4088091D30891
:10215000981708F479CF85E88093BC000AC085EC15
:102160008093BC001092EA0504C01092E8050E941A
:102170000D0CFF91EF91BF91AF919F918F917F9146
:102180006F915F914F913F912F910F900BBE0F90E8
:102190000FBE0F901F9018958AE090E00E942A07CA
:1021A0006CE271E080E090E00E94EF120E941D0757
:1021B00085E590E00E94931168EC70E080E090E08B
:1021C0000E94EF128AE090E00E94A40768EC70E0A1
:1021D00080E090E00E94EF120C941D073FB7F89446
:1021E0008091040990910509A0910609B091070911
:1021F00026B5A89B05C02F3F19F00196A11DB11D62
:102200003FBFBA2FA92F982F8827820F911DA11D9C
:10221000B11DBC01CD0142E0660F771F881F991FD9
:102220004A95D1F708950F931F93CF93DF93EC0155
:1022300088819981009729F02A813B8126173707E9
:1022400088F48B016F5F7F4F0E94331F009761F00E
:10225000998388831B830A832C813D81232B11F46E
:10226000FC01108281E001C080E0DF91CF911F91DD
:102270000F910895EF92FF920F931F93CF93DF93E7
:10228000FC01248135816115710511F480E019C0CC
:1022900041155105A9F07B01EC018A01020F131FC2
:1022A000B8010E941311882389F3288139818C8118
:1022B0009D81B701820F931F0E943E201D830C83D6
:1022C00081E0DF91CF911F910F91FF90EF900895E2
:1022D000CF93DF9391E09093EB0599E290930D06F5
:1022E0001092EC0510920E06682F606887EF97E059
:1022F0000E949B0C81E00E94460982E090E00E94CF
:10230000C50987EF97E00E944F0CEC0187EF97E03B
:102310000E944F0C20E030E0382FC9018C2B9D2B00
:10232000DF91CF910895CF92DF92EF92FF92DC017F
:10233000A03282E0B8070CF03EC0B7FD06C0A53B56
:10234000B1052CF0A4EBB0E002C0A0E0B0E08091B9
:102350009B0828E830E06901C81AD10887FDD394AA
:10236000CC0CDD1CCC0CDD1C0D2C000CEE08FF0889
:1023700080919C0828E532E0281B310987FD3395C0
:10238000220F331F220F331FA901330F660B770B68
:102390009A01AB012C193D094E095F090E94A51D48
:1023A00024EB30E040E050E00E947B1DC20ED31EC3
:1023B000E41EF51ED60190919A08903398F580910D
:1023C0009B0848E850E0481B510987FD5395440F8E
:1023D000551F440F551FA417B5078CF080919C081A
:1023E00028E532E0281B310987FD3395220F331F82
:1023F000220F331FAD012A173B070CF4A9014250ED
:102400005109440F551F2FB7F894892F90E0FC0114
:10241000EE0FFF1F8E0F9F1FFC01ED5FF74F5283E2
:1024200041832FBFFF90EF90DF90CF90089588E118
:1024300096E00E94C00EE8E1F6E0A289B3898C9193
:102440008F7E8C93A289B3898C91877F8C93A2898C
:10245000B3898C918F778C93A289B3898C918F7D6E
:102460008C93828D818F089590E0FC01E45BFD4F99
:102470002491FC01EA5FFD4F8491882399F090E05C
:10248000880F991FFC01E451FE4FA591B491FC0106
:10249000EE52FE4F859194918FB7F894EC91E22B18
:1024A000EC938FBF0895362F90E0FC01E457FE4F68
:1024B0004491FC01E45BFD4F2491FC01EA5FFD4F78
:1024C0009491992309F46BC0442309F455C050E05A
:1024D000FA013197E231F10508F04EC08827EE5835
:1024E000FF4F8F4F0C94FE1D809180008F7707C0A7
:1024F000809180008F7D03C080918000877F8093D2
:1025000080003AC084B58F7702C084B58F7D84BDCA
:1025100033C08091B0008F7703C08091B0008F7D71
:102520008093B00029C0809190008F7707C0809180
:1025300090008F7D03C080919000877F80939000F2
:102540001BC08091A0008F7707C08091A0008F7D75
:1025500003C08091A000877F8093A0000DC0809170
:1025600020018F7707C0809120018F7D03C080916B
:102570002001877F80932001E92FF0E0EE0FFF1FFD
:10258000EE52FE4FA591B4918FB7F894EC913111B2
:1025900003C020952E2301C02E2B2C938FBF0895AE
:1025A000863308F0865390917B00282F2870977F00
:1025B000922B90937B008770806480937C00809145
:1025C0007A00806480937A0080917A0086FDFCCF47
:1025D000809178002091790090E0922B08958F925D
:1025E0009F92AF92BF92CF92DF92EF92FF926B01D8
:1025F0007C010E94EE104B015C01C114D104E10486
:10260000F104F1F00E94EE10DC01CB018819990968
:10261000AA09BB09883E9340A105B10570F321E0EA
:10262000C21AD108E108F10888EE880E83E0981EEE
:10263000A11CB11CC114D104E104F10419F7DDCFD0
:10264000FF90EF90DF90CF90BF90AF909F908F90D2
:1026500008952FB7F8946091000970910109809155
:102660000209909103092FBF08951F920F920FB690
:102670000F9211242F933F938F939F93AF93BF9308
:102680008091000990910109A0910209B09103097C
:102690003091FF0823E0230F2D3720F40196A11D70
:1026A000B11D05C026E8230F0296A11DB11D209380
:1026B000FF088093000990930109A0930209B09349
:1026C00003098091040990910509A0910609B09130
:1026D00007090196A11DB11D809304099093050976
:1026E000A0930609B0930709BF91AF919F918F9175
:1026F0003F912F910F900FBE0F901F901895EF9262
:10270000FF920F931F93CF93DF93CDB7DEB7279739
:102710000FB6F894DEBF0FBECDBF7C01CB014AE0FF
:102720008E010F5F1F4FB8010E94511DF8010190EB
:102730000020E9F73197AF01401B510BB801C701E9
:102740000E943A1127960FB6F894DEBF0FBECDBF98
:10275000DF91CF911F910F91FF90EF900895CF934C
:10276000DF931F921F92CDB7DEB769831A8241E0D3
:1027700050E0BE016F5F7F4F0E943A110F900F90A3
:10278000DF91CF910895CF92DF92EF92FF92CF9396
:10279000DF93EC017B016A0166E075E00E94220B89
:1027A000F701448155816081718188E196E00E9442
:1027B000D30A0E9429130D2C000CEE08FF08C60E48
:1027C000D71EE81EF91E0E9429136C157D058E0583
:1027D0009F0578F488E196E00E94BC0B892B99F361
:1027E00088E196E00E949A0B682FCE010E94AF13F9
:1027F000F1CFEC80FD80E114F10469F0C880D9804C
:102800006AE270E0C6010E942A20009721F09C0134
:102810002C193D0902C02FEF3FEF30930909209397
:102820000809C90101968E159F0550F44881598108
:102830004115510529F0FA01E80FF91F808101C007
:1028400080E08093FC082E5F3F4F2E153F0548F433
:1028500088819981009729F0FC01E20FF31F8081A4
:1028600001C080E08093FD0868817981A70182E53D
:1028700097E00E94D30ACE01DF91CF91FF90EF90B5
:10288000DF90CF9008956115710551F0FB01019023
:102890000020E9F73197AF01461B570B0C943A1112
:1028A00080E00895FB0144815581608171810C9421
:1028B0003A11EF92FF920F931F93CF93DF93EC01A6
:1028C0007B018A01BA010E9413112881398181118B
:1028D0000DC02115310519F0C9010E949B1E1982F6
:1028E00018821D821C821B821A8206C01D830C83E3
:1028F000B701C9010E943E20CE01DF91CF911F9107
:102900000F91FF90EF900895CF93DF93EC01611545
:10291000710559F0FB0101900020E9F73197AF01F3
:10292000461B570B0E9459140CC08881998100974F
:1029300011F00E949B1E198218821D821C821B822C
:102940001A82CE01DF91CF910895FC01808191819F
:102950000C949B1E10921B0610921A0688EE93E0B0
:10296000A0E0B0E080931C0690931D06A0931E0685
:10297000B0931F062AE032E0309319062093180620
:1029800045ED50E0509325064093240644ED50E079
:10299000509327064093260640ED50E050932906B9
:1029A0004093280641ED50E050932B0640932A06B1
:1029B00042ED50E050932D0640932C0646ED50E03A
:1029C00050932F0640932E06109231061092320635
:1029D00010923306109234061092B8061092B70681
:1029E0008093B9069093BA06A093BB06B093BC0639
:1029F0003093B6062093B5064DEC50E05093C206D6
:102A00004093C1064CEC50E05093C4064093C3067B
:102A100048EC50E05093C6064093C50649EC50E0A0
:102A20005093C8064093C7064AEC50E05093CA063C
:102A30004093C9064EEC50E05093CC064093CB0631
:102A40001092CE061092CF061092D0061092D106A8
:102A5000109255071092540780935607909357078A
:102A6000A0935807B0935907309353072093520708
:102A700025EC30E030935F0720935E0724EC30E0D4
:102A8000309361072093600720EC30E030936307B8
:102A90002093620721EC30E03093650720936407B0
:102AA00022EC30E0309367072093660726EC30E095
:102AB000309369072093680710926B0710926C0798
:102AC00010926D0710926E071092F4071092FA0799
:102AD0001092F9078093FB079093FC07A093FD07E2
:102AE000B093FE078CE192E09093F8078093F7078C
:102AF00010929D088BEE90E09093A1088093A0081F
:102B000081E090E090939F0880939E0880919308C5
:102B10008033A0F491E0980F9093930880939A08E3
:102B200090E0FC01EE0FFF1F8E0F9F1FFC01ED5F79
:102B3000F74F88EB9BE09283818303C08FEF8093F4
:102B40009A0866E075E084E998E00C94220BCF9334
:102B5000DF93CDB7DEB7A4970FB6F894DEBF0FBEF4
:102B6000CDBF789484B5826084BD84B5816084BD16
:102B700085B5826085BD85B5816085BD80916E001B
:102B8000816080936E00109281008091810082604C
:102B90008093810080918100816080938100809189
:102BA00080008160809380008091B1008460809378
:102BB000B1008091B00081608093B000809191005D
:102BC0008260809391008091910081608093910058
:102BD000809190008160809390008091A10082603C
:102BE0008093A1008091A10081608093A1008091D9
:102BF000A00081608093A000809121018260809379
:102C00002101809121018160809321018091200127
:102C100081608093200180917A00846080937A00A3
:102C200080917A00826080937A0080917A0081603E
:102C300080937A0080917A00806880937A00109265
:102C4000C1001092F30784E390E09093F007809323
:102C5000EF070E94341240E052EC61E070E082E540
:102C600097E00E94960640E855E260E070E085EB50
:102C700096E00E94960680919A08803308F051C031
:102C800087E00E94341280919A08E82FF0E09F01BB
:102C9000220F331FE20FF31FED5FF74F9081907CFF
:102CA0009760908310929B0810929C086CE00E94A1
:102CB000DE1D2CE0829FB001112440E050E09A011B
:102CC000260F371FF901EE0FFF1F2E0F3F1FF901CF
:102CD000ED5FF74F908196FD17C04F5F5F4F4C300F
:102CE000510569F7813009F0ACC61092800082E08E
:102CF000809381001092850010928400B19A809197
:102D00006F00826080936F00E0919A08F0E0CF013D
:102D1000880F991FE80FF91FED5FF74F80818064DE
:102D200080830E940E0A8823D9F081E194E00E94FA
:102D30000F0785E590E00E94931168EC70E080E059
:102D400090E00E94EF120E94A1020E941D0763EF13
:102D500072E08FE096E00E943520892B31F40CC0A0
:102D60008EE194E00E940F07FFCF8BE494E00E9475
:102D700028070E94A102F9CF8FE090E00E942A0765
:102D80006CE271E080E090E00E94EF120E941D076B
:102D900068EE73E080E090E00E94EF1281E090E046
:102DA0000E9452050E941E080E9427058AE090E0BA
:102DB0000E942A076CE271E080E090E00E94EF122E
:102DC0000E941D0764EF71E080E090E00E94EF1226
:102DD0000E94A0018091A6089091A7089C01215013
:102DE0003109273C3105A0F42091A4083091A508B1
:102DF0002D5231402B3B324058F42091A2083091A3
:102E0000A308295C31092B32314010F487E632C027
:102E10009C012F51310925343105A0F42091A408DB
:102E20003091A5082F5131092534310558F42091EE
:102E3000A2083091A3082F5131092534310510F42F
:102E400082E618C0895C9109873E934090F4809196
:102E5000A4089091A508C3978B32914050F48091BB
:102E6000A2089091A308C3978B32914010F482E797
:102E700001C085E78093AA0868EE73E080E090E0E7
:102E80000E94EF128AE090E00E94A40768EC70E0D4
:102E900080E090E00E94EF120E941D070E940D0347
:102EA00081E090E00E94520581E090E00E9452058E
:102EB0000E9427058AE090E00E942A076CE271E0F8
:102EC00080E090E00E94EF120E941D0764EF71E025
:102ED00080E090E00E94EF120E94A0018091A6087D
:102EE0009091A7089C0121503109273C3105A0F49D
:102EF0002091A4083091A5082D5231402B3B32403F
:102F000058F42091A2083091A308295C31092B3292
:102F1000314010F487E632C09C012F51310925342D
:102F20003105A0F42091A4083091A5082F51310952
:102F30002534310558F42091A2083091A3082F516F
:102F400031092534310510F482E618C0895C9109F5
:102F5000873E934090F48091A4089091A508C39770
:102F60008B32914050F48091A2089091A308C397AE
:102F70008B32914010F482E701C085E78093AB0863
:102F800068EE73E080E090E00E94EF128AE090E04B
:102F90000E94A40768EC70E080E090E00E94EF12CD
:102FA0000E941D070E940D0381E090E00E945205DF
:102FB00081E090E00E9452050E9427058AE090E09F
:102FC0000E942A076CE271E080E090E00E94EF121C
:102FD0000E941D0764EF71E080E090E00E94EF1214
:102FE0000E94A0018091A6089091A7089C01215001
:102FF0003109273C3105A0F42091A4083091A5089F
:103000002D5231402B3B324058F42091A208309190
:10301000A308295C31092B32314010F487E632C015
:103020009C012F51310925343105A0F42091A408C9
:103030003091A5082F5131092534310558F42091DC
:10304000A2083091A3082F5131092534310510F41D
:1030500082E618C0895C9109873E934090F4809184
:10306000A4089091A508C3978B32914050F48091A9
:10307000A2089091A308C3978B32914010F482E785
:1030800001C085E78093AC0868EE73E080E090E0D3
:103090000E94EF128AE090E00E94A40768EC70E0C2
:1030A00080E090E00E94EF120E941D070E940D0335
:1030B00081E090E00E94520581E090E00E9452057C
:1030C0000E9427058AE090E00E942A076CE271E0E6
:1030D00080E090E00E94EF120E941D0764EF71E013
:1030E00080E090E00E94EF120E94A0018091A6086B
:1030F0009091A7089C0121503109273C3105A0F48B
:103100002091A4083091A5082D5231402B3B32402C
:1031100058F42091A2083091A308295C31092B3280
:10312000314010F487E632C09C012F51310925341B
:103130003105A0F42091A4083091A5082F51310940
:103140002534310558F42091A2083091A3082F515D
:1031500031092534310510F482E618C0895C9109E3
:10316000873E934090F48091A4089091A508C3975E
:103170008B32914050F48091A2089091A308C3979C
:103180008B32914010F482E701C085E78093AD084F
:1031900068EE73E080E090E00E94EF128AE090E039
:1031A0000E94A40768EC70E080E090E00E94EF12BB
:1031B0000E941D070E940D030E941E0883E090E0FC
:1031C0000E9452050E941D0764EF71E080E090E0CC
:1031D0000E94EF120E9429136B017C010E942913A7
:1031E000DC01CB018C199D09AE09BF09893B9B40CD
:1031F000A105B10518F40E948903F0CF0E941D07B4
:1032000068EC70E080E090E00E94EF120E940D03F5
:103210000E941D0740E855E260E070E088E196E01A
:103220000E94960688E196E00E94BC0B892B09F06B
:103230003EC262E674E0CE014F960E94220B67E820
:1032400074E0CE0149960E94220B6091AA08CE013B
:1032500049960E94AF136DE874E0CE0143960E9438
:10326000220B6D8D7E8DCE0143960E947F1362E00E
:1032700075E0CE0143960E944314BE01675E7F4F06
:10328000CE0143960E94521462E075E0CE0143964F
:103290000E94431467E075E0CE010D960E94220B58
:1032A0006F89788DCE010D960E947F1364E075E0E2
:1032B000CE010D960E944314BE01615E7F4FCE0188
:1032C00001960E94FE0A44E650E0BE016F5F7F4F08
:1032D000CE0107960E94C313CE0107960E94A51443
:1032E000CE0101960E94A514BE01635F7F4FCE01FF
:1032F00001960E94FE0A44E650E0BE016F5F7F4FD8
:10330000CE0107960E94C313CE0107960E94A51412
:10331000CE0101960E94A514BE016D5E7F4FCE01C5
:1033200001960E94FE0A48EE53E0BE016F5F7F4F98
:10333000CE0107960E94C313CE0107960E94A514E2
:10334000CE0101960E94A51462E674E0CE014F966C
:103350000E94841463E175E0CE0149960E948414B2
:103360006091AB08CE0149960E94AF136DE874E0FE
:10337000CE0143960E9484146D8D7E8DCE014396BE
:103380000E947F1362E075E0CE0143960E944314D1
:10339000BE01675E7F4FCE0143960E94521462E0E9
:1033A00075E0CE0143960E94431467E075E0CE01BC
:1033B0000D960E9484146F89788DCE010D960E941F
:1033C0007F1364E075E0CE010D960E944314BE01A8
:1033D000615E7F4FCE0101960E94FE0A44E650E0F6
:1033E000BE016F5F7F4FCE0107960E94C313CE01CF
:1033F00007960E94A514CE0101960E94A514BE0155
:10340000635F7F4FCE0101960E94FE0A44E650E0C2
:10341000BE016F5F7F4FCE0107960E94C313CE019E
:1034200007960E94A514CE0101960E94A514BE0124
:103430006D5E7F4FCE0101960E94FE0A48EE53E07A
:10344000BE016F5F7F4FCE0107960E94C313CE016E
:1034500007960E94A514CE0101960E94A51462E66B
:1034600074E0CE014F960E94841469E175E0CE01AC
:1034700049960E9484146091AC08CE0149960E943E
:10348000AF136DE874E0CE0143960E9484146D8DF5
:103490007E8DCE0143960E947F1362E075E0CE01DF
:1034A00043960E944314BE01675E7F4FCE01439650
:1034B0000E94521462E075E0CE0143960E944314CC
:1034C00067E075E0CE010D960E9484146F89788DB7
:1034D000CE010D960E947F1364E075E0CE010D963B
:1034E0000E944314BE01615E7F4FCE0101960E948F
:1034F000FE0A44E650E0BE016F5F7F4FCE010796A3
:103500000E94C313CE0107960E94A514CE01019616
:103510000E94A514BE01635F7F4FCE0101960E94F9
:10352000FE0A44E650E0BE016F5F7F4FCE01079672
:103530000E94C313CE0107960E94A514CE010196E6
:103540000E94A514BE016D5E7F4FCE0101960E94C0
:10355000FE0A48EE53E0BE016F5F7F4FCE01079633
:103560000E94C313CE0107960E94A514CE010196B6
:103570000E94A51462E674E0CE014F960E94841466
:103580006FE175E0CE0149960E9484146091AD0808
:10359000CE0149960E94AF136DE874E0CE014396C8
:1035A0000E9484146D8D7E8DCE0143960E947F1300
:1035B00062E075E0CE0143960E944314BE01675E4F
:1035C0007F4FCE0143960E94521462E075E0CE0117
:1035D00043960E94431467E075E0CE010D960E9469
:1035E00084146F89788DCE010D960E947F1364E05C
:1035F00075E0CE010D960E944314BE01615E7F4FBF
:10360000CE0101960E94FE0A44E650E0BE016F5FC3
:103610007F4FCE0107960E94C313CE0107960E94EA
:10362000A514CE0101960E94A514BE01635F7F4FD1
:10363000CE0101960E94FE0A44E650E0BE016F5F93
:103640007F4FCE0107960E94C313CE0107960E94BA
:10365000A514CE0101960E94A514BE016D5E7F4F98
:10366000CE0101960E94FE0A48EE53E0BE016F5F54
:103670007F4FCE0107960E94C313CE0107960E948A
:10368000A514CE0101960E94A5140E941712CE0126
:103690000D960E94A514CE0143960E94A514CE015A
:1036A00049960E94A514CE014F960E94A51401E0F0
:1036B00010E08091AF089091B008019709F4B8C06C
:1036C00085E295E00E940F0740E855E260E070E077
:1036D00088E196E00E94960688E196E00E94BC0B85
:1036E000892B39F762E674E0CE014F960E94220BD7
:1036F00067E475E0CE0149960E94220B6DE874E004
:10370000CE0143960E94220B6D8D7E8DCE01439695
:103710000E947F1362E075E0CE0143960E9443143D
:10372000BE01675E7F4FCE0143960E94521462E055
:1037300075E0CE0143960E94431467E075E0CE0128
:103740000D960E94220B6F89788DCE010D960E94F6
:103750007F1364E075E0CE010D960E944314BE0114
:10376000615E7F4FCE0101960E94FE0A44E650E062
:10377000BE016F5F7F4FCE0107960E94C313CE013B
:1037800007960E94A514CE0101960E94A514BE01C1
:10379000635F7F4FCE0101960E94FE0A44E650E02F
:1037A000BE016F5F7F4FCE0107960E94C313CE010B
:1037B00007960E94A514CE0101960E94A514BE0191
:1037C0006D5E7F4FCE0101960E94FE0A48EE53E0E7
:1037D000BE016F5F7F4FCE0107960E94C313CE01DB
:1037E00007960E94A514CE0101960E94A5140E947E
:1037F00017128091FC088F7E823649F48091FD0873
:103800008F7E823621F41093B0080093AF08CE016A
:103810000D960E94A514CE0143960E94A514CE01D8
:1038200049960E94A514CE014F960E94A51441CF3F
:103830009091FC088091AA08981331C00E94270536
:103840000E947E0168EE73E080E090E00E94EF123B
:103850008091A8089091A90801969093A908809357
:10386000A8080E940D0381E090E00E9452050E948A
:103870001E080E9427050E94CC1068EE73E080E0CD
:1038800090E00E94EF120E940D0381E090E00E9400
:10389000520581E090E00E9452050E94F704909149
:1038A000FC088091AB08981333C00E941E0881E089
:1038B00090E00E9452050E9427050E947E0168EE5A
:1038C00073E080E090E00E94EF128091A808909150
:1038D000A90801969093A9088093A8080E940D0357
:1038E0000E9427050E9427050E94CC1068EE73E015
:1038F00080E090E00E94EF120E940D0381E090E0D2
:103900000E94520581E090E00E9452050E94F70457
:103910009091FC088091AC08981337C00E941E0853
:1039200082E090E00E9452050E9427050E947E01DD
:1039300068EE73E080E090E00E94EF128091A808AA
:103940009091A90801969093A9088093A8080E94D5
:103950000D030E941E0881E090E00E9452050E9423
:1039600027050E94CC1068EE73E080E090E00E9492
:10397000EF120E940D0381E090E00E94520581E069
:1039800090E00E9452050E94F7049091FC088091FB
:10399000AD08981353C00E941E0883E090E00E9477
:1039A00052050E9427050E941D0768EC70E080E028
:1039B00090E00E94EF1284E190E00E942A0768ECF8
:1039C00070E080E090E00E94EF120E941D0768EC1A
:1039D00070E080E090E00E94EF120E9427050E94B4
:1039E0007E0168EE73E080E090E00E94EF1280912B
:1039F000A8089091A90801969093A9088093A80817
:103A00000E940D030E941E0882E090E00E94520571
:103A10000E9427050E94CC1068EE73E080E090E0E1
:103A20000E94EF120E940D0381E090E00E94520577
:103A300081E090E00E9452050E94F7040E94DC0B96
:103A4000FDCF823061F4109290008093910010922B
:103A500095001092940088BB8093710055C9833003
:103A600069F41092A00082E08093A1001092A5005A
:103A70001092A40089BB8093720046C9811144C989
:103A80001092200182E08093210110922501109272
:103A900024018ABB8093730037C984E998E00C94B1
:103AA000A514BB27FB015527AA27880F991FAA1F1A
:103AB000A41710F0A41B83955051B9F7A05DAA3349
:103AC00008F0A95DA193009779F7B111B193119214
:103AD000CB010C946B1DDC01FC01672F71917723E6
:103AE000E1F7329704C07C916D9370836291AE17B9
:103AF000BF07C8F30895052E97FB1EF400940E949B
:103B0000921D57FD07D00E94AD1D07FC03D04EF457
:103B10000C94921D50954095309521953F4F4F4FF5
:103B20005F4F089590958095709561957F4F8F4F69
:103B30009F4F08950E94CF1DA59F900DB49F900D9B
:103B4000A49F800D911D11240895B7FF0C949A1D18
:103B50000E949A1D821B930B0895A1E21A2EAA1BA4
:103B6000BB1BFD010DC0AA1FBB1FEE1FFF1FA2172D
:103B7000B307E407F50720F0A21BB30BE40BF50B2A
:103B8000661F771F881F991F1A9469F760957095B3
:103B9000809590959B01AC01BD01CF010895A29F36
:103BA000B001B39FC001A39F700D811D1124911D11
:103BB000B29F700D811D1124911D0895991B79E00C
:103BC00004C0991F961708F0961B881F7A95C9F7AD
:103BD00080950895AA1BBB1B51E107C0AA1FBB1FFC
:103BE000A617B70710F0A61BB70B881F991F5A9589
:103BF000A9F780959095BC01CD010895EE0FFF1FA8
:103C0000881F8BBF0790F691E02D1994CF93DF9317
:103C10008230910510F482E090E0E0910C09F0917F
:103C20000D0920E030E0C0E0D0E0309711F1408194
:103C3000518148175907C0F04817590761F482812C
:103C40009381209719F09B838A832BC090930D0951
:103C500080930C0926C02115310519F0421753072E
:103C600018F49A01BE01DF01EF010280F381E02D1B
:103C7000DCCF2115310509F1281B390B2430310522
:103C800090F412968D919C9113976115710521F016
:103C9000FB019383828304C090930D0980930C09E8
:103CA000FD01329644C0FD01E20FF31F8193919311
:103CB000225031092D933C933AC020910A0930914A
:103CC0000B09232B41F4209102023091030230931F
:103CD0000B0920930A09209100023091010221155D
:103CE000310541F42DB73EB74091040250910502D1
:103CF000241B350BE0910A09F0910B09E217F30739
:103D0000A0F42E1B3F0B2817390778F0AC014E5F4B
:103D10005F4F2417350748F04E0F5F1F50930B0974
:103D200040930A098193919302C0E0E0F0E0CF0153
:103D3000DF91CF9108950F931F93CF93DF93009757
:103D400009F48CC0FC0132971382128200910C0995
:103D500010910D090115110581F420813181820F27
:103D6000931F20910A0930910B092817390779F51B
:103D7000F0930B09E0930A0971C0D80140E050E0CC
:103D8000AE17BF0750F412962D913C911397AD01D9
:103D90002115310509F1D901F3CF9D01DA013383F2
:103DA000228360817181860F971F8217930769F4C0
:103DB000EC0128813981260F371F2E5F3F4F318359
:103DC00020838A819B8193838283452B29F4F093FE
:103DD0000D09E0930C0942C01396FC93EE931297E1
:103DE000ED01499159919E01240F351FE217F30708
:103DF00071F480819181840F951F029611969C9396
:103E00008E938281938113969C938E931297E0E018
:103E1000F0E0D80112968D919C911397009719F0BC
:103E2000F8018C01F6CF8D919C9198012E5F3F4F48
:103E3000820F931F20910A0930910B092817390727
:103E400069F4309729F410920D0910920C0902C000
:103E50001382128210930B0900930A09DF91CF910C
:103E60001F910F9108956F927F928F929F92AF92C0
:103E7000BF92CF92DF92EF92FF920F931F93CF9357
:103E8000DF93EC01009789F4CB01DF91CF911F9173
:103E90000F91FF90EF90DF90CF90BF90AF909F90E9
:103EA0008F907F906F900C94061EFC01E60FF71F19
:103EB0009C0122503109E217F30708F4ACC0D90184
:103EC0000D911C91119706171707B0F005301105D9
:103ED00008F49FC0C80104978617970708F499C093
:103EE00002501109061B170B019311936D937C93DC
:103EF000CF010E949B1E8DC05B01A01AB10A4C012C
:103F0000800E911EA0910C09B0910D0940E050E087
:103F1000E12CF12C109709F44AC0A815B905D1F588
:103F20006D907C901197630182E0C80ED11CCA1479
:103F3000DB0480F1A3014A195B096A0182E0C80E23
:103F4000D11C1296BC9012971396AC91B5E0CB168B
:103F5000D10440F0B282A38351834083D9016D9391
:103F60007C930AC00E5F1F4FC301800F911FF901A0
:103F700091838083EB2DFA2FE114F10431F0D70106
:103F80001396FC93EE93129744C0F0930D09E093BF
:103F90000C093FC08D919C9111974817590708F45F
:103FA000AC017D0112960D90BC91A02DB3CF8091F4
:103FB0000A0990910B0988159905E1F446175707EE
:103FC000C8F48091000290910102009741F48DB7EE
:103FD0009EB74091040250910502841B950BE8178F
:103FE000F907C8F4F0930B09E0930A09F90171830A
:103FF00060830FC0CB010E94061E7C01009759F020
:10400000A801BE010E942120CE010E949B1EC70173
:1040100004C0CE0102C080E090E0DF91CF911F91FB
:104020000F91FF90EF90DF90CF90BF90AF909F9057
:104030008F907F906F90089581E090E0F8940C94B9
:104040004520FB01DC0102C001900D92415050401F
:10405000D8F70895FC018191861721F08823D9F7BC
:10406000992708953197CF010895FB01DC018D91C7
:10407000019080190110D9F3990B0895FB01DC011F
:1040800001900D920020E1F7089511E0CAE4D1E01B
:1040900000E006C0802FFE010E94FE1D2196011D3A
:0E40A000CB34D10780E00807A9F7F894FFCFD2
:1040AE0000000E09800000000000790ED30A8B0B71
:1040BE00C00EBC0B9A0BAE0B000000009B0C6B0CE1
:1040CE00CB0C3F0C630C4F0C400C5265643A200035
:1040DE0020202020477265656E3A20002020202087
:1040EE00426C75653A2000444F494E4720412031BD
:1040FE003830003130303030303030003131303007
:10410E0030303030003131313030303030003030FE
:10411E0030313130303000303030303130303000EE
:10412E00303030313030303000537472616967682E
:10413E007400303031313030303000303031313188
:10414E0030303000303131303030303000303031BE
:10415E00303030303000436F7272656374696E6751
:10416E00204C6566740030303030303131310030E3
:10417E003030303131313100303030313131313158
:10418E000031313131303030300031313131313078
:10419E003030003131313131313131003031313166
:1041AE003131313100313131313131313000303056
:1041BE00303031313030003030303131313030004C
:1041CE00303030303031313000303030303031300E
:1041DE003000436F7272656374696E67205269674F
:1041EE0068740048454144494E4720464F5220527C
:1041FE0049474854205455524E00303031313131F8
:10420E003131003030303131313130004E4F5420A9
:10421E0054484154205455524E005455524E494E16
:10422E00472052494748540030303030303030311A
:10423E0000303030303030313100496E76616C698B
:10424E006420526576657273652073657269616C60
:10425E002063686172616374657200496E76616C89
:10426E00696420466F72776172642053657269616A
:10427E006C20436861726163746572003131313153
:10428E00313130300030313131313030300048454D
:10429E004144494E4720464F52204C4546542054E7
:1042AE0055524E005455524E494E47204C45465499
:1042BE0000466F756E642073656E736F72004E6F7D
:1042CE0020544353333437323520666F756E642075
:1042DE002E2E2E20636865636B20796F75722063B6
:1042EE006F6E6E656374696F6E7300426567696E9B
:1042FE0020416C69676E696E673A2020202020206D
:10430E00200041542B43495053544152543D2254A2
:10431E004350222C223139322E3136382E312E3264
:10432E00222C38300D0A00706B67313D00504F5310
:10433E0054202F537761726D5365727665722E70AD
:10434E00687020485454502F312E310D0A486F7327
:10435E00743A203139322E3136382E312E320D0A42
:10436E00436F6E74656E742D547970653A2061706A
:10437E00706C69636174696F6E2F782D7777772D06
:10438E00666F726D2D75726C656E636F6465640D0C
:10439E000A436F6E74656E742D4C656E6774683A61
:1043AE0020000D0A0D0A0041542B43495053454E2F
:1043BE00443D00706B67323D00706B67333D00709B
:1043CE006B67343D0047657474696E67204469728B
:1043DE00656374696F6E732066726F6D20536572BC
:0C43EE00766572203A29006573703D006E
:00000001FF
