:100000000C94FE000C9426010C9426010C942601FD
:100010000C9426010C9426010C9426010C942601C4
:100020000C9426010C9426010C9426010C942601B4
:100030000C9426010C9426010C9426010C942601A4
:100040000C94AF040C9426010C941F050C94F90435
:100050000C9426010C9426010C9426010C94260184
:100060000C9426010C9426014E414E494E49545998
:10007000494E46CDCCCC3D0AD7233C17B7D1387773
:10008000CC2B329595E6241FB14F0A000020410089
:1000900000C84200401C4620BCBE4CCA1B0E5AAED3
:1000A000C59D7400407A10F35A00A0724E180900E2
:1000B00010A5D4E80000E87648170000E40B5402CD
:1000C0000000CA9A3B000000E1F505000080969808
:1000D00000000040420F000000A086010000001058
:1000E0002700000000E8030000000064000000009A
:1000F000000A00000000000100000000002C76D87B
:1001000088DC674F0823DFC1DFAE59E1B1B796E560
:10011000E3E453C63AE651997696E8E6C28426EBC4
:10012000898C9B62ED407C6FFCEFBC9C9F40F2BAD7
:10013000A56FA5F490055A2AF75C936B6CF9676D6F
:10014000C11BFCE0E40D47FEF520E6B500D0ED90C4
:100150002E0300943577050080841E080000204E91
:100160000A000000C80C333333330F986E1283112A
:1001700041EF8D2114893BE65516CFFEE6DB18D101
:10018000844B381BF77C1D901DA4BBE424203284D3
:10019000725E228100C9F124ECA1E53D2700000038
:1001A00000240027002A0000000000250028002B62
:1001B00000000000002300260029000404040404B9
:1001C0000404040202020202020303030303030104
:1001D00002040810204080010204081020010204DB
:1001E00008102000000008000201000003040700BE
:1001F00000000000000000005105F20711241FBE9E
:10020000CFEFD8E0DEBFCDBF22E0AEE8B1E001C065
:100210001D92AA34B207E1F711E0A0E0B1E0E6E3F5
:10022000FFE102C005900D92AE38B107D9F710E09A
:10023000CDEFD0E004C02197FE010E94830DCC3F9A
:10024000D107C9F70E9481050C948E0F0C94000011
:100250000895833081F028F4813099F08230A1F044
:1002600008958730A9F08830B9F08430D1F48091B6
:1002700080008F7D03C0809180008F778093800005
:10028000089584B58F7702C084B58F7D84BD0895AD
:100290008091B0008F7703C08091B0008F7D8093F4
:1002A000B0000895CF93DF93282F30E0F901ED518E
:1002B000FE4F8491F901E153FE4FD491F901E554C9
:1002C000FE4FC491CC2391F081110E942901EC2FA3
:1002D000F0E0EE0FFF1FEF54FE4FA591B491EC91AB
:1002E000ED2381E090E021F480E002C080E090E026
:1002F000DF91CF9108951F93CF93DF93282F30E0A4
:10030000F901ED51FE4F8491F901E153FE4FD49173
:10031000F901E554FE4FC491CC23C1F0162F811191
:100320000E942901EC2FF0E0EE0FFF1FE955FE4F70
:10033000A591B4919FB7F894111104C08C91D095F8
:10034000D82302C0EC91DE2BDC939FBFDF91CF91CD
:100350001F910895CF92DF92EF92FF920F931F9318
:10036000CF93DF936C017A018B01C0E0D0E0CE1512
:10037000DF0581F0D8016D918D01D601ED91FC91E1
:100380000190F081E02DC6010995892B11F021968D
:10039000EECF7E01C701DF91CF911F910F91FF90AA
:1003A000EF90DF90CF900895FC01918D828D98178A
:1003B00061F0828DDF01A80FB11D5D968C91928D49
:1003C0009F5F9F73928F90E008958FEF9FEF089546
:1003D0002FB7F89480919D0190919E01A0919F016B
:1003E000B091A0012FBF8093A9019093AA01A0937F
:1003F000AB01B093AC0181EA91E00E94D40197FF78
:1004000026C02FB7F89480919D0190919E01A091F4
:100410009F01B091A0012FBF4091A9015091AA0165
:100420006091AB017091AC01841B950BA60BB70BCF
:100430004091A5015091A6016091A7017091A8017A
:1004400084179507A607B707B0F28FEF9FEF0895BF
:10045000FC01918D828D981731F0828DE80FF11D8E
:10046000858D90E008958FEF9FEF0895FC01918DA9
:10047000228D892F90E0805C9F4F821B91098F73A2
:100480009927089581EA91E00E94360221E0892BA4
:1004900009F420E0822F0895FC01848DDF01A80F6C
:1004A000B11DA35ABF4F2C91848D90E001968F739C
:1004B0009927848FA689B7892C93A089B1898C91BB
:1004C00080648C93938D848D981306C00288F38981
:1004D000E02D80818F7D80830895EF92FF920F93AE
:1004E0001F93CF93DF93EC0181E0888F9B8D8C8DE0
:1004F000981305C0E889F989808185FD24C0F62E0E
:100500000B8D10E00F5F1F4F0F731127E02E8C8DA6
:10051000E8120CC00FB607FCFACFE889F989808190
:1005200085FFF5CFCE010E944C02F1CF8B8DFE01ED
:10053000E80FF11DE35AFF4FF0820B8FEA89FB8928
:100540008081806207C0EE89FF896083E889F9892C
:1005500080818064808381E090E0DF91CF911F9162
:100560000F91FF90EF900895CF93DF93EC01888D6A
:100570008823C9F0EA89FB89808185FD05C0A889A7
:10058000B9898C9186FD0FC00FB607FCF5CF80812D
:1005900085FFF2CFA889B9898C9185FFEDCFCE0177
:1005A0000E944C02E7CFDF91CF91089580E090E068
:1005B000892B29F00E94420281110C9400000895B9
:1005C0008EE00E9452018130910531F490938F01A9
:1005D00080938E0160E005C010928F0110928E0111
:1005E00061E082E00C947B0142E050E066E171E062
:1005F00081EA91E00C94AA01CF93DF93009779F000
:10060000FC0101900020E9F73197AF01481B590B1D
:10061000BC0181EA91E00E94AA01EC0102C0C0E0A5
:10062000D0E00E94F4028C0F9D1FDF91CF910895BE
:100630000F931F93CF93DF938C01EB01FC0180811B
:100640009181009739F06881798161157105A1F474
:100650000E94210E88819981F801918380838A818B
:100660009B81938382838C819D819583848319826E
:1006700018821B821A820FC0F801428153812C819B
:100680003D814217530720F30E94870F8C819D8183
:10069000F801958384831D821C82DF91CF911F9185
:1006A0000F910895FC01808191810C94210E0E948C
:1006B000700F0F931F93CF93DF93EC018881998183
:1006C000009729F02A813B812617370788F48B0190
:1006D0006F5F7F4F0E94AA0E009761F09983888315
:1006E0001B830A832C813D81232B11F4FC01108292
:1006F00081E001C080E0DF91CF911F910F910895BB
:10070000EF92FF920F931F93CF93DF9361157105C3
:1007100011F480E01CC041155105C1F07B01EC01D2
:100720008C819D818A01080F191FB801CE010E949A
:100730005903882371F3288139818C819D81B70108
:10074000820F931F0E94870F1D830C8381E0DF912E
:10075000CF911F910F91FF90EF90089541E050E0ED
:1007600069E171E00C948003EF92FF920F931F9365
:10077000CF93DF93CDB7DEB728970FB6F894DEBFDF
:100780000FBECDBF7C01CB014AE08E010F5F1F4F32
:10079000B8010E941A08F80101900020E9F731978A
:1007A000AF01401B510BB801C7010E94800328967E
:1007B0000FB6F894DEBF0FBECDBFDF91CF911F9172
:1007C0000F91FF90EF900895EF92FF920F931F9378
:1007D000CF93DF93EC017B018A01BA010E94590398
:1007E0002881398181110DC02115310519F0C90108
:1007F0000E94210E198218821D821C821B821A827D
:1008000006C01D830C83B701C9010E94870FCE016A
:10081000DF91CF911F910F91FF90EF900895FC0110
:1008200011821082138212821582148240E050E0FD
:1008300068E171E00C94E4030F931F93CF93DF936F
:1008400000D0CDB7DEB78C010E940F040E94E801F2
:1008500097FD0BC089831A8241E050E0BE016F5FB3
:100860007F4FC8010E948003F1CFC8010F900F9005
:10087000DF91CF911F910F910895CF93DF93EC01FA
:100880006115710559F0FB0101900020E9F73197DE
:10089000AF01461B570B0E94E4030CC0888199816D
:1008A000009711F00E94210E198218821D821C826D
:1008B0001B821A82CE01DF91CF910895AF92BF9231
:1008C000DF92EF92FF920F931F93CF93DF93EC0190
:1008D0007B018B015C0184E0A80EB11CF801D19072
:1008E0008F01CE010E94170DD81621F06D2DCE017B
:1008F0000E941F0D2196CA15DB0581F7C701DF9104
:10090000CF911F910F91FF90EF90DF90BF90AF902C
:100910000895CF92DF92EF92FF920F931F93CF93A0
:10092000DF93EB017B0124E0E20EF11C8B016C01F3
:10093000C61AD70AC601800F911F0E94170DF80131
:1009400081938F01EE15FF05A9F7CE01DF91CF91BD
:100950001F910F91FF90EF90DF90CF9008951F921D
:100960000F920FB60F9211242F933F938F939F9363
:10097000AF93BF9380919D0190919E01A0919F01A3
:10098000B091A00130919C0123E0230F2D3720F47A
:100990000196A11DB11D05C026E8230F0296A11DD9
:1009A000B11D20939C0180939D0190939E01A09383
:1009B0009F01B093A0018091980190919901A0911D
:1009C0009A01B0919B010196A11DB11D80939801E0
:1009D00090939901A0939A01B0939B01BF91AF911D
:1009E0009F918F913F912F910F900FBE0F901F906D
:1009F00018951F920F920FB60F9211242F933F93C9
:100A00004F935F936F937F938F939F93AF93BF9316
:100A1000EF93FF9381EA91E00E944C02FF91EF91E6
:100A2000BF91AF919F918F917F916F915F914F9106
:100A30003F912F910F900FBE0F901F9018951F920E
:100A40000F920FB60F9211242F938F939F93EF93D2
:100A5000FF93E091B101F091B2018081E091B70183
:100A6000F091B80182FD12C090818091BA018F5F30
:100A70008F732091BB01821751F0E091BA01F0E031
:100A8000EF55FE4F958F8093BA0101C08081FF9191
:100A9000EF919F918F912F910F900FBE0F901F900C
:100AA0001895E1EAF1E01382128288EE93E0A0E06B
:100AB000B0E084839583A683B7838AE091E0918335
:100AC000808385EC90E09587848784EC90E097871D
:100AD000868780EC90E0918B808B81EC90E0938B0B
:100AE000828B82EC90E0958B848B86EC90E0978BE8
:100AF000868B118E128E138E148E8EE392E00C94E0
:100B00000F04CF93DF93CDB7DEB7AD970FB6F89450
:100B1000DEBF0FBECDBF789484B5826084BD84B53E
:100B2000816084BD85B5826085BD85B5816085BDE8
:100B300080916E00816080936E00109281008091A0
:100B40008100826080938100809181008160809328
:100B50008100809180008160809380008091B1004D
:100B600084608093B1008091B00081608093B00078
:100B700080917A00846080937A0080917A0082600C
:100B800080937A0080917A00816080937A008091CE
:100B90007A00806880937A001092C100E091B101E0
:100BA000F091B20182E08083E091AD01F091AE015D
:100BB0001082E091AF01F091B0018FEC8083109230
:100BC000B901E091B501F091B60186E08083E09132
:100BD000B301F091B401808180618083E091B30121
:100BE000F091B401808188608083E091B301F0913D
:100BF000B401808180688083E091B301F091B401F9
:100C000080818F7D8083E1EDF1E02491EDEBF1E0D7
:100C10008491882399F090E0880F991FFC01E35696
:100C2000FE4FA591B491FC01E955FE4F8591949139
:100C30008FB7F894EC91E22BEC938FBFEDEDF1E0E0
:100C40002491E9ECF1E084918823C9F090E0880FC9
:100C5000991FFC01E356FE4F45915491FC01E95563
:100C6000FE4FA591B4919FB7F894FA018081322F7D
:100C7000309583238083EC91E22BEC939FBF8EE031
:100C80000E94520164E971E080E090E00E948904D2
:100C900060E971E085E090E00E94890420E030E0A6
:100CA00044E353E460919401709195018091960121
:100CB000909197010E947E0D181644F410929401B1
:100CC00010929501109296011092970120E030E069
:100CD00044E353E4609190017091910180919201FD
:100CE000909193010E947E0D181644F41092900189
:100CF0001092910110929201109293010E94E002D1
:100D00000E94E002CE0188960E940F0460E777E11E
:100D1000CE0188960E94B403CE0188960E94AE034D
:100D20006091940170919501809196019091970145
:100D30001BA21AA21DA21CA21FA21EA28E010F5F3F
:100D40001F4F26E048E00E94F607BC01CE018296C4
:100D50000E943D044EA15FA16AA17BA1CE018896AD
:100D60000E948003CE0182960E945203CE01889693
:100D70000E94AE0360919001709191018091920167
:100D8000909193011BA21AA21DA21CA21FA21EA237
:100D900026E048E00E94F607BC01CE0182960E9440
:100DA0003D044EA15FA16AA17BA1CE0188960E945D
:100DB0008003CE0182960E945203CE0188960E9443
:100DC000AE0360918E0170918F01CE0188960E94D2
:100DD000B4034CA55DA568A579A581EA91E00E94C0
:100DE000AA010E94F402CE0188960E94520381EA71
:100DF00091E00E943602181619060CF0F0C0CE01E0
:100E000088960E940F0481EA91E00E943602892BA5
:100E100081F081EA91E00E94D40189831A8241E045
:100E200050E0BE016F5F7F4FCE0188960E94800325
:100E3000EACF8CA59DA5892B09F464C06BE171E014
:100E400088A599A50E947E0F892B09F05BC0CE0171
:100E500082960E940F048FE191E00E94FC0281EAD9
:100E600091E00E943602892BD1F3CE0101960E94B7
:100E70001C04BE016F5F7F4FCE0182960E94180353
:100E8000CE0101960E9452038AA19BA1009749F4CA
:100E900088E191E00E94FC0289E391E00E94FC025B
:100EA0002DC00E9416086B017C0120E030E044E375
:100EB00053EC0E94F00B87FDEBCF20E030E044E3E1
:100EC00053E4C701B6010E947E0D18160CF320E012
:100ED00030E0A901C701B6010E94F00B8823C1F2DE
:100EE000C0929401D0929501E0929601F092970100
:100EF00064E971E080E090E00E945E04CE01829699
:100F00000E9452038CA59DA5892B09F464C06EE64E
:100F100071E088A599A50E947E0F892B09F05BC01E
:100F2000CE0182960E940F0482E791E00E94FC02AB
:100F300081EA91E00E943602892BD1F3CE0101961D
:100F40000E941C04BE016F5F7F4FCE0182960E94FB
:100F50001803CE0101960E9452038AA19BA100971B
:100F600049F488E191E00E94FC0289E391E00E944B
:100F7000FC022DC00E9416086B017C0120E030E0CD
:100F800044E353EC0E94F00B87FDEBCF20E030E010
:100F900044E353E4C701B6010E947E0D18160CF31A
:100FA00020E030E0A901C701B6010E94F00B8823C0
:100FB000C1F2C0929001D0929101E0929201F09220
:100FC000930160E971E085E090E00E945E04CE014B
:100FD00082960E945203CE0188960E9452030E947C
:100FE000D6028CCE8EE392E00C945203EF920F93D4
:100FF0001F93CF93DF93E80147FD02C034E001C0A7
:1010000034E1042E000C550B57FF03C05195419558
:101010005109E32E022F242FAE010E943F08CE017A
:10102000DF91CF911F910F91EF9008956627772759
:101030000C949909BB274A3031F4992322F4BDE27C
:10104000909581959F4F0C942608BB27FB0155274F
:10105000AA27880F991FAA1FA41710F0A41B839515
:101060005051B9F7A05DAA3308F0A95DA19300978C
:1010700079F7B111B1931192CB010C94E00BA9E077
:10108000B0E0E5E4F8E00C943E0D6A01122FB02EBA
:101090002BE3201720F0FF24F394F00E02C02CE382
:1010A000F22E0F2D27E0AE014F5F5F4F0E94E70A3F
:1010B000BC014981842F8970813031F0E1FC06C088
:1010C000E0FE06C090E205C09DE203C09BE201C0C5
:1010D00090E05E2D507143FF3CC0911102C083E04F
:1010E00001C084E0811718F4212F281B01C020E0E3
:1010F00051110BC0F601822F30E2882319F0319391
:101100008150FBCFC20ED11C20E0992329F0D601DB
:101110009C93F60131966F01C6010396E2FE0AC068
:101120003EE4D6013C9341E411964C9311971296FC
:101130003C9306C03EE6F601308341E641833283AC
:10114000FC01322F40E2332309F442C04193315075
:10115000FACF42FF44C0911102C083E001C084E095
:10116000811718F4212F281B01C020E051110BC05A
:10117000F601822F30E2882319F031938150FBCFA2
:10118000C20ED11C20E0992329F0D6019C93F601D0
:1011900031966F01C6010396E2FE0BC039E4D60119
:1011A0003C933EE411963C93119736E412963C939F
:1011B00007C039E6F60130833EE6318336E63283F6
:1011C000FC01322F40E2332319F041933150FBCF21
:1011D000FC01E20FF11D10828EEF9FEFA6C021E00F
:1011E00030E0911102C020E030E0161617061CF422
:1011F000FB01319602C0E1E0F0E02E0F3F1FBB2063
:1012000021F0EB2DF0E0319602C0E0E0F0E02E0F8F
:101210003F1FE12FF0E02E173F071CF4121B212F78
:1012200001C020E08E2D887159F4F601822F30E242
:10123000882319F031938150FBCFC20ED11C20E0DE
:10124000992329F0D6019C93F60131966F01511133
:101250000BC0F601822F90E3882319F091938150FF
:10126000FBCFC20ED11C20E00F2D060F9A81342F28
:10127000307144FF03C0913309F40150101624F477
:10128000093018F008E001C001E0AB0177FF02C0AF
:1012900040E050E0FB01E41BF50BA1E0B0E0AC0F37
:1012A000BD1FEA0FFB1F8EE2A82E4B01801A91088A
:1012B0000B2D10E01195019511094F3FBFEF5B0712
:1012C00021F4D601AC9211966D01641775072CF0CC
:1012D0008416950614F4818101C080E341505109C0
:1012E0003196D60111967D014017510724F0D601A1
:1012F0008C936701E2CF6417750739F4963320F4B5
:10130000953319F4311101C081E3F6018083F701AF
:10131000822F90E2882319F091938150FBCFF7013F
:10132000E20FF11D108280E090E02996ECE00C9431
:101330005A0DA0E0B0E0EFE9F9E00C943E0DEC01AD
:101340006B016115710519F0FB01918380837E01AA
:10135000FFEFEF1AFF0A0881802F90E00E94BF0B79
:10136000892B11F0E701F3CF0D3239F47E0182E0D1
:10137000E80EF11C098111E008C00B3229F47E014E
:1013800092E0E90EF11C098110E0E701219743E0AA
:1013900050E060E770E0CE010E94C80B892BC1F4D9
:1013A000239645E050E06BE670E0CE010E94C80B4A
:1013B000892B09F42596C114D10419F0F601D183C3
:1013C000C0831111F6C060E070E080E89FE7FAC0CA
:1013D00043E050E068E670E0CE010E94C80B892B24
:1013E00059F4C114D10409F4E9C0F2E0EF0EF11C84
:1013F000F601F182E082E2C020E030E0A901C0E025
:10140000D0E0F70180EDA82EA00E89E08A1530F11A
:10141000912F9260B92E812F887012FF04C0811124
:1014200024C0219622C081112197A5E0B0E00E943E
:101430002D0DDC01CB01880F991FAA1FBB1F9C013A
:10144000AD012A0D311D411D511D283989E938078B
:10145000480789E1580748F0166006C09EEFA912B8
:101460000AC013FD40C01860B12E8FEFE81AF80AC9
:1014700000811B2DC6CF802F8F7D8534A1F5808103
:101480008D3211F4106106C08B3221F0319661E08B
:1014900070E004C08181329662E070E080538A304F
:1014A00018F0E61BF70B1FC060E070E060389CE0AE
:1014B00079075CF4DB01AA0FBB1FAA0FBB1F6A0FE1
:1014C0007B1F660F771F680F711D3196DF01119723
:1014D0008C9180538A3050F314FF03C0719561954D
:1014E0007109C60FD71F11FF08C0C114D10429F01C
:1014F000CF010197F60191838083CA01B9010E944F
:10150000F50B212F2370233019F04B015C0106C02D
:101510004B015C01B7FAB094B7F8B09420E030E02A
:10152000A901C501B4010E94F00B882309F43EC053
:10153000D7FF06C0D195C195D10907E810E002C0D8
:101540000FE910E06801F8E1CF1AD10890E2E92E26
:10155000F12CCE15DF0574F0F801259135914591F8
:101560005491C501B4010E94560C4B015C01CE1987
:10157000DF09EFCF04501109F594E7940C151D0510
:1015800041F78A2D880F8B2D881F8F3F49F020E06F
:1015900030E0A901C501B4010E94F00B811106C021
:1015A00082E290E09093450280934402C501B40129
:1015B00009C060E070E080E89FEF04C060E070E088
:1015C00080EC9FE7CDB7DEB7ECE00C945A0D2830E5
:1015D00008F027E03327DA01990F311D87FD91606C
:1015E00000966105710539F432602E5F3D9330E35A
:1015F0002A95E1F708959F3F30F080387105610525
:1016000009F03C5F3C5F3D93913008F08068911D8C
:10161000DF93CF931F930F93FF92EF92192F987F31
:101620009695E92F96959695E90FFF27E350FF4F82
:1016300099273327EE24FF24A701E701059008949A
:10164000079428F4360FE71EF81E491F511D660F38
:10165000771F881F991F0694A1F70590079428F417
:10166000E70EF81E491F561FC11D770F881F991FCF
:10167000661F0694A1F70590079428F4F80E491FF9
:10168000561FC71FD11D880F991F661F771F06940D
:10169000A1F70590079420F4490F561FC71FD81FC4
:1016A000990F661F771F881F0694A9F784911095DC
:1016B000177041F0D695C79557954795F794E794DD
:1016C0001A95C1F7E3EAF0E0689415901591359109
:1016D0006591959105907FE27395E118F10A430BAE
:1016E000560BC90BD009C0F7E10CF11E431F561F62
:1016F000C91FD01D7EF4703311F48A95E6CFE894AB
:10170000015030F0080F0AF40027021708F4202FC8
:101710002395022F7A3328F079E37D932A95E9F710
:1017200010C07D932A9589F606949795679537950D
:1017300017951794E118F10A430B560BC90BD00902
:1017400098F023957E9173957A3308F070E37C933B
:101750002013B8F77E9170617D9330F0839571E32B
:101760007D9370E32A95E1F71124EF90FF900F919C
:101770001F91CF91DF91992787FD90950895911141
:101780000C94C30C803219F089508550C8F7089525
:10179000FB01DC014150504088F08D9181341CF0F8
:1017A0008B350CF4805E659161341CF06B350CF464
:1017B000605E861B611171F3990B0895881BFCCF45
:1017C000DC01FC01672F71917723E1F7329704C0A8
:1017D0007C916D9370836291AE17BF07C8F3089533
:1017E0000E94320C08F481E00895E89409C097FB48
:1017F0003EF490958095709561957F4F8F4F9F4FE8
:101800009923A9F0F92F96E9BB279395F69587952B
:1018100077956795B795F111F8CFFAF4BB0F11F4EE
:1018200060FF1BC06F5F7F4F8F4F9F4F16C0882395
:1018300011F096E911C0772321F09EE8872F762FCB
:1018400005C0662371F096E8862F70E060E02AF00C
:101850009A95660F771F881FDAF7880F96958795F8
:1018600097F90895990F0008550FAA0BE0E8FEEFCD
:1018700016161706E807F907C0F012161306E40754
:10188000F50798F0621B730B840B950B39F40A264D
:1018900061F0232B242B252B21F408950A2609F42B
:1018A000A140A6958FEF811D811D08950E94690CAE
:1018B0000C94DD0C0E94CF0C38F00E94D60C20F066
:1018C000952311F00C94C60C0C94CC0C11240C94A0
:1018D000110D0E94EE0C70F3959FC1F3950F50E02F
:1018E000551F629FF001729FBB27F00DB11D639FD2
:1018F000AA27F00DB11DAA1F649F6627B00DA11D78
:10190000661F829F2227B00DA11D621F739FB00D1D
:10191000A11D621F839FA00D611D221F749F33278D
:10192000A00D611D231F849F600D211D822F762F26
:101930006A2F11249F5750409AF0F1F088234AF003
:10194000EE0FFF1FBB1F661F771F881F915050406F
:10195000A9F79E3F510580F00C94C60C0C94110D14
:101960005F3FE4F3983ED4F3869577956795B795F6
:10197000F795E7959F5FC1F7FE2B880F911D969510
:10198000879597F9089599278827089597F99F676C
:1019900080E870E060E008959FEF80EC08950024F7
:1019A0000A941616170618060906089500240A94C4
:1019B00012161306140605060895092E0394000C4A
:1019C00011F4882352F0BB0F40F4BF2B11F460FFD9
:1019D00004C06F5F7F4F8F4F9F4F089557FD905802
:1019E000440F551F59F05F3F71F04795880F97FBE3
:1019F000991F61F09F3F79F087950895121613069D
:101A00001406551FF2CF4695F1DF08C016161706CB
:101A10001806991FF1CF8695710561050894089500
:101A2000E894BB2766277727CB0197F90895F999A2
:101A3000FECF92BD81BDF89A992780B50895262FD3
:101A4000F999FECF1FBA92BD81BD20BD0FB6F894A3
:101A5000FA9AF99A0FBE019608950E946F0DA59FFC
:101A6000900DB49F900DA49F800D911D1124089599
:101A70002F923F924F925F926F927F928F929F929E
:101A8000AF92BF92CF92DF92EF92FF920F931F938C
:101A9000CF93DF93CDB7DEB7CA1BDB0B0FB6F8943D
:101AA000DEBF0FBECDBF09942A88398848885F847D
:101AB0006E847D848C849B84AA84B984C884DF80EE
:101AC000EE80FD800C811B81AA81B981CE0FD11DD2
:101AD0000FB6F894DEBF0FBECDBFED010895A29FF3
:101AE000B001B39FC001A39F700D811D1124911DF2
:101AF000B29F700D811D1124911D08950E94320C1A
:101B000008F48FEF0895EE0FFF1F0590F491E02D7C
:101B100009940F931F93CF93DF938230910510F4B4
:101B200082E090E0E0914802F091490220E030E04C
:101B3000A0E0B0E0309719F140815181028113811A
:101B400048175907C8F08417950769F4109731F0C2
:101B500012960C93129713961C9327C00093480279
:101B60001093490222C02115310519F0421753077D
:101B700018F49A01BD01EF01DF01F801DBCF211557
:101B80003105F9F0281B390B2430310580F48A81A6
:101B90009B816115710521F0FB019383828304C051
:101BA0009093490280934802FE01329644C0FE01A0
:101BB000E20FF31F819391932250310939832883D7
:101BC0003AC02091460230914702232B41F42091E4
:101BD0000201309103013093470220934602209185
:101BE0000001309101012115310541F42DB73EB7B7
:101BF0004091040150910501241B350BE0914602F0
:101C0000F0914702E217F307A0F42E1B3F0B2817B1
:101C1000390778F0AC014E5F5F4F2417350748F065
:101C20004E0F5F1F5093470240934602819391935A
:101C300002C0E0E0F0E0CF01DF91CF911F910F9162
:101C40000895CF93DF93009709F481C0FC01329788
:101C500013821282A0914802B0914902109781F438
:101C600020813181820F931F2091460230914702DB
:101C70002817390751F5F0934702E093460267C0F1
:101C8000ED0120E030E0CE17DF0740F44A815B81B0
:101C90009E0141155105F1F0EA01F5CFD383C283CE
:101CA00040815181840F951FC817D90759F4888145
:101CB0009981840F951F0296918380838A819B81ED
:101CC000938382832115310529F4F0934902E0932F
:101CD00048023DC0E901FB83EA8349915991C40F51
:101CE000D51FEC17FD0761F480819181840F951F4A
:101CF0000296E90199838883828193819B838A83F9
:101D0000E0E0F0E012968D919C911397009719F006
:101D1000FD01DC01F7CF8D919C9111979D012E5F04
:101D20003F4F820F931F20914602309147022817A0
:101D3000390769F4309729F4109249021092480249
:101D400002C013821282B0934702A0934602DF9131
:101D5000CF910895A0E0B0E0E0EBFEE00C943C0DE4
:101D6000EC01009721F4CB010E94890DB4C0FC0165
:101D7000E60FF71F9C0122503109E217F30708F420
:101D8000A8C0D9010D911C91119706171707B0F043
:101D90000530110508F49BC0C80104978617970702
:101DA00008F495C002501109061B170B01931193FB
:101DB0006D937C93CF010E94210E89C05B01A01A14
:101DC000B10A4C01800E911EA0914802B0914902C7
:101DD000612C712CE12CF12C109709F446C08D91E7
:101DE0009C911197A815B905B1F56C0142E0C40E9C
:101DF000D11CCA14DB0478F14C018A189B086401D9
:101E000042E0C40ED11C1296BC9012971396AC916E
:101E1000B5E0CB16D10440F0B282A38391828082D8
:101E2000D9016D937C9309C00E5F1F4F800F911FE6
:101E3000F90191838083EB2DFA2FE114F10431F045
:101E4000D7011396FC93EE93129741C0F093490289
:101E5000E09348023CC06816790608F43C017D0115
:101E600012960D90BC91A02DB7CF80914602909113
:101E7000470288169906E1F466167706C8F4809141
:101E8000000190910101009741F48DB79EB74091F8
:101E9000040150910501841B950BE817F907C8F45C
:101EA000F0934702E0934602F901718360830FC00B
:101EB000CB010E94890D7C01009759F0A801BE0159
:101EC0000E94750FCE010E94210EC70104C0CE01F1
:101ED00002C080E090E0CDB7DEB7EEE00C94580D84
:101EE00081E090E0F8940C948E0FFB01DC0102C0BD
:101EF00001900D9241505040D8F70895FB01DC014C
:101F00008D91019080190110D9F3990B0895FB016F
:101F1000DC0101900D920020E1F7089510E0CDEF73
:101F2000D0E004C0FE010E94830D2196CE3FD10770
:061F3000C9F7F894FFCF91
:101F360000004A028000000000006D02AA0136027D
:101F4600D4012802B4020D0A002C006C6174005002
:101F56006C6561736520656E746572206E657720A9
:101F66006C6174697475646500506C656173652095
:101F7600656E7465722061206E6F6E2D7A65726F64
:101F8600206E756D626572206265747765656E2078
:101F96002D31383020616E64202B313830006C6F63
:101FA6006E00506C6561736520656E746572206E97
:0E1FB6006577206C6F6E676974756465000056
:00000001FF
