:100000000C9463000C948B000C948B000C94D10323
:100010000C94D1030C94D1030C948B000C948B00A2
:100020000C948B000C948B000C948B000C948B0024
:100030000C948B000C948B000C948B000C948B0014
:100040000C942F030C948B000C949F030C94790355
:100050000C948B000C948B000C948B000C948B00F4
:100060000C948B000C948B000000000024002700EF
:100070002A0000000008000201000003040700003D
:1000800000000000000000000000230026002900FE
:1000900000000000250028002B00040404040404D0
:1000A0000404020202020202030303030303010227
:1000B00004081020408001020408102001020408F6
:1000C00010204B04D90611241FBECFEFD8E0DEBFAD
:1000D000CDBF22E0A8E3B1E001C01D92A534B20774
:1000E000E1F711E0A0E0B1E0E4EEF2E102C005903A
:1000F0000D92A833B107D9F710E0C2E6D0E004C0F2
:100100002197FE010E945407C136D107C9F70E940A
:10011000F6040C9465090C940000833081F028F4F7
:10012000813099F08230A1F008958730A9F08830AD
:10013000B9F08430D1F4809180008F7D03C080912C
:1001400080008F7780938000089584B58F7702C0F8
:1001500084B58F7D84BD08958091B0008F7703C0F2
:100160008091B0008F7D8093B00008951F93CF934E
:10017000DF93282F30E0F901EE58FF4F8491F90109
:10018000E255FF4FD491F901E656FF4FC491CC23BD
:10019000C1F0162F81110E948D00EC2FF0E0EE0FC0
:1001A000FF1FE057FF4FA591B4919FB7F89411112D
:1001B00004C08C91D095D82302C0EC91DE2BDC9347
:1001C0009FBFDF91CF911F910895CF93DF9390E070
:1001D000FC01E255FF4F2491FC01E656FF4F84914C
:1001E000882361F190E0880F991FFC01E859FF4FC7
:1001F000C591D491FC01E057FF4FA591B4916111D5
:1002000009C09FB7F8948881209582238883EC9158
:100210002E230BC0623061F49FB7F8948881322F8F
:10022000309583238883EC912E2B2C939FBF06C09F
:100230008FB7F894E8812E2B28838FBFDF91CF9161
:1002400008953FB7F8948091810190918201A09127
:100250008301B091840126B5A89B05C02F3F19F0FA
:100260000196A11DB11D3FBFBA2FA92F982F882736
:10027000820F911DA11DB11DBC01CD0142E0660F91
:10028000771F881F991F4A95D1F708958F929F92E3
:10029000AF92BF92CF92DF92EF92FF926B017C01FF
:1002A0000E9421014B015C01C114D104E104F1045D
:1002B000F1F00E942101DC01CB0188199909AA09FA
:1002C000BB09883E9340A105B10570F321E0C21A35
:1002D000D108E108F10888EE880E83E0981EA11C81
:1002E000B11CC114D104E104F10419F7DDCFFF9072
:1002F000EF90DF90CF90BF90AF909F908F90089538
:10030000CF92DF92EF92FF920F931F93CF93DF93E1
:100310006C017A018B01C0E0D0E0CE15DF0581F0E1
:10032000D8016D918D01D601ED91FC910190F08184
:10033000E02DC6010995892B11F02196EECF7E01A3
:10034000C701DF91CF911F910F91FF90EF90DF9048
:10035000CF900895FC01918D828D981761F0828D68
:10036000DF01A80FB11D5D968C91928D9F5F9F73E9
:10037000928F90E008958FEF9FEF0895FC01918D8B
:10038000828D981731F0828DE80FF11D858D90E0F8
:1003900008958FEF9FEF0895FC01918D228D892F95
:1003A00090E0805C9F4F821B91098F73992708957D
:1003B00085E891E00E94CC0121E0892B09F420E03E
:1003C000822F0895FC01848DDF01A80FB11DA35A6F
:1003D000BF4F2C91848D90E001968F739927848F65
:1003E000A689B7892C93A089B1898C9180648C935C
:1003F000938D848D981306C00288F389E02D808147
:100400008F7D80830895EF92FF920F931F93CF9378
:10041000DF93EC0181E0888F9B8D8C8D981305C054
:10042000E889F989808185FD24C0F62E0B8D10E0C6
:100430000F5F1F4F0F731127E02E8C8DE8120CC039
:100440000FB607FCFACFE889F989808185FFF5CFDF
:10045000CE010E94E201F1CF8B8DFE01E80FF11D6C
:10046000E35AFF4FF0820B8FEA89FB89808180621B
:1004700007C0EE89FF896083E889F98980818064FB
:10048000808381E090E0DF91CF911F910F91FF90E9
:10049000EF900895CF93DF93EC01888D8823C9F006
:1004A000EA89FB89808185FD05C0A889B9898C917D
:1004B00086FD0FC00FB607FCF5CF808185FFF2CF18
:1004C000A889B9898C9185FFEDCFCE010E94E20108
:1004D000E7CFDF91CF91089580E090E0892B29F05C
:1004E0000E94D80181110C940000089520917A0196
:1004F00030917B012817390771F490917801809130
:100500007901981741F0E0917801F0E0E85CFE4F46
:10051000808190E008958FEF9FEF089508951F93D5
:10052000CF93DF93DC015C968D919C915D97009752
:1005300039F421E030E013963C932E9312973BC0A0
:100540005196ED91FC91529750962C915097322FE5
:1005500030951FB75E964C915E97742F727041FD77
:100560006095F8944081772311F0422B01C043231A
:100570004083EC012197F1F748E0508160FF02C011
:10058000522B01C053235083EC012197F1F766955C
:10059000415099F78081772319F08323808302C02B
:1005A000282B20831FBF5C968D919C915D970197AE
:1005B000F1F781E090E0DF91CF911F9108952091B4
:1005C0007A0130917B012817390771F48091790104
:1005D0002091780190E0805C9F4F821B910960E43C
:1005E00070E00E942C07089580E090E0089520912B
:1005F0007A0130917B0128173907B9F4909178017D
:1006000080917901981789F0E0917801F0E0E85C39
:10061000FE4F80812091780130E02F5F3F4F2F7394
:1006200033272093780190E008958FEF9FEF08958E
:100630006115710579F0FB0101900020E9F7319710
:10064000AF01461B570BDC01ED91FC910280F38159
:10065000E02D099480E090E008950E9420081F9208
:100660000F920FB60F9211242F933F938F939F9366
:10067000AF93BF9380917D0190917E01A0917F0106
:10068000B091800130917C0123E0230F2D3720F4BD
:100690000196A11DB11D05C026E8230F0296A11DDC
:1006A000B11D20937C0180937D0190937E01A093E6
:1006B0007F01B09380018091810190918201A0918E
:1006C0008301B09184010196A11DB11D8093810128
:1006D00090938201A0938301B0938401BF91AF9165
:1006E0009F918F913F912F910F900FBE0F901F9070
:1006F00018951F920F920FB60F9211242F933F93CC
:100700004F935F936F937F938F939F93AF93BF9319
:10071000EF93FF9385E891E00E94E201FF91EF9152
:10072000BF91AF919F918F917F916F915F914F9109
:100730003F912F910F900FBE0F901F9018951F9211
:100740000F920FB60F9211242F938F939F93EF93D5
:10075000FF93E0919501F09196018081E0919B01DA
:10076000F0919C0182FD12C0908180919E018F5F6B
:100770008F7320919F01821751F0E0919E01F0E06C
:10078000EB57FE4F958F80939E0101C08081FF91B2
:10079000EF919F918F912F910F900FBE0F901F900F
:1007A00018951F920F920FB60F9211242F933F931B
:1007B0004F935F936F937F938F939F93AF93BF9369
:1007C000EF93FF93E0917A01F0917B01309709F468
:1007D00051C0968DA685B785858591FF04C09C91F3
:1007E000892329F447C09C91892309F043C0A38938
:1007F000B4899C918589809589238C938689978972
:100800000197F1F7608D718DA685B785558538E024
:1008100020E0CB010197F1F7822F90E09595879525
:10082000282F4C91452309F02068315091F7868D8F
:1008300081FD20958091790190E001968F73992731
:1008400030917801381749F0A0917901B0E0A85CA7
:10085000BE4F2C938093790103C0868D8160868F73
:10086000828D938D0197F1F7A389B4899C91858935
:10087000892B8C93FF91EF91BF91AF919F918F91B5
:100880007F916F915F914F913F912F910F900FBE8C
:100890000F901F901895109288011092870188EE92
:1008A00093E0A0E0B0E08093890190938A01A09347
:1008B0008B01B0938C012AE031E0309386012093C4
:1008C000850125EC30E0309392012093910124ECD6
:1008D00030E0309394012093930120EC30E030938A
:1008E00096012093950121EC30E0309398012093FC
:1008F000970122EC30E030939A012093990126EC85
:1009000030E030939C0120939B0110929E01109245
:100910009F011092A0011092A10110922502109245
:1009200024028093260290932702A0932802B0937A
:1009300029028AE191E0909323028093220210928F
:1009400039021092380210923B0210923A02109231
:100950003D0210923C0210923F0210923E026091C2
:1009600040026E7F6D7F609340026695617081E00A
:1009700068278BE00E94B60061E08BE00E94E500F2
:10098000E9EBF0E0E491E0933202E5EAF0E0E49193
:10099000F0E0EE0FFF1FE057FF4F85919491909389
:1009A00034028093330260E08AE00E94E500809187
:1009B000400281FD04C061E08AE00E94B6008AE046
:1009C00080932E02E8EBF0E0E491E0932F02E4EA5A
:1009D000F0E0E491F0E0EE0FFF1FEA57FF4F859142
:1009E000949190933102809330020895CF93DF93D6
:1009F000CDB7DEB7789484B5826084BD84B581605C
:100A000084BD85B5826085BD85B5816085BD8091D9
:100A10006E00816080936E00109281008091810051
:100A20008260809381008091810081608093810049
:100A3000809180008160809380008091B10084600B
:100A40008093B1008091B00081608093B00080916C
:100A50007A00846080937A0080917A00826080932B
:100A60007A0080917A00816080937A0080917A0088
:100A7000806880937A001092C10061E087E00E9454
:100A8000E50061E088E00E94E50061E08DE00E9401
:100A9000E50060E087E00E94B60060E088E00E9428
:100AA000B600E0919501F091960182E08083E0919B
:100AB0009101F09192011082E0919301F0919401E3
:100AC0008FEC808310929D01E0919901F0919A0141
:100AD00086E08083E0919701F091980180818061A8
:100AE0008083E0919701F0919801808188608083F4
:100AF000E0919701F0919801808180688083E09176
:100B00009701F091980180818F7D808310923D0242
:100B100010923C0210923B0210923A02109239025B
:100B2000109238028DE991E090933F0280933E024B
:100B300090912E02963108F058C02DEB30E03093A2
:100B40003902209338022BE931E030933B022093A5
:100B50003A022CE231E030933D0220933C02409176
:100B60006800983058F031E09E3008F430E021E021
:100B7000822F01C0880F3A95EAF701C084E0842BE8
:100B800080936800983038F09E3040F0963148F0FD
:100B900020E030E008C02DE630E005C02BE630E074
:100BA00002C02CE630E030933602209335029830B4
:100BB00030F481E001C0880F9A95EAF70EC0292F22
:100BC00030E09E3018F42850310902C02E5031090F
:100BD00081E001C0880F2A95EAF78093370280915F
:100BE0003E0290913F020197F1F780913C02909173
:100BF0003D02892B49F1E0917A01F0917B0122E0DD
:100C0000E232F20709F1309739F0A389B4899C9157
:100C10008589809589238C93809140028E7F809373
:100C20004002109279011092780182E292E0909352
:100C30007B0180937A01E0913502F0913602908138
:100C400080913702892B808366E271E085E891E02C
:100C50000E9418036BE271E085E891E00E9418039E
:100C600068EC70E080E090E00E9446016AE070E08D
:100C700080E090E00E945A077C01009749F0FC0157
:100C800010826EE271E00E942E0809E010E002C0BE
:100C900000E010E06801FFEFCF1ADF0A2DB73EB782
:100CA0002C193D090FB6F8943EBF0FBE2DBF8DB76E
:100CB0009EB701965C010115110521F4EDB7FEB751
:100CC000118208C0A801B7010E943508F501E00FA4
:100CD000F11F10827601F2E0EF0EF11C2DB73EB746
:100CE0002E193F090FB6F8943EBF0FBE2DBF0DB7AA
:100CF0001EB70F5F1F4F85E0EDB7FEB7818381E020
:100D0000F801818385E18283ADB7BEB71496F50102
:100D1000CF018A199B098C159D051CF481918D9337
:100D2000F7CF9FE7C92E90E0D92E2BEBA22E20E023
:100D3000B22E37EA832E30E0932EA701B80182E26B
:100D400092E00E9480016DE271E082E292E00E94F6
:100D500018036BE271E082E292E00E941803F60150
:100D60008491F5017490F40164906620A1F08111E2
:100D70000E948D00E62DF0E0EE0FFF1FEA57FF4FB7
:100D8000A591B4918C91782291E080E009F490E0F3
:100D9000692F782F02C060E070E0F1E06F278DE0EE
:100DA0000E94B60068EE73E080E090E00E94460189
:100DB000C4CF8AE191E09093230280932202809134
:100DC0007A0190917B018252924071F4E091350258
:100DD000F09136029081809137028095892380833B
:100DE00010927B0110927A0108952F923F924F92B8
:100DF0005F926F927F928F929F92AF92BF92CF92AB
:100E0000DF92EF92FF920F931F93CF93DF93CDB7B3
:100E1000DEB7CA1BDB0B0FB6F894DEBF0FBECDBF2B
:100E200009942A88398848885F846E847D848C84FC
:100E30009B84AA84B984C884DF80EE80FD800C8105
:100E40001B81AA81B981CE0FD11D0FB6F894DEBFE8
:100E50000FBECDBFED01089597FB072E16F4009449
:100E600007D077FD09D00E94400707FC05D03EF46B
:100E7000909581959F4F0895709561957F4F089546
:100E8000AA1BBB1B51E107C0AA1FBB1FA617B707B0
:100E900010F0A61BB70B881F991F5A95A9F78095CC
:100EA0009095BC01CD010895EE0FFF1F0590F491C0
:100EB000E02D0994A0E0B0E0E0E6F7E00C94F9063C
:100EC000EC01009721F4CB010E944408B4C0FC015E
:100ED000E60FF71F9C0122503109E217F30708F4CF
:100EE000A8C0D9010D911C91119706171707B0F0F2
:100EF0000530110508F49BC0C801049786179707B1
:100F000008F495C002501109061B170B01931193A9
:100F10006D937C93CF010E94DC0889C05B01A01A0D
:100F2000B10A4C01800E911EA0914302B09144027F
:100F3000612C712CE12CF12C109709F446C08D9195
:100F40009C911197A815B905B1F56C0142E0C40E4A
:100F5000D11CCA14DB0478F14C018A189B08640187
:100F600042E0C40ED11C1296BC9012971396AC911D
:100F7000B5E0CB16D10440F0B282A3839182808287
:100F8000D9016D937C9309C00E5F1F4F800F911F95
:100F9000F90191838083EB2DFA2FE114F10431F0F4
:100FA000D7011396FC93EE93129741C0F09344023D
:100FB000E09343023CC06816790608F43C017D01C9
:100FC00012960D90BC91A02DB7CF809141029091C7
:100FD000420288169906E1F466167706C8F48091F5
:100FE000000190910101009741F48DB79EB74091A7
:100FF000040150910501841B950BE817F907C8F40B
:10100000F0934202E0934102F901718360830FC0C3
:10101000CB010E9444087C01009759F0A801BE0151
:101020000E942508CE010E94DC08C70104C0CE0141
:1010300002C080E090E0CDB7DEB7EEE00C9415077B
:1010400081E090E0F8940C946509FB01DC0102C09A
:1010500001900D9241505040D8F70895FB01DC01FA
:1010600001900D920020E1F70895FB01DC01415051
:10107000504048F001900D920020C9F701C01D9228
:1010800041505040E0F708950F931F93CF93DF93A3
:101090008230910510F482E090E0E0914302F091FB
:1010A000440220E030E0A0E0B0E0309719F1408148
:1010B00051810281138148175907C8F08417950799
:1010C00069F4109731F012960C93129713961C93B3
:1010D00027C0009343021093440222C0211531051A
:1010E00019F04217530718F49A01BD01EF01DF010F
:1010F000F801DBCF21153105F9F0281B390B24301D
:10110000310580F48A819B816115710521F0FB0115
:101110009383828304C09093440280934302FE0130
:10112000329644C0FE01E20FF31F81939193225047
:101130003109398328833AC020914102309142021B
:10114000232B41F42091020130910301309342029C
:1011500020934102209100013091010121153105B8
:1011600041F42DB73EB74091040150910501241B75
:10117000350BE0914102F0914202E217F307A0F42F
:101180002E1B3F0B2817390778F0AC014E5F5F4FDD
:101190002417350748F04E0F5F1F509342024093CB
:1011A00041028193919302C0E0E0F0E0CF01DF9132
:1011B000CF911F910F910895CF93DF93009709F47A
:1011C00081C0FC01329713821282A0914302B09138
:1011D0004402109781F420813181820F931F209166
:1011E0004102309142022817390751F5F09342022B
:1011F000E093410267C0ED0120E030E0CE17DF0749
:1012000040F44A815B819E0141155105F1F0EA01EC
:10121000F5CFD383C28340815181840F951FC817B6
:10122000D90759F488819981840F951F029691837B
:1012300080838A819B81938382832115310529F4E0
:10124000F0934402E09343023DC0E901FB83EA834B
:1012500049915991C40FD51FEC17FD0761F48081A6
:101260009181840F951F0296E90199838883828179
:1012700093819B838A83E0E0F0E012968D919C91AC
:101280001397009719F0FD01DC01F7CF8D919C9128
:1012900011979D012E5F3F4F820F931F20914102B6
:1012A000309142022817390769F4309729F41092D7
:1012B00044021092430202C013821282B09342028F
:1012C000A0934102DF91CF91089510E0C2E6D0E0F3
:1012D00004C0FE010E9454072196C336D107C9F706
:0412E000F894FFCFB0
:1012E4000000450280000000000003028001CC01E0
:1012F400AA01BE014A02000000008F028001DF0241
:10130400F70276028E02496E6974000D0A003132CA
:08131400333435363738390057
:00000001FF
