:100000000C9436000C945E000C945E000C945E0020
:100010000C945E000C945E000C945E000C945E00E8
:100020000C945E000C945E000C945E000C945E00D8
:100030000C945E000C945E000C945E000C945E00C8
:100040000C948B020C945E000C94FB020C94D50271
:100050000C945E000C945E000C945E000C945E00A8
:100060000C945E000C945E002D031C0511241FBE31
:10007000CFEFD8E0DEBFCDBF22E0A6E7B1E001C000
:100080001D92A236B207E1F711E0A0E0B1E0E2E78D
:10009000FFE002C005900D92A637B107D9F710E036
:1000A000C5E3D0E004C02197FE010E949A05C43345
:1000B000D107C9F70E94B1030C94AC070C9400005F
:1000C0008E3008F08E508770806480937C00809121
:1000D0007A00806480937A0080917A0086FDFCCF5C
:1000E000809178002091790090E0922B08953FB79D
:1000F000F8948091B7019091B801A091B901B091A5
:10010000BA0126B5A89B05C02F3F19F00196A11D85
:10011000B11D3FBFBA2FA92F982F8827820F911D9D
:10012000A11DB11DBC01CD0142E0660F771F881FE4
:10013000991F4A95D1F708958F929F92AF92BF92DF
:10014000CF92DF92EF92FF920E9477004B015C0109
:100150008AE0C82ED12CE12CF12C0E947700DC0122
:10016000CB0188199909AA09BB09883E9340A105CA
:10017000B10558F021E0C21AD108E108F10888EE73
:10018000880E83E0981EA11CB11CC114D104E104A7
:10019000F10419F7FF90EF90DF90CF90BF90AF90F0
:1001A0009F908F900895CF92DF92EF92FF920F93DE
:1001B0001F93CF93DF936C017A018B01C0E0D0E0F5
:1001C000CE15DF0589F0D8016D918D01D601ED9135
:1001D000FC910190F081E02DC6010995892B11F465
:1001E0007E0102C02196ECCFC701DF91CF911F9114
:1001F0000F91FF90EF90DF90CF900895089580E0E9
:1002000090E00895FC01538D448D252F30E0842F1C
:1002100090E0821B930B541710F0CF96089501972E
:100220000895FC01918D828D981761F0828DDF0118
:10023000A80FB11D5D968C91928D9F5F9F73928FD9
:1002400090E008958FEF9FEF0895FC01918D828DCE
:10025000981731F0828DE80FF11D858D90E008959B
:100260008FEF9FEF0895FC01918D228D892F90E0F3
:10027000805C9F4F821B91098F73992708958BEBA8
:1002800091E00E94330121E0892B09F420E0822FC4
:100290000895FC01848DDF01A80FB11DA35ABF4F43
:1002A0002C91848D90E001968F739927848FA68975
:1002B000B7892C93A089B1898C9180648C93938D9C
:1002C000848D981306C00288F389E02D80818F7D8C
:1002D00080830895EF92FF920F931F93CF93DF9344
:1002E000EC0181E0888F9B8D8C8D981305C0E88987
:1002F000F989808185FD24C0F62E0B8D10E00F5FFB
:100300001F4F0F731127E02E8C8DE8120CC00FB613
:1003100007FCFACFE889F989808185FFF5CFCE0106
:100320000E944901F1CF8B8DFE01E80FF11DE35AC8
:10033000FF4FF0820B8FEA89FB898081806207C0C2
:10034000EE89FF896083E889F989808180648083F0
:1003500081E090E0DF91CF911F910F91FF90EF909E
:100360000895CF93DF93EC01888D8823C9F0EA8943
:10037000FB89808185FD05C0A889B9898C9186FD9E
:100380000FC00FB607FCF5CF808185FFF2CFA8899B
:10039000B9898C9185FFEDCFCE010E944901E7CF4D
:1003A000DF91CF91089580E090E0892B29F00E94A1
:1003B0003F0181110C9400000895009769F0FC0141
:1003C00001900020E9F73197AF01481B590BBC01A0
:1003D0008BEB91E00C94D30080E090E00895CF93F4
:1003E000DF930E94DD01EC0188E191E00E94DD01D4
:1003F0008C0F9D1FDF91CF9108958F929F92AF92A6
:10040000BF920F931F93CF93DF93CDB7DEB7A19722
:100410000FB6F894DEBF0FBECDBF19A2423008F46C
:100420004AE08E010F5D1F4F842E912CA12CB12C20
:10043000A50194010E945905E62FB901CA01015096
:100440001109EA3014F4E05D01C0E95CD801EC93D5
:10045000232B242B252B61F7C8010E94DD01A196D7
:100460000FB6F894DEBF0FBECDBFDF91CF911F91C5
:100470000F91BF90AF909F908F900895CF92DF9291
:10048000EF92FF92CF93DF936B017C01E091BB0170
:10049000F091BC010190F081E02D6DE28BEB91E0D9
:1004A0000995EC0166277727CB016C197D098E0928
:1004B0009F094AE00E94FD018C0F9D1FDF91CF91A3
:1004C000FF90EF90DF90CF900895CF93DF93BC0122
:1004D000990F880B990B97FF03C00E943E0203C03F
:1004E0004AE00E94FD01EC0188E191E00E94DD01FB
:1004F0008C0F9D1FDF91CF910895BC01990F880B40
:10050000990B97FD0C943E024AE00C94FD010C946B
:10051000DD010E9497071F920F920FB60F921124D0
:100520002F933F938F939F93AF93BF938091B3018A
:100530009091B401A091B501B091B6013091B20192
:1005400023E0230F2D3720F40196A11DB11D05C016
:1005500026E8230F0296A11DB11D2093B2018093BE
:10056000B3019093B401A093B501B093B60180910B
:10057000B7019091B801A091B901B091BA0101966B
:10058000A11DB11D8093B7019093B801A093B9014B
:10059000B093BA01BF91AF919F918F913F912F91ED
:1005A0000F900FBE0F901F9018951F920F920FB6CD
:1005B0000F9211242F933F934F935F936F937F93E9
:1005C0008F939F93AF93BF93EF93FF938BEB91E048
:1005D0000E944901FF91EF91BF91AF919F918F913F
:1005E0007F916F915F914F913F912F910F900FBE2F
:1005F0000F901F9018951F920F920FB60F92112413
:100600002F938F939F93EF93FF93E091CB01F09102
:10061000CC018081E091D101F091D20182FD12C024
:1006200090818091D4018F5F8F732091D5018217C3
:1006300051F0E091D401F0E0E554FE4F958F8093A6
:10064000D40101C08081FF91EF919F918F912F91F3
:100650000F900FBE0F901F9018951092BE01109230
:10066000BD0188EE93E0A0E0B0E08093BF019093DD
:10067000C001A093C101B093C2018AE091E09093C0
:10068000BC018093BB0185EC90E09093C8018093FE
:10069000C70184EC90E09093CA018093C90180EC7B
:1006A00090E09093CC018093CB0181EC90E090930B
:1006B000CE018093CD0182EC90E09093D0018093A5
:1006C000CF0186EC90E09093D2018093D1011092FB
:1006D000D4011092D5011092D6011092D701109238
:1006E00059021092580210925B0210925A02109214
:1006F0005D0210925C0261E070E080E090E00E9498
:10070000CD06009789F09093590280935802109279
:100710005B0210925A0220915C0230915D02232B01
:10072000C1F4FC01108215C08091580290915902C9
:10073000009711F00E94350610925902109258024B
:1007400010925D0210925C0210925B0210925A02AB
:10075000089510925D0210925C026AE171E00C94BF
:10076000A507789484B5826084BD84B5816084BD1A
:1007700085B5826085BD85B5816085BD80916E003F
:10078000816080936E001092810080918100826070
:1007900080938100809181008160809381008091AD
:1007A00080008160809380008091B100846080939C
:1007B000B1008091B00081608093B00080917A0098
:1007C000846080937A0080917A00826080937A00BE
:1007D00080917A00816080937A0080917A008068AD
:1007E00080937A001092C100E091CB01F091CC018E
:1007F00082E08083E091C701F091C8011082E0910E
:10080000C901F091CA018FEC80831092D301E0916D
:10081000CF01F091D00186E08083E091CD01F0918D
:10082000CE01808180618083E091CD01F091CE0185
:10083000808188608083E091CD01F091CE0180813C
:1008400080688083E091CD01F091CE0180818F7D21
:10085000808352E3C52ED12CE12CF12C0AE010E06C
:10086000C2E3D0E0812C912C54018FE00E94600003
:10087000092E000CAA0BBB0B880E991EAA1EBB1ECC
:100880000E949C00219789F7C501B401A701960138
:100890000E947B05E90142E3642E712C812C912C8E
:1008A00054018FE00E946000092E000CAA0BBB0BC4
:1008B000880E991EAA1EBB1E0E949C0081E0681A29
:1008C000710879F7C501B401A70196010E947B0563
:1008D000C217D30731F5CE01880F991FD6FD0196B7
:1008E0009595879590937F0180937E018BE191E0B0
:1008F0000E94870281E090E00E947D0281E691E003
:100900000E94870280917E0190917F010E94650282
:100910001093A3010093A20184E291E00E94EF01F1
:100920000DC08EE291E00E94870281E090E00E947B
:100930007D0286E391E00E94EF0192CF8FE00E945A
:1009400060009093910180939001C0917E01D091BD
:100950007F012091A2013091A301C20FD31FC817BC
:10096000D90764F70E9477004B015C01609378011E
:100970007093790180937A0190937B01809190012B
:1009800090919101C817D90744F48FE00E9460004C
:100990009093910180939001F1CF0E947700DC0148
:1009A000CB0188199909AA09BB0980937801909312
:1009B0007901A0937A01B0937B018EE391E00E94CC
:1009C000870281E090E00E947D0286E491E00E942F
:1009D000EF0181E591E00E9487028091760190917C
:1009E00077010E947D028DE591E00E94870260916F
:1009F00078017091790180917A0190917B014AE0B0
:100A00000E94FD0184E691E00E94870289E691E060
:100A10000E9487028091A2019091A3010E94650229
:100A20008091760190917701019690937701809360
:100A300076010E94D30114CF8091580290915902FF
:100A40000C9435062F923F924F925F926F927F9255
:100A50008F929F92AF92BF92CF92DF92EF92FF92CE
:100A60000F931F93CF93DF93CDB7DEB7CA1BDB0B7A
:100A70000FB6F894DEBF0FBECDBF09942A8839881F
:100A800048885F846E847D848C849B84AA84B98426
:100A9000C884DF80EE80FD800C811B81AA81B98132
:100AA000CE0FD11D0FB6F894DEBF0FBECDBFED0146
:100AB0000895A1E21A2EAA1BBB1BFD010DC0AA1F9F
:100AC000BB1FEE1FFF1FA217B307E407F50720F0B7
:100AD000A21BB30BE40BF50B661F771F881F991F32
:100AE0001A9469F760957095809590959B01AC017B
:100AF000BD01CF010895052E97FB1EF400940E94BE
:100B0000920557FD07D00E94590507FC03D04EF40B
:100B10000C94920550954095309521953F4F4F4F3D
:100B20005F4F089590958095709561957F4F8F4F99
:100B30009F4F0895EE0FFF1F0590F491E02D09944B
:100B4000CF93DF938230910510F482E090E0E09142
:100B50006002F091610220E030E0C0E0D0E0309728
:100B600011F14081518148175907C0F048175907C2
:100B700061F482819381209719F09B838A832BC033
:100B8000909361028093600226C02115310519F00F
:100B90004217530718F49A01BE01DF01EF010280EA
:100BA000F381E02DDCCF2115310509F1281B390B2C
:100BB0002430310590F412968D919C911397611514
:100BC000710521F0FB019383828304C0909361023D
:100BD00080936002FD01329644C0FD01E20FF31FD5
:100BE00081939193225031092D933C933AC02091E7
:100BF0005E0230915F02232B41F42091020130917B
:100C0000030130935F0220935E0220910001309136
:100C100001012115310541F42DB73EB74091040182
:100C200050910501241B350BE0915E02F0915F02AB
:100C3000E217F307A0F42E1B3F0B2817390778F0B3
:100C4000AC014E5F5F4F2417350748F04E0F5F1F12
:100C500050935F0240935E028193919302C0E0E063
:100C6000F0E0CF01DF91CF9108950F931F93CF93C1
:100C7000DF93009709F48CC0FC0132971382128233
:100C800000916002109161020115110581F420812B
:100C90003181820F931F20915E0230915F022817ED
:100CA000390779F5F0935F02E0935E0271C0D801D5
:100CB00040E050E0AE17BF0750F412962D913C91E2
:100CC0001397AD012115310509F1D901F3CF9D012C
:100CD000DA013383228360817181860F971F821727
:100CE000930769F4EC0128813981260F371F2E5FA5
:100CF0003F4F318320838A819B8193838283452B5D
:100D000029F4F0936102E093600242C01396FC93D1
:100D1000EE931297ED01499159919E01240F351FD1
:100D2000E217F30771F480819181840F951F029679
:100D300011969C938E938281938113969C938E93AC
:100D40001297E0E0F0E0D80112968D919C911397F4
:100D5000009719F0F8018C01F6CF8D919C919801C4
:100D60002E5F3F4F820F931F20915E0230915F02F2
:100D70002817390769F4309729F41092610210920C
:100D8000600202C01382128210935F0200935E021F
:100D9000DF91CF911F910F910895A0E0B0E0E3EDB6
:100DA000F6E00C942605EC01009721F4CB010E949B
:100DB000A005B8C0FC01E60FF71F9C0122503109C5
:100DC000E217F30708F4ACC0D9010D911C911197FB
:100DD00006171707B0F00530110508F49FC0C801C9
:100DE00004978617970708F499C002501109061B4B
:100DF000170B019311936D937C93CF010E943506DD
:100E00008DC05B01A01AB10A4C01800E911EA09109
:100E10006002B091610240E050E0E12CF12C1097AB
:100E200009F44AC0A815B905D1F56D907C901197C9
:100E3000630182E0C80ED11CCA14DB0480F1A30157
:100E40004A195B096A0182E0C80ED11C1296BC9057
:100E500012971396AC91B5E0CB16D10440F0B28254
:100E6000A38351834083D9016D937C930AC00E5FA5
:100E70001F4FC301800F911FF90191838083EB2DD8
:100E8000FA2FE114F10431F0D7011396FC93EE939D
:100E9000129744C0F0936102E09360023FC08D91CD
:100EA0009C9111974817590708F4AC017D011296DF
:100EB0000D90BC91A02DB3CF80915E0290915F0206
:100EC00088159905E1F446175707C8F48091000189
:100ED00090910101009741F48DB79EB740910401B4
:100EE00050910501841B950BE817F907C8F4F0939E
:100EF0005F02E0935E02F901718360830FC0CB0152
:100F00000E94A0057C01009759F0A801BE010E9433
:100F10009C07CE010E943506C70104C0CE0102C065
:100F200080E090E0CDB7DEB7EEE00C94420581E0C2
:100F300090E0F8940C94AC07FB01DC0102C0019036
:100F40000D9241505040D8F70895FB01DC0101900B
:100F50000D920020E1F7089510E0C5E3D0E004C051
:100F6000FE010E949A052196C633D107C9F7F8946D
:020F7000FFCFB1
:100F7200000062028000000000006A01D30002014A
:100F8200B1013301110125010D0A00536574746C1E
:100F920065642000446574656374696E6700536517
:100FA20074746C652000204661696C656400536549
:100FB2006E736F7220002054726967676572656490
:100FC2000054696D6520547269616C200028757344
:100FD200293A200020202020005468726573686F2F
:060FE2006C643A200000DF
:00000001FF
