:100000000C9463010C948B010C948B010C948B0168
:100010000C948B010C948B010C948B010C948B0130
:100020000C948B010C94CB060C9429040C949B0427
:100030000C948B010C948B010C948B010C948B0110
:100040000C948B010C948B010C948B010C948B0100
:100050000C948B010C948B010C948B010C948109F2
:100060000C948B010C948B010C948B010C948B01E0
:100070000C948B010C948B010C948B010C948B01D0
:100080000C948B010C948B010C948B010C948B01C0
:100090000C948B010C948B010C948B010C948B01B0
:1000A0000C948B010C948B010C948B0170077307DB
:1000B000620766076A0794079407940777077B0728
:1000C0007F078507890794078F07005EBCE2613FC1
:1000D000DD83C29C7E20A3FD1F419DC3217FFCA226
:1000E000401E5F01E3BD3E6082DC237D9FC1421C58
:1000F000FEA0E1BF5D0380DE3C62BEE0025CDF810A
:10010000633D7C22C09E1D43A1FF4618FAA42779B7
:100110009BC584DA3866E5BB5907DB856739BAE4E5
:1001200006581947A5FB7826C49A653BD987045A17
:10013000B8E6A7F91B45C6987A24F8A6441A99C7C9
:10014000257B3A6486D85B05E7B98CD2306EEDB377
:10015000510F4E10F2AC2F7193CD114FADF3702EA5
:10016000CC92D38D6F31B2EC0E50AFF1134DCE90D7
:10017000722C6D33D18F0C52B0EE326C8ED0530D89
:10018000EFB1F0AE4C1291CF2D73CA947628ABF537
:1001900017490856B4EA6937D58B5709EBB5366865
:1001A0008AD495CB2977F4AA4816E9B7550B88D697
:1001B000346A2B7597C94A14F6A8742AC896154B49
:1001C000A9F7B6E80A54D7896B35080B000202027A
:1001D00001000904000001020200000524001001D2
:1001E0000524010101042402060524060001070577
:1001F000810310004009040100020A000000070505
:1002000002024000000705830240000004030904C5
:1002100012010002EF02014041234180000101026E
:10022000030141726475696E6F204C4C430041724A
:100230006475696E6F2059756E000000000024001F
:1002400027002A002D0030000000000200090F00E6
:1002500000030401000C000000000000000000008A
:100260000000000000000000000000250028002B16
:10027000002E003100000000002300260029002C81
:10028000002F000404040404030405020202020413
:100290000302020202060606060606040402020221
:1002A0000404040802011040804010204080408077
:1002B00008020401804020100201108010204040FC
:1002C0002000240D1A0D11241FBECFEFDAE0DEBF8F
:1002D000CDBF11E0A0E0B1E0E6E3F6E202C0059098
:1002E0000D92AE37B107D9F722E0AEE7B1E001C019
:1002F0001D92A836B207E1F711E0C2E6D1E004C0D2
:100300002197FE010E941710C136D107C9F70E943C
:10031000080A0C940E130C9400004091CE015091E9
:10032000CF012091CC013091CD0142175307B4F495
:100330009091E8009570E1F39091E80092FD19C06A
:100340008093F1008091CE019091CF0101968F733F
:100350009927892B19F48EEF8093E8008091CE01C4
:100360009091CF0101969093CF018093CE0181E0CF
:10037000089580E00895DF92EF92FF920F931F930C
:10038000CF93DF93D82E8A017B01E40EF51EEB019B
:10039000CE15DF0571F0D7FE03C0FE01849101C0C8
:1003A00088810E948D0121968111F2CF8FEF9FEFFE
:1003B00001C0C801DF91CF911F910F91FF90EF9085
:1003C000DF900895615030F02091F100FC0120830E
:1003D0000196F8CF289884E68093D4010895CF92AF
:1003E000DF92EF92FF920F931F93CF93DF936C01F5
:1003F0007A018B01C0E0D0E0CE15DF0589F0D8018D
:100400006D918D01D601ED91FC910190F081E02D6F
:10041000C6010995892B11F47E0102C02196ECCF0B
:10042000C701DF91CF911F910F91FF90EF90DF9067
:10043000CF900895CF93DF931F92CDB7DEB7698336
:10044000DC01ED91FC910280F381E02D41E050E070
:10045000BE016F5F7F4F09950F90DF91CF91089597
:1004600083E08093E9008091F200882319F08AE309
:100470008093E8000895FC018485958597FD0BC065
:100480009FB7F89482E08093E9008091F2009FBFCB
:1004900090E0019608959FB7F89482E08093E90078
:1004A0008091F2009FBF90E008952091C0013091AB
:1004B000C1012817390771F49091BE018091BF01E5
:1004C000981741F0E091BE01F0E0E258FE4F8081C4
:1004D00090E008958FEF9FEF089508951F93CF93B5
:1004E000DF93DC015C962D913C915D9721153105E0
:1004F00039F481E090E013969C938E9312973DC05F
:100500005196ED91FC91529750969C915097892F5E
:1005100080951FB75E964C915E9741FB772770F9E7
:1005200041FD6095F8944081772311F0492B01C07B
:1005300048234083E9012197F1F748E0508160FFAB
:1005400002C0592B01C058235083E9012197F1F7CC
:100550006695415099F7772321F090818923808314
:1005600003C08081982B90831FBF5C968D919C91D6
:100570005D970197F1F721E030E0C901DF91CF915C
:100580001F9108952091C0013091C10128173907AA
:1005900071F48091BF012091BE0190E0805C9F4F7B
:1005A000821B910960E470E00E94E10F089580E0F1
:1005B00090E008952091C0013091C10128173907BA
:1005C000B9F49091BE018091BF01981789F0E09134
:1005D000BE01F0E0E258FE4F80812091BE0130E084
:1005E0002F5F3F4F2F7333272093BE0190E0089574
:1005F0008FEF9FEF0895E091C001F091C101E817DE
:10060000F90769F4A389B4899C9185898095892328
:100610008C931092C1011092C00181E0089580E096
:100620000895089580E090E008950F931F93CF936D
:10063000DF931F92CDB7DEB782E0898342E450E0BA
:100640006AEC71E080E80E94BB010E943309DC0182
:1006500012960D911C9113970115110569F0D8019F
:10066000ED91FC910280F381E02DBE016F5F7F4F21
:10067000C801099597FF07C089810F90DF91CF913D
:100680001F910F910895F80100851185E5CF61153F
:10069000710579F0FB0101900020E9F73197AF0176
:1006A000461B570BDC01ED91FC910280F381E02D9C
:1006B000099480E090E008958F929F92AF92BF924C
:1006C000CF92DF92EF92FF920F931F93CF93DF931E
:1006D0005C016B017A0180910B01882309F45BC0F6
:1006E0008091D501882309F456C08091D20180FF02
:1006F00005C08091E00082608093E000E70110E097
:100700000AEF83E0882E9AE3992E2097D9F10E9470
:10071000220981110AC0015009F43DC061E070E076
:1007200080E090E00E944709F0CF282F30E0C21708
:10073000D3070CF48C2F4FB7F8948092E900909176
:10074000E80095FF1DC0282F30E0C21BD30BF60137
:10075000982F915020F081918093F100FACFC20E32
:10076000D31E112319F09092E80009C08091E8008F
:1007700085FD06C09092E80011E0209709F010E096
:100780004FBFC3CF1111C3CF5D9884E68093D301CF
:100790001E141F0444F081E090E0F50193838283EE
:1007A00080E090E001C0C701DF91CF911F910F91D0
:1007B000FF90EF90DF90CF90BF90AF909F908F9081
:1007C00008950E94220990E008950F931F93CF93FC
:1007D000DF931F92CDB7DEB78C01FC018485958530
:1007E00097FF0EC0CE0101960E94F808019719F4F8
:1007F000298130E002C02FEF3FEFF80135872487D1
:10080000F801848595850F90DF91CF911F910F910D
:100810000895CF93DF931F92CDB7DEB7FC01848597
:10082000958597FD05C02FEF3FEF358724870BC0D7
:10083000CE0101960E94F808019719F4898190E091
:1008400002C08FEF9FEF0F90DF91CF9108950E942C
:1008500031101F920F920FB60F9211248F939F9316
:100860008091E1009091E100937F9093E10083FFFC
:100870000FC01092E90091E09093EB001092EC0011
:1008800092E39093ED001092D50198E09093F000E0
:1008900082FF20C093E09093E9009091F2009923A9
:1008A00019F09AE39093E8009091D301992339F0DD
:1008B0009091D30191509093D301992389F1909114
:1008C000D401992339F09091D40191509093D4019F
:1008D000992341F184FF10C08091E2008E7E8160F7
:1008E0008093E2008091E1008F7E8093E10080910F
:1008F000D2018E7E806111C080FF16C08091E2001F
:100900008E7E80618093E2008091E1008E7E8093F4
:10091000E1008091D2018E7E81608093D20104C07B
:100920005D9ACDCF289AD6CF9F918F910F900FBE11
:100930000F901F9018951F920F920FB60F921124CF
:10094000CF92DF92EF92FF920F931F932F933F93DB
:100950004F935F936F937F938F939F93AF93BF93C7
:10096000EF93FF93CF93DF93CDB7DEB76C97DEBFE6
:10097000CDBF1092E9008091E80083FFEDC168E0EF
:10098000CE0145960E94E20182EF8093E8008D89B6
:1009900087FF05C09091E80090FFFCCF03C09EEF59
:1009A0009093E800982F907609F0C6C09E892F8911
:1009B000188D91110CC0803829F48091D101809359
:1009C000F10002C01092F1001092F10048C1422FD4
:1009D00050E0512B913051F4811141C1413051050A
:1009E00009F03DC18091D1018D7F0BC0933061F43E
:1009F000811135C14130510509F031C18091D101DA
:100A000082608093D1012BC1953041F48091E80040
:100A100080FFFCCF20682093E30021C1963009F0CD
:100A20005FC0EB8CFC8C1092E9001092CF01109209
:100A3000CE01123091F51092CD011092CC010E949E
:100A4000150399E0BE016F5F7F4FDB01E92F1D9217
:100A5000EA95E9F799831A8391E09E8390EA988753
:100A60009AEF99872091CE013091CF01275F3F4FB8
:100A70003C832B838D831092E9001092CF0110925A
:100A8000CE01F092CD01E092CC0149E050E080E04F
:100A90000E94BB010E941503E2C0F092CD01E092DA
:100AA000CC010E943309DC011296ED90FC90139763
:100AB000E114F10409F4C0C0D701ED91FC91048068
:100AC000F581E02DBE016B5E7F4FC7010995009750
:100AD00019F00CF0C4C0C7C0F701E084F184E8CF7E
:100AE000973009F4C0C0983021F481E08093F10080
:100AF000B6C0993009F0B3C0837009F0B4C0EDE01E
:100B0000F1E081E021E036E39081992361F0809368
:100B1000E9002093EB0091919093EC003093ED006D
:100B20008F5F873089F78EE78093EA001092EA00A2
:100B30008F898093D50193C08B8D9C8D1092E90095
:100B40001092CF011092CE019093CD018093CC01F1
:100B5000898D811156C08E899D89913A59F48132CF
:100B600009F081C047E050E064E071E080E00E945D
:100B7000BB0175C0913209F076C0833289F4888D4B
:100B800090E0982F88272F89822BA0E0B0E08093F7
:100B9000000190930101A0930201B09303015FC093
:100BA000803269F48091E80082FFFCCF67E084E046
:100BB00091E00E94E2018BEF8093E80006C0823250
:100BC00009F04DC08F8980930B018091D00188235B
:100BD00019F0EEEFFAE002C0E0E0F8E080910401E5
:100BE00090910501A0910601B0910701803B9440CE
:100BF000A105B10509F07BC080910B0180FF93C076
:100C000076C00E943309DC0112960D911C91139756
:100C10000115110541F1D801ED91FC910190F08190
:100C2000E02DBE016B5E7F4FC8010995811117C091
:100C3000F80100851185ECCF113009F44EC0133056
:100C400091F48F89882309F445C0823081F440E80B
:100C50006BE08EE292E00E94CB09882321F08EEFB8
:100C60008093E80079C081E28093EB0075C0813009
:100C700029F440E86BE082E292E0EDCF833099F70F
:100C80000E943309DC011296ED90FC9013978E01BF
:100C90000F5F1F4F6801E114F10479F0D701ED9166
:100CA000FC910680F781E02DB801C7010995080F76
:100CB000111DF701E084F184EECFD8011C92F601FA
:100CC00001900020E9F73197BF016C197D0940E0E0
:100CD000C601C1CF6CE072E002C060E172E0611554
:100CE000710509F2FB01449150E080E840CF0FB656
:100CF000F894A895809160008861809360001092BC
:100D000060000FBEA895EE3F2AE0F20739F080910F
:100D1000FE0A9091FF0A91838083A1CF1092FF0A6F
:100D20001092FE0A9CCFEE3F8AE0F80731F08081F6
:100D300091819093FF0A8093FE0A87E797E791835A
:100D400080839BE088E10FB6F894A89580936000BB
:100D50000FBE9093600083CF6C960FB6F894DEBF01
:100D60000FBECDBFDF91CF91FF91EF91BF91AF91BA
:100D70009F918F917F916F915F914F913F912F91B3
:100D80001F910F91FF90EF90DF90CF900F900FBECB
:100D90000F901F9018951F920F920FB60F9211246B
:100DA0002F933F934F935F936F937F938F939F9373
:100DB000AF93BF93EF93FF93E091C001F091C10116
:100DC000309709F451C0968DA685B785858591FF2A
:100DD00004C09C91892329F447C09C91892309F080
:100DE00043C0A389B4899C918589809589238C937C
:100DF000868997890197F1F7608D718DA685B785F2
:100E0000558538E020E0CB010197F1F7822F90E083
:100E100095958795282F4C91452309F020683150EE
:100E200091F7868D81FD20958091BF0190E001961C
:100E30008F7399273091BE01381749F0A091BF01F7
:100E4000B0E0A258BE4F2C938093BF0103C0868DA3
:100E50008160868F828D938D0197F1F7A389B48984
:100E60009C918589892B8C93FF91EF91BF91AF91D4
:100E70009F918F917F916F915F914F913F912F91B2
:100E80000F900FBE0F901F901895362F90E0FC0129
:100E9000E85BFD4F4491FC01EE55FD4F2491FC01B0
:100EA000ED57FD4F8491882309F451C04423E1F1AB
:100EB00050E0FA013197EF30F105B0F5EA5AFF4FF3
:100EC0000C941710909180009F7707C0909180003C
:100ED0009F7D03C090918000977F9093800024C0F5
:100EE00094B59F7702C094B59F7D94BD1DC090912D
:100EF00090009F7707C0909190009F7D03C09091D4
:100F00009000977F909390000FC09091C0009F77C2
:100F100003C09091C0009F7D9093C00005C0909148
:100F2000C200977F9093C200E82FF0E0EE0FFF1F02
:100F3000E959FD4FA591B4918FB7F894EC91311117
:100F400003C020952E2301C02E2B2C938FBF089514
:100F5000CF93DF9390E0FC01EE55FD4F2491FC010F
:100F6000ED57FD4F8491882361F190E0880F991F20
:100F7000FC01E65CFD4FC591D491FC01E959FD4FA0
:100F8000A591B491611109C09FB7F894888120950B
:100F900082238883EC912E230BC0623061F49FB7CB
:100FA000F8943881822F809583238883EC912E2BAF
:100FB0002C939FBF06C08FB7F894E8812E2B28830F
:100FC0008FBFDF91CF9108953FB7F8948091580279
:100FD00090915902A0915A02B0915B0226B5A89B4C
:100FE00005C02F3F19F00196A11DB11D3FBFBA2FBB
:100FF000A92F982F8827820F911DA11DB11DBC011B
:10100000CD0142E0660F771F881F991F4A95D1F7DF
:10101000089580914502E0914602F0914702F894CC
:101020009181982B91832281982F90952923228357
:10103000A7E0B0E01197F1F7218192239183A3E219
:10104000B0E01197F1F790817894EFECF0E03197F0
:10105000F1F7982381E009F480E00895909145022A
:10106000E0914602F0914702392F309580FF13C07E
:10107000F8942281832F822382838181892B81832B
:10108000A3E2B0E01197F1F78281982B92837894D4
:1010900087ED90E012C0F8942281832F822382830F
:1010A0008181892B8183AFEFB0E01197F1F78281C5
:1010B000982B928378948FE090E00197F1F7089550
:1010C000EF92FF920F931F93CF93DF931F92CDB7B1
:1010D000DEB7082F88E0E82EF12C11E081E0912F97
:1010E000902309F480E069830E942E08110F81E0AB
:1010F000E81AF1086981E114F10481F7611113C064
:10110000F894E0914602F091470291818091450266
:10111000809598239183E0914602F0914702928155
:101120008923828378940F90DF91CF911F910F9143
:10113000FF90EF900895EF92FF920F931F93CF933C
:10114000DF931F92CDB7DEB7182F60E085E5998356
:101150000E946008E12E9981F92E8701085F1F4FD8
:1011600060E0F70181917F010E946008E016F106BE
:10117000B9F70F90DF91CF911F910F91FF90EF90F2
:10118000089590914502E0914602F0914702F8944B
:101190008181292F20958223818378948DE743E0F4
:1011A00050E0815021F1DA011197F1F730813923B4
:1011B000C1F3F8948281822382838181892B818388
:1011C0007894ABE7B7E01197F1F7F8948181282381
:1011D0002183A3E1B1E01197F1F78081982381E0A9
:1011E00009F080E07894E3E6F6E03197F1F70895AE
:1011F000FC018091D501811103C08FEF9FEF08950D
:101200009FB7F89482E08093E9002091F20030E0EB
:101210001216130614F421E030E02115310559F0BF
:10122000289884E68093D4018091F1008083809196
:10123000F200882319F09FBFC90108958BE68093BF
:10124000E800F9CF2FB7F89483E08093E9009091FC
:10125000E800892F807295FF04C09091F20080E42D
:10126000891B2FBF08958091600281110DC082E01B
:1012700080935C0284E080935D0210925F02109282
:101280005E0281E0809360028CE592E008958F9287
:101290009F92AF92BF92CF92DF92EF92FF926B013B
:1012A0007C010E94E4074B015C01C114D104E104FC
:1012B000F104F1F00E94E407DC01CB0188199909DF
:1012C000AA09BB09883E9340A105B10570F321E04E
:1012D000C21AD108E108F10888EE880E83E0981E52
:1012E000A11CB11CC114D104E104F10419F7DDCF34
:1012F000FF90EF90DF90CF90BF90AF909F908F9036
:1013000008951F920F920FB60F9211242F933F93BF
:101310008F939F93AF93BF93809154029091550206
:10132000A0915602B09157023091530223E0230F4F
:101330002D3720F40196A11DB11D05C026E8230F0D
:101340000296A11DB11D20935302809354029093E5
:101350005502A0935602B093570280915802909183
:101360005902A0915A02B0915B020196A11DB11DD4
:101370008093580290935902A0935A02B0935B0253
:10138000BF91AF919F918F913F912F910F900FBE81
:101390000F901F901895CF92DF92EF92FF920F93CC
:1013A0001F93CF93DF931F92CDB7DEB7182F062F71
:1013B000E42E862F880F8E5F99830E948D0183E033
:1013C0000E948D01F12EC12E9981D92E8C2D8F195D
:1013D000801798F4F601E7FE02C0849101C0808175
:1013E0000E948D01182F80E00E948D018123FFEF64
:1013F000CF1ADF0A8111EACF01C081E00F90DF919F
:10140000CF911F910F91FF90EF90DF90CF900895B3
:10141000CF93DF93CDB7DEB7AD970FB6F894DEBFAD
:101420000FBECDBF789484B5826084BD84B58160E1
:1014300084BD85B5826085BD85B5816085BD80919F
:101440006E00816080936E00109281008091810017
:10145000826080938100809181008160809381000F
:1014600080918000816080938000809191008260F3
:101470008093910080919100816080939100809190
:1014800090008160809390008091C100846080937F
:10149000C1008091C10082608093C1008091C10031
:1014A00081608093C1008091C30081608093C300FC
:1014B0008091C00082608093C0008091C2008160F2
:1014C0008093C20080917A00846080937A0080913A
:1014D0007A00826080937A0080917A0081608093A4
:1014E0007A0080917A00806880937A001092D5010A
:1014F0001092D1011092D2018091D7008160809327
:10150000D70080EA8093D80089B5806189BD89B50C
:10151000826089BD09B400FEFDCF61E070E080E02B
:1015200090E00E9447098091D8008F7C8061809371
:10153000D8008091E000807F8093E0008091E100FE
:101540008E7E8093E1008DE08093E200559A209A90
:10155000EEEFFFE7859194918B3F9C4D19F481E06C
:101560008093D0018FEF9FEF9093E3018093E2018E
:10157000109241021092400210923F0210923E02DD
:1015800010923D0210923C028DE991E0909343024B
:10159000809342028091320298EF980F943048F085
:1015A00022EF280F243028F026EE280F233008F0F1
:1015B00060C02DEB30E030933D0220933C022BE9DC
:1015C00031E030933F0220933E022CE231E0309331
:1015D000410220934002943058F092EF980F9430DB
:1015E00038F08A51833008F41DC2A0E0B0E01CC27C
:1015F000A8E6B0E0E8E6F0E0808181608C9380911D
:10160000320298EF980F943058F022EF280F2430D0
:1016100038F026EE280F233018F020E030E002C02A
:101620002BE630E030933A0220933902943010F4E4
:101630009CEF09C08E3071F08F3071F0803171F005
:10164000813171F09AEE980F81E001C0880F9A9570
:10165000EAF707C088E005C082E003C084E001C06B
:1016600081E080933B028091420290914302019776
:10167000F1F78091400290914102892B21F18091F4
:10168000C0019091C101E2E086329E07E1F000972F
:1016900011F00E94FB02809144028E7F80934402ED
:1016A0001092BF011092BE0186E292E09093C101B8
:1016B0008093C001E0913902F0913A0290818091CB
:1016C0003B02892B80836EEF86E292E00E946E02DD
:1016D00060E886E292E00E946E0269E371E086E2D1
:1016E00092E00E94470369E371E086E292E00E9483
:1016F00047038E010E5D1F4FF7E0F00FFCA72AE0B5
:10170000422E512C612C712C1E012AE2220E311C1A
:10171000CE010A969BA78AA7809152028111F1C03F
:101720000E94C108882309F4ECC060E080EF0E94A9
:101730006008EE24E394D12CC12CFF24F3940E9482
:1017400009088DA70E9409089DA5913019F48130E0
:10175000C9F437C02D2D30E098131EC0809150027F
:10176000F81638F4F901EB5BFD4F83818E2151F4BB
:1017700002C0F81639F090E0E8E0EF1560F0F09262
:10178000510209C0ED2DF0E0EB5BFD4F83818E2906
:10179000838391E009C0CF2CF901EB5BFD4F2381DE
:1017A0008E2D809582238383892F0E942E08F394A7
:1017B000EE0C19F4D394EE24E394F7E0FD1508F051
:1017C000BECF20E42F1508F09CC0C0925002C1107B
:1017D00003C081E08093520280914802882309F47B
:1017E00090C0A8E4B2E0F8018D918193E215F30571
:1017F000D9F7D801E0E09CA59A1739F08D91E82738
:10180000F0E0E653FF4FE491F6CF89A5E81749F0E1
:101810006AE471E086ED91E00E9447036CE571E0B7
:1018200007C08AA1803149F0883239F06FE571E054
:1018300086ED91E00E94470371C00E94C108C80173
:101840000E949B0861E084E40E9460080E94C10835
:10185000C8010E949B0860E08EEB0E946008FE01B8
:1018600031965F0198E0C92ED12CEE24E394F12C3F
:101870000E9409088111FE28EE0CF1E0CF1AD10870
:10188000B9F7F501F1925F018AA59BA5E817F90761
:1018900049F7109250021092520210925102E0E564
:1018A000F2E0129292E0E834F907D9F76A8170E029
:1018B000762F66278981682B072E000C880B990BE1
:1018C0000E94E80E20E030E040E85DE30E94740FE3
:1018D00020E030E040E951E40E94740F20E030E065
:1018E00040EA50E40E94D20D20E030E040E251E4B2
:1018F0000E943E0E20E030E040E052E40E94D20D13
:1019000011C0109250021092520210925102E0E562
:10191000F2E0129282E0E834F807D9F760E070E074
:101920008AE794EC0E94B00E6B017C014B01770FAB
:10193000AA08BB08B7FE26C0E091D601F091D701F6
:101940000190F081E02D6DE286ED91E0099522276E
:101950003327A901281939094A095B0919A2FE018F
:10196000B1965F01CA01B901A30192010E94F50F6E
:10197000605DF50162935F01211531054105510557
:1019800089F715C0A501940119A2CE0181965C01C9
:10199000CA01B901A30192010E94F50F605DF50132
:1019A00062935F01211531054105510589F7B501A4
:1019B00086ED91E00E9447036CE571E086ED91E0D1
:1019C0000E944703DF92CF9288E791E09F938F9325
:1019D00082EC91E09F938F930E94361062EC71E04D
:1019E00086E292E00E9447036EEF86E292E00E9458
:1019F0006E0260E886E292E00E946E0268EC70E09F
:101A000080E090E00E9447090F900F900F900F9098
:101A10000F900F9080E090E0892B09F47DCE0E941A
:101A2000000072CEA8E6B0E0833008F4E3CDE0E039
:101A3000F0E0E2CD89E291E09093270280932602C4
:101A400086E292E00C94FB021092D9011092D80128
:101A500088EE93E0A0E0B0E08093DA019093DB01A0
:101A6000A093DC01B093DD0187E191E09093D70171
:101A70008093D6018FEF9FEF9093E3018093E20173
:101A800060E084E00E94A807E6EAF2E0E491E093D7
:101A90004502E7E8F2E0E491F0E0EE0FFF1FEB58BB
:101AA000FD4F859194919093470280934602109246
:101AB00050021092520210925102E0E5F2E01292AE
:101AC00082E0E834F807D9F7109229021092280230
:101AD00088EE93E0A0E0B0E080932A0290932B027E
:101AE000A0932C02B0932D0289E291E090932702FB
:101AF0008093260210923D0210923C0210923F0207
:101B000010923E0210924102109240021092430243
:101B100010924202609144026E7F6D7F6093440296
:101B20006695617081E0682782E00E94450761E068
:101B300082E00E94A807E4EAF2E0E491E093360232
:101B4000E5E8F2E0E491F0E0EE0FFF1FE959FD4F08
:101B500085919491909338028093370260E083E0FE
:101B60000E94A8078091440281FD04C061E083E0E7
:101B70000E94450783E080933202E5EAF2E0E491B7
:101B8000E0933302E6E8F2E0E491F0E0EE0FFF1FAD
:101B9000EB58FD4F859194919093350280933402D8
:101BA00008955058BB27AA270E94E90D0C943A0FBC
:101BB0000E942C0F38F00E94330F20F039F49F3F21
:101BC00019F426F40C94290F0EF4E095E7FB0C941D
:101BD000230FE92F0E944B0F58F3BA1762077307C0
:101BE0008407950720F079F4A6F50C946D0F0EF498
:101BF000E0950B2EBA2FA02D0B01B90190010C011D
:101C0000CA01A0011124FF27591B99F0593F50F434
:101C1000503E68F11A16F040A22F232F342F44278C
:101C2000585FF3CF469537952795A795F040539584
:101C3000C9F77EF41F16BA0B620B730B840BBAF054
:101C40009150A1F0FF0FBB1F661F771F881FC2F7BF
:101C50000EC0BA0F621F731F841F48F487957795D3
:101C60006795B795F7959E3F08F0B0CF9395880F8D
:101C700008F09927EE0F9795879508950E94520EC8
:101C80000C943A0F0E94330F58F00E942C0F40F032
:101C900029F45F3F29F00C94230F51110C946E0F1F
:101CA0000C94290F0E944B0F68F39923B1F355232D
:101CB00091F3951B550BBB27AA276217730784075F
:101CC00038F09F5F5F4F220F331F441FAA1FA9F3F5
:101CD00035D00E2E3AF0E0E832D091505040E695E3
:101CE000001CCAF72BD0FE2F29D0660F771F881F44
:101CF000BB1F261737074807AB07B0E809F0BB0B37
:101D0000802DBF01FF2793585F4F3AF09E3F51054A
:101D100078F00C94230F0C946E0F5F3FE4F3983E21
:101D2000D4F3869577956795B795F7959F5FC9F733
:101D3000880F911D9695879597F90895E1E0660FB4
:101D4000771F881FBB1F621773078407BA0720F02D
:101D5000621B730B840BBA0BEE1F88F7E095089596
:101D60000E94B70E6894B1110C946E0F08950E94F2
:101D7000530F88F09F5798F0B92F9927B751B0F0BB
:101D8000E1F0660F771F881F991F1AF0BA95C9F7FF
:101D900014C0B13091F00E946D0FB1E008950C9421
:101DA0006D0F672F782F8827B85F39F0B93FCCF3D4
:101DB000869577956795B395D9F73EF4909580957C
:101DC000709561957F4F8F4F9F4F0895E89409C09C
:101DD00097FB3EF490958095709561957F4F8F4F5E
:101DE0009F4F9923A9F0F92F96E9BB279395F69574
:101DF000879577956795B795F111F8CFFAF4BB0FF2
:101E000011F460FF1BC06F5F7F4F8F4F9F4F16C055
:101E1000882311F096E911C0772321F09EE8872FDF
:101E2000762F05C0662371F096E8862F70E060E09B
:101E30002AF09A95660F771F881FDAF7880F969514
:101E4000879597F9089597F99F6780E870E060E0BB
:101E500008959FEF80EC089500240A941616170643
:101E600018060906089500240A941216130614068B
:101E700005060895092E0394000C11F4882352F0EE
:101E8000BB0F40F4BF2B11F460FF04C06F5F7F4FA6
:101E90008F4F9F4F089557FD9058440F551F59F08D
:101EA0005F3F71F04795880F97FB991F61F09F3F47
:101EB00079F087950895121613061406551FF2CF70
:101EC0004695F1DF08C0161617061806991FF1CFC0
:101ED00086957105610508940895E894BB276627E7
:101EE0007727CB0197F908950E94870F0C943A0F3A
:101EF0000E942C0F38F00E94330F20F0952311F030
:101F00000C94230F0C94290F11240C946E0F0E9433
:101F10004B0F70F3959FC1F3950F50E0551F629FD3
:101F2000F001729FBB27F00DB11D639FAA27F00D32
:101F3000B11DAA1F649F6627B00DA11D661F829F59
:101F40002227B00DA11D621F739FB00DA11D621F3E
:101F5000839FA00D611D221F749F3327A00D611D5B
:101F6000231F849F600D211D822F762F6A2F11243D
:101F70009F5750409AF0F1F088234AF0EE0FFF1F70
:101F8000BB1F661F771F881F91505040A9F79E3FC7
:101F9000510580F00C94230F0C946E0F5F3FE4F317
:101FA000983ED4F3869577956795B795F795E7951D
:101FB0009F5FC1F7FE2B880F911D9695879597F926
:101FC000089597FB072E16F4009407D077FD09D0EB
:101FD0000E941D1007FC05D03EF4909581959F4FFF
:101FE0000895709561957F4F0895A1E21A2EAA1B5E
:101FF000BB1BFD010DC0AA1FBB1FEE1FFF1FA217B9
:10200000B307E407F50720F0A21BB30BE40BF50BB5
:10201000661F771F881F991F1A9469F7609570953E
:10202000809590959B01AC01BD01CF010895EE0F05
:10203000FF1F0590F491E02D0994AA1BBB1B51E1F1
:1020400007C0AA1FBB1FA617B70710F0A61BB70B28
:10205000881F991F5A95A9F780959095BC01CD01CD
:10206000089581E090E0F8940C940E13AEE0B0E097
:10207000ECE3F0E10C94E5120D891E8986E08C8377
:102080001A8309838FEF9FE79E838D83AE01475E9E
:102090005F4F6F89788DCE0101960E9459102F8174
:1020A0003885F801E20FF31F10822E96E4E00C94BD
:1020B0000113ACE0B0E0EFE5F0E10C94D7127C0145
:1020C0006B018A01FC0117821682838181FFBDC1E9
:1020D000CE0101964C01F7019381F60193FD8591A4
:1020E00093FF81916F01882309F4ABC1853239F4E4
:1020F00093FD859193FF81916F01853229F4B7019A
:1021000090E00E944112E7CF512C312C20E0203288
:10211000A0F48B3269F030F4803259F0833269F4E4
:1021200020612CC08D3239F0803339F4216026C013
:102130002260246023C0286021C027FD27C030ED25
:10214000380F3A3078F426FF06C0FAE05F9E300D73
:102150001124532E13C08AE0389E300D1124332EE3
:1021600020620CC08E3221F426FD6BC1206406C0B3
:102170008C3611F4206802C0883641F4F60193FDD4
:10218000859193FF81916F018111C1CF982F9F7D20
:102190009554933028F40C5F1F4FFFE3F9830DC073
:1021A000833631F0833771F0833509F05BC022C08C
:1021B000F801808189830E5F1F4F44244394512C82
:1021C000540115C03801F2E06F0E711CF801A080B7
:1021D000B18026FF03C0652D70E002C06FEF7FEF76
:1021E000C5012C870E9436122C0183012C852F7784
:1021F000222E17C03801F2E06F0E711CF801A0808A
:10220000B18026FF03C0652D70E002C06FEF7FEF45
:10221000C5012C870E942B122C012C852068222EB0
:10222000830123FC1BC0832D90E048165906B0F4AF
:10223000B70180E290E00E9441123A94F4CFF50198
:1022400027FC859127FE81915F01B70190E00E94F4
:10225000411231103A94F1E04F1A510841145104DF
:1022600071F7E5C0843611F0893639F5F80127FF9A
:1022700007C060817181828193810C5F1F4F08C00C
:1022800060817181072E000C880B990B0E5F1F4F28
:102290002F76722E97FF09C0909580957095619565
:1022A0007F4F8F4F9F4F2068722E2AE030E0A401AD
:1022B0000E947912A82EA81844C0853729F42F7ED1
:1022C000B22E2AE030E025C0F22FF97FBF2E8F36E4
:1022D000C1F018F4883579F0B4C0803719F0883728
:1022E00021F0AFC02F2F2061B22EB4FE0DC08B2D78
:1022F0008460B82E09C024FF0AC09F2F9660B92EB3
:1023000006C028E030E005C020E130E002C020E156
:1023100032E0F801B7FE07C060817181828193814C
:102320000C5F1F4F06C06081718180E090E00E5FFE
:102330001F4FA4010E947912A82EA818FB2DFF7729
:102340007F2E76FE0BC0372D3E7FA51450F474FE11
:102350000AC072FC08C0372D3E7E05C0BA2C372D4E
:1023600003C0BA2C01C0B52C34FF0DC0FE01EA0D2C
:10237000F11D8081803311F4397E09C032FF06C01F
:10238000B394B39404C0832F867809F0B39433FDDB
:1023900013C030FF06C05A2CB31418F4530C5B184A
:1023A000B32CB31468F4B70180E290E03C870E943C
:1023B0004112B3943C85F5CFB31410F43B1801C01F
:1023C000312C34FF12C0B70180E390E03C870E94BB
:1023D00041123C8532FF17C031FD03C088E790E011
:1023E00002C088E590E0B7010CC0832F867859F0D1
:1023F00031FF02C08BE201C080E237FD8DE2B70100
:1024000090E00E944112A51438F4B70180E390E0F7
:102410000E9441125A94F7CFAA94F401EA0DF11DDB
:102420008081B70190E00E944112A110F5CF3320C6
:1024300009F451CEB70180E290E00E9441123A9433
:10244000F6CFF7018681978102C08FEF9FEF2C9620
:10245000E2E10C94F312FC01059061507040011010
:10246000D8F7809590958E0F9F1F0895FC016150BD
:10247000704001900110D8F7809590958E0F9F1FA6
:1024800008950F931F93CF93DF93FB01238121FDC9
:1024900003C08FEF9FEF28C022FF16C046815781EF
:1024A000248135814217530744F4A081B1819D01F5
:1024B0002F5F3F4F318320838C93268137812F5F9D
:1024C0003F4F3783268310C0EB01092F182F00845C
:1024D000F185E02D0995892BE1F68E819F8101968A
:1024E0009F838E83812F902FDF91CF911F910F912A
:1024F0000895FA01AA27283051F1203181F1E8949A
:102500006F936E7F6E5F7F4F8F4F9F4FAF4FB1E0E6
:102510003ED0B4E03CD0670F781F891F9A1FA11DE1
:10252000680F791F8A1F911DA11D6A0F711D811DE2
:10253000911DA11D20D009F468943F912AE0269FA7
:1025400011243019305D3193DEF6CF010895462F06
:102550004770405D4193B3E00FD0C9F7F6CF462FE7
:102560004F70405D4A3318F0495D31FD4052419350
:1025700002D0A9F7EACFB4E0A6959795879577950D
:102580006795BA95C9F700976105710508959B0194
:10259000AC010A2E06945795479537952795BA951D
:1025A000C9F7620F731F841F951FA01D08952F92F6
:1025B0003F924F925F926F927F928F929F92AF92D3
:1025C000BF92CF92DF92EF92FF920F931F93CF9320
:1025D000DF93CDB7DEB7CA1BDB0B0FB6F894DEBFB7
:1025E0000FBECDBF09942A88398848885F846E84DD
:1025F0007D848C849B84AA84B984C884DF80EE8027
:10260000FD800C811B81AA81B981CE0FD11D0FB62F
:10261000F894DEBF0FBECDBFED01089511E0C2E614
:10262000D1E004C0FE010E9417102196C336D107E5
:06263000C9F7F894FFCF8A
:10263600FFFFFFFF00E100000000000000C18081F5
:10264600000000000000001A025C03E10330023BB8
:10265600020904E503000000006E02EF0112036D9B
:1026660002C202DA02550204002020202020202087
:102676002020202020202020200043524320697360
:10268600206E6F742076616C696421000D0A004427
:102696006576696365206973206E6F742072656361
:0E26A6006F676E697A65640025336420460014
:00000001FF
