:100000000C945E000C9486000C9486000C94860080
:100010000C9486000C9486000C9486000C94860048
:100020000C9486000C9486000C9486000C94860038
:100030000C9486000C9486000C9486000C94860028
:100040000C9441030C9486000C94B1030C948B0324
:100050000C9486000C9486000C9486000C94860008
:100060000C94E3030C948600000000002400270099
:100070002A0000000000250028002B0004040404CE
:100080000404040402020202020203030303030342
:10009000010204081020408001020408102001021F
:1000A00004081020000000080002010000030407FB
:1000B00000000000000000001105E10611241FBE31
:1000C000CFEFD8E0DEBFCDBF22E0AAE3B1E001C0B0
:1000D0001D92AD38B207E1F711E0A0E0B1E0E6E330
:1000E000F3E102C005900D92AA33B107D9F710E0F1
:1000F000CDE5D0E004C02197FE010E947C07CC35FD
:10010000D107C9F70E9458050C948E090C94000081
:1001100090E0FC01EC55FF4F2491FC01E057FF4FAC
:100120003491FC01E458FF4FE491EE23B1F1222316
:1001300039F1233091F038F42130A9F0223001F563
:1001400084B58F7D12C0273091F02830A1F0243083
:10015000B9F4809180008F7D03C0809180008F77FB
:10016000809380000DC084B58F7784BD09C08091D5
:10017000B0008F7703C08091B0008F7D8093B00076
:10018000F0E0EE0FFF1FEE58FF4FA591B4918FB72F
:10019000F894EC913E2B3C938FBF0895CF92DF9261
:1001A000EF92FF920F931F93CF93DF936C017A012D
:1001B0008B01C0E0D0E0CE15DF0589F0D8016D914C
:1001C0008D01D601ED91FC910190F081E02DC601E9
:1001D0000995892B11F47E0102C02196ECCFC7014D
:1001E000DF91CF911F910F91FF90EF90DF90CF9013
:1001F0000895E0915A01F0915B01309729F0109237
:10020000C7011092C60109940895CF93DF93AC0102
:10021000E091CE01F091CF013097F1F09091C901BA
:100220008091C8019817C0F090E0292F30E0261780
:10023000370754F4D901A65CBE4FEA01C20FD31FA1
:1002400088818C939F5FF1CF1092C9016093C801A0
:10025000CB01DF91CF910994DF91CF910895FC01FB
:10026000538D448D252F30E0842F90E0821B930B1B
:10027000541710F0CF96089501970895FC01918DC1
:10028000828D981761F0828DDF01A80FB11D5D96F8
:100290008C91928D9F5F9F73928F90E008958FEF66
:1002A0009FEF0895FC01918D828D981731F0828D1A
:1002B000E80FF11D858D90E008958FEF9FEF089571
:1002C000FC01918D228D892F90E0805C9F4F821BD5
:1002D00091098F73992708958AED91E00E9460013A
:1002E00021E0892B09F420E0822F0895FC01848D00
:1002F000DF01A80FB11DA35ABF4F2C91848D90E050
:1003000001968F739927848FA689B7892C93A0892A
:10031000B1898C9180648C93938D848D981306C0E1
:100320000288F389E02D80818F7D80830895EF928C
:10033000FF920F931F93CF93DF93EC0181E0888F9F
:100340009B8D8C8D981305C0E889F989808185FD86
:1003500024C0F62E0B8D10E00F5F1F4F0F73112777
:10036000E02E8C8DE8120CC00FB607FCFACFE8899E
:10037000F989808185FFF5CFCE010E947601F1CF0A
:100380008B8DFE01E80FF11DE35AFF4FF0820B8FBA
:10039000EA89FB898081806207C0EE89FF896083DA
:1003A000E889F98980818064808381E090E0DF9131
:1003B000CF911F910F91FF90EF900895CF93DF930E
:1003C000EC01888D8823C9F0EA89FB89808185FD4D
:1003D00005C0A889B9898C9186FD0FC00FB607FCAE
:1003E000F5CF808185FFF2CFA889B9898C9185FFEF
:1003F000EDCFCE010E947601E7CFDF91CF91089536
:1004000080E090E0892B29F00E946C0181110C940E
:100410000000089585ED8093BC008091BC0084FDB0
:10042000FCCF1092C501089540917C01262F30E049
:10043000240F311D21323105DCF42091C501243017
:10044000C9F4FC0180E090E0861758F430917C01FB
:100450002191DC01A45ABE4FA30FB11D2C9301962C
:10046000F3CF80917C01680F60937C0180E0089558
:1004700081E0089582E008950895E091C901809196
:10048000C801E81730F4F0E0E65CFE4F808190E0B0
:1004900008958FEF9FEF08959091C9018091C80151
:1004A000981750F4E92FF0E0E65CFE4F208130E031
:1004B0009F5F9093C90102C02FEF3FEFC9010895DC
:1004C0008091C80190E02091C901821B9109089593
:1004D000CF93DF9300D0CDB7DEB7CB01642F498334
:1004E0005A830E9414024981842F5A81952F0F90BC
:1004F0000F90DF91CF910895CF93DF931F92CDB7E7
:10050000DEB7698361E0CE0101960E94140281E0AA
:1005100090E00F90DF91CF910895089580E090E0F2
:100520000895009769F0FC0101900020E9F73197E8
:10053000AF01481B590BBC018AED91E00C94CE0031
:1005400080E090E008950F931F93CF93DF93EC0129
:1005500088819981009729F02A813B8126173707E6
:1005600088F48B016F5F7F4F0E94AF08009761F0A6
:10057000998388831B830A832C813D81232B11F46B
:10058000FC01108281E001C080E0DF91CF911F91DA
:100590000F910895EF92FF920F931F93CF93DF93E4
:1005A000EC017B018A01BA010E94A30228813981F2
:1005B00081110DC02115310519F0C9010E941708DC
:1005C000198218821D821C821B821A8206C01D831A
:1005D0000C83B701C9010E948709CE01DF91CF9139
:1005E0001F910F91FF90EF900895EF92FF920F935C
:1005F0001F93CF93DF9300D0CDB7DEB7EE24E39403
:100600009091C8018091C901981769F187E792E03C
:100610000E944C02F82E89831A8200918702109161
:1006200088020F5F1F4FB80183E892E00E94A30287
:10063000882399F02091830230918402809187026F
:1006400090918802BE016F5F7F4F820F931F0E94BF
:10065000870910938802009387028AE0F812D0CFAE
:10066000E092D001CDCF87E792E00F900F90DF911D
:10067000CF911F910F91FF90EF900C944C020E942C
:1006800079091F920F920FB60F9211242F933F9367
:100690008F939F93AF93BF938091D6019091D70191
:1006A000A091D801B091D9013091D50123E0230F59
:1006B0002D3720F40196A11DB11D05C026E8230F9A
:1006C0000296A11DB11D2093D5018093D601909370
:1006D000D701A093D801B093D9018091D101909115
:1006E000D201A091D301B091D4010196A11DB11DF9
:1006F0008093D1019093D201A093D301B093D40100
:10070000BF91AF919F918F913F912F910F900FBE0D
:100710000F901F9018951F920F920FB60F921124F1
:100720002F933F934F935F936F937F938F939F93F9
:10073000AF93BF93EF93FF938AED91E00E94760110
:10074000FF91EF91BF91AF919F918F917F916F91A9
:100750005F914F913F912F910F900FBE0F901F907F
:1007600018951F920F920FB60F9211242F938F930B
:100770009F93EF93FF93E091EA01F091EB01808169
:10078000E091F001F091F10182FD12C09081809121
:10079000F3018F5F8F732091F401821751F0E09184
:1007A000F301F0E0E652FE4F958F8093F30101C014
:1007B0008081FF91EF919F918F912F910F900FBEAC
:1007C0000F901F9018951F920F920FB60F92112441
:1007D0002F933F934F935F936F937F938F939F9349
:1007E000AF93BF93EF93FF938091B900887F8036DA
:1007F00009F49CC068F5883209F45BC090F480313C
:1008000009F454C038F4882309F4F6C0883009F498
:100810004DC0F6C0883109F44CC0803209F45DC087
:10082000EFC0803409F468C048F4803309F455C03F
:10083000883309F0E5C080939F01D8C0803509F462
:100840004FC0883509F45DC0883409F0D9C0D6C0DE
:10085000883909F4C7C0A8F4883709F467C038F4A8
:10086000883609F463C0803709F460C0C9C088388D
:1008700009F4B8C0803909F45FC0803809F0C0C0FD
:100880005BC0803B09F486C038F4803A09F466C046
:10089000883A09F47FC0B4C0803C09F4A7C0883C02
:1008A00009F4A4C0883B09F48AC0AAC08091C2019F
:1008B00010C09091C1018091C001981770F5E0912E
:1008C000C10181E08E0F8093C101F0E0E056FE4F40
:1008D00080818093BB0085EC86C080939F018EC091
:1008E000E091C10181E08E0F8093C1018091BB0036
:1008F000F0E0E056FE4F80839091C1018091C001ED
:100900006EC0E091C10181E08E0F8093C1018091A2
:10091000BB00F0E0E056FE4F80838091C40181115E
:100920006DC081E08093C30184EA61C083E080935D
:10093000C50110929E01CFCF80919E01803208F0B8
:1009400051C0E0919E0181E08E0F80939E018091C5
:10095000BB00F0E0E258FE4F8083BDCF85EC809372
:10096000BC001092C50180919E01803230F4E0916C
:100970009E01F0E0E258FE4F108260919E0170E00F
:10098000E091CA01F091CB018EE791E009951092B8
:100990009E0136C084E08093C50110927D011092C3
:1009A0007C01E091CC01F091CD01099580917C0111
:1009B000811105C081E080937C0110925C01E0917F
:1009C0007D0181E08E0F80937D01F0E0E45AFE4FBF
:1009D00080818093BB0090917D0180917C0198176C
:1009E00008F479CF85E88093BC000AC085EC809339
:1009F000BC001092C50104C010929F010E940A021F
:100A0000FF91EF91BF91AF919F918F917F916F91E6
:100A10005F914F913F912F910F900FBE0F901F90BC
:100A20001895EAEDF1E01382128288EE93E0A0E0DF
:100A3000B0E084839583A683B7832AE031E03183D5
:100A4000208325EC30E03587248724EC30E037879D
:100A5000268720EC30E0318B208B21EC30E0338B8B
:100A6000228B22EC30E0358B248B26EC30E0378B68
:100A7000268B118E128E138E148EE7E7F2E013820E
:100A8000128284839583A683B7838CE191E091835E
:100A90008083E3E8F2E011821082138212821582D1
:100AA000148240E050E069E371E0CF010C94CA0287
:100AB000CF93DF93CDB7DEB7A1970FB6F894DEBF23
:100AC0000FBECDBF789484B5826084BD84B581604B
:100AD00084BD85B5826085BD85B5816085BD809109
:100AE0006E00816080936E00109281008091810081
:100AF0008260809381008091810081608093810079
:100B0000809180008160809380008091B10084603A
:100B10008093B1008091B00081608093B00080919B
:100B20007A00846080937A0080917A00826080935A
:100B30007A0080917A00816080937A0080917A00B7
:100B4000806880937A001092C100E091EA01F091F0
:100B5000EB0182E08083E091E601F091E7011082F1
:100B6000E091E801F091E9018FEC80831092F201AD
:100B7000E091EE01F091EF0186E08083E091EC01DD
:100B8000F091ED01808180618083E091EC01F09132
:100B9000ED01808188608083E091EC01F091ED01AE
:100BA000808180688083E091EC01F091ED0180818B
:100BB0008F7D808380E18093BA0089EF90E09093ED
:100BC000CD018093CC0185E091E09093CB0180939F
:100BD000CA011092C9011092C8011092C701109267
:100BE000C6011092C50181E08093C4011092C30137
:100BF00082E10E94880083E10E9488008091B90010
:100C00008E7F8093B9008091B9008D7F8093B90069
:100C100088E48093B80085E48093BC0085EF92E07F
:100C20009093CF018093CE01E2E9F0E02491EEE7CA
:100C3000F0E08491882399F090E0880F991FFC01DF
:100C4000E859FF4FA591B491FC01EE58FF4F8591F3
:100C500094918FB7F894EC91E22BEC938FBFE7E976
:100C6000F0E02491E3E8F0E084918823C9F090E07B
:100C7000880F991FFC01E859FF4F45915491FC01E1
:100C8000EE58FF4FA591B4919FB7F894FA01808177
:100C90002095822380838C91E22FE823EC939FBFE1
:100CA00068EC70E083E892E00E94A3028AE0882E5C
:100CB000912CA12CB12C8091D001882309F47EC005
:100CC0001092D0018091870290918802892B09F4BB
:100CD00075C0E0918302F0918402309709F46EC0F0
:100CE00080818B3609F06AC08AE291E00E9491020D
:100CF00087E391E00E94910240E050E069E371E0F7
:100D000083E892E00E94CA028091D001811103C061
:100D10000E94F502F9CF809183029091840200979E
:100D200061F10E94E7066B017C0197FF29C0E09109
:100D3000DA01F091DB010190F081E02D6DE28AEDA6
:100D400091E0099522273327A9012C193D094E0965
:100D50005F0919A28E010F5D1F4FCA01B901A501DC
:100D600094010E945A07605DF80162938F0121157A
:100D700031054105510589F718C0C12CD12C7601E8
:100D8000A701960119A28E010F5D1F4FCA01B9017B
:100D9000A50194010E945A07605DF80162938F01DA
:100DA000211531054105510589F7C8010E949102BD
:100DB00087E391E00E9491021092D0010E9400020C
:100DC0007ACF80918302909184020C9417081F932C
:100DD000FC0199278827BC01E89411911032E9F3AE
:100DE000193010F01E30C8F31B3251F01D3249F497
:100DF000689406C00E940E07610F711D811D911D30
:100E0000119110531A30B0F33EF49095809570957F
:100E100061957F4F8F4F9F4F1F910895592F482FF6
:100E2000372F262F660F771F881F991F660F771F92
:100E3000881F991F620F731F841F951F660F771FEE
:100E4000881F991F08952F923F924F925F926F9241
:100E50007F928F929F92AF92BF92CF92DF92EF924A
:100E6000FF920F931F93CF93DF93CDB7DEB7CA1BCB
:100E7000DB0B0FB6F894DEBF0FBECDBF09942A88F6
:100E8000398848885F846E847D848C849B84AA849E
:100E9000B984C884DF80EE80FD800C811B81AA812B
:100EA000B981CE0FD11D0FB6F894DEBF0FBECDBFF6
:100EB000ED010895A1E21A2EAA1BBB1BFD010DC076
:100EC000AA1FBB1FEE1FFF1FA217B307E407F507FA
:100ED00020F0A21BB30BE40BF50B661F771F881FD6
:100EE000991F1A9469F760957095809590959B016C
:100EF000AC01BD01CF010895EE0FFF1F0590F491E5
:100F0000E02D0994CF93DF938230910510F482E0B5
:100F100090E0E0918B02F0918C0220E030E0C0E0A4
:100F2000D0E0309711F14081518148175907C0F046
:100F30004817590761F482819381209719F09B83A8
:100F40008A832BC090938C0280938B0226C021153C
:100F5000310519F04217530718F49A01BE01DF0159
:100F6000EF010280F381E02DDCCF2115310509F17D
:100F7000281B390B2430310590F412968D919C91E9
:100F800013976115710521F0FB019383828304C0DF
:100F900090938C0280938B02FD01329644C0FD0138
:100FA000E20FF31F81939193225031092D933C93CB
:100FB0003AC02091890230918A02232B41F420917A
:100FC00002013091030130938A022093890220911B
:100FD0000001309101012115310541F42DB73EB7D3
:100FE0004091040150910501241B350BE0918902C9
:100FF000F0918A02E217F307A0F42E1B3F0B28178B
:10100000390778F0AC014E5F5F4F2417350748F081
:101010004E0F5F1F50938A024093890281939193F0
:1010200002C0E0E0F0E0CF01DF91CF9108950F938F
:101030001F93CF93DF93009709F48CC0FC01329784
:101040001382128200918B0210918C0201151105FE
:1010500081F420813181820F931F20918902309188
:101060008A022817390779F5F0938A02E0938902FA
:1010700071C0D80140E050E0AE17BF0750F412969F
:101080002D913C911397AD012115310509F1D9013D
:10109000F3CF9D01DA013383228360817181860F52
:1010A000971F8217930769F4EC0128813981260F75
:1010B000371F2E5F3F4F318320838A819B8193832B
:1010C0008283452B29F4F0938C02E0938B0242C07B
:1010D0001396FC93EE931297ED01499159919E015D
:1010E000240F351FE217F30771F480819181840F7B
:1010F000951F029611969C938E93828193811396ED
:101100009C938E931297E0E0F0E0D80112968D91B7
:101110009C911397009719F0F8018C01F6CF8D91EF
:101120009C9198012E5F3F4F820F931F209189025F
:1011300030918A022817390769F4309729F4109200
:101140008C0210928B0202C01382128210938A02C8
:1011500000938902DF91CF911F910F910895A0E034
:10116000B0E0E5EBF8E00C942707EC01009721F4E0
:10117000CB010E948207B8C0FC01E60FF71F9C015B
:1011800022503109E217F30708F4ACC0D9010D91E0
:101190001C91119706171707B0F00530110508F4D8
:1011A0009FC0C80104978617970708F499C002509A
:1011B0001109061B170B019311936D937C93CF01BB
:1011C0000E9417088DC05B01A01AB10A4C01800E65
:1011D000911EA0918B02B0918C0240E050E0E12C76
:1011E000F12C109709F44AC0A815B905D1F56D90F6
:1011F0007C901197630182E0C80ED11CCA14DB04F5
:1012000080F1A3014A195B096A0182E0C80ED11C72
:101210001296BC9012971396AC91B5E0CB16D10400
:1012200040F0B282A38351834083D9016D937C93B4
:101230000AC00E5F1F4FC301800F911FF9019183F8
:101240008083EB2DFA2FE114F10431F0D7011396CE
:10125000FC93EE93129744C0F0938C02E0938B02C0
:101260003FC08D919C9111974817590708F4AC0124
:101270007D0112960D90BC91A02DB3CF8091890273
:1012800090918A0288159905E1F446175707C8F42A
:101290008091000190910101009741F48DB79EB7B4
:1012A0004091040150910501841B950BE817F90743
:1012B000C8F4F0938A02E0938902F9017183608394
:1012C0000FC0CB010E9482077C01009759F0A80152
:1012D000BE010E947E09CE010E941708C70104C00A
:1012E000CE0102C080E090E0CDB7DEB7EEE00C9416
:1012F000430781E090E0F8940C948E09FB01DC0137
:1013000002C001900D9241505040D8F70895FB0162
:10131000DC0101900D920020E1F7089510E0CDE589
:10132000D0E004C0FE010E947C072196CE35D10793
:06133000C9F7F894FFCF9D
:1013360000008D028000000000009701CE002F0102
:10134600DE0160013E015201000000007C026802DD
:101356008E023C0260024C023D02456E74657220AC
:0A1366004E756D626572000D0A00FD
:00000001FF
